:020000040800F2
:100000009807002091010008871400080F0E0008CF
:100010008314000881080008F51F00080000000094
:10002000000000000000000000000000EF1D0008BC
:10003000250A0008000000008D170008D91E0008DE
:10004000AB010008AB010008AB010008AB010008E0
:10005000AB010008AB010008AB010008AB010008D0
:10006000AB010008AB010008AB010008AB010008C0
:10007000AB010008AB010008AB010008AB010008B0
:10008000AB010008AB010008AB010008AB010008A0
:10009000AB010008AB010008AB010008F90A000839
:1000A000AB010008AB010008AB010008AB01000880
:1000B000AB010008AB010008AB010008AB01000870
:1000C000AB010008AB010008AB010008AB01000860
:1000D000AB0100083D1F0008AB010008AB010008A0
:1000E000AB010008AB010008AB01000800F002F80A
:1000F00000F03FF80AA090E8000C82448344AAF183
:100100000107DA4501D100F034F8AFF2090EBAE880
:100110000F0013F0010F18BFFB1A43F0010318473B
:10012000B4440000D4440000103A24BF78C878C119
:10013000FAD8520724BF30C830C144BF04680C60ED
:10014000704700000023002400250026103A28BF35
:1001500078C1FBD8520728BF30C148BF0B60704739
:10016000632900F0E080002070471FB51FBD10B567
:1001700010BD00F013F91146FFF7F7FF01F072FF11
:1001800000F031F903B4FFF7F2FF03BC01F034FFD4
:100190000948804709480047FEE7FEE7FEE7FEE71B
:1001A000FEE7FEE7FEE7FEE7FEE7FEE70448054957
:1001B000054A064B70470000DD1E0008ED000008F0
:1001C0009801002098070020980300209803002041
:1001D000704700000FB4044910B503AA029800F05C
:1001E000AFF810BC5DF814FB0C0000202DE9F041C5
:1001F0000E460446002020622046E168884730B35E
:10020000252805D0D4E901219047206A401CF2E757
:10021000E168204600278847050018D0A5F1410075
:10022000192802D820354FF4006732462946204667
:100230002760FFF795FF40B1012804D0F61D26F096
:1002400007060836D8E7361DD6E72846DAE7206ADB
:10025000BDE8F08170B50C460546012A05D0287826
:10026000800600D5EA69002302E0012305E05B1C5B
:10027000934202D2E05C0028F9D1A869E618C01ABE
:10028000A861286A184428622846AFF3008004E079
:10029000D5E9012114F8010B9047B442F8D3284660
:1002A000AFF3008070BD10B5203AC0F00B80B1E80C
:1002B0001850203AA0E81850B1E81850A0E818509B
:1002C000BFF4F5AF5FEA027C24BFB1E81850A0E8A4
:1002D000185044BF18C918C0BDE810405FEA827CBE
:1002E00024BF51F8043B40F8043B08BF7047D207D5
:1002F00028BF31F8023B48BF11F8012B28BF20F876
:10030000023B48BF00F8012B7047704770477047A9
:10031000704710B5436913B1AFF3008001E0FFF7F8
:1003200099FF012010BD127800F124010A7000220B
:100330004A700122EDE711684FF0FF32E9E7000053
:10034000074B70B50D467B4400F011F80446284673
:1003500000F020F810B14FF0FF3070BD204670BDA6
:10036000FF1C000001694A1C02610878704700B553
:100370008FB0CDE901310021059105497944CDE9DE
:10038000031011466846FFF731FF0FB000BD0000B3
:10039000E5FFFFFF007B00F080007047754600F02E
:1003A0002BF8AE4605006946534620F00700854607
:1003B00018B020B5FFF7FAFEBDE820404FF0000668
:1003C0004FF000074FF000084FF0000B21F007013D
:1003D000AC46ACE8C009ACE8C009ACE8C009ACE880
:1003E000C0098D46704710B50446AFF30080204623
:1003F000BDE81040FFF7C6BE00487047340100203A
:10040000CA430260704721B1826842F001028260F3
:1004100003E0826822F001028260704700B585B077
:1004200000F082F800F054F801208DF8050000205B
:1004300003904FF4602002900020009003208DF87C
:10044000100001208DF8040069461A4800F0A4F855
:10045000022301220421174800F0C6F802231A469D
:100460000521144800F0C0F802230322012111489D
:1004700000F0BAF801210F4800F01EF801210D48E4
:10048000FFF7C1FF0B4800F00BF900BF094800F06F
:1004900078F80028FAD1074800F012F900BF0548A3
:1004A00000F05CF80028FAD10121024800F0FDF8C4
:1004B00005B000BD0024014021B1826842F4807281
:1004C000826003E0826822F48072826070470000DC
:1004D00000B58BB0114800F0E1F903200390002033
:1004E00002900A900E4801904FF48060079080209F
:1004F0000590202008900B48009080150690002061
:1005000004904FF4005009906946044800F06CFADA
:100510000121024800F0B6F90BB000BD080002400E
:10052000120000204C24014008B50121042001F0F4
:100530004FF90121084601F02BF90121480201F091
:1005400047F93220ADF8000000208DF8030069461D
:10055000014800F0C3FB08BD00080140014600202F
:100560008A6802F004020AB1012000E0002070470E
:100570000246002013680B400BB1012000E0002070
:100580007047014600208A6802F008020AB1012083
:1005900000E000207047000030B502460020002334
:1005A00050680F4C20400D790C6844EA0524204324
:1005B000506090680B4C2040D1E902542C434D7997
:1005C00044EA450420439060D06A20F470000C7C1B
:1005D000641EE4B2234340EA0350D06230BD000001
:1005E000FFFEF0FFFDF7F1FFF0B504460D460020D9
:1005F0000021092D11DDE068A5F10A0606EB46078A
:10060000072606FA07F18843A5F10A0606EB460617
:1006100003FA06F10843E0600CE0206905EB4507AA
:10062000072606FA07F1884305EB450603FA06F1AB
:1006300008432061072A0FDA606B561E06EB860717
:100640001F2606FA07F18843561E06EB860605FAB2
:1006500006F10843606322E00D2A0FDA206BD61FF3
:1006600006EB86071F2606FA07F18843D61F06EB1E
:10067000860605FA06F10843206310E0E06AA2F15D
:100680000D0606EB86071F2606FA07F18843A2F13E
:100690000D0606EB860605FA06F10843E062F0BD9A
:1006A000816841F008018160704721B1826842F49D
:1006B000A002826003E0826822F4A0028260704798
:1006C000816841F004018160704710B501214FF04D
:1006D000C05001F06DF8012001F052F810BD10B5C6
:1006E000012001F085F8002001F082F810BD000023
:1006F00008B5014600200090034800900098084487
:1007000000900098008808BD006C004008B50022E9
:100710000092044A0092009A02440092009A1160EA
:1007200008BD0000006C004010B5002411E000225C
:100730002021204800F066FBC82001F06DFC01225A
:1007400020211C4800F05EFBC82001F065FC601C05
:1007500084B2962CEBDB002413E000222021154804
:1007600000F050FB4FF4967001F056FC012220215E
:10077000104800F047FB4FF4967001F04DFC601CF0
:1007800084B2642CE9DB002411E000222021094816
:1007900000F038FB642001F03FFC012220210548D5
:1007A00000F030FB642001F037FC601C84B2FA2CAE
:1007B000EBDB10BD000C014010B5002411E000225D
:1007C0002021214800F01EFBC82001F025FC012259
:1007D00020211D4800F016FBC82001F01DFC601C04
:1007E00084B2B4F5E17FEADB002413E0002220218B
:1007F000154800F007FB4FF4C87001F00DFC012212
:100800002021114800F0FEFA4FF4C87001F004FCFA
:10081000601C84B2FA2CE9DB002411E000222021C4
:10082000094800F0EFFA642001F0F6FB01222021D4
:10083000054800F0E7FA642001F0EEFB601C84B28A
:10084000B4F5E17FEADB10BD000C014008B50121E1
:10085000082000F0BDFF10208DF803002020ADF827
:10086000000003208DF802006946044800F036FAC3
:1008700001222021014800F0C5FA08BD000C01400A
:1008800000BFFEE721B1026842F00102026004E00D
:1008900002684FF6FE731A400260704701684FF617
:1008A000FE72114001600021016041608160C16001
:1008B0004B49884208D14A490839496841F00F013B
:1008C000474A083A51608AE045491431884208D1C4
:1008D00043490839496841F0F001414A083A5160FA
:1008E0007DE03F492831884208D13D4908394968AF
:1008F00041F470613A4A083A516070E038493C313D
:10090000884208D136490839496841F47041344A6F
:10091000083A516063E032495031884208D1304989
:100920000839496841F470212D4A083A516056E06F
:100930002B496431884208D129490839496841F472
:100940007001274A083A516049E0254978318842C8
:1009500008D123490839496841F07061204A083AB2
:1009600051603CE01F49884206D1011F096841F0EF
:100970000F01021F116032E01A491431884208D178
:100980001849091F096841F0F001164A121F116049
:1009900025E014492831884208D11249091F096805
:1009A00041F470610F4A121F116018E00D493C318B
:1009B000884208D10B49091F096841F47041094A6E
:1009C000121F11600BE007495031884207D10549D9
:1009D000091F096841F47021024A121F1160704713
:1009E000080002400804024010B50022026847F6E1
:1009F000F0739A430C6A8B6823430C6923434C6958
:100A000023438C692343CC6923434C6A23438C6A78
:100A100023431A430260CB6843600B6883604B68D2
:100A2000C36010BD70470EB50121042000F0D0FE58
:100A30000121084600F0CCFE0621002000F02EF92E
:100A40004020009001208DF8060000208DF8040061
:100A50000C208DF80500684600F0BCF817208DF8D2
:100A6000080001208DF80B0002208DF809008DF898
:100A70000A0002A800F02EFD0721002000F00EF968
:100A80008020009001208DF8060000208DF80400E1
:100A90000C208DF80500684600F09CF817208DF8B2
:100AA000080001208DF80B0002208DF809008DF858
:100AB0000A0002A800F00EFD0EBD000008B50121DD
:100AC0000C2000F085FEC020ADF8000048208DF815
:100AD00003006946064800F001F90420ADF8000063
:100AE00048208DF803006946024800F0F7F808BD79
:100AF00000080140000C014010B5402000F056F8FD
:100B0000002831D0642000F0D5FC0421204800F0FA
:100B100070F920490870032000F0BCFC40211E48F9
:100B200000F067F9E8B91B48007810B901201B49AB
:100B3000087018480078012802D10220174908706F
:100B4000002404E0601C84B2142000F0B3FC4021B7
:100B5000114800F04EF918B94EF660208442F1DBDE
:100B600000BF402000F01CF8802000F01FF868B1A2
:100B7000142000F08FFC8021074800F03AF910B9EA
:100B8000032006490870802000F00AF810BD00001C
:100B9000000C01401900002000080140180000204E
:100BA000014908607047000014040140014600201C
:100BB0000022074B1B6803EA0102054B14331B6834
:100BC0000B4013B10AB1012000E000207047000083
:100BD00000040140002123498279002A3AD00A46C4
:100BE000126803689A430B461A600A1D126803686C
:100BF0009A430B1D1A60027911440A6803681A436C
:100C00000A60184A0832126803689A43154B083381
:100C10001A601A1D126803689A43124B0C331A604B
:100C20004279102A0ED11A1F126803681A430D4B1D
:100C300008331A601A1D126803681A43094B0C33F3
:100C40001A600DE00749427911440A6803681A43A3
:100C50000A6005E0027911440A6803689A430A6051
:100C600070470000000401400549096821F01001A7
:100C7000034A116011460968014311607047000082
:100C80000020024001460020034A106800F03800AE
:100C900008431060704700000020024030B5002279
:100CA0008B071C0F0F2303FA04F20B4B8C1053F825
:100CB00024309343084C8D1044F8253023468C1083
:100CC00053F824308C07240F00FA04F42343024C19
:100CD0008D1044F8253030BD080001402DE9F04169
:100CE000024600250026002000230024002791F85A
:100CF00003C00CF00F0591F803C00CF0100CBCF110
:100D0000000F03D091F802C04CEA050591F800C02D
:100D1000BCF1000F31D0146800202BE04FF0010C23
:100D20000CFA00F3B1F800C00CEA03069E4220D191
:100D300083004FF00F0C0CFA03F7BC4305FA03FCD9
:100D40004CEA040491F803C0BCF1280F06D14FF01F
:100D5000010C0CFA00FCC2F814C00AE091F803C0C0
:100D6000BCF1480F05D14FF0010C0CFA00FCC2F8A1
:100D700010C0401C0828D1D31460B1F800C0BCF1E9
:100D8000FF0F34DD546800202EE000F1080C4FF016
:100D9000010808FA0CF3B1F800C00CEA03069E4201
:100DA00021D183004FF00F0C0CFA03F7BC4305FA76
:100DB00003FC4CEA040491F803C0BCF1280F05D1F0
:100DC00000F1080C08FA0CF8C2F8148091F803C07E
:100DD000BCF1480F07D100F1080C4FF0010808FAE8
:100DE0000CF8C2F81080401C0828CED35460BDE82F
:100DF000F0810246002093680B400BB1012000E017
:100E0000002070470AB1016100E04161704700BFF6
:100E1000FEE721B1028842F48062028004E0028889
:100E20004FF6FF331A400280704770B50246002427
:100E3000002500230020958A138B1B0445EA030636
:100E400026F07F4404EA01068E4201D1012000E031
:100E5000002070BD21B1028842F00102028004E04E
:100E600002884FF6FE731A40028070471FB500F0EB
:100E700021F80020ADF804004BF6FF70ADF8060035
:100E8000C020ADF808004FF48060ADF80A00000102
:100E9000ADF80C00054800906946054800F05AF886
:100EA00001210348FFF7D6FF1FBD0000400D0300DE
:100EB0000054004008B50121082000F089FC012100
:100EC000480500F075FCC020ADF800001C208DF82E
:100ED000030003208DF8020069460248FFF7FEFE7A
:100EE00008BD0000000C014021B1028842F480726C
:100EF000028004E002884FF6FF631A4002807047C8
:100F000021B1028842F40072028004E002884FF6A8
:100F1000FF531A40028070470CB5024600200023A0
:100F20000193009300920B0F019321F07F41019BED
:100F30001BB1009B1433009303E0090C009B183392
:100F40000093009B1B680B400BB1012000E00020C8
:100F50000CBD00002DE9F04385B004460D46002687
:100F6000B1460427DFF8CC80A6884FF6C070064053
:100F7000684600F0A5FCDDF808802F48B8FBF0F0CB
:100F80001FFA80F946EA0906A68020884FF6FE710E
:100F90000840208000262949286888420CD8286803
:100FA0004000B8FBF0F087B2042F00DA04273E437C
:100FB00009F10100208427E0E8884BF6FF718842A0
:100FC00006D1286800EB4000B8FBF0F087B209E0DA
:100FD000286800EBC00101EB0010B8FBF0F087B20D
:100FE00047F48047C7F30B0008B947F0010747F4FF
:100FF000004006434FF4967009FB00F04FF47A71FD
:1010000090FBF1F0401C2084A683208840F0010072
:10101000208026884FF6F5300640A8886989084365
:1010200006432680A88929890843208105B0BDE8A8
:10103000F083000000127A0040420F00A0860100F9
:101040002DE9F04106460F4615461C4600BF4FF4F9
:1010500000313248FFF760FF0028F8D101212F4806
:10106000FFF742FF00BF2E492C48FFF7DEFE0028A5
:10107000F9D000223146294800F05AF800BF29492A
:101080002648FFF7D2FE0028F9D001212348FFF7B8
:10109000E1FE3946214800F054F800BF2149891C7F
:1010A0001E48FFF7C2FE0028F8D001211B48FFF7B9
:1010B0001BFF00BF1A491948FFF7B7FE0028F9D0F7
:1010C00001223146154800F033F800BF1449491C8D
:1010D0001248FFF7AAFE0028F8D016E0012C07D12D
:1010E00000210E48FFF795FE01210C48FFF708FF8D
:1010F0000B493F310948FFF798FE30B1074800F02F
:1011000013F828706D1C601E84B2002CE6D10121FA
:101110000248FFF77EFEBDE8F08100000054004069
:1011200001000300820007000146088AC0B2704730
:1011300012B141F0010102E04FF6FE731940018245
:1011400070470182704700002DE9F04105460F46C7
:1011500014461E4601211D48FFF7C6FE00BF1C496C
:101160001A48FFF762FE0028F9D0002229461748E6
:10117000FFF7DEFF00BF17491448FFF756FE0028AF
:10118000F9D039461148FFF7DCFF00BF1149891C2F
:101190000E48FFF74AFE0028F8D00CE021780B48F3
:1011A000FFF7CFFF641C00BF0A49891C0748FFF7FF
:1011B0003CFE0028F8D0301EA6F101018EB2EDD120
:1011C00001210248FFF79CFEBDE8F0810054004079
:1011D000010003008200070070B504460E46154664
:1011E00001211948FFF780FE00BF18491648FFF794
:1011F0001CFE0028F9D0002221461348FFF798FF73
:1012000000BF13491048FFF710FE0028F9D03146FF
:101210000D48FFF796FF00BF0D49891C0A48FFF7EC
:1012200004FE0028F8D029460748FFF78AFF00BFD0
:101230000749891C0448FFF7F8FD0028F8D0012170
:101240000148FFF75DFE70BD00540040010003003F
:10125000820007002DE9F04705460C4616464FF080
:10126000000AA01CC4B2D1463AE005F1B000C2B2F7
:1012700000217820FFF7B0FF2746E01704EB10703D
:1012800000111030C2B200217820FFF7A5FFE0174F
:1012900004EB10700011A4EB0010C2B20021782002
:1012A000FFF79AFF4FF0000811E00AEB46101149D2
:1012B000085CC043C2B240217820FFF78DFF0AF1DD
:1012C000010000F0FF0A08F1010000F0FF08B8F18A
:1012D000100FEADB681CC5B209F1010000F0FF093C
:1012E000B9F1020FC1DBAF2200217820FFF774FFB4
:1012F000BDE8F087B43E00082DE9F04705460C46EE
:1013000016464FF0000AA01CC4B2D1463CE005F1DD
:10131000B000C2B200217820FFF75EFF2746E01739
:1013200004EB107000111030C2B200217820FFF7DA
:1013300053FFE01704EB10700011A4EB0010C2B2D1
:1013400000217820FFF748FF4FF0000813E00AEB78
:101350000610A0F500700F49085CC043C2B24021DE
:101360007820FFF739FF0AF1010000F0FF0A08F1C9
:10137000010000F0FF08B8F1080FE8DB681CC5B2F7
:1013800009F1010000F0FF09B9F1020FBFDBBDE870
:10139000F0870000B43800080146CA1701EB9272CA
:1013A0009210A1EB820292B9642091FBF0F200FB53
:1013B000121050B94FF4C87091FBF0F200FB1210FC
:1013C00008B9012070470020FCE70120FAE700205F
:1013D000F8E7F8B506460024002502236A460021F6
:1013E0009E20FFF72DFE9DF800400020307004F095
:1013F000800028B101203070E043C4B2601CC4B248
:1014000004F0010008B1681CC5B204F0020008B184
:10141000A81CC5B204F0040008B1281DC5B204F030
:10142000080010B105F10800C5B204F0100010B1B9
:1014300005F11000C5B204F0200010B105F1200044
:10144000C5B204F0400010B105F14000C5B2761CF1
:10145000357000259DF8014004F0200010B105F121
:101460000C00C5B204F0400010B105F11900C5B27E
:1014700004F0800010B105F13200C5B2761C357061
:10148000F8BD00BFFEE7704710B54FF4A06000F054
:1014900059F810BD002107E042F6E06100BF0A1EC6
:1014A000A1F1010399B2FAD1021EA0F1010398B291
:1014B000F2D17047002106E00A2100BF0A1EA1F107
:1014C000010399B2FAD1021EA0F1010398B2F3D13F
:1014D0007047000070B5002100230F22C47804B3C8
:1014E000154C246804F4E064C4F5E064210AC1F1F9
:1014F0000403CA40447804FA03F184781440214379
:1015000009010E4C0678A155047804F01F0501244A
:10151000AC4005786D11AD0005F1E025C5F800413E
:1015200009E0047804F01F050124AC40044D06785E
:10153000761145F8264070BD0CED00E000E400E0B7
:1015400080E100E002490143024A11607047000057
:101550000000FA050CED00E010B500F0E5F800F031
:10156000B3F800F0EFF810BD2DE9F04705460C4642
:1015700016464FF0000AA01CC4B2D14638E005F16F
:10158000B000C2B200217820FFF726FE2746E01700
:1015900004EB107000111030C2B200217820FFF768
:1015A0001BFEE01704EB10700011A4EB0010C2B298
:1015B00000217820FFF710FE4FF000080FE00AEB43
:1015C000461010490A5C40217820FFF705FE0AF119
:1015D000010000F0FF0A08F1010000F0FF08B8F177
:1015E000100FECDB681CC5B209F1010000F0FF0927
:1015F000B9F1020FC3DBAF2200217820FFF7ECFD29
:10160000BDE8F087B43E00082DE9F04705460C46DA
:1016100016464FF0000AA01CC4B2D1463AE005F1CC
:10162000B000C2B200217820FFF7D6FD2746E017B0
:1016300004EB107000111030C2B200217820FFF7C7
:10164000CBFDE01704EB10700011A4EB0010C2B248
:1016500000217820FFF7C0FD4FF0000811E00AEBF1
:101660000610A0F500700E490A5C40217820FFF7B3
:10167000B3FD0AF1010000F0FF0A08F1010000F0DB
:10168000FF08B8F1080FEADB681CC5B209F10100D8
:1016900000F0FF09B9F1020FC1DBBDE8F0870000DF
:1016A000B438000870B506460C46002508E014F86A
:1016B000012BE806010E3046FFF7A6FF681CC5B2F5
:1016C00020780028F3D170BD70B5B0241BE022460D
:1016D00000217820FFF780FD102200217820FFF7FD
:1016E0007BFD002211467820FFF776FD002506E0FD
:1016F000002240217820FFF76FFD681CC5B2842DC1
:10170000F6DB601CC4B2B82CE1DB70BD10B504463A
:10171000812200217820FFF75FFD224600217820FA
:10172000FFF75AFD10BD000008B505A00068009045
:1017300002236A4600217820FFF706FD08BD00005D
:10174000AE8D000000B587B01C2206A16846FEF7EA
:10175000AAFD1C236A4600217820FFF7F5FC07B09C
:1017600000BD0000AE0010D580A83FD300B0408D72
:1017700014A1C8DA1281FFD9F1DB302000A4A6AF92
:10178000014908627047000000000E4270470000E7
:1017900029B1064A52690243044B5A6104E0034AE4
:1017A00052698243014B5A617047000000100240A9
:1017B00029B1064AD2690243044BDA6104E0034AC4
:1017C000D2698243014BDA61704700000010024089
:1017D00029B1064A92690243044B9A6104E0034A24
:1017E00092698243014B9A617047000000100240E9
:1017F0000149086070470000400442420348406AC3
:1018000040F08070014948627047000000100240BB
:1018100010B500F02FF84FF4803000F0EDF800F034
:1018200071F90446012C24D14FF4E011000400F0BA
:1018300041F9002000F0D4F8A00200F01DF90020CA
:1018400000F026F90220FFF71DFA1020FFF70CFA2E
:10185000012000F029F900BF392000F09BF8002892
:10186000FAD0022000F042F900BF00F0B1F80828D9
:10187000FBD110BD0F48006840F001000D49086021
:10188000084640680C4908400A4948600846006814
:101890000A490840074908600846006820F480208B
:1018A00008600846406820F4FE0048604FF41F00BE
:1018B00088607047001002400000FFF8FFFFF6FE4E
:1018C00030B500210022002400232D4D6D6805F065
:1018D0000C0121B1042905D0082923D105E0294DA7
:1018E000056022E0274D05601FE0254D6D6805F479
:1018F0007012234D6D6805F48034022505EB924289
:101900001CB9214D554305600BE01D4D6D6805F474
:1019100000351DB11C4D5543056002E0194D55437E
:10192000056002E0174D056000BF00BF144D6D68F3
:1019300005F0F0010909154D6B5C0568DD40456057
:101940000F4D6D6805F4E061090A104D6B5C456848
:10195000DD4085600A4D6D6805F46051C90A0B4D84
:101960006B5C4568DD40C560054D6D6805F4404120
:10197000890B074D6B5CC568B5FBF3F5056130BDA0
:101980000010024000127A0000093D001A000020F9
:101990002A00002010B501460022002300204A1131
:1019A000012A02D1094C236806E0022A02D1074C21
:1019B000236A01E0054C636A01F01F020124944090
:1019C0001C400CB1012000E0002010BD00100240BE
:1019D0000248406800F00C00704700000010024010
:1019E00001460020034A506820F0F0000843506090
:1019F00070470000001002401149096821F480314D
:101A00000F4A11601146096821F480211160B0F578
:101A1000803F03D0B0F5802F0ED106E00849096859
:101A200041F48031064A116007E00549096841F434
:101A3000A021034A116000E000BF00BF7047000012
:101A40000010024000210B4A11700A4A203A82F825
:101A50002010012802D0042808D103E00121054A02
:101A6000117004E00521034A117000E000BF00BFBF
:101A7000704700002010024001460020034A5068D1
:101A800020F4E060084350607047000000100240FE
:101A900001460020034A506820F4605040EAC1002B
:101AA000506070470010024001490866704700000E
:101AB0000000424202460020044B586820F47C108B
:101AC00042EA01031843014B58607047001002407E
:101AD00001490860704700003C0442420249096A1B
:101AE0000143014A11627047001002400146002084
:101AF000034A506820F0030008435060704700001C
:101B00000010024038B5002000900024002500BFDE
:101B10003120FFF73FFF05460098401C00900098D9
:101B2000B0F5A06F01D0002DF2D03120FFF732FFC9
:101B300008B1012400E00024204638BD10B504207F
:101B4000FEF7D6FD4AF2A551884207D000F02AF8E8
:101B50004AF2A5510420FEF7D9FD0DE07B20FFF7E6
:101B600019FF10B97A20FFF715FFFFF747FE012094
:101B7000FFF7AEFF00F0F0F810BD0000034800884A
:101B800040F0100001490880704700000428004020
:101B9000034800884FF6EF710840014908807047FC
:101BA0000428004010B501214FF0C050FFF700FE9F
:101BB0000120FFF7E5FDFEF792FD0120FFF742FF50
:101BC00000BF4120FFF7E6FE0028FAD04FF48070F6
:101BD000FFF784FF0120FFF77BFF00F0BDF800F066
:101BE000B1F847F6FF7000F09DF800F0ABF810BDBB
:101BF00070B500260024002500F08AF806463A4811
:101C0000B6FBF0F439480088A0423DD037490C803B
:101C100040F2B27510E02846FFF7BEFB40B1B4F5C4
:101C2000B77F02D3A4F5B77404E0681C85B206E060
:101C3000A4F26D14681C85B2B4F5B67FEBD800BF72
:101C40002B480580002516E029480088FFF7A4FBF3
:101C500030B1012D04D11D2C01D31D3C09E00CE055
:101C60002448405DA04203D82248405D241A00E089
:101C700003E0681C85B21C2CE6D200BF681C1E491C
:101C80000870601C1D4908701748B6FBF0F100FB96
:101C900011644FF46160B4FBF0F0194908704FF41F
:101CA0006160B4FBF0F100FB11403C21B0FBF1F0AE
:101CB000144908704FF46160B4FBF0F100FB11406F
:101CC0003C21B0FBF1F201FB12000F4908700B48F8
:101CD0000278094801780648008800F04FF80B495F
:101CE0000870002070BD0000805101000800002035
:101CF00000000020A8380008020000200300002097
:101D0000040000200500002006000020070000203D
:101D1000002103480188001F008841EA0040704705
:101D20001C28004000B50246FFF728FFC2F303401D
:101D300003490880091D0A80FFF72AFF00BD000043
:101D40000828004000BF0348008800F02000002859
:101D5000F9D0704704280040074800884FF6F77113
:101D600008400549088000BF0348008800F00800CB
:101D70000028F9D0704700000428004070B50346E1
:101D80001446012901DB0C2901DDFF2070BD01296A
:101D900001D0022904D101F10C00C1B2581E83B256
:101DA000481C00EB4000052590FBF5F0022505FBE3
:101DB0000145284418441A46DD1703EB957500EBDE
:101DC000A500642593FBF5F5401B4FF4C87593FB04
:101DD000F5F52844401C072590FBF5F605FB160099
:101DE000C01D90FBF5F605FB1600C0B2CEE77047AC
:101DF00010B500F001F810BD0CB500200190009066
:101E00003348006840F480303149086000BF3048F2
:101E1000006800F4003000900198401C0190009888
:101E200018B90198B0F5A06FF1D12948006800F405
:101E3000003010B10120009001E0002000900098D7
:101E4000012843D12348006840F010002149086070
:101E50000846006820F0030008600846006840F06B
:101E6000020008601A4840681949486008464068FE
:101E700048600846406840F4806048600846406812
:101E800020F47C1048600846406840F4E810486040
:101E90000846006840F08070086000BF0C48006889
:101EA00000F000700028F9D00948406820F00300D5
:101EB000074948600846406840F00200486000BF9B
:101EC0000348406800F00C000828F9D10CBD000060
:101ED00000100240002002407047000010B5134877
:101EE000006840F001001149086008464068104948
:101EF00008400E494860084600680E4908400B49F2
:101F000008600846006820F48020086008464068A1
:101F100020F4FE0048604FF41F008860FFF768FF60
:101F20004FF000600449086010BD0000001002403E
:101F30000000FFF8FFFFF6FE08ED00E010B540F2EC
:101F400025511F4800F044F8002838D01C4800F004
:101F50004CF8C4B221461BA0FEF73CF91A48008891
:101F600000F4004058BB1848008800F4804060B17D
:101F70000A2C03D000201449088020E01248008871
:101F800040F400401049088019E00D2C06D10E489D
:101F9000008840F480400C49088010E00A4800881E
:101FA000C0F30D0009490C5407480088401C06493D
:101FB000088008460088C72801DD0020088010BD81
:101FC0000038014025630000100000203000002090
:101FD00002460020B1F5007F00D100BF13880B40FE
:101FE0000BB1012000E00020704701468888C0F353
:101FF0000800704700BFFEE7014600BF704700B50C
:10200000034603E04FF47A7000F006F8181EA3F1BF
:1020100001018BB2F6D100BD00EBC001C9004FF049
:10202000E0225161002191610521116100BF4FF053
:10203000E021096901F480310029F8D004214FF032
:10204000E02211617047000000BF054A128802F0CB
:102050004002002AF9D0C2B2014B1B1D1A80704702
:102060000038014086B04FF0010900200490642040
:10207000FFF7C5FFFFF7CCFBFEF7F8FE05A8FFF75B
:10208000A8F9FEF71BFDFFF767FAFFF757FDFEF70C
:10209000CAFCFEF71AFBFEF7C1F9FFF7F5F9FEF7E8
:1020A000D5FB9B20FFF732FB4FF47A70FFF7A7FFB9
:1020B0000820FEF71DFB00F0FF09B9F1010F02DB5C
:1020C000B9F1030F01DD4FF001090C20FEF710FB01
:1020D00006461020FEF70CFB05461420FEF708FB11
:1020E00007461820FEF704FB00F0FF08632E00DD12
:1020F0000026002D01DB632D00DD0025B7F5805F94
:1021000000DD0027B8F1630F01DD4FF00F0801F08B
:10211000C0BBB9F1000F40F3A287B9F10B0F7DD01E
:1021200008DCB9F1080F7AD2DFE809F07919A6F2D4
:10213000F0EFEEEDB9F1330F72D009DCB9F1150F04
:102140006FD0B9F11F0F6DD0B9F1290F67D1FCE342
:10215000B9F13D0F67D0B9F1470FF7D1F6E3FFF7BB
:10216000B3FA312200210846FFF7C6F820220821E1
:102170000020FFF7C1F80D2210210020FFF76AF8B8
:102180000D2220210020FFF765F8002230211046A3
:10219000FFF760F8012240210020FFF75BF80222E0
:1021A00050210020FFF756F80D2260210020FFF794
:1021B00051F80D2270210020FFF74CF80E2200216B
:1021C0000220FFF7D1F90F2210210220FFF7CCF9EE
:1021D000032220210220FFF7C7F904223021022028
:1021E000FFF7C2F93A2240210220FFF70DFA102230
:1021F00070210220FFF7B8F90E2200210420FFF71A
:10220000B3F90F2210210420FFF7AEF90522202197
:102210000420FFF7A9F90422302105E029E3FDE3BA
:10222000FDE3D2E3FCE3FCE31046FFF79DF93A221D
:1022300040210420FFF7E8F9252258210420FFF768
:10224000E3F9112200210620FFF78EF91222102156
:102250000620FFF789F9132220210620FFF784F9D1
:10226000142230210620FFF77FF949460820FEF7A7
:102270004DFA4FF00B098EE2FFF726FA32220021C9
:102280000846FFF739F8202208210020FFF734F82C
:102290000D2210210020FEF7DDFF0D22202100205D
:1022A000FEF7D8FF0A2220210020FEF7D3FF0B22E1
:1022B00030210020FEF7CEFF0C2240210020FEF747
:1022C000C9FF012250210020FEF7C4FF0222602135
:1022D0000020FEF7BFFF0D2270210020FEF7BAFF9D
:1022E000FEA10220FFF7DEF9FEA10420FFF7DAF9D4
:1022F000FEA10620FFF7D6F949460820FEF706FAA8
:102300004FF01509B7E747E2B5E111E172E0FFE7E9
:10231000FFF7DAF9332200210846FEF7EDFF20220D
:1023200008210020FEF7E8FF0D2210210020FEF713
:1023300091FF062220210020FEF78CFF072230218A
:102340000020FEF787FF012240210020FEF782FFD8
:10235000022250210020FEF77DFF0D226021002087
:10236000FEF778FF0D2270210020FEF773FF152283
:1023700000210220FFF7F8F8032210210220FFF7C6
:10238000F3F8062220210220FFF7EEF80722302181
:102390000220FFF7E9F8162200210420FFF7E4F8F5
:1023A000032210210420FFF7DFF806222021042059
:1023B000FFF7DAF8072230210420FFF7D5F80822CA
:1023C00000210620FFF7D0F8092210210620FFF790
:1023D000CBF8062220211046FFF7C6F8072230214D
:1023E0000620FFF7C1F849460820FEF78FF94FF0A5
:1023F0001F0940E7FFF768F9332200210846FEF77E
:102400007BFF2D2208210020FEF776FF31221021CC
:102410000020FEF771FF202218210020FEF76CFF3C
:102420000D2220210020FEF715FF1522302100206B
:10243000FEF710FF032240210020FEF70BFF0622CB
:1024400050210020FEF706FF072260210020FEF742
:1024500001FF0D2270210020FEF7FCFE1522002155
:102460000220FFF781F8032210210220FFF77CF8F9
:102470003A2220210220FFF7C7F82022282102203B
:10248000FEF73AFF0A2096FBF0F00A2190FBF1F2EA
:1024900001FB1200303080B2024630210090022051
:1024A000FEF72AFF0A2096FBF0F100FB11603030A6
:1024B00080B20246382100900220FEF71DFF102254
:1024C00040210220FEF7C6FE162200210420FFF75D
:1024D0004BF8032210210420FFF746F83A2220216E
:1024E0000420FFF791F8202228210420FFF78CF820
:1024F0000A2095FBF0F0303080B202463021009087
:102500000420FFF781F80A2095FBF0F100FB115041
:10251000303080B20246382100900420FFF774F872
:10252000102240210420FFF71FF84FF02909F9E39A
:10253000FFF7CAF8332200210846FEF7DDFE2D2200
:1025400008210020FEF7D8FE322210210020FEF7DD
:10255000D3FE202218210020FEF7CEFE0D222021DE
:102560000020FEF777FE162230210020FEF772FED3
:10257000032240210020FEF76DFE0622502100209C
:10258000FEF768FE072260210020FEF763FE0D22A1
:1025900070210020FEF75EFE152200210220FEF7CA
:1025A000E3FF032210210220FEF7DEFF3A22202162
:1025B0000220FFF729F8202228210220FFF724F823
:1025C0000A2096FBF0F00A2190FBF1F201FB1200C9
:1025D000303080B20246302100900220FFF714F81C
:1025E0000A2096FBF0F100FB1160303080B2024609
:1025F000382100900220FFF707F810224021022026
:10260000FEF7B2FF162200210420FEF7ADFF0322E1
:1026100010210420FEF7A8FF3A2220210420FEF713
:10262000F3FF202228210420FEF766FE0A2095FBF6
:10263000F0F00A2190FBF1F201FB1200303080B281
:102640000246302100900420FEF756FE0A2095FB3A
:10265000F0F100FB1150303080B20246382100907A
:102660000420FEF749FE102240210420FEF7F2FD6F
:102670004FF0330956E3FFF727F8332200210846CD
:10268000FEF73AFE2D2208210020FEF735FE332208
:1026900010210020FEF730FE202218210020FEF736
:1026A0002BFE0D2220210020FEF7D4FD0822302130
:1026B0000020FEF7CFFD092240210020FEF7CAFDD1
:1026C000062250210020FEF7C5FD072260210020D0
:1026D000FEF7C0FD0D22702100200BE04144433184
:1026E0003A000000414443323A0000004144433381
:1026F0003A200000FEF7AEFD082200210420FEF77C
:1027000033FF092210210420FEF72EFF3A22202158
:102710000420FEF779FF202228210420FEF774FF11
:102720004FF47A7097FBF0F0303080B202463021DF
:1027300000900420FEF7E0FD642097FBF0F00A21F2
:1027400090FBF1F201FB1200303080B202463821DA
:1027500000900420FEF7D0FD0A2097FBF0F00A213C
:1027600090FBF1F201FB1200303080B202464021B2
:1027700000900420FEF7C0FD0A2097FBF0F100FB5B
:102780001170303080B20246482100900420FEF7DC
:10279000B3FD4FF03D09C5E2FEF796FF332200215D
:1027A0000846FEF7A9FD2D2208210020FEF7A4FD12
:1027B000342210210020FEF79FFD20221821002046
:1027C000FEF79AFD0D2220210020FEF743FD052291
:1027D00030210020FEF73EFD042240210020FEF7BC
:1027E00039FD062250210020FEF734FD072260212A
:1027F0000020FEF72FFD0D2270210020FEF72AFD9C
:10280000052200210420FEF7AFFE0422102110460D
:10281000FEF7AAFE3A2220210420FEF7F5FE202230
:1028200028210420FEF7F0FE0A2098FBF0F00A2190
:1028300090FBF1F201FB1200303080B202463021F1
:1028400000900420FEF758FD0A2098FBF0F100FBF1
:102850001180303080B20246382100900420FEF70B
:102860004BFD252240210420FEF746FD4FF047098D
:1028700058E2FFF7BDF905A8FEF7ABFDFE4800786A
:102880000A2190FBF1F0303080B2024640210090E6
:102890000620FEF7B9FEF84800780A2190FBF1F215
:1028A00001FB1200303080B2024648210090062021
:1028B000FEF7AAFE3A2250210620FEF7A5FEEF48B9
:1028C00000780A2190FBF1F0303080B202465821A6
:1028D00000900620FEF798FEE84800780A2190FB59
:1028E000F1F201FB1200303080B20246602100900C
:1028F0000620FEF789FE3A2268210620FEF784FEB4
:10290000DF4800780A2190FBF1F0303080B20246B7
:10291000702100900620FEF777FED94800780A2142
:1029200090FBF1F201FB1200303080B202467821B8
:1029300000900620FEF768FE9DF8140038B12D22A5
:1029400048210220FEF760FE06E0D8E1E3E1202204
:1029500048210220FEF758FE9DF815000A2190FB41
:10296000F1F0303080B20246502100900220FEF794
:102970004BFE9DF815000A2190FBF1F201FB1200BD
:10298000303080B20246582100900220FEF73CFE13
:102990002E2260210220FEF737FE9DF816000A2144
:1029A00090FBF1F0303080B20246682100900220A6
:1029B000FEF72AFE322248210420FEF725FE3522AA
:1029C00050210420FEF720FEACE14FF0000AD34670
:1029D0000020039000241EE0AA480088AA4921F89C
:1029E0001400A8484088A94921F81400A548808807
:1029F000A74921F8140000BF0221A648FDF7B8FD41
:102A00000028F9D00220FFF707FB0221A148FDF7BB
:102A1000F7FC601CC4B20A2CDEDB03E07FE172E14C
:102A200069E174E198480088029097480088019015
:102A3000002415E0944830F814100298814203DD18
:102A4000914830F8140002908F4830F81410019823
:102A5000814203DA8C4830F814000190601CC4B243
:102A60000A2CE7DB002407E0874830F814005044C4
:102A70001FFA80FA601CC4B20A2CF5DB0299AAEB9B
:102A800001020199501AC11700EB5171C1F3CF0A2D
:102A90007E48008802907D4800880190002415E05F
:102AA0007A4830F814100298814203DD774830F8F4
:102AB00014000290754830F814100198814203DA2E
:102AC000724830F814000190601CC4B20A2CE7DB95
:102AD000002407E06D4830F8140058441FFA80FBCA
:102AE000601CC4B20A2CF5DB0299ABEB0102019920
:102AF000501AC11700EB5171C1F3CF0B6448008825
:102B00000290634800880190002415E0604830F886
:102B100014100298814203DD5D4830F814000290E1
:102B20005B4830F814100198814203DA584830F8B5
:102B300014000190601CC4B20A2CE7DB002408E0FA
:102B4000534830F814100398084480B20390601C76
:102B5000C4B20A2CF4DBDDE902218A1A0199501A69
:102B6000C11700EB5171C1F3CF0103914FF47A709B
:102B70009AFBF0F0303080B202462821009002200B
:102B8000FEF742FD4FF47A709AFBF0F100FB11A0C2
:102B9000642190FBF1F0303080B202463021009089
:102BA0000220FEF731FD64209AFBF0F100FB11A03A
:102BB0000A2190FBF1F0303080B2024638210090BB
:102BC0000220FEF721FD0A209AFBF0F100FB11A084
:102BD000303080B20246402100900220FEF714FD02
:102BE0004FF47A709BFBF0F0303080B2024628211F
:102BF00000900420FEF708FD4FF47A709BFBF0F183
:102C000000FB11B0642190FBF1F0303080B202463D
:102C1000302100900420FEF7F7FC64209BFBF0F1CC
:102C200000FB11B00A2190FBF1F0303080B2024677
:102C3000382100900420FEF7E7FC0A209BFBF0F10E
:102C400000FB11B0303080B20246402100900420D9
:102C5000FEF7DAFC4FF47A71039890FBF1F0303014
:102C600080B20246282100900620FEF7CDFC4FF4EA
:102C70007A71039810E00000040000200500002095
:102C80000600002012000020F80000200C010020A7
:102C9000200100200024014090FBF1F201FB120012
:102CA000642190FBF1F0303080B202463021009078
:102CB0000620FEF7A9FC6421039890FBF1F201FBCA
:102CC00012000A2190FBF1F0303080B20246382128
:102CD00000900620FEF798FC0A21039890FBF1F281
:102CE00001FB1200303080B20246402100900620E5
:102CF000FEF78AFC16E00A20FFF781F912E01420A3
:102D0000FFF77DF90EE01420FFF779F90AE00A20B9
:102D1000FFF775F906E00A20FFF771F902E04FF0BE
:102D2000010900BF00BFFE48007800287ED0B9F13D
:102D30000B0F7BDBB9F1470F78DCB9F1290F47D0D6
:102D400009DCB9F10B0F10D0B9F1150F1BD0B9F197
:102D50001F0F6CD125E0B9F1330F69D0B9F13D0FE8
:102D600067D0B9F1470FF4D122E1ED48007801288E
:102D700002D14FF0020905E0E9480078022801D1AC
:102D80004FF0030966E1E6480078012802D14FF0D0
:102D9000030905E0E2480078022801D14FF001095B
:102DA00058E1DF480078012801D181460FE0DC4876
:102DB0000078022801D1814609E0D948007803282B
:102DC00005D1012004904FF00009FDF7ADFC41E171
:102DD000D3480078012804D1761C632E18DD2E46D6
:102DE00016E0CF480078022804D1761EAE420FDAF2
:102DF00063260DE0CA480078032809D14FF0000986
:102E000001200490B1B20C20FDF780FCFDF7D4FC4A
:102E1000202228210220FEF76FFA0A2096FBF0F00C
:102E20000A2190FBF1F201FB120003E0FEE30EE148
:102E30001BE062E0303080B2024630210090022078
:102E4000FEF75AFA0A2096FBF0F100FB11603030D1
:102E500080B20246382100900220FEF74DFA10227F
:102E600040210220FEF7F6F9F4E0AD480078012891
:102E700004D16D1CB54218DD002516E0A848007885
:102E8000022804D16D1E002D0FDA35460DE0A4484E
:102E90000078032809D14FF0000902200490A9B25C
:102EA0001020FDF733FCFDF787FC202228210420A9
:102EB000FEF722FA0A2095FBF0F00A2190FBF1F2CE
:102EC00001FB1200303080B2024630210090042015
:102ED000FEF712FA0A2095FBF0F100FB115030309A
:102EE00080B20246382100900420FEF705FA102235
:102EF00040210420FEF7AEF9ACE0894800780128B3
:102F000006D1781C87B2B7F5805F17DB002715E084
:102F100083480078022804D107B9C702781E87B217
:102F20000CE07F480078032808D14FF00009049096
:102F300039461420FDF7EAFBFDF73EFC4FF47A70AA
:102F400097FBF0F0303080B2024630210090042030
:102F5000FEF7D2F9642097FBF0F00A2190FBF1F222
:102F600001FB1200303080B202463821009004206C
:102F7000FEF7C2F90A2097FBF0F00A2190FBF1F26C
:102F800001FB1200303080B2024640210090042044
:102F9000FEF7B2F90A2097FBF0F100FB1170303018
:102FA00080B20246482100900420FEF7A5F951E0C6
:102FB0005B48007801280CD108F1010000F0FF08FF
:102FC000B8F15A0F02DCB8F10F0F1DDA4FF00F08FD
:102FD0001AE053480078022809D1B8F10F0F01DC3C
:102FE0004FF05B08A8F1010000F0FF080CE04C482E
:102FF0000078032808D14FF00009049041461820BA
:10300000FDF784FBFDF7D8FB0A2098FBF0F00A21BE
:1030100090FBF1F201FB1200303080B20246302109
:1030200000900420FEF768F90A2098FBF0F100FBFD
:103030001180303080B20246382100900420FEF723
:103040005BF9252240210420FEF756F902E04FF0FB
:10305000010900BF00BF002031490870E6E2049872
:103060000B285CD006DC06287ED2DFE800F07D0C61
:10307000BFFDFCFB152878D01F2877D0292876D0F3
:10308000332871D170E3FEF71FFB3322002108467D
:10309000FEF732F9202208210020FEF72DF90D223B
:1030A00010210020FEF7D6F8062220210020FEF78E
:1030B000D1F8072230210020FEF7CCF80122402170
:1030C0000020FEF7C7F8022250210020FEF7C2F8C8
:1030D0000D2260210020FEF7BDF80D227021002096
:1030E000FEF7B8F8152200210220FEF7B3F80322FC
:1030F00010210220FEF7AEF8062220210220FEF762
:10310000A9F8072230210220FEF7A4F80D22402161
:103110000220FEF79FF80D225021022002E013E367
:1031200018000020FEF796F80D2260210220FEF71D
:1031300091F80D2270210220FEF78CF81622002152
:103140000420FEF711FA032210210420FEF70CFAE6
:10315000062220210420FEF707FA0722302104204E
:10316000FEF702FA0D2203E002E3F1E2F4E2F7E2F5
:1031700040210420FEF7F8F90D2250210420FEF72B
:10318000F3F90D2260210420FEF7EEF90D227021E3
:103190000420FEF7E9F9082200210620FEF7E4F9F1
:1031A000092210210620FEF7DFF906222021104611
:1031B000FEF7DAF9072230210620FEF7D5F90D22B5
:1031C00040210620FEF7D0F90D2250210620FEF7FF
:1031D000CBF90D2260210620FEF7C6F90D227021E1
:1031E0000620FEF7C1F90B200490C4E2FEF76CFA4A
:1031F000332200210846FEF77FF820220821002014
:10320000FEF77AF80D2210210020FEF723F806229F
:1032100020210020FEF71EF8072230210020FEF7B3
:1032200019F8012240210020FEF714F80222502153
:103230000020FEF70FF80D2260210020FEF70AF8AB
:103240000D2270210020FEF705F815220021022032
:10325000FEF78AF9032210210220FEF785F90622E3
:10326000202102E0C4E119E16EE00220FEF77CF9C2
:10327000072230210220FEF777F90D22402102209B
:10328000FEF772F90D2250210220FEF76DF90D2292
:1032900060210220FEF768F90D2270210220FEF75E
:1032A00063F9162200210420FDF7D4FF0322102128
:1032B0000420FDF7CFFF062220210420FDF7CAFFDE
:1032C000072230210420FDF7C5FF0D2240210420F4
:1032D000FDF7C0FF0D2250210420FDF7BBFF0D229A
:1032E00060210420FDF7B6FF0D2270210420FDF7B8
:1032F000B1FF082200210620FEF736F9092210212D
:103300000620FEF731F9062220211046FEF72CF99F
:10331000072230210620FEF727F90D224021062042
:10332000FEF722F90D2250210620FEF71DF90D228D
:1033300060210620FEF718F90D2270210620FEF705
:1033400013F91520049016E2FEF7BEF9332200218E
:103350000846FDF7D1FF202208210020FDF7CCFF11
:103360000D2210210020FDF775FF062220210020EC
:10337000FDF770FF072230210020FDF76BFF0122CF
:1033800040210020FDF766FF022250210020FDF7BA
:1033900061FF0D2260210020FDF75CFF0D227021EE
:1033A0000020FDF757FF152200210220FEF7DCF870
:1033B000032210210220FEF7D7F806222021022046
:1033C000FEF7D2F8072230210220FEF7CDF80D22B9
:1033D00040210220FEF7C8F80D2250210220FEF7FE
:1033E000C3F80D2260210220FEF7BEF80D227021E5
:1033F0000220FEF7B9F8162200210420FEF7B4F8E7
:10340000032210210420FEF7AFF806222021042019
:10341000FEF7AAF8072230210420FEF7A5F80D22B6
:1034200040210420FEF7A0F80D2250210420FEF7D1
:103430009BF80D2260210420FEF796F80D227021E2
:103440000420FEF791F8082200210620FDF702FF74
:10345000092210210620FDF7FDFE0622202110463C
:10346000FDF7F8FE072230210620FDF7F3FE0D22BE
:1034700040210620FDF7EEFE0D2250210620FDF72B
:10348000E9FE0D2260210620FDF7E4FE0D227021E9
:103490000620FDF7DFFE1F2004906CE1FEF714F913
:1034A000332200210846FDF727FF202208210020B3
:1034B000FDF722FF0D2210210020FDF7CBFE062292
:1034C00020210020FDF7C6FE072230210020FDF755
:1034D000C1FE012240210020FDF7BCFE0222502146
:1034E0000020FDF7B7FE0D2260210020FDF7B2FE9F
:1034F0000D2270210020FDF7ADFE162200210220D2
:10350000FEF732F8032210210220FEF72DF80622E2
:1035100020210220FEF728F8072230210220FEF7A2
:1035200023F80D2240210220FEF71EF80D22502123
:103530000220FEF719F80D2260210220FEF714F890
:103540000D2270210220FEF70FF80822002104202E
:10355000FEF70AF8092210210420FEF705F80622DA
:1035600020210420FEF700F8072230210420FDF777
:10357000FBFF0D2240210420FDF7F6FF0D22502114
:103580000420FDF7F1FF0D2260210420FDF7ECFF80
:103590000D2270210420FDF7E7FF052200210620FF
:1035A000FDF758FE042210210620FDF753FE0622E7
:1035B00020211046FDF74EFE072230210620FDF7A0
:1035C00049FE0D2240210620FDF744FE0D22502128
:1035D0000620FDF73FFE0D2260210620FDF73AFE92
:1035E0000D2270210620FDF735FE29200490C2E04F
:1035F000FEF76AF8332200210846FDF77DFE2022FF
:1036000008210020FDF778FE0D2210210020FDF793
:1036100021FE062220210020FDF71CFE072230217A
:103620000020FDF717FE0122402100E0DAE0002033
:10363000FDF710FE022250210020FDF70BFE0D22A7
:1036400060210020FDF706FE0D2270210020FDF70D
:1036500001FE082200210220FDF786FF0922102129
:103660000220FDF781FF062220210220FDF77CFFCA
:10367000072230210220FDF777FF0D224021022092
:10368000FDF772FF0D2250210220FDF76DFF0D2284
:1036900060210220FDF768FF0D2270210220FDF756
:1036A00063FF052200210420FDF75EFF04221021A4
:1036B0001046FDF759FF062220210420FDF754FF94
:1036C000072230210420FDF74FFF0D224021042066
:1036D000FDF74AFF0D2250210420FDF745FF0D2282
:1036E00060210420FDF740FF0D2270210420FDF72A
:1036F0003BFF172200210620FDF7ACFD1822102108
:103700000620FDF7A7FD062220211046FDF7A2FDA9
:10371000072230210620FDF79DFD0D2240210620C5
:10372000FDF798FD0D2250210620FDF793FD0D2297
:1037300060210620FDF78EFD0D2270210620FDF789
:1037400089FD3320049016E03220FEF758FC12E089
:103750003220FEF754FC0EE03220FEF750FC0AE067
:103760003220FEF74CFC06E03220FEF748FC02E077
:103770000120049000BF00BF4748007890B3049830
:103780001F2839D004DC0B2807D0152878D11BE07E
:10379000292847D0332873D15BE03F4800780128BF
:1037A00002D1022004900EE03B480078022802D1AA
:1037B0000520049007E038480078032803D1002052
:1037C00004904FF0040960E033480078012802D1EA
:1037D000032004900FE030480078022803D1012034
:1037E000049008E055E02C480078032803D100201D
:1037F00004904FF0050948E027480078012802D1DD
:10380000042004900DE024480078022801D104909F
:1038100007E021480078032803D1002004904FF0EE
:10382000060932E01C480078012802D105200490E6
:103830000EE019480078022802D10320049007E026
:1038400015480078032803D1002004904FF00709A1
:103850001BE011480078012801D104900EE00E48C9
:103860000078022802D10420049007E00A4800787A
:10387000032803D1002004904FF0030905E0FFE77F
:103880004FF003090020049000BF00BF0020024950
:103890000870FEF73EBC000018000020000303067D
:1038A00001040602050003051F1C1F1E1F1E1F1F0B
:1038B0001E1F1E1F0000000000000000000000008E
:1038C00000000000000038FCFC3800000000000D83
:1038D0000D000000000E1E00001E0E000000000083
:1038E0000000000020F8F820F8F82000020F0F0276
:1038F0000F0F0200387C444747CC98000306041C95
:103900001C07030030300080C06030000C0603014B
:10391000000C0C0080D87CE4BCD84000070F0808DD
:10392000070F080000101E0E00000000000000003D
:10393000000000000000F0F80C0400000000030785
:103940000C0800000000040CF8F000000000080C57
:103950000703000080A0E0C0C0E0A08000020301D7
:1039600001030200008080E0E0808000000000038E
:103970000300000000000000000000000000101E16
:103980000E000000808080808080800000000000A9
:103990000000000000000000000000000000000C1B
:1039A0000C00000000000080C06030000C06030125
:1039B00000000000F8FC04C424FCF800070F09080C
:1039C000080F0700001018FCFC0000000008080F9A
:1039D0000F080800080C84C4643C18000E0F090886
:1039E000080C0C00080C444444FCB800040C080803
:1039F000080F0700C0E0B098FCFC80000000000841
:103A00000F0F08007C7C4444C4C48400040C0808E4
:103A1000080F0700F0F84C4444C08000070F080866
:103A2000080F07000C0C0484C47C3C0000000F0F3E
:103A300000000000B8FC444444FCB800070F08082C
:103A4000080F0700387C444444FCF80000080808CC
:103A50000C070300000000303000000000000006EA
:103A60000600000000000030300000000000080EDA
:103A7000060000000080C06030180800000001034C
:103A8000060C080040404040404040000202020254
:103A9000020202000008183060C0800000080C0616
:103AA00003010000181C04C4E43C18000000000DD1
:103AB0000D000000F0F808C8C8F8F000070F080B68
:103AC0000B0B0100E0F0988C98F0E0000F0F000065
:103AD000000F0F0004FCFC4444FCB800080F0F0862
:103AE000080F0700F0F80C04040C180003070C087A
:103AF000080C060004FCFC040CF8F000080F0F088A
:103B00000C07030004FCFC44E40C1C00080F0F0825
:103B1000080C0E0004FCFC44E40C1C00080F0F0809
:103B200000000000F0F80C84848C980003070C0857
:103B300008070F00FCFC404040FCFC000F0F000099
:103B4000000F0F00000004FCFC0400000000080F40
:103B50000F08000000000004FCFC0400070F080828
:103B60000F07000004FCFCC0F03C0C00080F0F0025
:103B7000010F0E0004FCFC0400000000080F0F08F9
:103B8000080C0E00FCFC387038FCFC000F0F000025
:103B9000000F0F00FCFC3870E0FCFC000F0F000071
:103BA000000F0F00F0F80C040CF8F00003070C08ED
:103BB0000C07030004FCFC44447C3800080F0F0889
:103BC00000000000F8FC040404FCF800070F080ED5
:103BD0003C3F270004FCFC44C4FC3800080F0F00E5
:103BE000000F0F00183C6444C49C1800060E08081F
:103BF000080F0700001C0CFCFC0C1C000000080F48
:103C00000F080000FCFC000000FCFC00070F080887
:103C1000080F0700FCFC000000FCFC000103060C80
:103C200006030100FCFC008000FCFC00030F0E03F7
:103C30000E0F03000C3CF0C0F03C0C000C0F030016
:103C4000030F0C00003C7CC0C07C3C000000080F4F
:103C50000F0800001C0C84C4643C1C000E0F0908F3
:103C6000080C0E000000FCFC0404000000000F0F14
:103C7000080800003870E0C080000000000000016B
:103C800003070E0000000404FCFC0000000008080C
:103C90000F0F0000080C0603060C080000000000CF
:103CA0000000000000000000000000002020202094
:103CB0002020202000000307040000000000000076
:103CC0000000000000A0A0A0E0C00000070F08084E
:103CD000070F080004FCFC2060C08000080F0708E4
:103CE000080F0700C0E0202020604000070F0808F0
:103CF000080C040080C06024FCFC0000070F0808CA
:103D0000070F0800C0E0A0A0A0E0C000070F08084F
:103D1000080C040040F8FC440C180000080F0F08C1
:103D200000000000C0E02020C0E02000276F4848CD
:103D30007F3F000004FCFC4020E0C000080F0F00A3
:103D4000000F0F00000020ECEC0000000000080F46
:103D50000F0800000000000020ECEC000030704074
:103D6000407F3F0004FCFC80C0602000080F0F0172
:103D7000030E0C00000004FCFC0000000000080F13
:103D80000F080000E0E060C060E0C0000F0F000F0F
:103D9000000F0F0020E0C02020E0C000000F0F0047
:103DA000000F0F00C0E0202020E0C000070F08082F
:103DB000080F070020E0C02020E0C000407F7F48BF
:103DC000080F0700C0E02020C0E02000070F0848CF
:103DD0007F7F400020E0C0602060C000080F0F0817
:103DE0000000000040E0A02020604000040C090911
:103DF0000B0E04002020F8FC202000000000070F1C
:103E0000080C0400E0E00000E0E00000070F0808F4
:103E1000070F080000E0E00000E0E0000003070CEE
:103E20000C070300E0E0000000E0E000070F0C07D3
:103E30000C0F07002060C080C0602000080C070342
:103E4000070C0800E0E0000000E0E000474F4848B1
:103E5000683F1F00606020A0E06020000C0E0B098E
:103E6000080C0C00004040F8BC04040000000007EF
:103E70000F080800000000BCBC0000000000000F9C
:103E80000F000000000404BCF84040000008080FC8
:103E900007000000080C040C080C040000000000DF
:103EA0000000000080C0603060C08000070704048C
:103EB0000407070000080808080809FA08080808A5
:103EC00008080000404041414141417F414141419A
:103ED00041404000040444C44F4444C424242FB44B
:103EE0002404040040442424150C04FE040C15246E
:103EF000244440000000F8494A4C48F8484C4A49DC
:103F0000F800000010101312121212FF12121212F7
:103F1000131010001060028C0000FE929292929298
:103F2000FE00000004047E01407E42427E427E424A
:103F3000427E40000000FC242424FC252624FC248E
:103F40002424040040308F80844C55252525554C71
:103F5000808080001060028C00FE92929292929279
:103F6000FE00000004047E014448507F40407F5022
:103F700048444000404042CC0040A09E8282829E45
:103F8000A02020000000003F908840432C102846CD
:103F900041808000001715D55557557D555755D58B
:103FA000151700004040407F555555555555557FD4
:103FB000404040004040424458C0407F40C05048CC
:103FC000464040008080402018070000003F4040ED
:103FD0004040780000FE424242FE0042A29E82A281
:103FE000C2BE0000806F080828CF00002FC8080854
:103FF00028CF00001010D0FF9014E4AFA4A4A4AF09
:10400000E4040000040300FF00894B2A1A0E1A2A58
:104010004B888000101010FF9000F8000204180078
:10402000FF0000000242817F00003F108840300CFA
:104030000B30C000202020BEAAAAAAAAAAAAAABE03
:1040400020202000008080AFAAAAAAFFAAAAAAAFB7
:104050008080000000000000000000000000000060
:104060000000000000000000000000000000000050
:1040700000000000004042445840407F404050480B
:10408000C600000000404444444444444444444482
:10409000FF0000000808E8292E28E80808C80C0BD3
:1040A000E80808000000FF0949897F00000F4080F0
:1040B0007F000000060909E6F80C04020202020271
:1040C000041E0000000000071F3020404040404018
:1040D000201000000020202020FF000000FF4020D2
:1040E000100800002060201010FF0000003F40403A
:1040F00040407800040404E424242526242424E4F5
:10410000040404000040201B0242827E0202020BD3
:104110001060000000FC848484FC0010101010105B
:10412000FF101000003F1010103F000001064080FB
:104130007F00000000F8010600F0121212F20202E5
:1041400002FE000000FF0000001F1111111F0040BF
:10415000807F000004040404F49495969494F4047D
:104160000404040000FE02027A4A4A4A4A4A7A02D9
:1041700082FE0000008060F80700FC848484FE82D8
:1041800083828000010000FF0000FF402000418E7C
:104190003040F800404042CC0000FF4949C949493D
:1041A0007F8000000040201F20405F484440414283
:1041B0004558400000007C40404040FF40404040A7
:1041C000FC000000007C40404040407F40404040B8
:1041D00040FC0000000000000000000000000000A3
:1041E00000000000000000000000000000000000CF
:1041F00000000000000000000000000000000000BF
:1042000000000000000000000000000000000000AE
:10421000000000000000000000000000000000009E
:10422000000000000000000000000000000000008E
:10423000000000000000000000000000000000007E
:10424000000000000000000000000000000000006E
:10425000000000000000000000000000000000005E
:1042600000000000000000000000000000F8FC1C3E
:104270003830381CFCF800F8F800F8F8000000F8B6
:10428000FC8C8C8C0080D050F0E000F0F0203000EE
:1042900000808000808000808000000C1224120CBE
:1042A000000000000000000080000000000000008E
:1042B0001824448844241800000000000000000076
:1042C00000000000000000000000000000000000EE
:1042D00000000000000000000000000000000000DE
:1042E00000000000000000000000000000038380C8
:1042F00000808000030300080B0B0F078040804004
:10430000830303030000030303030003838080800F
:1043100080C3C3C0C3C3C0C3C3C0C0C0C0C080804B
:1043200080C0C0402018040300000000002050A0FE
:10433000502000000000000000000000000000000D
:10434000000000000000000000000000000000006D
:10435000000000000000000000000000000000005D
:10436000000000000000000000000000000304083E
:10437000110804030000000000000000010284C2D4
:10438000E160301078ECFCF63A1B058597131213A8
:10439000131111111111110181FFF9F9F2C28222D9
:1043A00025058D8B93B3E6C68C1C18387070E0C061
:1043B00080000000000000182448241800000000BD
:1043C00000000000000000000000000000000000ED
:1043D00000000000000000000000000000000000DD
:1043E000000000000000000000000000000080E06D
:1043F000E0703018181C1C1C0C1C161616062763BF
:104400006DAECE0E0E0F0F0F0E0606070706060640
:104410000606060606060666776767E707070706C5
:104420000606070787C76723231210000808090B31
:104430000F0E0E0C3C70F0C0800000000000000069
:10444000000000000000000000000000000000006C
:10445000000000000000000000000000000000005C
:1044600000000000000000000000F0F8DEFFF6365B
:1044700011E0F0F8FCFEDE1E3F3F1EFEFEFCF8F2EF
:10448000E4080107FC00000000000000000000003C
:104490000000000000000000000000FF000000001D
:1044A000003CFFE7311CE6FFFFFFFEFE1F3F3F1F02
:1044B000FFFEFEFCF8F8F031FBFFFEFC38000000C8
:1044C00000000000000000000000000000000000EC
:1044D00000000000000000000000000000000000DC
:1044E000000000000000000000000003074F4C60C7
:1044F000607F7F7F7F7D4D44727240797D7F7F7FBB
:104500007F7C70707373707074747474747474746A
:10451000747474747676767676767673707072725A
:1045200072737070707C7F7F7F7F7D7D627272603E
:10453000687D7F7F7F7F777467676300000000007E
:10454000000000000000000000000000000000006B
:10455000000000000000000000000000000000005B
:10456000000000000000000000000000000000004B
:10457000000000000000000000000000000000003B
:10458000000000000000000000000000000000002B
:10459000000000000000000000000000000000001B
:1045A000000000000000000000000000000000000B
:1045B00000000000000000000000000000000000FB
:1045C00000000000000000000000000000000000EB
:1045D00000000000F445000800000020300000004A
:1045E0002801000824460008300000206807000069
:1045F000440100080000000000000000000000006E
:1046000000000000000000000000000000000000AA
:104610000000010203040102030406070809020462
:044620000608000088
:04000005080000ED02
:00000001FF
