:020000040800F2
:10000000D006002035020008E92E0008BB270008B2
:10001000E52E000869200008673C00080000000089
:100020000000000000000000000000002B38000865
:10003000C523000800000000C93100081539000878
:100040004F0200084F0200084F0200084F0200084C
:100050004F0200084F0200084F0200084F0200083C
:100060004F0200084F0200084F0200084F0200082C
:100070004F0200084F0200084F0200084F0200081C
:100080004F0200084F0200084F0200084F0200080C
:100090004F0200084F0200084F0200089D2400088C
:1000A0004F0200084F0200084F0200084F020008EC
:1000B0004F0200084F0200084F0200084F020008DC
:1000C0004F0200084F0200084F0200084F020008CC
:1000D0004F0200084F0200084F020008793900085B
:1000E0004F0200084F0200084F02000800F002F81B
:1000F00000F090F80AA090E8000C82448344AAF132
:100100000107DA4501D100F085F8AFF2090EBAE82F
:100110000F0013F0010F18BFFB1A43F0010318473B
:10012000B06B0000D06B0000103A24BF78C878C1D3
:10013000FAD8520724BF30C830C144BF04680C60ED
:10014000704700000023002400250026103A28BF35
:1001500078C1FBD8520728BF30C148BF0B60704739
:100160006E2900F09781702900F0E182662905F080
:100170002185652905F01E85672905F01B85612904
:1001800005F01A8503681B0A28BF41F08001692920
:1001900000F04481642900F04181752900F03E811E
:1001A0006F2900F06E82782900F0AD82E92900F015
:1001B0000982E42900F00682F52900F00382EF2984
:1001C00000F06B82F82900F0AC820368DB0928BFDD
:1001D00041F08001632900F0AF87732900F0B487F4
:1001E000E32900F0BF87F32900F0C487002070479F
:1001F0001FB501F011F804000020002105F0C4FC37
:10020000401C60600020002105F0A8FCE0601FBDDC
:1002100010B510BD00F0D2FF1146FFF7E9FF03F063
:1002200067FD01F0AFF803B4FFF7F2FF03BC03F082
:1002300037FD00000948804709480047FEE7FEE710
:10024000FEE7FEE7FEE7FEE7FEE7FEE7FEE7FEE786
:1002500004480549054A064B704700001939000853
:10026000ED000008D0000020D0060020D0020020C1
:10027000D0020020704700007CB51D4616460C00D9
:10028000009001D02044401E074B7B442A4669461B
:100290000190304600F017F905461CB10020694670
:1002A00000F024F928467CBD6902000010B5431C0B
:1002B00002E010F8011B71B18107FAD14FF0013251
:1002C00002C88C1A8C4314EAC211F9D0C01A0A066B
:1002D00003D0C01E10BDC01A10BD0A0401D0801E7C
:1002E00010BD0902FCD0401E10BD10B5203AC0F070
:1002F0000B80B1E81850203AA0E81850B1E8185027
:10030000A0E81850BFF4F5AF5FEA027C24BFB1E863
:100310001850A0E8185044BF18C918C0BDE81040D4
:100320005FEA827C24BF51F8043B40F8043B08BFDD
:100330007047D20728BF31F8023B48BF11F8012BA4
:1003400028BF20F8023B48BF00F8012B70477047D8
:1003500070477047704770B5044685690068C106EC
:1003600001D5302600E02026C00707D070BDD4E9B3
:10037000012130469047206A401C20626D1EF6D550
:1003800070BD70B5044685690078C00707D170BD9F
:10039000D4E9012120209047206A401C20626D1E74
:1003A000F6D570BD09684A0501D540B27047C90548
:1003B000FCD500B2704709684A0501D5C0B2704744
:1003C000C905FCD580B2704770B50C460546012AB8
:1003D00005D02878800600D5EA69002302E00123D1
:1003E00005E05B1C934202D2E05C0028F9D1A869C9
:1003F000E618C01AA861286A184428622846FFF740
:10040000AAFF04E0D5E9012114F8010B9047B4429A
:10041000F8D32846FFF7B5FF70BD00002DE9F04185
:100420000646002410687529314616A510D0FFF73E
:10043000B9FF002802DA404213A507E031688A07B5
:1004400001D512A502E0490704D511A5012401E058
:10045000FFF7B1FF00210A2206F1240709E0B0FBF3
:10046000F2FCB0FBF2F302FB1C003030785418466B
:10047000491C0028F3D123462A463046BDE8F04106
:1004800000F069BA000000002D0000002B00000001
:100490002000000011680268006A530501D5087049
:1004A0000AE0D30501D5088006E0130603D5C2177C
:1004B000C1E9000200E008600120704701694A1CA0
:1004C00002610878704700B58FB0CDE90131002195
:1004D000059105497944CDE903101146684600F0BD
:1004E00031F90FB000BD0000E5FFFFFF0A6802F818
:1004F000010B0A607047D1E900239A4202D2531CD3
:100500000B601070704700002DE9FF5F15468A46AA
:100510000446DFF8AC80F8440027D8E900103E46D6
:10052000CDE9001010E03AF816106A4602A800F073
:1005300025FE411C07D02178890603D5E2693918C8
:1005400091420DD80744761C2078800602D5E069D8
:10055000B84205DDAE42E6DB3AF816000028E2D1EB
:10056000A069C01BA0612046FFF7F5FED8E9001086
:10057000CDE90010002017E03AF818106A4602A8EA
:1005800000F0FCFDB0F1FF3F81460BD000250DF1DE
:10059000080B05E0D4E901211BF8050090476D1C0C
:1005A0004D45F7D308F10100B0428046E4DB206AF4
:1005B000384420622046FFF7E4FEBDE8FF9F0000BC
:1005C000BA6600002DE9F0418046D21D22F00702F4
:1005D0000025D2E90002F52915A614D0011E72F1FA
:1005E000000106DA0023D0EB030063EB020211A640
:1005F00008E0D8F800108B0701D50FA602E04907E4
:1006000001D50EA601251146002408F1240704E0B7
:1006100000F05CF930323A55641C50EA0102F7D11F
:100620002B46324621464046BDE8F04100F093B9E2
:10063000000000002D0000002B0000002000000042
:1006400030B4002100F1240408E002F00705D208CC
:10065000303542EA4372DB086554491C52EA03050F
:10066000F3D10468002310A2250707D5A40600D4FF
:1006700021B1C46901230DA2641EC46130BC00F025
:100680006AB910B5044621461068FFF794FE024689
:100690002046BDE810400023D2E7D21D22F007011A
:1006A000D1E90023CCE7000000000000300000008A
:1006B000F0B40D460188090502D5214C7C4402E0C6
:1006C0001F4C7C440E34002100F1240608E002F0A7
:1006D0000F071209E75D42EA03721B097754491CB0
:1006E00052EA0307F3D102780023120704D5702DD4
:1006F00006D009B1022311342246F0BC00F02BB918
:1007000001231034F8E770B504460D462146106801
:10071000FFF751FE024629462046BDE870400023FF
:10072000C6E7D21D22F00703D3E90023C0E7036820
:10073000126843F0200303600823C3610023B7E776
:100740001C6500002DE9F05F894604464FF0000A61
:10075000DFF874B1FB44C0F820A02046E168884768
:10076000002874D0252806D0D4E901219047206ABA
:10077000401C2062F1E700265F462046E16888477A
:100780002028054607DB312D05D2781910F8200CFA
:1007900008B10643F1E7B00701D526F00406C4F816
:1007A0001CA00027C4F818A02A2D09D0284603F061
:1007B00070FA38B304EB8708303DC8F8185019E0D8
:1007C00059F8041B204604EB87029161E1688847D1
:1007D000012F054618D1E069002820DA26F020060E
:1007E0001DE0D8F8180000EB800005EB4000303821
:1007F000C8F818002046E1688847054603F049FA22
:100800000028EED1012F0AD02E2D08D12046E16814
:1008100088477F1C0546022F46F02006C4DBA069EE
:10082000002803DA404246F00106A061F00701D03B
:1008300026F010066C2D0BD0682D09D04C2D39D028
:100840006A2D35D0742D35D07A2D33D016E038E0AE
:10085000E1682F4620468847B842054609D16C2FEB
:1008600026D04FF48060E16806432046884705465D
:1008700004E06C2F1AD04FF4807006430DB3A5F13D
:100880004100192802D8203546F400664A46294618
:10089000204626604E46FFF763FC80B101280BD04E
:1008A000F61D26F0070000F1080956E74020E4E7AE
:1008B0008020D8E70020D6E706F104094DE7284656
:1008C00052E7206ABDE8F09FAC64000030B5B0F19B
:1008D0000A024FEA900E71F100034EEA817EB0EBFE
:1008E0000E0061EB91014FEA101E4EEA017E10EB03
:1008F0000E0041EB11114FEA102E4EEA016E10EB83
:100900000E0041EB11214FEA104E4EEA014E10EB62
:100910000E0041EB1141401841F100014FEAD000B7
:1009200040EA41704FEAD10110EB80054FEA8104A3
:1009300044EA907444EB01046D1944EB0404521B27
:10094000A3414FF0000348BF0A3200D530BD401C20
:1009500041F1000130BD2DE9F0470D469946924620
:10096000044600F124080168880604D5E06921F0F6
:100970001001216000E00120A84201DD471B00E0DA
:100980000027A1697A1902EB0900081AA0612078F2
:10099000C00602D42046FFF7DEFC002608E0D4E9BA
:1009A00001211AF806009047206A401C761C20623C
:1009B0004E45F4DB2078C0060AD52046FFF7CBFC75
:1009C00006E0D4E9012130209047206A401C2062D3
:1009D000381EA7F10107F4DC07E0D4E9012118F87B
:1009E00005009047206A401C2062281EA5F10105E1
:1009F000F3DC2046FFF7C5FC2078000602D5022074
:100A0000BDE8F0870120FBE770472DE9FF4F0C465A
:100A10001E464FF0FF378BB0D2E90001DDF8608051
:100A20000A908A46C1F30A5505B93D460021084699
:100A30004FF00000BAF1000F00F4400005DA00EBBF
:100A400080004FF4400101EA50004FEA9059B9F19B
:100A5000010F00DDB9460A9850EA4A000ED044F66C
:100A60001050A5F2FF3545432F14B8F1000F1ED0EA
:100A70007542291E1EDDC9F100021CE0B8F1010F0C
:100A80004FF0000001D0302103E0F24305E0215493
:100A9000401CB042FBDB30460022002121540B9960
:100AA000C1F80880C1E900200FB0BDE8F08FBD1B80
:100AB0006D1CDEE74A4600DA694206A800F0F0FB4A
:100AC00006AB93E8070003AB83E8070050460A999A
:100AD00000F0A6FC8DE80700A0F500501F3800903C
:100AE0000398002D0ADD42F21F014A460844002304
:100AF00003A90390684600F00FFF09E0A0F500503D
:100B00004A461F38002303A90390684600F019FFE6
:100B10008DE807000004000C03D04FF0FF304108BF
:100B200000E01046B8F1000F03D0002200921546F5
:100B30001EE0751E05D4FFF7C9FE303262556D1EEA
:100B4000F9D5B3460122084302D000227F1C04E0FD
:100B50002078302801D100227F1E002A099784D0F6
:100B60001DE0112D07DAFFF7B1FE303262556D1C22
:100B700050EA0102F5D1084302D00098C8B10EE056
:100B80000021681E05E0235C625C63542254401E11
:100B9000491C8142F7DBAB46A81B401E0990002090
:100BA00004F80B000B98099AC0F80880C0E9002BE4
:100BB0007AE711264FF0000857E72DE9F04F8846F5
:100BC0000446D21D22F0070191B0D1E90001CDE920
:100BD0000A0103F04AF802460B98C00F01D02D20FD
:100BE00007E02068810701D52B2002E0202101EADF
:100BF000C000032A099001D0072A05DB03464146BD
:100C0000204600F00DFB0BE12078800601D5E0695D
:100C100000E00620B8F1650F814606D0B8F1660FF6
:100C200018D0B8F1670F70D131E00020B9F1110F81
:100C3000009001DB112301E009F101030AAA01A9D7
:100C40000CA8FFF7E2FEDDE90C70002609F10105B2
:100C5000834647E001204B4600904FF000470AAA28
:100C600001A90CA8FFF7D1FEDDE90DB00C995D4696
:100C7000002610B909F101000D18B9EB050003D4E5
:100C8000C0F1FF3609F10105A5EB09002BE0B9F130
:100C9000010F01DA4FF001090020B9F1110F0090A6
:100CA000484601DD112300E003460AAA01A90CA869
:100CB000FFF7ABFEDDE90C704D4600268346207839
:100CC00000070AD4AB4500DA5D4601A8012D04DD1A
:100CD000411911F8011C302907D04F4502DA17F1EC
:100CE000040F04DA012082460FE06D1EEEE7002FAC
:100CF00002DCED1B3E4403E0781CA84200DD7D1CB5
:100D0000B81B00F1010A4FF000472078000703D418
:100D1000AA4501DB4FF0FF3A0021B7F1004F0DF17A
:100D200043088DF8431024D002202B23002F01DA32
:100D30007F422D230A21021EA0F1010000DC5FB1D9
:100D400097FBF1FC97FBF1F201FB1C7C17460CF1C1
:100D5000300C08F801CDEEE7A8F1010003702188FE
:100D6000090501D5452100E06521A0F1010800F841
:100D7000011C09980FA9A1EB0807FF1D00B1012074
:100D8000411901EBEA70A1693844081A401EA061BC
:100D90002078C00602D42046FFF7DDFA099828B172
:100DA000D4E901219047206A401C20622078C006C7
:100DB00022D52046FFF7CFFA1EE0002E04DBB34514
:100DC00002DD01A8805D00E03020D4E901219047D8
:100DD000206A401C2062761CAAF101005FEA000A2A
:100DE0000AD100F019FAC0680168405CD4E9012119
:100DF0009047206A401C2062281EA5F10105DCDC1A
:100E000007E0D4E9012118F8010B9047206A401C43
:100E10002062381EA7F10107F3DC2046FFF7B1FA84
:100E2000032011B041E600002DE9F04F04460D46C5
:100E3000D21D22F0070089B0D0E900974846394614
:100E400002F013FF0246F80F01D02D2307E02068BF
:100E5000810701D52B2302E0202101EAC0038DF890
:100E600020300BB1012000E00020032A824601D08F
:100E7000072A04DB2946204600F0D2F93FE120781A
:100E8000800601D40D2500E0E569C7F30A560D2D53
:100E900049DA00214FEA175B08464FF00000002FA7
:100EA00000F4400007DA00EB80004FF4400100EB53
:100EB000D07001EA60008115012901DD4FF0FF319A
:100EC00000224FEA850CBCF1180F06D31346ACF193
:100ED00018004FF08052C24003E04FF4801323FA11
:100EE0000CF30CF10C0CBCF1200F04D3ACF1200C72
:100EF00009FA0CF001E007FA0CF000294FF0004865
:100F000001DD18B90FE00ED140450CD319EB0209F1
:100F10005F4121B9404502D19F4329EA0209BBEB59
:100F2000175F00D0761C2088000502D57B487844E6
:100F300002E07A487844193808AA302302F80A30C7
:100F4000037C0AF10101002E0AF1020A53546A4699
:100F500002DC4FF0300101E04FF031014FF00108A9
:100F60008DF8001002D0A6F2FF3603E059EA4701DF
:100F700000D06B4E002D02DC2178090704D54FF01C
:100F800002082E218DF80110C44600210BE0C7F3A2
:100F900003433F01C35C491C6D1E02F8083005295C
:100FA00008F1010801DA002DF1DC00210CE000EB72
:100FB0001973491C1B786D1E082902F808304FEA86
:100FC000091908F1010801DA002DF0DC21688B060F
:100FD00002D516E0A8F10108E04505DD02EB0803A3
:100FE00013F8013C302BF5D0B8F1000F09DD02EB0E
:100FF000080313F8013C2E2B03D1090701D4A8F1F3
:101000000108002D05DD3E2102F808106D1E08F1D3
:101010000108407C002E02F8080008F1010804DAFB
:101020002D20764202F8080002E02B2002F808008A
:101030000A214FF47A70864208F101080BDB96FB17
:10104000F0F3303302F8083096FBF0F308F10108B2
:1010500000FB136601E0642E0CDB642096FBF0F3CA
:10106000303302F8083096FBF0F308F1010800FB7A
:10107000136601E00A2E06DB96FBF1F0303002F831
:10108000080008F1010896FBF1F001FB1060303018
:1010900002F80800A16908F1010808EB050202EB5B
:1010A0000A00081AA0612078C00602D42046FFF783
:1010B00052F9216A08AE01EB0A00206204E0D4E98B
:1010C000012116F8010B9047BAF1010AF7D22078F6
:1010D000C00602D52046FFF73EF96E4609E016F835
:1010E000010B3E280FD0D4E901219047206A401C13
:1010F0002062B8F10108F2D22046FFF742F909B0A8
:101100000320BDE8F08F206A2844206203E0D4E980
:101110000121302090476D1EEBD3F8E7F65C00000C
:1011200002FCFFFF10B5436913B1AFF3008001E08B
:10113000FFF74AF9012010BD127800F124010A706E
:1011400000224A700122EDE711684FF0FF32E9E713
:1011500010B5436913B1AFF3008001E0FFF7D4F994
:10116000012010BD128800F1240182840022C28473
:101170000122EDE711684FF0FF32E9E770B516463E
:101180000C46054600F040F8036893F80101012879
:1011900006D0FF2C0FD8185D68B101202C7070BDEF
:1011A000D3F807013246214603F2071303442846C9
:1011B000BDE8704018474FF0FF3070BD754600F035
:1011C000EBF8AE4605006946534620F00700854619
:1011D00018B020B5FFF73CF8BDE820404FF00006FE
:1011E0004FF000074FF000084FF0000B21F007010F
:1011F000AC46ACE8C009ACE8C009ACE8C009ACE852
:10120000C0098D467047000010B500F005F8001DBC
:1012100010BD00BF75490000004870478C000020D9
:101220002DE9F0411F46044603260168072A01F410
:10123000006004DB08B116A505E016A503E008B1BF
:1012400015A500E015A521F010002060A069C01EC2
:10125000A0610FB1401EA0612046FFF77CF84FB19E
:10126000D4E9012138469047206A401C2062C01C06
:10127000206206E0206AFAE7D4E9012115F8010BA3
:101280009047761EF8D22046FFF77BF8BDE8F08144
:101290004E414E006E616E00494E4600696E66001A
:1012A0002DE9F047814616468AB0354878440DC886
:1012B0008DE80D0032487844801C03AC0DC884E8EA
:1012C0000D0041F69B300844372190FBF1F290FB72
:1012D000F1F5A5F1800501FB12041B3C02D5644227
:1012E000012000E00020DFF898A080460027FA44A3
:1012F000AAF1BE0A0EE0E0070AD03246684607EBC4
:10130000470101230AEB810100F01BFB8DE8070078
:1013100064107F1C002CEED1194F7F44AE3F19E0C2
:10132000E80715D007EB04100DF1180A90E80E003D
:101330008AE80E00C068F04201D198190890324640
:10134000012306A903A800F0FCFA03AB83E8070019
:101350006D10641C002DE3D14FF001033246694645
:10136000B8F1000F03A802D000F0D6FA01E000F0B7
:10137000E8FAC9E90001C9F808200AB0BDE8F08719
:10138000085A000010B50446AFF300802046BDE8BF
:101390001040FEF748BF0000004870476C00002076
:1013A0004FF0013C50F8042B51F8043B9A4221D1F4
:1013B000A2EB0C03934313EACC1317D150F8042B80
:1013C00051F8043B9A4215D1A2EB0C03934313EA64
:1013D000CC130BD150F8042B51F8043B9A4209D19D
:1013E000A2EB0C03934313EACC13DBD04FF00000C5
:1013F000704700BFD01A01BAB1FA81F101F01801AB
:1014000022FA01F0CB40C1F12001DBB2C0B2C01A18
:101410002CFA01F3D11A914311EAC311E6D17047B6
:101420005FEA400C08BF91F0000F4FEA8C234FEAAF
:10143000C12243EA51514FEA1C5018BF00F5F04059
:101440004FEA300018BF41F000415FEA6C5C00F0E9
:101450002980BCF1FF3F08BF40F080407047130C6B
:1014600006BF12044FF0100C4FF0000C130E04BF17
:1014700012020CF1080C130F04BF12010CF1040C42
:10148000930F04BF92000CF1020CD30F04BF520063
:101490000CF1010C11464FF00002A0F11F00A0EB6F
:1014A0000C00704711F0004F08BF704731F0004149
:1014B0003FF4D5AF0B0C06BF09044FF0100C4FF0F2
:1014C000000C0B0E04BF09020CF1080C0B0F04BF3B
:1014D00009010CF1040C8B0F04BF89000CF1020C04
:1014E000CB0F04BF49000CF1010CCCF12003A0EBA1
:1014F0000C0022FA03F302FA0CF241EA030100F1B4
:101500000100704720F07F4C80EA030023F07F4702
:10151000ACEB070303F57C5300F0004003F1FF033D
:101520002DE980494FEA154B09B44FEA144325EAE7
:101530000B4E24EA03480FF2042606EB1327490852
:101540003E785FEA320203FB0667C7F5000707FB38
:1015500006F64FEA54374FEAD64606F1020607FB75
:10156000066CCCF1005C4FEA1C472CEA074C07FBE9
:1015700006F40CFB06F504EB15464FEA961634BF4D
:1015800000204FF000404FEAD13706FB07FC4FEA3E
:101590001C4C0CFB0BF7D21B03FB0CF761EB070198
:1015A0000CFB0EF7B0EB074072EB17420CFB08F791
:1015B00034BFA2EB0742B2EB074261EB17414FEA9F
:1015C0000C444FEA910706FB07FC4FEA1C4C0CFB4E
:1015D0000BF7B0EBC74072EB573203FB0CF734BF8D
:1015E000A2EBC742B2EBC74261EB57310CFB0EF7DF
:1015F000B0EBC70072EB57720CFB08F734BFA2EBDD
:10160000C702B2EBC70261EB5771039F4FEA8161DA
:1016100041EA921104EBCC044FEAD1374FEA8262DF
:1016200006FB07FC42EA90124FEA80604FEA1C4C2E
:101630000CFB0BF7D21B03FB0CF761EB07010CFB58
:101640000EF7B0EB074072EB17420CFB08F734BF04
:10165000A2EB0742B2EB074261EB17414FEA8C5510
:101660004FEA910704EB9C2406FB07FC4FEA1C4C55
:101670000CFB0BF7B0EBC74072EB573203FB0CF7D8
:1016800034BFA2EBC742B2EBC74261EB57310CFB50
:101690000EF7B0EBC70072EB57720CFB08F734BFC4
:1016A000A2EBC702B2EBC70261EB577115EB4C25F9
:1016B0004FEA816141EA92114FEA82624FEAD137E3
:1016C00042EA901206FB07FC44F100044FEA8060F6
:1016D0004FEA1C4C0CFB0BF7D21B03FB0CF761EB26
:1016E00007010CFB0EF7B0EB074072EB17420CFB47
:1016F00008F734BFA2EB0742B2EB074261EB174198
:1017000015EB1C154FEA813141EA92414FEA8232D2
:1017100042EA90424FEA80304FEA0C7644F10004EE
:1017200048EA03434EEA0B484FF0000EB2EB080CB8
:1017300071EB030724BF624639464EEB0E0E4FF0A5
:10174000000B0018524149414BEB0B0BB2EB080C5C
:1017500071EB03077BF1000B24BF624639464EEB69
:101760000E0E4FF0000B0018524149414BEB0B0B92
:10177000B2EB080C71EB03077BF1000B24BF624650
:1017800039464EEB0E0E51EA020718BF46F001062D
:1017900016EB0E7655F1000254F1000103D5BDE8B9
:1017A0008901BDE80088BDE88901BDE80048B61997
:1017B000524141EB0101A3F10103704780807F7E1C
:1017C0007D7C7B7A797877767675747372717170B7
:1017D0006F6E6E6D6C6C6B6A6A6968686766666569
:1017E0006464636362616160605F5F5E5E5D5D5CF7
:1017F0005C5B5B5A5A595958585757565655555568
:101800005454535352525251515050504F4F4F4EC7
:101810004E4D4D4D4C4C4C4B4B4B4A4A4A49494915
:101820004848484747474746464645454544444457
:10183000444343434342424242414141002B9C4680
:1018400030D477002BD01CB54FEA370703B44FF0E4
:1018500010004FF01001BAF1000F06D0BCF1000FDC
:10186000DCBF40F0080040F008014FF000000FBC62
:10187000BDE810400BF1010BBBF1010F08BF5FEA9F
:10188000170722BF12F1010211F101014FF00041CF
:1018900043F1000300F0004043EA00007047F9D331
:1018A0005708D0E746EA064613F1400F4FEA1646BE
:1018B0001FDD13F1200FDFBF16430A46002120333E
:1018C0005B42BED0C3F1200746EA064602FA07F79C
:1018D0004FEA164646EA0706C3F1200722FA03F24A
:1018E00001FA07F721FA03F14FF0000342EA070279
:1018F000A7E746EA020646EA06464FEA164646EAE1
:101900000106BCBF46EA0646360C4FF000034FF016
:1019100000024FF0000194E72DE9804C9A4693466F
:1019200070B491E8380007C831EA400C48BF34EA87
:10193000430C03D5FFF7E6FDFFF780FFF0BCBDE8E1
:10194000008C2DE9804C9A46934670B491E838009B
:1019500007C810F0804F08BF13F0804F03D100F08C
:1019600005F8FFF76BFFF0BCBDE8008C20F07F4767
:1019700080EA030023F07F4C07EB0C03A3F57C53B4
:1019800000F00040A3F1FE0392F0000F00F0B380DE
:1019900095F0000F00F077802DE901494FEA1140E2
:1019A0004FEA144621EA004800FB06FC24EA0647F9
:1019B00008FB06F607FB08F800FB07F718EB0648DC
:1019C0004CEB164C4FEA124B18EB07484FEA154602
:1019D0004CEB174022EA0B4E0BFB06FC25EA0647B0
:1019E0000EFB06F607FB0EFE0BFB07F71EEB064E83
:1019F0004CEB164C4FF000061EEB074E4CEB174B12
:101A000018EB0B0840F1000018EB0E0B58EB000828
:101A100040F100008F1A4FF000013CBFC943661B24
:101A200014BFB5EB040C00213CBFC943F61B4FEAC1
:101A300017444EEA8E0E27EA04454FEA1C4704FB82
:101A400007622CEA074C05FB07F70CFB05F604FBC5
:101A50000CFC16EB074642EB174216EB0C4642EB2A
:101A60001C421BEB060658EB0202414146EA9E0669
:101A700001D5BDE80189B619524141EB0101A3F13D
:101A80000103BDE801894FEA14454FEA114724EAF2
:101A9000054621EA074C05FB07F406FB07F70CFB9C
:101AA00006F105FB0CFC11EB074144EB17444FEA30
:101AB000124711EB0C4144EB1C4422EA074C05FB96
:101AC00007F206FB07F70CFB06F605FB0CFC16EB12
:101AD000074642EB174216EB0C4642EB1C456A18D0
:101AE00054F1000148BF7047B619524141EB010162
:101AF000A3F10103704795F0000F37D04FEA114270
:101B00004FEA144721EA024624EA074C02FB07F198
:101B100006FB07F70CFB06F402FB0CFC14EB074476
:101B200041EB17414FEA154714EB0C4441EB1C41C4
:101B300025EA074C02FB07F506FB07F70CFB06F648
:101B400002FB0CFC16EB074645EB174516EB0C4663
:101B500045EB1C42121951F1000148BF7047B619FC
:101B6000524141EB0101A3F1010370474FEA1445D3
:101B70004FEA114724EA054621EA074C05FB07F125
:101B800006FB07F70CFB06F24FF0000605FB0CFC0A
:101B900012EB074241EB174112EB0C4251EB1C4197
:101BA00048BF7047921841EB0101A3F10103704750
:101BB000CA430260704721B1826842F0010282602C
:101BC00003E0826822F001028260704700B585B0B0
:101BD00000F082F800F054F801208DF80500002094
:101BE00003904FF4602002900020009003208DF8B5
:101BF000100001208DF8040069461A4800F0A4F88E
:101C0000022301220421174800F0C6F802231A46D5
:101C10000521144800F0C0F80223032201211148D5
:101C200000F0BAF801210F4800F01EF801210D481C
:101C3000FFF7C1FF0B4800F00BF900BF094800F0A7
:101C400078F80028FAD1074800F012F900BF0548DB
:101C500000F05CF80028FAD10121024800F0FDF8FC
:101C600005B000BD0024014021B1826842F48072B9
:101C7000826003E0826822F4807282607047000014
:101C800000B58BB0114800F0D9FA03200390002072
:101C900002900A900E4801904FF4806007908020D7
:101CA0000590202008900B48009080150690002099
:101CB00004904FF4005009906946044800F064FB1A
:101CC0000121024800F0AEFA0BB000BD080002404E
:101CD000120000204C24014008B50121042001F02D
:101CE00095FA0121084601F071FA0121480201F03C
:101CF0008DFA3220ADF8000000208DF8030069460F
:101D0000014800F0BDFC08BD00080140014600206C
:101D10008A6802F004020AB1012000E00020704746
:101D20000246002013680B400BB1012000E00020A8
:101D30007047014600208A6802F008020AB10120BB
:101D400000E000207047000030B50246002000236C
:101D500050680F4C20400D790C6844EA052420435C
:101D6000506090680B4C2040D1E902542C434D79CF
:101D700044EA450420439060D06A20F470000C7C53
:101D8000641EE4B2234340EA0350D06230BD000039
:101D9000FFFEF0FFFDF7F1FFF0B504460D46002011
:101DA0000021092D11DDE068A5F10A0606EB4607C2
:101DB000072606FA07F18843A5F10A0606EB460650
:101DC00003FA06F10843E0600CE0206905EB4507E3
:101DD000072606FA07F1884305EB450603FA06F1E4
:101DE00008432061072A0FDA606B561E06EB860750
:101DF0001F2606FA07F18843561E06EB860605FAEB
:101E000006F10843606322E00D2A0FDA206BD61F2B
:101E100006EB86071F2606FA07F18843D61F06EB56
:101E2000860605FA06F10843206310E0E06AA2F195
:101E30000D0606EB86071F2606FA07F18843A2F176
:101E40000D0606EB860605FA06F10843E062F0BDD2
:101E5000816841F008018160704721B1826842F4D5
:101E6000A002826003E0826822F4A00282607047D0
:101E7000816841F004018160704710B501214FF085
:101E8000C05001F0B3F9012001F098F910BD10B570
:101E9000012001F0CBF9002001F0C8F910BD0000CD
:101EA00008B50146002000900348009000980844BF
:101EB00000900098008808BD006C004008B5002222
:101EC0000092044A0092009A02440092009A116023
:101ED00008BD0000006C004010B5002413E0002293
:101EE00020210A4800F064FC4FF4FA7001F0E8FE8B
:101EF00001222021054800F05BFC4FF4FA7001F04C
:101F0000DFFE601C84B2C82CE9DB10BD000C014070
:101F100010B5002411E000222021204800F048FCE8
:101F2000C82001F0CDFE012220211C4800F040FC19
:101F3000C82001F0C5FE601C84B2962CEBDB0024A7
:101F400013E000222021154800F032FC4FF4967077
:101F500001F0B6FE01222021104800F029FC4FF4C8
:101F6000967001F0ADFE601C84B2642CE9DB0024A5
:101F700011E000222021094800F01AFC642001F041
:101F80009FFE01222021054800F012FC642001F090
:101F900097FE601C84B2FA2CEBDB10BD000C0140F4
:101FA00010B5002411E000222021214800F000FC9F
:101FB000C82001F085FE012220211D4800F0F8FB19
:101FC000C82001F07DFE601C84B2B4F5E17FEADB3D
:101FD000002413E000222021154800F0E9FB4FF413
:101FE000C87001F06DFE01222021114800F0E0FBD5
:101FF0004FF4C87001F064FE601C84B2FA2CE9DB77
:10200000002411E000222021094800F0D1FB6420C7
:1020100001F056FE01222021054800F0C9FB642092
:1020200001F04EFE601C84B2B4F5E17FEADB10BD26
:10203000000C014008B50121082001F0E7F810204C
:102040008DF803002020ADF8000003208DF8020079
:102050006946044800F014FB01222021014800F0E9
:10206000A7FB08BD000C014000BFFEE710B500242F
:1020700000F02AF804E0601CC4B2012001F020FE48
:102080004FF480510F4800F086FB08B1502CF2DB72
:10209000502C01DA002401E0012010BD04E0601C96
:1020A000C4B2012001F00CFE4FF48051054800F04D
:1020B00072FB08B9642CF2DB642C01DD0120ECE733
:1020C0000020EAE70008014008B50121042001F0E2
:1020D0009DF84FF48050ADF8000048208DF80300C3
:1020E0006946024800F0CCFA08BD00000008014033
:1020F00008B50121042001F089F84FF48050ADF8B3
:10210000000010208DF8030003208DF802006946BE
:10211000014800F0B5FA08BD0008014010B500F014
:1021200003F8FFF7A3FF10BD10B5FFF7E1FF4FF471
:102130008051074800F038FB142001F0B4FD4FF443
:102140008051034800F032FB282001F0B9FD10BD9A
:102150000008014010B5002404E0601CC4B2012056
:1021600001F0AEFD4FF48051104800F014FB08B1AF
:10217000642CF2DB002404E0601CC4B2012001F0F6
:102180009FFD4FF48051094800F005FB08B9642C0D
:10219000F2DB282001F094FD4FF48051034800F059
:1021A000FAFA08B1012010BD0020FCE70008014048
:1021B00070B5002506E06006040EFFF7CBFF044370
:1021C000681CC5B2082DF6DB204670BD7CB5044600
:1021D000FFF7AAFFFFF74AFF00BB002505E0FFF766
:1021E000E7FF0DF80500681CC5B2052DF7DB9DF86B
:1021F00000009DF8011008449DF8021008449DF865
:10220000031008449DF80410884209D19DF800008D
:102210002070641C9DF80200207001E001207CBD4C
:102220000020FCE721B1026842F00102026004E0F4
:1022300002684FF6FE731A400260704701684FF65D
:10224000FE72114001600021016041608160C16047
:102250004B49884208D14A490839496841F00F0181
:10226000474A083A51608AE045491431884208D10A
:1022700043490839496841F0F001414A083A516040
:102280007DE03F492831884208D13D4908394968F5
:1022900041F470613A4A083A516070E038493C3183
:1022A000884208D136490839496841F47041344AB6
:1022B000083A516063E032495031884208D13049D0
:1022C0000839496841F470212D4A083A516056E0B6
:1022D0002B496431884208D129490839496841F4B9
:1022E0007001274A083A516049E02549783188420F
:1022F00008D123490839496841F07061204A083AF9
:1023000051603CE01F49884206D1011F096841F035
:102310000F01021F116032E01A491431884208D1BE
:102320001849091F096841F0F001164A121F11608F
:1023300025E014492831884208D11249091F09684B
:1023400041F470610F4A121F116018E00D493C31D1
:10235000884208D10B49091F096841F47041094AB4
:10236000121F11600BE007495031884207D105491F
:10237000091F096841F47021024A121F1160704759
:10238000080002400804024010B50022026847F627
:10239000F0739A430C6A8B6823430C6923434C699E
:1023A00023438C692343CC6923434C6A23438C6ABF
:1023B00023431A430260CB6843600B6883604B6819
:1023C000C36010BD70470EB50121042000F01EFF50
:1023D0000121084600F01AFF0621002000F030F924
:1023E0004020009001208DF8060000208DF80400A8
:1023F0000C208DF80500684600F0BEF817208DF817
:10240000080001208DF80B0002208DF80900012042
:102410008DF80A0002A800F08DFD0721002000F0D1
:102420000FF98020009001208DF8060000208DF823
:1024300004000C208DF80500684600F09DF8172078
:102440008DF8080001208DF80B0002208DF809009E
:1024500001208DF80A0002A800F06CFD0EBD0000FE
:1024600008B501210C2000F0D1FEC020ADF800001D
:1024700048208DF803006946064800F001F9042061
:10248000ADF8000048208DF803006946024800F0CE
:10249000F7F808BD00080140000C014010B54020CD
:1024A00000F056F8002831D0642000F034FD0421FB
:1024B000204800F070F920490870032000F01BFD4F
:1024C00040211E4800F067F9E8B91B48007810B9B0
:1024D00001201B49087018480078012802D1022009
:1024E00017490870002404E0601C84B2142000F036
:1024F00012FD4021114800F04EF918B94EF6602047
:102500008442F1DB00BF402000F01CF8802000F086
:102510001FF868B1142000F0EEFC8021074800F09D
:102520003AF910B9032006490870802000F00AF833
:1025300010BD0000000C01401900002000080140FF
:102540001800002001490860704700001404014091
:10255000014600200022074B1B6803EA0102054BDD
:1025600014331B680B4013B10AB1012000E00020B6
:102570007047000000040140002123498279002AAD
:102580003AD00A46126803689A430B461A600A1D3D
:10259000126803689A430B1D1A60027911440A6895
:1025A00003681A430A60184A0832126803689A439B
:1025B000154B08331A601A1D126803689A43124BB0
:1025C0000C331A604279102A0ED11A1F1268036860
:1025D0001A430D4B08331A601A1D126803681A4318
:1025E000094B0C331A600DE00749427911440A681F
:1025F00003681A430A6005E0027911440A68036817
:102600009A430A60704700000004014005490968C8
:1026100021F01001034A116011460968014311605D
:10262000704700000020024001460020034A106865
:1026300000F038000843106070470000002002409E
:1026400030B500228B071C0F0F2303FA04F20B4B4B
:102650008C1053F824309343084C8D1044F82530E7
:1026600023468C1053F824308C07240F00FA04F40E
:102670002343024C8D1044F8253030BD0800014042
:102680002DE9F04102460025002600200023002409
:10269000002791F803C00CF00F0591F803C00CF06F
:1026A000100CBCF1000F03D091F802C04CEA0505F4
:1026B00091F800C0BCF1000F31D0146800202BE06D
:1026C0004FF0010C0CFA00F3B1F800C00CEA03065D
:1026D0009E4220D183004FF00F0C0CFA03F7BC434D
:1026E00005FA03FC4CEA040491F803C0BCF1280F7E
:1026F00006D14FF0010C0CFA00FCC2F814C00AE03D
:1027000091F803C0BCF1480F05D14FF0010C0CFA51
:1027100000FCC2F810C0401C0828D1D31460B1F8E6
:1027200000C0BCF1FF0F34DD546800202EE000F142
:10273000080C4FF0010808FA0CF3B1F800C00CEADD
:1027400003069E4221D183004FF00F0C0CFA03F7D1
:10275000BC4305FA03FC4CEA040491F803C0BCF145
:10276000280F05D100F1080C08FA0CF8C2F8148003
:1027700091F803C0BCF1480F07D100F1080C4FF0ED
:10278000010808FA0CF8C2F81080401C0828CED3C3
:102790005460BDE8F0810246002093680B400BB105
:1027A000012000E0002070474161704701617047DF
:1027B0000AB1016100E04161704700BFFEE721B14D
:1027C000028842F48062028004E002884FF6FF3300
:1027D0001A400280704770B502460024002500238D
:1027E0000020958A138B1B0445EA030626F07F44DC
:1027F00004EA01068E4201D1012000E0002070BDF4
:1028000021B1028842F00102028004E002884FF602
:10281000FE731A40028070471FB500F021F80020B7
:10282000ADF804004BF6FF70ADF80600C020ADF81F
:1028300008004FF48060ADF80A000001ADF80C000C
:10284000054800906946054800F05AF80121034800
:10285000FFF7D6FF1FBD0000400D030000540040ED
:1028600008B50121082000F0D1FC0121480500F045
:10287000BDFCC020ADF800001C208DF80300032033
:102880008DF8020069460248FFF7FAFE08BD000015
:10289000000C014021B1028842F48072028004E001
:1028A00002884FF6FF631A400280704721B1028808
:1028B00042F40072028004E002884FF6FF531A408F
:1028C000028070470CB5024600200023019300935C
:1028D00000920B0F019321F07F41019B1BB1009BE4
:1028E0001433009303E0090C009B18330093009B02
:1028F0001B680B400BB1012000E000200CBD000064
:102900002DE9F04385B004460D460026B146042764
:10291000DFF8CC80A6884FF6C0700640684600F00D
:10292000EDFCDDF808802F48B8FBF0F01FFA80F9C5
:1029300046EA0906A68020884FF6FE7108402080EE
:1029400000262949286888420CD828684000B8FB2E
:10295000F0F087B2042F00DA04273E4309F10100AA
:10296000208427E0E8884BF6FF71884206D128686A
:1029700000EB4000B8FBF0F087B209E0286800EBFC
:10298000C00101EB0010B8FBF0F087B247F48047BC
:10299000C7F30B0008B947F0010747F400400643AE
:1029A0004FF4967009FB00F04FF47A7190FBF1F050
:1029B000401C2084A683208840F0010020802688C7
:1029C0004FF6F5300640A8886989084306432680FB
:1029D000A88929890843208105B0BDE8F08300005B
:1029E00000127A0040420F00A08601002DE9F0415C
:1029F00006460F4615461C4600BF4FF400313248CC
:102A0000FFF760FF0028F8D101212F48FFF742FFB0
:102A100000BF2E492C48FFF7DEFE0028F9D0002227
:102A20003146294800F05AF800BF29492648FFF7E7
:102A3000D2FE0028F9D001212348FFF7E1FE3946F4
:102A4000214800F054F800BF2149891C1E48FFF7B7
:102A5000C2FE0028F8D001211B48FFF71BFF00BF72
:102A60001A491948FFF7B7FE0028F9D0012231466C
:102A7000154800F033F800BF1449491C1248FFF70D
:102A8000AAFE0028F8D016E0012C07D100210E483C
:102A9000FFF795FE01210C48FFF708FF0B493F3176
:102AA0000948FFF798FE30B1074800F013F8287086
:102AB0006D1C601E84B2002CE6D101210248FFF794
:102AC0007EFEBDE8F08100000054004001000300DC
:102AD000820007000146088AC0B2704712B141F077
:102AE000010102E04FF6FE73194001827047018236
:102AF000704700002DE9F04105460F4614461E467A
:102B000001211D48FFF7C6FE00BF1C491A48FFF708
:102B100062FE0028F9D0002229461748FFF7DEFFA1
:102B200000BF17491448FFF756FE0028F9D0394670
:102B30001148FFF7DCFF00BF1149891C0E48FFF761
:102B40004AFE0028F8D00CE021780B48FFF7CFFFB1
:102B5000641C00BF0A49891C0748FFF73CFE002897
:102B6000F8D0301EA6F101018EB2EDD1012102484C
:102B7000FFF79CFEBDE8F081005400400100030017
:102B80008200070070B504460E461546012119481B
:102B9000FFF780FE00BF18491648FFF71CFE00280B
:102BA000F9D0002221461348FFF798FF00BF1349D0
:102BB0001048FFF710FE0028F9D031460D48FFF706
:102BC00096FF00BF0D49891C0A48FFF704FE002844
:102BD000F8D029460748FFF78AFF00BF0749891C3C
:102BE0000448FFF7F8FD0028F8D001210148FFF75D
:102BF0005DFE70BD0054004001000300820007002C
:102C00002DE9F04705460C4616464FF0000AA01C79
:102C1000C4B2D1463AE005F1B000C2B2002178203A
:102C2000FFF7B0FF2746E01704EB107000111030DB
:102C3000C2B200217820FFF7A5FFE01704EB107067
:102C40000011A4EB0010C2B200217820FFF79AFF18
:102C50004FF0000811E00AEB46101149085CC04330
:102C6000C2B240217820FFF78DFF0AF1010000F089
:102C7000FF0A08F1010000F0FF08B8F1100FEADBCD
:102C8000681CC5B209F1010000F0FF09B9F1020F9B
:102C9000C1DBAF2200217820FFF774FFBDE8F08789
:102CA000D46100082DE9F04705460C4616464FF062
:102CB000000AA01CC4B2D1463CE005F1B000C2B28B
:102CC00000217820FFF75EFF2746E01704EB107025
:102CD00000111030C2B200217820FFF753FFE01737
:102CE00004EB10700011A4EB0010C2B20021782098
:102CF000FFF748FF4FF0000813E00AEB0610A0F5BD
:102D000000700F49085CC043C2B240217820FFF731
:102D100039FF0AF1010000F0FF0A08F1010000F09C
:102D2000FF08B8F1080FE8DB681CC5B209F1010023
:102D300000F0FF09B9F1020FBFDBBDE8F08700002A
:102D4000D45B00080146CA1701EB92729210A1EB06
:102D5000820292B9642091FBF0F200FB121050B98C
:102D60004FF4C87091FBF0F200FB121008B901207B
:102D700070470020FCE70120FAE70020F8E7000098
:102D800008B50121082000F041FA0320ADF8000049
:102D900010208DF8030001208DF8020069460248DA
:102DA000FFF76EFC08BD0000000C0140F8B50646B8
:102DB0000024002502236A4600219E20FFF716FE0C
:102DC0009DF800400020307004F0800028B1012000
:102DD0003070E043C4B2601CC4B204F0010008B11A
:102DE000681CC5B204F0020008B1A81CC5B204F00A
:102DF000040008B1281DC5B204F0080010B105F1A7
:102E00000800C5B204F0100010B105F11000C5B201
:102E100004F0200010B105F12000C5B204F040001C
:102E200010B105F14000C5B2761C357000259DF843
:102E3000014004F0200010B105F10C00C5B204F00F
:102E4000400010B105F11900C5B204F0800010B1C6
:102E500005F13200C5B2761C3570F8BD10B54FF4DF
:102E6000165000F0A5FD00F01FF810BD10B502A02F
:102E700000F0F0FD10BD00007E031310EF00000015
:102E800010B502A000F0E6FD10BD00007E03111297
:102E9000EF00000010B502A000F0DCFD10BD000046
:102EA0007E031417EF00000010B502A000F0D2FD61
:102EB00010BD00007E031E1DEF00000010B502A033
:102EC00000F0C8FD10BD00007E031615EF000000E5
:102ED00010B502A000F0BEFD10BD00007E03151667
:102EE000EF00000000BFFEE7704710B54FF4A06090
:102EF00000F058F810BD002107E042F6E06100BF85
:102F00000A1EA1F1010399B2FAD1021EA0F1010338
:102F100098B2F2D17047002106E00A2100BF0A1ED4
:102F2000A1F1010399B2FAD1021EA0F1010398B2F6
:102F3000F3D1704770B5002100230F22C47804B389
:102F4000154C246804F4E064C4F5E064210AC1F17E
:102F50000403CA40447804FA03F1847814402143FE
:102F600009010E4C0678A155047804F01F050124D0
:102F7000AC4005786D11AD0005F1E025C5F80041C4
:102F800009E0047804F01F050124AC40044D0678E4
:102F9000761145F8264070BD0CED00E000E400E03D
:102FA00080E100E002490143024A116070470000DD
:102FB0000000FA050CED00E010B500F0D3F800F0C9
:102FC000A1F800F0DDF810BD2DE9F04705460C46EC
:102FD00016464FF0000AA01CC4B2D14638E005F1F5
:102FE000B000C2B200217820FFF7CCFD2746E017E1
:102FF00004EB107000111030C2B200217820FFF7EE
:10300000C1FDE01704EB10700011A4EB0010C2B278
:1030100000217820FFF7B6FD4FF000080FE00AEB23
:10302000461010490A5C40217820FFF7ABFD0AF1F9
:10303000010000F0FF0A08F1010000F0FF08B8F1FC
:10304000100FECDB681CC5B209F1010000F0FF09AC
:10305000B9F1020FC3DBAF2200217820FFF792FD08
:10306000BDE8F087D46100082DE9F04705460C461D
:1030700016464FF0000AA01CC4B2D1463AE005F152
:10308000B000C2B200217820FFF77CFD2746E01790
:1030900004EB107000111030C2B200217820FFF74D
:1030A00071FDE01704EB10700011A4EB0010C2B228
:1030B00000217820FFF766FD4FF0000811E00AEBD1
:1030C0000610A0F500700E490A5C40217820FFF739
:1030D00059FD0AF1010000F0FF0A08F1010000F0BB
:1030E000FF08B8F1080FEADB681CC5B209F101005E
:1030F00000F0FF09B9F1020FC1DBBDE8F087000065
:10310000D45B000870B5B0241BE022460021782073
:10311000FFF738FD102200217820FFF733FD002251
:1031200011467820FFF72EFD002506E00022402101
:103130007820FFF727FD681CC5B2842DF6DB601CE4
:10314000C4B2B82CE1DB70BD10B504468122002169
:103150007820FFF717FD224600217820FFF712FDA7
:1031600010BD000008B505A00068009002236A4663
:1031700000217820FFF7BEFC08BD0000AE8D0000E6
:1031800000B587B01C2206A16846FDF7AEF81C23E7
:103190006A4600217820FFF7ADFC07B000BD0000B3
:1031A000AE0010D580A83FD300B0408D14A1C8DA7E
:1031B0001281FFD9F1DB302000A4A6AF01490862DB
:1031C0007047000000000E427047000029B1064A17
:1031D00052690243044B5A6104E0034A5269824334
:1031E000014B5A61704700000010024029B1064AA5
:1031F000D2690243044BDA6104E0034AD269824394
:10320000014BDA61704700000010024029B1064A04
:1032100092690243044B9A6104E0034A9269824333
:10322000014B9A617047000000100240014908609C
:1032300070470000400442420348406A40F08070FA
:1032400001494862704700000010024010B500F0CC
:103250002FF84FF4803000F0EDF800F071F90446DB
:10326000012C24D14FF4E011000400F041F90020BA
:1032700000F0D4F8A00200F01DF9002000F026F9BB
:103280000220FFF7D1F91020FFF7C0F9012000F06C
:1032900029F900BF392000F09BF80028FAD002205D
:1032A00000F042F900BF00F0B1F80828FBD110BDD2
:1032B0000F48006840F001000D490860084640686A
:1032C0000C4908400A494860084600680A49084015
:1032D000074908600846006820F480200860084616
:1032E000406820F4FE0048604FF41F00886070477B
:1032F000001002400000FFF8FFFFF6FE30B500218D
:103300000022002400232D4D6D6805F00C0121B131
:10331000042905D0082923D105E0294D056022E0C4
:10332000274D05601FE0254D6D6805F47012234D93
:103330006D6805F48034022505EB92421CB9214DDD
:10334000554305600BE01D4D6D6805F400351DB15A
:103350001C4D5543056002E0194D5543056002E0E0
:10336000174D056000BF00BF144D6D6805F0F001FA
:103370000909154D6B5C0568DD4045600F4D6D68B2
:1033800005F4E061090A104D6B5C4568DD4085601D
:103390000A4D6D6805F46051C90A0B4D6B5C4568B8
:1033A000DD40C560054D6D6805F44041890B074D52
:1033B0006B5CC568B5FBF3F5056130BD00100240DC
:1033C00000127A0000093D001A0000202A000020A7
:1033D00010B501460022002300204A11012A02D123
:1033E000094C236806E0022A02D1074C236A01E057
:1033F000054C636A01F01F02012494401C400CB18B
:10340000012000E0002010BD00100240024840688A
:1034100000F00C0070470000001002400146002040
:10342000034A506820F0F0000843506070470000E5
:10343000001002401149096821F480310F4A1160DF
:103440001146096821F480211160B0F5803F03D056
:10345000B0F5802F0ED106E00849096841F48031AB
:10346000064A116007E00549096841F4A021034AB2
:10347000116000E000BF00BF704700000010024074
:1034800000210B4A11700A4A203A82F820100128C4
:1034900002D0042808D103E00121054A117004E09C
:1034A0000521034A117000E000BF00BF7047000013
:1034B0002010024001460020034A506820F4E060DA
:1034C0000843506070470000001002400146002091
:1034D000034A506820F4605040EAC10050607047D1
:1034E0000010024001490866704700000000424297
:1034F00002460020044B586820F47C1042EA010385
:103500001843014B586070470010024001490860A1
:10351000704700003C0442420249096A0143014AE3
:10352000116270470010024001460020034A5068B3
:1035300020F0030008435060704700000010024074
:1035400038B5002000900024002500BF3120FFF78F
:103550003FFF05460098401C00900098B0F5A06F12
:1035600001D0002DF2D03120FFF732FF08B1012445
:1035700000E00024204638BD10B50420FEF790FC82
:103580004AF2A551884207D000F02AF84AF2A55124
:103590000420FEF793FC0DE07B20FFF719FF10B924
:1035A0007A20FFF715FFFFF747FE0120FFF7AEFF78
:1035B00000F0F0F810BD00000348008840F0100053
:1035C0000149088070470000042800400348008833
:1035D0004FF6EF7108400149088070470428004009
:1035E00010B501214FF0C050FFF700FE0120FFF79A
:1035F000E5FDFEF74CFC0120FFF742FF00BF412034
:10360000FFF7E6FE0028FAD04FF48070FFF784FF42
:103610000120FFF77BFF00F0BDF800F0B1F847F69E
:10362000FF7000F09DF800F0ABF810BD70B50026FB
:103630000024002500F08AF806463A48B6FBF0F46C
:1036400039480088A0423DD037490C8040F2B2751D
:1036500010E02846FFF776FB40B1B4F5B77F02D300
:10366000A4F5B77404E0681C85B206E0A4F26D14FA
:10367000681C85B2B4F5B67FEBD800BF2B48058037
:10368000002516E029480088FFF75CFB30B1012DCA
:1036900004D11D2C01D31D3C09E00CE02448405D01
:1036A000A04203D82248405D241A00E003E0681CD1
:1036B00085B21C2CE6D200BF681C1E490870601C35
:1036C0001D4908701748B6FBF0F100FB11644FF478
:1036D0006160B4FBF0F0194908704FF46160B4FB0D
:1036E000F0F100FB11403C21B0FBF1F014490870EF
:1036F0004FF46160B4FBF0F100FB11403C21B0FBE2
:10370000F1F201FB12000F4908700B4802780948DA
:1037100001780648008800F04FF80B490870002037
:1037200070BD000080510100080000200000002052
:10373000C85B0008020000200300002004000020F5
:10374000050000200600002007000020002103489B
:103750000188001F008841EA004070471C28004093
:1037600000B50246FFF728FFC2F303400349088073
:10377000091D0A80FFF72AFF00BD0000082800404D
:1037800000BF0348008800F020000028F9D07047EF
:1037900004280040074800884FF6F77108400549A3
:1037A000088000BF0348008800F008000028F9D016
:1037B000704700000428004070B5034614460129F4
:1037C00001DB0C2901DDFF2070BD012901D0022998
:1037D00004D101F10C00C1B2581E83B2481C00EBA9
:1037E0004000052590FBF5F0022505FB0145284426
:1037F00018441A46DD1703EB957500EBA500642508
:1038000093FBF5F5401B4FF4C87593FBF5F5284481
:10381000401C072590FBF5F605FB1600C01D90FB2C
:10382000F5F605FB1600C0B2CEE7704710B500F004
:1038300001F810BD0CB500200190009033480068DD
:1038400040F480303149086000BF3048006800F41F
:10385000003000900198401C0190009818B9019820
:10386000B0F5A06FF1D12948006800F4003010B124
:103870000120009001E0002000900098012843D131
:103880002348006840F0100021490860084600689D
:1038900020F0030008600846006840F0020008605D
:1038A0001A48406819494860084640684860084618
:1038B000406840F4806048600846406820F47C100E
:1038C00048600846406840F4E810486008460068D0
:1038D00040F08070086000BF0C48006800F0007085
:1038E0000028F9D00948406820F0030007494860E3
:1038F0000846406840F00200486000BF0348406846
:1039000000F00C000828F9D10CBD000000100240A6
:10391000002002407047000010B51348006840F0D6
:1039200001001149086008464068104908400E49E6
:103930004860084600680E4908400B490860084680
:10394000006820F4802008600846406820F4FE00EB
:1039500048604FF41F008860FFF768FF4FF0006079
:103960000449086010BD0000001002400000FFF88C
:10397000FFFFF6FE08ED00E010B540F225510A48C1
:1039800000F0ADF870B1084800F064F9C4B2532CEF
:1039900003D101200549088004E04B2C02D102200C
:1039A0000249088010BD00000048004010000020BF
:1039B00010B586B0044601210820FFF727FC01213D
:1039C0008804FFF713FC4FF40060ADF814000420E6
:1039D0008DF8170005A91D48FEF752FE4FF48060D0
:1039E000ADF8140003208DF8160018208DF817008C
:1039F00005A91648FEF744FE01940020ADF8080022
:103A0000ADF80A00ADF80C00ADF810000C20ADF8D0
:103A10000E0027208DF8000001208DF801008DF8A0
:103A200002008DF803006846FFF784FA01A90848F0
:103A300000F0A4F8012240F22551054800F079F881
:103A40000121034800F032F806B010BD000C01401F
:103A5000004800400FB410B5B4B0002437A800905F
:103A6000C92101A8009B369AFCF706FC0EE020460F
:103A7000621CD4B201AA115C0B4800F0F0F800BF40
:103A80004021094800F01EF80028F9D0C82C04DABB
:103A900001A8FCF70BFCA042E9D80020009034B04C
:103AA00010BC5DF814FB00000048004021B1828981
:103AB00042F40052828104E082894DF6FF731A407D
:103AC0008281704702460020B1F5007F00D100BF1F
:103AD00013880B400BB1012000E00020704770B547
:103AE0000246002400230025002040F66A16B14259
:103AF00000D100BFC1F3421501F01F03012606FAF1
:103B000003F3012D02D19689334006E0022D02D144
:103B1000168A334001E0968A33400C12012606FAD9
:103B200004F41688344013B10CB1012000E00020E9
:103B300070BDF0B50346002400260025002040F6A5
:103B40006A17B94200D100BF1846C1F3421401F010
:103B50001F06012707FA06F5012C01D10C3004E0FD
:103B6000022C01D1103000E014301AB107682F4345
:103B7000076002E00768AF430760F0BD2DE9F0473A
:103B800086B005460E460024A24600BFA146002787
:103B9000B08900B100BF2F462C8A4CF6FF7004405C
:103BA000F08804432C82AC894EF6F3100440B088B0
:103BB00031890843718908430443AC81AC8A4FF6CC
:103BC000FF400440B0890443AC8201A8FFF796FB94
:103BD0001F48874202D1DDF810A001E0DDF80CA0FB
:103BE000A88900F4004040B10AEBCA0000EB0A10BB
:103BF00031684900B0FBF1F807E00AEBCA0000EBBE
:103C00000A1031688900B0FBF1F86420B8FBF0F0CD
:103C100004012009642101FB1089A88900F40040F7
:103C200040B1322000EBC900B0FBF1F000F007001A
:103C3000044308E0322000EB09106421B0FBF1F0EE
:103C400000F00F0004432C8106B0BDE8F0870000AF
:103C50000038014001468888C0F308007047C1F36E
:103C600008028280704700BFFEE7490050EAC12089
:103C700018BF04204A0D18BF40F0010040F2FF7247
:103C8000B2EB515F08BF40F00200012808BF0520D9
:103C9000704730380A2801D2012070470020704751
:103CA000014600BF704700B5034603E04FF47A7049
:103CB00000F006F8181EA3F101018BB2F6D100BD89
:103CC00000EBC001C9004FF0E02251610021916179
:103CD0000521116100BF4FF0E021096901F4803135
:103CE0000029F8D004214FF0E02211617047000054
:103CF0008CB04FF0010900200A900990824683465B
:103D00000790012004900020039002904FF4FA7075
:103D1000FFF7C9FFFFF79AFAFEF77EFDFFF7E5F818
:103D20000BA8FFF743F8FEF79BFBFFF745F9FFF7FA
:103D300023FCFEF748FBFEF7A0F8FDF747FFFEF770
:103D400079F9FFF71DF8FFF789F89B20FFF7FCF9D9
:103D50004FF47A70FFF7A7FF0820FEF7A1F800F0F4
:103D6000FF09B9F1010F02DBB9F1030F01DD4FF0DB
:103D700001090C20FEF794F806461020FEF790F893
:103D800005461420FEF78CF807461820FEF788F841
:103D900000F0FF08632E00DD0026002D01DB632DFF
:103DA00000DD0025B7F5805F00DD0027B8F1630F67
:103DB00001DD4FF00F08FFF7A5F90D22002108469D
:103DC000FEF71EFF0D2210210020FEF719FF0D2225
:103DD00020210020FEF714FF192230210020FEF7D9
:103DE0000FFF1A2240210020FEF70AFF0D2250216A
:103DF0000020FEF705FF0D2260210020FEF700FFE6
:103E00000D2270210020FEF7FBFEFEF787F988BB2C
:103E1000442200210220FFF727F94822082102202E
:103E2000FFF722F9542210210220FFF71DF9312259
:103E300018210220FFF718F9312220210220FFF774
:103E400013F93A2228210220FFF70EF91B22302114
:103E50000220FFF7B9F81C2240210220FFF7B4F836
:103E60001D2250210220FFF7AFF84FF47A70FFF7C0
:103E70001AFF38E0FFE7442200210220FFF7F4F8A0
:103E8000482208210220FFF7EFF8542210210220D7
:103E9000FFF7EAF8312218210220FFF7E5F8312276
:103EA00020210220FFF7E0F83A2228210220FFF724
:103EB000DBF81F2230210220FFF786F81C22402168
:103EC0000220FFF781F81E2250210220FFF77CF824
:103ED00005E0FEF701F84FF4FA70FFF7E4FEFEF795
:103EE000C5F80028F5D108A8FEF770F94FF4FA607C
:103EF000FFF7D9FE01F02EBEFFF798FBF9480078D6
:103F0000032190FBF1F201FB120001280AD1049871
:103F1000012807D10BA8FEF749FF08A8FEF756F9BC
:103F200000200490EF480078032190FBF1F201FBA0
:103F30001200012803D0049808B90120049000243D
:103F40001EE0E9480088E94921F81400E648408865
:103F5000E74921F81400E4488088E64921F8140074
:103F600000BF0221E448FDF7DBFE0028F9D0012064
:103F7000FFF7A6FE0221E048FDF71AFE601CC4B25E
:103F80000A2CDEDBD94800880690D84800880590C6
:103F9000002415E0D54830F814100698814203DD5E
:103FA000D24830F814000690D04830F81410059824
:103FB000814203DACD4830F814000590601CC4B289
:103FC0000A2CE7DB002407E0C84830F8140050440E
:103FD0001FFA80FA601CC4B20A2CF5DB0699AAEB22
:103FE00001020599501AC11700EB5171C1F3CF0AB4
:103FF000BF4800880690BE4800880590002415E060
:10400000BB4830F814100698814203DDB84830F8F8
:1040100014000690B64830F814100598814203DA6F
:10402000B34830F814000590601CC4B20A2CE7DBDA
:10403000002407E0AE4830F8140058441FFA80FB13
:10404000601CC4B20A2CF5DB0699ABEB01020599A2
:10405000501AC11700EB5171C1F3CF0BA54800886E
:104060000690A44800880590002415E0A14830F887
:1040700014100698814203DD9E4830F81400069023
:104080009C4830F814100598814203DA994830F8BA
:1040900014000590601CC4B20A2CE7DB002408E081
:1040A000944830F814100798084480B20790601CB8
:1040B000C4B20A2CF4DBDDE906218A1A0599501AEC
:1040C000C11700EB5171C1F3CF010791B9F1000F96
:1040D00040F3C787B9F10B0F7ED009DCB9F1090FA6
:1040E0007BD2DFE809F07A20B0FEFDFCFBFAF90094
:1040F000B9F13D0F72D00CDCB9F1150F6FD0B9F1E9
:104100001F0F6DD0B9F1290F6BD0B9F1330F64D106
:10411000FEE3B9F1470F7CD0B9F1510F7AD0B9F174
:104120005B0FF4D1F5E3FEF7EDFF312200210846E5
:10413000FEF7B8FD202208210020FEF7B3FD0D2276
:1041400010210020FEF75CFD002220211046FEF722
:1041500057FD012230210020FEF752FD02224021AE
:104160000020FEF74DFD0D2250210020FEF748FDF6
:104170000D2260210020FEF743FD0D22702100205A
:10418000FEF73EFD0E2200210220FEF71DFF0F224A
:1041900010210220FEF718FF032220210220FEF743
:1041A00013FF042230210220FEF70EFF3A224021A5
:1041B0000220FEF759FF102270210220FEF704FFB3
:1041C0000E2200210420FEF7FFFE0F221021042002
:1041D000FEF7FAFE052205E0D4E3FDE3FDE3FDE38F
:1041E000FDE3FDE320210420FEF7EEFE0422302152
:1041F0001046FEF7E9FE3A2240210420FEF734FF84
:10420000252258210420FEF72FFF1122002106202D
:1042100001E0E6E3E6E3FEF7D7FE122210210620D6
:10422000FEF7D2FE132220210620FEF7CDFE142237
:1042300030210620FEF7C8FE49460820FDF73EFE65
:104240004FF00B094AE2FEF75DFF322200210846DB
:10425000FEF728FD202208210020FEF723FD0D2275
:1042600010210020FEF7CCFC0D2220210020FEF7BB
:10427000C7FC0A2220210020FEF7C2FC0B223021BD
:104280000020FEF7BDFC0C2240210020FEF7B8FC08
:10429000012250210020FEF7B3FC02226021002001
:1042A000FEF7AEFC0D2270210020FEF7A9FC412292
:1042B00000210220FEF7D8FE442208210220FEF74A
:1042C000D3FE432210210220FEF7CEFE3122182118
:1042D0000220FEF7C9FE11E0F2E284E2FFE15BE1B9
:1042E000BCE049E006000020120000203000002061
:1042F0004400002058000020002401403A222021E0
:104300000220FEF7B1FE412200210420FEF7ACFEA0
:10431000442208210420FEF7A7FE43221021042096
:10432000FEF7A2FE322218210420FEF79DFE3A225B
:1043300020210420FEF798FE412200210620FEF7EE
:1043400093FE442208210620FEF78EFE4322102110
:104350000620FEF789FE332218210620FEF784FE90
:104360003A2220210620FEF77FFE49460820FDF76D
:10437000A5FD4FF0150965E7FEF7C4FE33220021C5
:104380000846FEF78FFC202208210020FEF78AFC59
:104390000D2210210020FEF733FC062220210020F0
:1043A000FEF72EFC072230210020FEF729FC012217
:1043B00040210020FEF724FC022250210020FEF7BD
:1043C0001FFC0D2260210020FEF71AFC0D22702137
:1043D0000020FEF715FC152200210220FEF7F4FD57
:1043E000032210210220FEF7EFFD062220210220E9
:1043F000FEF7EAFD072230210220FEF7E5FD162236
:1044000000210420FEF7E0FD032210210420FEF726
:10441000DBFD062220210420FEF7D6FD07223021F5
:104420000420FEF7D1FD082200210620FEF7CCFD76
:10443000092210210620FEF7C7FD06222021104682
:10444000FEF7C2FD072230210620FEF7BDFD4946DA
:104450000820FDF733FD4FF01F09F3E6FEF752FE8B
:10446000332200210846FEF71DFC2D2208210020E2
:10447000FEF718FC312210210020FEF713FC202249
:1044800018210020FEF70EFC0D2220210020FEF74F
:10449000B7FB152230210020FEF7B2FB032240219A
:1044A0000020FEF7ADFB062250210020FEF7A8FBFE
:1044B000072260210020FEF7A3FB0D2270210020BF
:1044C000FEF79EFB152200210220FEF77DFD032250
:1044D00010210220FEF778FD3A2220210220FEF76B
:1044E000C3FD202228210220FEF7DCFB0A2096FBD8
:1044F000F0F00A2190FBF1F201FB1200303080B2A3
:104500000246302101900220FEF7CCFB0A2096FBE8
:10451000F0F100FB1160303080B20246382101908A
:104520000220FEF7BFFB102240210220FEF768FBAD
:10453000162200210420FEF747FD0322102104204B
:10454000FEF742FD3A2220210420FEF78DFD2022B5
:1045500028210420FEF788FD0A2095FBF0F030307A
:1045600080B20246302101900420FEF77DFD0A2032
:1045700095FBF0F100FB1150303080B2024638213B
:1045800001900420FEF770FD102240210420FEF768
:104590001BFD4FF02909A1E3FEF7B4FD33220021F2
:1045A0000846FEF77FFB2D2208210020FEF77AFB4C
:1045B000322210210020FEF775FB20221821002056
:1045C000FEF770FB0D2220210020FEF719FB1622BA
:1045D00030210020FEF714FB032240210020FEF7CB
:1045E0000FFB062250210020FEF70AFB0722602164
:1045F0000020FEF705FB0D2270210020FEF700FBD6
:10460000152200210220FEF7DFFC032210210220E8
:10461000FEF7DAFC3A2220210220FEF725FD2022B7
:1046200028210220FEF720FD0A2096FBF0F00A2147
:1046300090FBF1F201FB1200303080B202463021D3
:1046400001900220FEF710FD0A2096FBF0F100FB1E
:104650001160303080B20246382101900220FEF70E
:1046600003FD102240210220FEF7AEFC162200219D
:104670000420FEF7A9FC032210210420FEF7A4FC6D
:104680003A2220210420FEF7EFFC202228210420DA
:10469000FEF708FB0A2095FBF0F00A2190FBF1F2EF
:1046A00001FB1200303080B202463021019004201C
:1046B000FEF7F8FA0A2095FBF0F100FB11503030BC
:1046C00080B20246382101900420FEF7EBFA102256
:1046D00040210420FEF794FA4FF03309FEE2FEF782
:1046E00011FD332200210846FEF7DCFA2D220821B5
:1046F0000020FEF7D7FA332210210020FEF7D2FA6D
:10470000202218210020FEF7CDFA0D2220210020C2
:10471000FEF776FA082230210020FEF771FA09220E
:1047200040210020FEF76CFA062250210020FEF7FF
:1047300067FA072260210020FEF762FA0D2270213D
:104740000020FEF75DFA082200210420FEF73CFC61
:10475000092210210420FEF737FC3A2220210420F0
:10476000FEF782FC202228210420FEF77DFC4FF476
:104770007A7097FBF0F0303080B202463021019021
:104780000420FEF78FFA642097FBF0F00A2190FBDB
:10479000F1F201FB1200303080B202463821019064
:1047A0000420FEF77FFA0A2097FBF0F00A2190FB25
:1047B000F1F201FB1200303080B20246402101903C
:1047C0000420FEF76FFA0A2097FBF0F100FB11704E
:1047D000303080B20246482101900420FEF762FA90
:1047E0004FF03D097AE2FEF78DFC332200210846A6
:1047F000FEF758FA2D2208210020FEF753FA342242
:1048000010210020FEF74EFA202218210020FEF78A
:1048100049FA0D2220210020FEF7F2F9052230216D
:104820000020FEF7EDF9042240210020FEF7E8F910
:10483000062250210020FEF7E3F907226021002024
:10484000FEF7DEF90D2270210020FEF7D9F90522CE
:1048500000210420FEF7B8FB042210211046FEF7C9
:10486000B3FB3A2220210420FEF7FEFB2022282160
:104870000420FEF7F9FB0A2098FBF0F00A2190FBD8
:10488000F1F201FB1200303080B20246302101907B
:104890000420FEF707FA0A2098FBF0F100FB1180D4
:1048A000303080B20246382101900420FEF7FAF938
:1048B000252240210420FEF7F5F94FF047090DE2CB
:1048C000FEF720FC342200210846FEF7EBF92022F7
:1048D00008210020FEF7E6F90D2210210020FEF746
:1048E0008FF9202211460020FEF78AF9212230217B
:1048F0000020FEF785F94D2240210020FEF7D2F975
:10490000552248210020FEF7CDF95322502101E025
:10491000B6E1DCE10020FEF7C5F94922582100206C
:10492000FEF7C0F9432260210020FEF7BBF92022E8
:1049300068210020FEF7B6F90D2270210020FEF755
:104940005FF9222200210420FEF73EFB23221021E2
:104950000420FEF739FB242220210420FEF734FB3B
:10496000252230210420FEF72FFB3A22402104208B
:10497000FEF77AFB202248210420FEF775FB4FF05A
:104980005109ABE1F84800780A2190FBF1F0303092
:1049900080B20246402101900620FEF765FBF248F6
:1049A00000780A2190FBF1F201FB1200303080B256
:1049B0000246482101900620FEF756FB3A2250217C
:1049C0000620FEF751FBE94800780A2190FBF1F040
:1049D000303080B2024606E07DE155E195E047E1E6
:1049E0004AE155E158E1582101900620FEF73CFBD1
:1049F000DE4800780A2190FBF1F201FB1200303012
:104A000080B20246602101900620FEF72DFB3A227B
:104A100068210620FEF728FBD54800780A2190FB84
:104A2000F1F0303080B20246702101900620FEF78E
:104A30001BFBCF4800780A2190FBF1F201FB12002A
:104A4000303080B20246782101900620FEF70CFB40
:104A50009DF82C0028B12D2248210220FEF704FBEE
:104A600004E0202248210220FEF7FEFA9DF82D00E6
:104A70000A2190FBF1F0303080B2024650210190C3
:104A80000220FEF7F1FA9DF82D000A2190FBF1F2C9
:104A900001FB1200303080B2024658210190022002
:104AA000FEF7E2FA2E2260210220FEF7DDFA9DF8E1
:104AB0002E000A2190FBF1F0303080B202466821CE
:104AC00001900220FEF7D0FA9DF820000A2190FB09
:104AD000F1F090FBF1F201FB1200303080B202469F
:104AE000482101900420FEF7BFFA9DF820000A211A
:104AF00090FBF1F201FB1200303080B202465021EF
:104B000001900420FEF7B0FAE8E04FF47A709AFBC7
:104B1000F0F0303080B20246282101900220FEF7EA
:104B2000A3FA4FF47A709AFBF0F100FB11A0642114
:104B300090FBF1F0303080B202463021019002202B
:104B4000FEF792FA64209AFBF0F100FB11A00A2113
:104B500090FBF1F0303080B2024638210190022003
:104B6000FEF782FA0A209AFBF0F100FB11A0303028
:104B700080B20246402101900220FEF775FA4FF400
:104B80007A709BFBF0F0303080B202462821019011
:104B90000420FEF769FA4FF47A709BFBF0F100FBFA
:104BA00011B0642190FBF1F0303080B20246302128
:104BB00001900420FEF758FA64209BFBF0F100FB03
:104BC00011B00A2190FBF1F0303080B2024638215A
:104BD00001900420FEF748FA0A209BFBF0F100FB4D
:104BE00011B0303080B20246402101900420FEF71F
:104BF0003BFA4FF47A71079890FBF1F0303080B2B5
:104C00000246282101900620FEF72EFA4FF47A7111
:104C1000079890FBF1F201FB1200642190FBF1F088
:104C2000303080B20246302101900620FEF71CFA97
:104C30006421079890FBF1F201FB12000A2190FB1E
:104C4000F1F0303080B20246382101900620FEF7A4
:104C50000BFA0A21079890FBF1F201FB12003030A9
:104C600080B20246402101900620FEF7FDF935E0B2
:104C70000A20FFF718F831E01420FFF714F82DE0B0
:104C80001420FFF710F829E00A20FFF70CF825E0C0
:104C90000A20FFF708F821E0039850B1262250219E
:104CA0000420FEF791F91D2260210420FEF78CF903
:104CB00009E0272250210420FEF786F91E226021F8
:104CC0000420FEF781F90520FEF7EDFF06E00A203B
:104CD000FEF7E9FF02E04FF0010900BF00BF2548E1
:104CE0000078002800F03687B9F10B0FC0F2328748
:104CF000B9F1510F00F32E87B9F1330F73D00CDCEB
:104D0000B9F10B0F13D0B9F1150F1ED0B9F11F0F68
:104D100032D0B9F1290F67D15CE0B9F13D0F7DD0F8
:104D2000B9F1470F7BD0B9F1510FF4D13CE01148F4
:104D30000078012802D14FF0020905E00D48007803
:104D4000022801D14FF0080986E10A4800780128BD
:104D500002D14FF0030905E006480078022801D18E
:104D60004FF0010978E10000040000200500002058
:104D70000600002018000020FA480078012802D11F
:104D80004FF008090FE0F7480078022801D181466A
:104D900009E0F4480078032805D101200A904FF07B
:104DA0000009FDF7B5F857E1EE480078012801D178
:104DB00081460EE0EB480078022802D14FF003094B
:104DC00007E0E8480078032803D14FF000090120EC
:104DD000099041E1E3480078012806D1761C632E52
:104DE0001ADD2E4618E042E033E1DE480078022862
:104DF00004D1761EAE420FDA63260DE0D948007862
:104E0000032809D14FF0000901200A90B1B20C200B
:104E1000FDF754F8FDF7C4F8202201E06FE0C9E087
:104E200028210220FDF73EFF0A2096FBF0F00A2120
:104E300090FBF1F201FB1200303080B202463021CB
:104E400001900220FDF72EFF0A2096FBF0F100FBF7
:104E50001160303080B20246382101900220FDF707
:104E600021FF102240210220FDF7CAFEF4E0BD48D8
:104E70000078012804D16D1CB54218DD002516E02C
:104E8000B8480078022804D16D1E002D0FDA35468F
:104E90000DE0B4480078032809D14FF00009022042
:104EA0000A90A9B21020FDF709F8FDF779F8202241
:104EB00028210420FDF7F6FE0A2095FBF0F00A21D8
:104EC00090FBF1F201FB1200303080B2024630213B
:104ED00001900420FDF7E6FE0A2095FBF0F100FBAF
:104EE0001150303080B20246382101900420FDF785
:104EF000D9FE102240210420FDF782FEACE0994843
:104F00000078012806D1781C87B2B7F5805F17DBDF
:104F1000002715E093480078022804D107B9C7029A
:104F2000781E87B20CE08F480078032808D14FF034
:104F300000090A9039461420FCF7C0FFFDF730F84D
:104F40004FF47A7097FBF0F0303080B20246302197
:104F500001900420FDF7A6FE642097FBF0F00A21E3
:104F600090FBF1F201FB1200303080B20246382192
:104F700001900420FDF796FE0A2097FBF0F00A212D
:104F800090FBF1F201FB1200303080B2024640216A
:104F900001900420FDF786FE0A2097FBF0F100FB4C
:104FA0001170303080B20246482101900420FDF794
:104FB00079FE51E06B48007801280CD108F101001E
:104FC00000F0FF08B8F15A0F02DCB8F10F0F1DDA3C
:104FD0004FF00F081AE063480078022809D1B8F1B1
:104FE0000F0F01DC4FF05B08A8F1010000F0FF0893
:104FF0000CE05C480078032808D14FF000090A90C3
:1050000041461820FCF75AFFFCF7CAFF0A2098FB1C
:10501000F0F00A2190FBF1F201FB1200303080B277
:105020000246302101900420FDF73CFE0A2098FB47
:10503000F0F100FB1180303080B20246382101903F
:105040000420FDF72FFE252240210420FDF72AFE33
:1050500002E04FF0010900BF00BF00204149087085
:10506000F4E30A9800287FD00A980B287DD006DC4C
:1050700006287BD2DFE800F07A0CBFFEFDFC152885
:1050800075D01F2874D0292873D033286ED16EE3D1
:10509000FEF738F8332200210846FDF703FE2022F0
:1050A00008210020FDF7FEFD0D2210210020FDF754
:1050B000A7FD062220210020FDF7A2FD07223021B6
:1050C0000020FDF79DFD012240210020FDF798FD05
:1050D000022250210020FDF793FD0D2260210020C7
:1050E000FDF78EFD0D2270210020FDF789FD1522B0
:1050F00000210220FDF784FD032210210220FDF78C
:105100007FFD062220210220FDF77AFD07223021B3
:105110000220FDF775FD0D2240210220FDF770FDF4
:105120000D2250210220FDF76BFD0D22602102208F
:10513000FDF766FD0D2270210220FDF761FD1622AC
:1051400000210420FDF740FF032210210420FDF779
:105150003BFF062220210420FDF736FF07223021E5
:10516000042007E0180000209BE3F0E203E3F2E2F2
:10517000F5E2F8E2FDF728FF0D2240210420FDF7BB
:1051800023FF0D2250210420FDF71EFF0D22602178
:105190000420FDF719FF0D2270210420FDF714FFF4
:1051A000082200210620FDF70FFF0922102106200A
:1051B000FDF70AFF062220211046FDF705FF072212
:1051C00030210620FDF700FF0D2240210620FDF7CB
:1051D000FBFE0D2250210620FDF7F6FE0D22602178
:1051E0000620FDF7F1FE0D2270210620FDF7ECFEF2
:1051F0000B200A90C2E2FDF785FF3322002108460A
:10520000FDF750FD202208210020FDF74BFD0D2267
:1052100010210020FDF7F4FC062220210020FDF7DC
:10522000EFFC072230210020FDF7EAFC012240219B
:105230000020FDF7E5FC022250210020FDF7E0FCF4
:105240000D2260210020FDF7DBFC0D2270210020E3
:10525000FDF7D6FC152200210220FDF7B5FE032242
:1052600010210220FDF7B0FE06222021022002E0DC
:10527000C3E118E16DE0FDF7A7FE0722302102200F
:10528000FDF7A2FE0D2240210220FDF79DFE0D221A
:1052900050210220FDF798FE0D2260210220FDF72B
:1052A00093FE0D2270210220FDF78EFE16220021B2
:1052B0000420FDF7A5FC032210210420FDF7A0FC2B
:1052C000062220210420FDF79BFC07223021042028
:1052D000FDF796FC0D2240210420FDF791FC0D22E4
:1052E00050210420FDF78CFC0D2260210420FDF7E5
:1052F00087FC0D2270210420FDF782FC082200218A
:105300000620FDF761FE092210210620FDF75CFE54
:10531000062220211046FDF757FE072230210620E5
:10532000FDF752FE0D2240210620FDF74DFE0D2215
:1053300050210620FDF748FE0D2260210620FDF7D2
:1053400043FE0D2270210620FDF73EFE15200A9037
:1053500014E2FDF7D7FE332200210846FDF7A2FC38
:10536000202208210020FDF79DFC0D2210210020A5
:10537000FDF746FC062220210020FDF741FC072214
:1053800030210020FDF73CFC012240210020FDF7E8
:1053900037FC022250210020FDF732FC0D22602153
:1053A0000020FDF72DFC0D2270210020FDF728FCC8
:1053B000152200210220FDF707FE03221021022002
:1053C000FDF702FE062220210220FDF7FDFD072247
:1053D00030210220FDF7F8FD0D2240210220FDF7CB
:1053E000F3FD0D2250210220FDF7EEFD0D2260217C
:1053F0000220FDF7E9FD0D2270210220FDF7E4FDFA
:10540000162200210420FDF7DFFD032210210420D5
:10541000FDF7DAFD062220210420FDF7D5FD072245
:1054200030210420FDF7D0FD0D2240210420FDF79E
:10543000CBFD0D2250210420FDF7C6FD0D22602179
:105440000420FDF7C1FD0D2270210420FDF7BCFDF5
:10545000082200210620FDF7D3FB09221021062097
:10546000FDF7CEFB062220211046FDF7C9FB0722DF
:1054700030210620FDF7C4FB0D2240210620FDF758
:10548000BFFB0D2250210620FDF7BAFB0D22602143
:105490000620FDF7B5FB0D2270210620FDF7B0FBBD
:1054A0001F200A906AE1FDF72DFE332200210846F5
:1054B000FDF7F8FB202208210020FDF7F3FB0D2269
:1054C00010210020FDF79CFB062220210020FDF783
:1054D00097FB072230210020FDF792FB012240219B
:1054E0000020FDF78DFB022250210020FDF788FBF4
:1054F0000D2260210020FDF783FB0D22702100208A
:10550000FDF77EFB162200210220FDF75DFD032240
:1055100010210220FDF758FD062220210220FDF770
:1055200053FD072230210220FDF74EFD0D224021C0
:105530000220FDF749FD0D2250210220FDF744FD18
:105540000D2260210220FDF73FFD0D227021022077
:10555000FDF73AFD082200210420FDF735FD092260
:1055600010210420FDF730FD062220210420FDF744
:105570002BFD072230210420FDF726FD0D224021BE
:105580000420FDF721FD0D2250210420FDF71CFD14
:105590000D2260210420FDF717FD0D22702104204B
:1055A000FDF712FD052200210620FDF729FB04224C
:1055B00010210620FDF724FB062220211046FDF7CE
:1055C0001FFB072230210620FDF71AFB0D22402188
:1055D0000620FDF715FB0D2250210620FDF710FBDC
:1055E0000D2260210620FDF70BFB0D227021062005
:1055F000FDF706FB29200A90C0E0FDF783FD33226A
:1056000000210846FDF74EFB202208210020FDF76F
:1056100049FB0D2210210020FDF7F2FA062220217D
:105620000020FDF7EDFA072230210020FDF7E8FA0F
:10563000012240210020FDF7E3FA02225021002040
:10564000FDF7DEFA0D2260210020FDF7D9FA0D22C8
:1056500070210020FDF7D4FA082200210220FDF776
:10566000B3FC092210210220FDF7AEFC0622202106
:105670000220FDF7A9FC072230210220FDF7A4FC3F
:105680000D2240210220FDF79FFC0D225021022017
:10569000FDF79AFC0D2260210220FDF795FC0D22FA
:1056A00070210220FDF790FC052200210420FDF767
:1056B0008BFC042210211046FDF786FC06222021D7
:1056C0000420FDF781FC072230210420FDF77CFC3B
:1056D0000D2240210420FDF777FC0D2250210420EB
:1056E000FDF772FC0D2260210420FDF76DFC0D22F8
:1056F00070210420FDF768FC172200210620FDF729
:105700007FFA182210210620FDF77AFA06222021BE
:105710001046FDF775FA072230210620FDF770FAD2
:105720000D2240210620FDF76BFA0D2250210620A4
:10573000FDF766FA0D2260210620FDF761FA0D22C1
:1057400070210620FDF75CFA33200A9016E0322023
:10575000FEF7A9FA12E03220FEF7A5FA0EE0322099
:10576000FEF7A1FA0AE03220FEF79DFA06E03220A9
:10577000FEF799FA02E001200A9000BF00BFF64848
:105780000078002862D00A980B285FDB0A981F284F
:1057900038D004DC0B2807D0152878D11BE0292845
:1057A00046D0332873D15BE0EB480078012802D162
:1057B00002200A900EE0E8480078022802D1052075
:1057C0000A9007E0E4480078032803D100200A90FB
:1057D0004FF0040960E0E0480078012802D103207E
:1057E0000A900EE0DC480078022802D101200A90DD
:1057F00007E0D9480078032803D100200A904FF031
:10580000050949E0D4480078012802D104200A9013
:105810000DE0D1480078022801D10A9007E0CE4877
:105820000078032803D100200A904FF0060933E0E6
:10583000C9480078012802D105200A900FE0C64827
:105840000078022803D103200A9008E06EE1C248E4
:105850000078032803D100200A904FF007091BE0CD
:10586000BD480078012801D10A900FE0BA480078BD
:10587000022803D104200A9008E008E0B648007826
:10588000032803D100200A904FF0030904E04FF0F1
:10589000030900200A9000BF00BF0020AE49087035
:1058A00058E109980028FBD00998012806D0022861
:1058B0007AD00B2876D0152875D1EFE0FDF722FCC1
:1058C000342200210846FDF7EDF9202208210020AE
:1058D000FDF7E8F90D2210210020FDF791F92022B3
:1058E00011460020FDF78CF9212230210020FDF720
:1058F00087F94D2240210020FDF7D4F95522482197
:105900000020FDF7CFF9532250210020FDF7CAF9FE
:10591000492258210020FDF7C5F9432260210020CB
:10592000FDF7C0F9202268210020FDF7BBF90D2208
:1059300070210020FDF764F92D2210210420FDF7CD
:1059400093FB2D2220210420FDF78EFB2D225821D0
:105950000420FDF789FB2D2268210420FDF784FB3C
:10596000202200210620FDF72FFB0C22102106200B
:10597000FDF72AFB2D2220210620FDF775FB2022B2
:1059800050210620FDF720FB0C2260210620FDF7A8
:105990001BFB2B2270210620FDF766FB0B200990D4
:1059A0008CE001E069E084E0FDF7ACFB34220021EB
:1059B0000846FDF777F9202208210020FDF772F94B
:1059C0000D2210210020FDF71BF920221146002096
:1059D000FDF716F9212230210020FDF711F94D22A3
:1059E00040210020FDF75EF9552248210020FDF7F7
:1059F00059F9532250210020FDF754F9492258212A
:105A00000020FDF74FF9432260210020FDF74AF9FD
:105A1000202268210020FDF745F90D227021002089
:105A2000FDF7EEF82D2210210420FDF71DFB2D229D
:105A300020210420FDF718FB2D2258210420FDF71A
:105A400013FB2D2268210420FDF70EFB17223021C5
:105A50000620FDF7B9FA182240210620FDF7B4FA16
:105A60002E2200210620FDF7AFFA2F2270210620FA
:105A7000FDF7AAFA1520099020E0029818B9042031
:105A80000290FDF7FDF92A2230210420FDF79CFA4F
:105A90002B2240210420FDF797FA0FE02C22302121
:105AA0000420FDF791FA2D2240210420FDF78CFA05
:105AB00004E0002009904FF0040900BF00BF264811
:105AC000007898B309980B2844DB09980B2802D07A
:105AD000152836D118E020480078012802D1FDF7BA
