:020000040800F2
:100000009807002091010008AD16000807100008AD
:10001000A9160008B9080008F52100080000000032
:10002000000000000000000000000000EF1F0008BA
:10003000150C0008000000008D190008D9200008E8
:10004000AB010008AB010008AB010008AB010008E0
:10005000AB010008AB010008AB010008AB010008D0
:10006000AB010008AB010008AB010008AB010008C0
:10007000AB010008AB010008AB010008AB010008B0
:10008000AB010008AB010008AB010008AB010008A0
:10009000AB010008AB010008AB010008E90C000847
:1000A000AB010008AB010008AB010008AB01000880
:1000B000AB010008AB010008AB010008AB01000870
:1000C000AB010008AB010008AB010008AB01000860
:1000D000AB0100083D210008AB010008AB0100089E
:1000E000AB010008AB010008AB01000800F002F80A
:1000F00000F03FF80AA090E8000C82448344AAF183
:100100000107DA4501D100F034F8AFF2090EBAE880
:100110000F0013F0010F18BFFB1A43F0010318473B
:10012000B0490000D0490000103A24BF78C878C117
:10013000FAD8520724BF30C830C144BF04680C60ED
:10014000704700000023002400250026103A28BF35
:1001500078C1FBD8520728BF30C148BF0B60704739
:10016000632900F0E080002070471FB51FBD10B567
:1001700010BD00F013F91146FFF7F7FF02F072F817
:1001800000F031F903B4FFF7F2FF03BC02F034F8DA
:100190000948804709480047FEE7FEE7FEE7FEE71B
:1001A000FEE7FEE7FEE7FEE7FEE7FEE70448054957
:1001B000054A064B70470000DD200008ED000008EE
:1001C0009801002098070020980300209803002041
:1001D000704700000FB4044910B503AA029800F05C
:1001E000AFF810BC5DF814FB0C0000202DE9F041C5
:1001F0000E460446002020622046E168884730B35E
:10020000252805D0D4E901219047206A401CF2E757
:10021000E168204600278847050018D0A5F1410075
:10022000192802D820354FF4006732462946204667
:100230002760FFF795FF40B1012804D0F61D26F096
:1002400007060836D8E7361DD6E72846DAE7206ADB
:10025000BDE8F08170B50C460546012A05D0287826
:10026000800600D5EA69002302E0012305E05B1C5B
:10027000934202D2E05C0028F9D1A869E618C01ABE
:10028000A861286A184428622846AFF3008004E079
:10029000D5E9012114F8010B9047B442F8D3284660
:1002A000AFF3008070BD10B5203AC0F00B80B1E80C
:1002B0001850203AA0E81850B1E81850A0E818509B
:1002C000BFF4F5AF5FEA027C24BFB1E81850A0E8A4
:1002D000185044BF18C918C0BDE810405FEA827CBE
:1002E00024BF51F8043B40F8043B08BF7047D207D5
:1002F00028BF31F8023B48BF11F8012B28BF20F876
:10030000023B48BF00F8012B7047704770477047A9
:10031000704710B5436913B1AFF3008001E0FFF7F8
:1003200099FF012010BD127800F124010A7000220B
:100330004A700122EDE711684FF0FF32E9E7000053
:10034000074B70B50D467B4400F011F80446284673
:1003500000F020F810B14FF0FF3070BD204670BDA6
:10036000FF1E000001694A1C02610878704700B551
:100370008FB0CDE901310021059105497944CDE9DE
:10038000031011466846FFF731FF0FB000BD0000B3
:10039000E5FFFFFF007B00F080007047754600F02E
:1003A0002BF8AE4605006946534620F00700854607
:1003B00018B020B5FFF7FAFEBDE820404FF0000668
:1003C0004FF000074FF000084FF0000B21F007013D
:1003D000AC46ACE8C009ACE8C009ACE8C009ACE880
:1003E000C0098D46704710B50446AFF30080204623
:1003F000BDE81040FFF7C6BE00487047340100203A
:10040000CA430260704721B1826842F001028260F3
:1004100003E0826822F001028260704700B585B077
:1004200000F082F800F054F801208DF8050000205B
:1004300003904FF4602002900020009003208DF87C
:10044000100001208DF8040069461A4800F0A4F855
:10045000022301220421174800F0C6F802231A469D
:100460000521144800F0C0F802230322012111489D
:1004700000F0BAF801210F4800F01EF801210D48E4
:10048000FFF7C1FF0B4800F00BF900BF094800F06F
:1004900078F80028FAD1074800F012F900BF0548A3
:1004A00000F05CF80028FAD10121024800F0FDF8C4
:1004B00005B000BD0024014021B1826842F4807281
:1004C000826003E0826822F48072826070470000DC
:1004D00000B58BB0114800F0D9FA0320039000203A
:1004E00002900A900E4801904FF48060079080209F
:1004F0000590202008900B48009080150690002061
:1005000004904FF4005009906946044800F064FBE1
:100510000121024800F0AEFA0BB000BD0800024015
:10052000120000204C24014008B50121042001F0F4
:100530004FFA0121084601F02BFA0121480201F08F
:1005400047FA3220ADF8000000208DF8030069461C
:10055000014800F0BBFC08BD000801400146002036
:100560008A6802F004020AB1012000E0002070470E
:100570000246002013680B400BB1012000E0002070
:100580007047014600208A6802F008020AB1012083
:1005900000E000207047000030B502460020002334
:1005A00050680F4C20400D790C6844EA0524204324
:1005B000506090680B4C2040D1E902542C434D7997
:1005C00044EA450420439060D06A20F470000C7C1B
:1005D000641EE4B2234340EA0350D06230BD000001
:1005E000FFFEF0FFFDF7F1FFF0B504460D460020D9
:1005F0000021092D11DDE068A5F10A0606EB46078A
:10060000072606FA07F18843A5F10A0606EB460617
:1006100003FA06F10843E0600CE0206905EB4507AA
:10062000072606FA07F1884305EB450603FA06F1AB
:1006300008432061072A0FDA606B561E06EB860717
:100640001F2606FA07F18843561E06EB860605FAB2
:1006500006F10843606322E00D2A0FDA206BD61FF3
:1006600006EB86071F2606FA07F18843D61F06EB1E
:10067000860605FA06F10843206310E0E06AA2F15D
:100680000D0606EB86071F2606FA07F18843A2F13E
:100690000D0606EB860605FA06F10843E062F0BD9A
:1006A000816841F008018160704721B1826842F49D
:1006B000A002826003E0826822F4A0028260704798
:1006C000816841F004018160704710B501214FF04D
:1006D000C05001F06DF9012001F052F910BD10B5C4
:1006E000012001F085F9002001F082F910BD000021
:1006F00008B5014600200090034800900098084487
:1007000000900098008808BD006C004008B50022E9
:100710000092044A0092009A02440092009A1160EA
:1007200008BD0000006C004010B5002413E000225A
:1007300020210A4800F062FC4FF4FA7001F06CFDD1
:1007400001222021054800F059FC4FF4FA7001F015
:1007500063FD601C84B2C82CE9DB10BD000C0140B5
:1007600010B5002411E000222021204800F046FCB2
:10077000C82001F051FD012220211C4800F03EFC60
:10078000C82001F049FD601C84B2962CEBDB0024EC
:1007900013E000222021154800F030FC4FF4967041
:1007A00001F03AFD01222021104800F027FC4FF40F
:1007B000967001F031FD601C84B2642CE9DB0024EA
:1007C00011E000222021094800F018FC642001F00B
:1007D00023FD01222021054800F010FC642001F0D7
:1007E0001BFD601C84B2FA2CEBDB10BD000C014039
:1007F00010B5002411E000222021214800F0FEFB6A
:10080000C82001F009FD012220211D4800F0F6FB5F
:10081000C82001F001FD601C84B2B4F5E17FEADB81
:10082000002413E000222021154800F0E7FB4FF4DC
:10083000C87001F0F1FC01222021114800F0DEFB1C
:100840004FF4C87001F0E8FC601C84B2FA2CE9DBBC
:10085000002411E000222021094800F0CFFB642091
:1008600001F0DAFC01222021054800F0C7FB6420DA
:1008700001F0D2FC601C84B2B4F5E17FEADB10BD6C
:10088000000C014008B50121082001F0A1F810205A
:100890008DF803002020ADF8000003208DF8020041
:1008A0006946044800F012FB01222021014800F0B3
:1008B000A5FB08BD000C014000BFFEE710B50024F9
:1008C00000F02AF804E0601CC4B2012001F0A4FC8E
:1008D0004FF480510F4800F084FB08B1502CF2DB3C
:1008E000502C01DA002401E0012010BD04E0601C5E
:1008F000C4B2012001F090FC4FF48051054800F093
:1009000070FB08B9642CF2DB642C01DD0120ECE7FC
:100910000020EAE70008014008B50121042001F0A9
:1009200057F84FF48050ADF8000048208DF80300D0
:100930006946024800F0CAFA08BD000000080140FC
:1009400008B50121042001F043F84FF48050ADF8C0
:10095000000010208DF8030003208DF80200694686
:10096000014800F0B3FA08BD0008014010B500F0DE
:1009700003F8FFF7A3FF10BD10B5FFF7E1FF4FF439
:100980008051074800F036FB142001F038FC4FF48A
:100990008051034800F030FB282001F03DFC10BDE1
:1009A0000008014010B5002404E0601CC4B201201E
:1009B00001F032FC4FF48051104800F012FB08B1F6
:1009C000642CF2DB002404E0601CC4B2012001F0BE
:1009D00023FC4FF48051094800F003FB08B9642C54
:1009E000F2DB282001F018FC4FF48051034800F09E
:1009F000F8FA08B1012010BD0020FCE70008014012
:100A000070B5002506E06006040EFFF7CBFF044337
:100A1000681CC5B2082DF6DB204670BD7CB50446C7
:100A2000FFF7AAFFFFF74AFF00BB002505E0FFF72D
:100A3000E7FF0DF80500681CC5B2052DF7DB9DF832
:100A400000009DF8011008449DF8021008449DF82C
:100A5000031008449DF80410884209D19DF8000055
:100A60002070641C9DF80200207001E001207CBD14
:100A70000020FCE721B1026842F00102026004E0BC
:100A800002684FF6FE731A400260704701684FF625
:100A9000FE72114001600021016041608160C1600F
:100AA0004B49884208D14A490839496841F00F0149
:100AB000474A083A51608AE045491431884208D1D2
:100AC00043490839496841F0F001414A083A516008
:100AD0007DE03F492831884208D13D4908394968BD
:100AE00041F470613A4A083A516070E038493C314B
:100AF000884208D136490839496841F47041344A7E
:100B0000083A516063E032495031884208D1304997
:100B10000839496841F470212D4A083A516056E07D
:100B20002B496431884208D129490839496841F480
:100B30007001274A083A516049E0254978318842D6
:100B400008D123490839496841F07061204A083AC0
:100B500051603CE01F49884206D1011F096841F0FD
:100B60000F01021F116032E01A491431884208D186
:100B70001849091F096841F0F001164A121F116057
:100B800025E014492831884208D11249091F096813
:100B900041F470610F4A121F116018E00D493C3199
:100BA000884208D10B49091F096841F47041094A7C
:100BB000121F11600BE007495031884207D10549E7
:100BC000091F096841F47021024A121F1160704721
:100BD000080002400804024010B50022026847F6EF
:100BE000F0739A430C6A8B6823430C6923434C6966
:100BF00023438C692343CC6923434C6A23438C6A87
:100C000023431A430260CB6843600B6883604B68E0
:100C1000C36010BD70470EB50121042000F0D8FE5E
:100C20000121084600F0D4FE0621002000F02EF934
:100C30004020009001208DF8060000208DF804006F
:100C40000C208DF80500684600F0BCF817208DF8E0
:100C5000080001208DF80B0002208DF809008DF8A6
:100C60000A0002A800F048FD0721002000F00EF95C
:100C70008020009001208DF8060000208DF80400EF
:100C80000C208DF80500684600F09CF817208DF8C0
:100C9000080001208DF80B0002208DF809008DF866
:100CA0000A0002A800F028FD0EBD000008B50121D1
:100CB0000C2000F08DFEC020ADF8000048208DF81B
:100CC00003006946064800F001F90420ADF8000071
:100CD00048208DF803006946024800F0F7F808BD87
:100CE00000080140000C014010B5402000F056F80B
:100CF000002831D0642000F0F0FC0421204800F0EE
:100D000070F920490870032000F0D7FC40211E48EC
:100D100000F067F9E8B91B48007810B901201B49B9
:100D2000087018480078012802D10220174908707D
:100D3000002404E0601C84B2142000F0CEFC4021AA
:100D4000114800F04EF918B94EF660208442F1DBEC
:100D500000BF402000F01CF8802000F01FF868B1B0
:100D6000142000F0AAFC8021074800F03AF910B9DD
:100D7000032006490870802000F00AF810BD00002A
:100D8000000C01401900002000080140180000205C
:100D9000014908607047000014040140014600202A
:100DA0000022074B1B6803EA0102054B14331B6842
:100DB0000B4013B10AB1012000E000207047000091
:100DC00000040140002123498279002A3AD00A46D2
:100DD000126803689A430B461A600A1D126803687A
:100DE0009A430B1D1A60027911440A6803681A437A
:100DF0000A60184A0832126803689A43154B083390
:100E00001A601A1D126803689A43124B0C331A6059
:100E10004279102A0ED11A1F126803681A430D4B2B
:100E200008331A601A1D126803681A43094B0C3301
:100E30001A600DE00749427911440A6803681A43B1
:100E40000A6005E0027911440A6803689A430A605F
:100E500070470000000401400549096821F01001B5
:100E6000034A116011460968014311607047000090
:100E70000020024001460020034A106800F03800BC
:100E800008431060704700000020024030B5002287
:100E90008B071C0F0F2303FA04F20B4B8C1053F833
:100EA00024309343084C8D1044F8253023468C1091
:100EB00053F824308C07240F00FA04F42343024C27
:100EC0008D1044F8253030BD080001402DE9F04177
:100ED000024600250026002000230024002791F868
:100EE00003C00CF00F0591F803C00CF0100CBCF11E
:100EF000000F03D091F802C04CEA050591F800C03C
:100F0000BCF1000F31D0146800202BE04FF0010C31
:100F10000CFA00F3B1F800C00CEA03069E4220D19F
:100F200083004FF00F0C0CFA03F7BC4305FA03FCE7
:100F30004CEA040491F803C0BCF1280F06D14FF02D
:100F4000010C0CFA00FCC2F814C00AE091F803C0CE
:100F5000BCF1480F05D14FF0010C0CFA00FCC2F8AF
:100F600010C0401C0828D1D31460B1F800C0BCF1F7
:100F7000FF0F34DD546800202EE000F1080C4FF024
:100F8000010808FA0CF3B1F800C00CEA03069E420F
:100F900021D183004FF00F0C0CFA03F7BC4305FA84
:100FA00003FC4CEA040491F803C0BCF1280F05D1FE
:100FB00000F1080C08FA0CF8C2F8148091F803C08C
:100FC000BCF1480F07D100F1080C4FF0010808FAF6
:100FD0000CF8C2F81080401C0828CED35460BDE83D
:100FE000F0810246002093680B400BB1012000E025
:100FF0000020704741617047016170470AB101618B
:1010000000E04161704700BFFEE721B1028842F471
:101010008062028004E002884FF6FF331A400280AB
:10102000704770B502460024002500230020958AF1
:10103000138B1B0445EA030626F07F4404EA0106ED
:101040008E4201D1012000E0002070BD21B1028854
:1010500042F00102028004E002884FF6FE731A405B
:10106000028070471FB500F021F80020ADF80400A1
:101070004BF6FF70ADF80600C020ADF808004FF445
:101080008060ADF80A000001ADF80C000548009042
:101090006946054800F05AF801210348FFF7D6FFDA
:1010A0001FBD0000400D03000054004008B50121A1
:1010B000082000F08DFC0121480500F079FCC020DB
:1010C000ADF800001C208DF8030003208DF802000D
:1010D00069460248FFF7FAFE08BD0000000C014017
:1010E00021B1028842F48072028004E002884FF647
:1010F000FF631A400280704721B1028842F40072F7
:10110000028004E002884FF6FF531A4002807047C5
:101110000CB50246002000230193009300920B0FB0
:10112000019321F07F41019B1BB1009B143300937D
:1011300003E0090C009B18330093009B1B680B40D5
:101140000BB1012000E000200CBD00002DE9F043B0
:1011500085B004460D460026B1460427DFF8CC8052
:10116000A6884FF6C0700640684600F0A9FCDDF87E
:1011700008802F48B8FBF0F01FFA80F946EA09060C
:10118000A68020884FF6FE7108402080002629495D
:10119000286888420CD828684000B8FBF0F087B275
:1011A000042F00DA04273E4309F10100208427E0E0
:1011B000E8884BF6FF71884206D1286800EB4000B2
:1011C000B8FBF0F087B209E0286800EBC00101EB42
:1011D0000010B8FBF0F087B247F48047C7F30B006C
:1011E00008B947F0010747F4004006434FF49670F2
:1011F00009FB00F04FF47A7190FBF1F0401C208461
:10120000A683208840F00100208026884FF6F53024
:101210000640A8886989084306432680A889298949
:101220000843208105B0BDE8F083000000127A0079
:1012300040420F00A08601002DE9F04106460F460E
:1012400015461C4600BF4FF400313248FFF760FFDF
:101250000028F8D101212F48FFF742FF00BF2E4997
:101260002C48FFF7DEFE0028F9D00022314629483D
:1012700000F05AF800BF29492648FFF7D2FE00289F
:10128000F9D001212348FFF7E1FE3946214800F05B
:1012900054F800BF2149891C1E48FFF7C2FE0028F0
:1012A000F8D001211B48FFF71BFF00BF1A4919485E
:1012B000FFF7B7FE0028F9D001223146154800F0AB
:1012C00033F800BF1449491C1248FFF7AAFE002852
:1012D000F8D016E0012C07D100210E48FFF795FE4B
:1012E00001210C48FFF708FF0B493F310948FFF780
:1012F00098FE30B1074800F013F828706D1C601E8E
:1013000084B2002CE6D101210248FFF77EFEBDE841
:10131000F08100000054004001000300820007003B
:101320000146088AC0B2704712B141F0010102E0E3
:101330004FF6FE731940018270470182704700002A
:101340002DE9F04105460F4614461E4601211D4871
:10135000FFF7C6FE00BF1C491A48FFF762FE0028CF
:10136000F9D0002229461748FFF7DEFF00BF1749D2
:101370001448FFF756FE0028F9D039461148FFF708
:10138000DCFF00BF1149891C0E48FFF74AFE002808
:10139000F8D00CE021780B48FFF7CFFF641C00BFAA
:1013A0000A49891C0748FFF73CFE0028F8D0301E88
:1013B000A6F101018EB2EDD101210248FFF79CFE9A
:1013C000BDE8F081005400400100030082000700E6
:1013D00070B504460E46154601211948FFF780FEF8
:1013E00000BF18491648FFF71CFE0028F9D000225C
:1013F00021461348FFF798FF00BF13491048FFF735
:1014000010FE0028F9D031460D48FFF796FF00BFC7
:101410000D49891C0A48FFF704FE0028F8D0294628
:101420000748FFF78AFF00BF0749891C0448FFF7F8
:10143000F8FD0028F8D001210148FFF75DFE70BDDE
:101440000054004001000300820007002DE9F0472E
:1014500005460C4616464FF0000AA01CC4B2D14601
:101460003AE005F1B000C2B200217820FFF7B0FFEA
:101470002746E01704EB107000111030C2B20021B3
:101480007820FFF7A5FFE01704EB10700011A4EB24
:101490000010C2B200217820FFF79AFF4FF0000839
:1014A00011E00AEB46101149085CC043C2B240216A
:1014B0007820FFF78DFF0AF1010000F0FF0A08F124
:1014C000010000F0FF08B8F1100FEADB681CC5B29C
:1014D00009F1010000F0FF09B9F1020FC1DBAF22F1
:1014E00000217820FFF774FFBDE8F087D0420008A4
:1014F0002DE9F04705460C4616464FF0000AA01CA1
:10150000C4B2D1463CE005F1B000C2B2002178205F
:10151000FFF75EFF2746E01704EB10700011103054
:10152000C2B200217820FFF753FFE01704EB1070E0
:101530000011A4EB0010C2B200217820FFF748FF91
:101540004FF0000813E00AEB0610A0F500700F49F9
:10155000085CC043C2B240217820FFF739FF0AF18E
:10156000010000F0FF0A08F1010000F0FF08B8F1E7
:10157000080FE8DB681CC5B209F1010000F0FF09A3
:10158000B9F1020FBFDBBDE8F0870000D03C0008D6
:101590000146CA1701EB92729210A1EB820292B936
:1015A000642091FBF0F200FB121050B94FF4C870A8
:1015B00091FBF0F200FB121008B9012070470020E7
:1015C000FCE70120FAE70020F8E7000008B5012158
:1015D000082000F0FDF90320ADF8000010208DF880
:1015E000030001208DF8020069460248FFF76EFCF7
:1015F00008BD0000000C0140F8B506460024002597
:1016000002236A4600219E20FFF716FE9DF8004047
:101610000020307004F0800028B101203070E043D9
:10162000C4B2601CC4B204F0010008B1681CC5B2A9
:1016300004F0020008B1A81CC5B204F0040008B10F
:10164000281DC5B204F0080010B105F10800C5B2AC
:1016500004F0100010B105F11000C5B204F0200034
:1016600010B105F12000C5B204F0400010B105F141
:101670004000C5B2761C357000259DF8014004F08D
:10168000200010B105F10C00C5B204F0400010B10B
:1016900005F11900C5B204F0800010B105F1320067
:1016A000C5B2761C3570F8BD00BFFEE7704710B5B7
:1016B0004FF4A06000F058F810BD002107E042F69A
:1016C000E06100BF0A1EA1F1010399B2FAD1021E26
:1016D000A0F1010398B2F2D17047002106E00A217F
:1016E00000BF0A1EA1F1010399B2FAD1021EA0F1B6
:1016F000010398B2F3D1704770B5002100230F2287
:10170000C47804B3154C246804F4E064C4F5E064C0
:10171000210AC1F10403CA40447804FA03F1847831
:101720001440214309010E4C0678A155047804F0B9
:101730001F050124AC4005786D11AD0005F1E025D1
:10174000C5F8004109E0047804F01F050124AC400D
:10175000044D0678761145F8264070BD0CED00E08A
:1017600000E400E080E100E002490143024A116028
:10177000704700000000FA050CED00E010B500F025
:10178000D3F800F0A1F800F0DDF810BD2DE9F04726
:1017900005460C4616464FF0000AA01CC4B2D146BE
:1017A00038E005F1B000C2B200217820FFF710FE4A
:1017B0002746E01704EB107000111030C2B2002170
:1017C0007820FFF705FEE01704EB10700011A4EB82
:1017D0000010C2B200217820FFF7FAFD4FF0000898
:1017E0000FE00AEB461010490A5C40217820FFF711
:1017F000EFFD0AF1010000F0FF0A08F1010000F01E
:10180000FF08B8F1100FECDB681CC5B209F101004C
:1018100000F0FF09B9F1020FC3DBAF2200217820ED
:10182000FFF7D6FDBDE8F087D04200082DE9F0476C
:1018300005460C4616464FF0000AA01CC4B2D1461D
:101840003AE005F1B000C2B200217820FFF7C0FDF8
:101850002746E01704EB107000111030C2B20021CF
:101860007820FFF7B5FDE01704EB10700011A4EB32
:101870000010C2B200217820FFF7AAFD4FF0000847
:1018800011E00AEB0610A0F500700E490A5C402139
:101890007820FFF79DFD0AF1010000F0FF0A08F132
:1018A000010000F0FF08B8F1080FEADB681CC5B2C0
:1018B00009F1010000F0FF09B9F1020FC1DBBDE839
:1018C000F0870000D03C000870B5B0241BE0224631
:1018D00000217820FFF77CFD102200217820FFF7FF
:1018E00077FD002211467820FFF772FD002506E003
:1018F000002240217820FFF76BFD681CC5B2842DC3
:10190000F6DB601CC4B2B82CE1DB70BD10B5044638
:10191000812200217820FFF75BFD224600217820FC
:10192000FFF756FD10BD000008B505A00068009047
:1019300002236A4600217820FFF702FD08BD00005F
:10194000AE8D000000B587B01C2206A16846FEF7E8
:10195000AAFC1C236A4600217820FFF7F1FC07B09F
:1019600000BD0000AE0010D580A83FD300B0408D70
:1019700014A1C8DA1281FFD9F1DB302000A4A6AF90
:10198000014908627047000000000E4270470000E5
:1019900029B1064A52690243044B5A6104E0034AE2
:1019A00052698243014B5A617047000000100240A7
:1019B00029B1064AD2690243044BDA6104E0034AC2
:1019C000D2698243014BDA61704700000010024087
:1019D00029B1064A92690243044B9A6104E0034A22
:1019E00092698243014B9A617047000000100240E7
:1019F0000149086070470000400442420348406AC1
:101A000040F08070014948627047000000100240B9
:101A100010B500F02FF84FF4803000F0EDF800F032
:101A200071F90446012C24D14FF4E011000400F0B8
:101A300041F9002000F0D4F8A00200F01DF90020C8
:101A400000F026F90220FFF715FA1020FFF704FA3C
:101A5000012000F029F900BF392000F09BF8002890
:101A6000FAD0022000F042F900BF00F0B1F80828D7
:101A7000FBD110BD0F48006840F001000D4908601F
:101A8000084640680C4908400A4948600846006812
:101A90000A490840074908600846006820F4802089
:101AA00008600846406820F4FE0048604FF41F00BC
:101AB00088607047001002400000FFF8FFFFF6FE4C
:101AC00030B500210022002400232D4D6D6805F063
:101AD0000C0121B1042905D0082923D105E0294DA5
:101AE000056022E0274D05601FE0254D6D6805F477
:101AF0007012234D6D6805F48034022505EB924287
:101B00001CB9214D554305600BE01D4D6D6805F472
:101B100000351DB11C4D5543056002E0194D55437C
:101B2000056002E0174D056000BF00BF144D6D68F1
:101B300005F0F0010909154D6B5C0568DD40456055
:101B40000F4D6D6805F4E061090A104D6B5C456846
:101B5000DD4085600A4D6D6805F46051C90A0B4D82
:101B60006B5C4568DD40C560054D6D6805F440411E
:101B7000890B074D6B5CC568B5FBF3F5056130BD9E
:101B80000010024000127A0000093D001A000020F7
:101B90002A00002010B501460022002300204A112F
:101BA000012A02D1094C236806E0022A02D1074C1F
:101BB000236A01E0054C636A01F01F02012494408E
:101BC0001C400CB1012000E0002010BD00100240BC
:101BD0000248406800F00C0070470000001002400E
:101BE00001460020034A506820F0F000084350608E
:101BF00070470000001002401149096821F480314B
:101C00000F4A11601146096821F480211160B0F576
:101C1000803F03D0B0F5802F0ED106E00849096857
:101C200041F48031064A116007E00549096841F432
:101C3000A021034A116000E000BF00BF7047000010
:101C40000010024000210B4A11700A4A203A82F823
:101C50002010012802D0042808D103E00121054A00
:101C6000117004E00521034A117000E000BF00BFBD
:101C7000704700002010024001460020034A5068CF
:101C800020F4E060084350607047000000100240FC
:101C900001460020034A506820F4605040EAC10029
:101CA000506070470010024001490866704700000C
:101CB0000000424202460020044B586820F47C1089
:101CC00042EA01031843014B58607047001002407C
:101CD00001490860704700003C0442420249096A19
:101CE0000143014A11627047001002400146002082
:101CF000034A506820F0030008435060704700001A
:101D00000010024038B5002000900024002500BFDC
:101D10003120FFF73FFF05460098401C00900098D7
:101D2000B0F5A06F01D0002DF2D03120FFF732FFC7
:101D300008B1012400E00024204638BD10B504207D
:101D4000FEF7D6FC4AF2A551884207D000F02AF8E7
:101D50004AF2A5510420FEF7D9FC0DE07B20FFF7E5
:101D600019FF10B97A20FFF715FFFFF747FE012092
:101D7000FFF7AEFF00F0F0F810BD00000348008848
:101D800040F010000149088070470000042800401E
:101D9000034800884FF6EF710840014908807047FA
:101DA0000428004010B501214FF0C050FFF700FE9D
:101DB0000120FFF7E5FDFEF792FC0120FFF742FF4F
:101DC00000BF4120FFF7E6FE0028FAD04FF48070F4
:101DD000FFF784FF0120FFF77BFF00F0BDF800F064
:101DE000B1F847F6FF7000F09DF800F0ABF810BDB9
:101DF00070B500260024002500F08AF806463A480F
:101E0000B6FBF0F439480088A0423DD037490C8039
:101E100040F2B27510E02846FFF7BAFB40B1B4F5C6
:101E2000B77F02D3A4F5B77404E0681C85B206E05E
:101E3000A4F26D14681C85B2B4F5B67FEBD800BF70
:101E40002B480580002516E029480088FFF7A0FBF5
:101E500030B1012D04D11D2C01D31D3C09E00CE053
:101E60002448405DA04203D82248405D241A00E087
:101E700003E0681C85B21C2CE6D200BF681C1E491A
:101E80000870601C1D4908701748B6FBF0F100FB94
:101E900011644FF46160B4FBF0F0194908704FF41D
:101EA0006160B4FBF0F100FB11403C21B0FBF1F0AC
:101EB000144908704FF46160B4FBF0F100FB11406D
:101EC0003C21B0FBF1F201FB12000F4908700B48F6
:101ED0000278094801780648008800F04FF80B495D
:101EE0000870002070BD0000805101000800002033
:101EF00000000020C43C0008020000200300002075
:101F0000040000200500002006000020070000203B
:101F1000002103480188001F008841EA0040704703
:101F20001C28004000B50246FFF728FFC2F303401B
:101F300003490880091D0A80FFF72AFF00BD000041
:101F40000828004000BF0348008800F02000002857
:101F5000F9D0704704280040074800884FF6F77111
:101F600008400549088000BF0348008800F00800C9
:101F70000028F9D0704700000428004070B50346DF
:101F80001446012901DB0C2901DDFF2070BD012968
:101F900001D0022904D101F10C00C1B2581E83B254
:101FA000481C00EB4000052590FBF5F0022505FBE1
:101FB0000145284418441A46DD1703EB957500EBDC
:101FC000A500642593FBF5F5401B4FF4C87593FB02
:101FD000F5F52844401C072590FBF5F605FB160097
:101FE000C01D90FBF5F605FB1600C0B2CEE77047AA
:101FF00010B500F001F810BD0CB500200190009064
:102000003348006840F480303149086000BF3048F0
:10201000006800F4003000900198401C0190009886
:1020200018B90198B0F5A06FF1D12948006800F403
:10203000003010B10120009001E0002000900098D5
:10204000012843D12348006840F01000214908606E
:102050000846006820F0030008600846006840F069
:10206000020008601A4840681949486008464068FC
:1020700048600846406840F4806048600846406810
:1020800020F47C1048600846406840F4E81048603E
:102090000846006840F08070086000BF0C48006887
:1020A00000F000700028F9D00948406820F00300D3
:1020B000074948600846406840F00200486000BF99
:1020C0000348406800F00C000828F9D10CBD00005E
:1020D00000100240002002407047000010B5134875
:1020E000006840F001001149086008464068104946
:1020F00008400E494860084600680E4908400B49F0
:1021000008600846006820F480200860084640689F
:1021100020F4FE0048604FF41F008860FFF768FF5E
:102120004FF000600449086010BD0000001002403C
:102130000000FFF8FFFFF6FE08ED00E010B540F2EA
:1021400025511F4800F044F8002838D01C4800F002
:102150004CF8C4B221461BA0FEF73CF81A48008890
:1021600000F4004058BB1848008800F4804060B17B
:102170000A2C03D000201449088020E0124800886F
:1021800040F400401049088019E00D2C06D10E489B
:10219000008840F480400C49088010E00A4800881C
:1021A000C0F30D0009490C5407480088401C06493B
:1021B000088008460088C72801DD0020088010BD7F
:1021C000003801402563000010000020300000208E
:1021D00002460020B1F5007F00D100BF13880B40FC
:1021E0000BB1012000E00020704701468888C0F351
:1021F0000800704700BFFEE7014600BF704700B50A
:10220000034603E04FF47A7000F006F8181EA3F1BD
:1022100001018BB2F6D100BD00EBC001C9004FF047
:10222000E0225161002191610521116100BF4FF051
:10223000E021096901F480310029F8D004214FF030
:10224000E02211617047000000BF054A128802F0C9
:102250004002002AF9D0C2B2014B1B1D1A80704700
:102260000038014088B04FF001090020069001209D
:1022700001906420FFF7C3FFFFF7CAFBFEF7F2FEF1
:1022800007A8FFF7B9F9FEF711FDFFF777FAFFF797
:1022900055FDFEF7C0FCFEF718FAFEF7BFF8FFF792
:1022A00006FAFEF7EFFAFFF791F99B20FFF72EFBF6
:1022B0004FF47A70FFF7A3FF0820FEF719FA00F039
:1022C000FF09B9F1010F02DBB9F1030F01DD4FF096
:1022D00001090C20FEF70CFA06461020FEF708FA5A
:1022E00005461420FEF704FA07461820FEF700FA08
:1022F00000F0FF08632E00DD0026002D01DB632DBA
:1023000000DD0025B7F5805F00DD0027B8F1630F21
:1023100001DD4FF00F08FFF7D7FA0D220021084624
:10232000FFF794F80D2210210020FFF78FF80D22FF
:1023300020210020FFF78AF8192230210020FFF722
:1023400085F81A2240210020FFF780F80D22502145
:102350000020FFF77BF80D2260210020FFF776F8C0
:102360000D2270210020FFF771F8FEF7FFFA88BBFD
:10237000442200210220FFF759FA482208210220B6
:10238000FFF754FA542210210220FFF74FFA3122AE
:1023900018210220FFF74AFA312220210220FFF7FC
:1023A00045FA3A2228210220FFF740FA1B22302169
:1023B0000220FFF7EBF91C2240210220FFF7E6F98B
:1023C0001D2250210220FFF7E1F94FF47A70FFF748
:1023D00016FF38E0FFE7442200210220FFF726FA2B
:1023E000482208210220FFF721FA5422102102205E
:1023F000FFF71CFA312218210220FFF717FA3122C9
:1024000020210220FFF712FA3A2228210220FFF7AA
:102410000DFA1F2230210220FFF7B8F91C224021BB
:102420000220FFF7B3F91E2250210220FFF7AEF978
:1024300005E0FEF779F94FF4FA70FFF7E0FEFEF7DA
:102440003DFA0028F5D105A8FEF7E8FA4FF4FA6046
:10245000FFF7D5FE01F02BBCB9F1000F41F30D8061
:10246000FFF7C6FCFE480078032190FBF1F201FB68
:10247000120001280AD10198012807D107A8FFF707
:10248000BBF805A8FEF7CAFA00200190F4480078CE
:10249000032190FBF1F201FB1200012803D0019807
:1024A00008B901200190B9F10B0F7DD008DCB9F11A
:1024B000080F7AD2DFE809F07919A6FEFDFCFBFAD5
:1024C000B9F1330F72D009DCB9F1150F6FD0B9F142
:1024D0001F0F6DD0B9F1290F67D1FDE3B9F13D0FA1
:1024E00067D0B9F1470FF7D1F7E3FFF7EDF93122E4
:1024F00000210846FEF7FCFF202208210020FEF7FD
:10250000F7FF0D2210210020FEF7A0FF0D22202151
:102510000020FEF79BFF002230211046FEF796FFB9
:10252000012240210020FEF791FF022250210020CD
:10253000FEF78CFF0D2260210020FEF787FF0D22A1
:1025400070210020FEF782FF0E2200210220FFF7FB
:102550001DF90F2210210220FFF718F90322202174
:102560000220FFF713F9042230210220FFF70EF9B1
:102570003A2240210220FFF759F91022702102204F
:10258000FFF704F90E2200210420FFF7FFF80F22C5
:1025900010210420FFF7FAF8052220210420FFF77C
:1025A000F5F80422302105E05FE3FCE3FCE3FCE303
:1025B000FCE3FCE31046FFF7E9F83A22402104204F
:1025C000FFF734F9252258210420FFF72FF91122B3
:1025D00000210620FFF7DAF8122210210620FFF76B
:1025E000D5F8132220210620FFF7D0F8142230213D
:1025F0000620FFF7CBF849460820FEF787F84FF092
:102600000B0940E2FFF760F9322200210846FEF78D
:102610006FFF202208210020FEF76AFF0D22102103
:102620000020FEF713FF0D2220210020FEF70EFFF1
:102630000A2220210020FEF709FF0B223021002072
:10264000FEF704FF0C2240210020FEF7FFFE0122CE
:1026500050210020FEF7FAFE022260210020FEF742
:10266000F5FE0D2270210020FEF7F0FE4122002130
:102670000220FFF7DBF8442208210220FFF7D6F8FA
:10268000432210210220FFF7D1F831221821022025
:10269000FFF7CCF83A2220210220FFF7C7F84122A9
:1026A00000210420FFF7C2F8442204E070E2EBE1CD
:1026B00047E1A5E032E008210420FFF7B7F8432204
:1026C00010210420FFF7B2F8322218210420FFF76E
:1026D000ADF83A2220210420FFF7A8F8412200217A
:1026E0000620FFF7A3F8442208210620FFF79EF8F2
:1026F000432210210620FFF799F8332218210620E3
:10270000FFF794F83A2220210620FFF78FF8494678
:102710000820FDF7FBFF4FF0150972E7FFF7D4F82B
:10272000332200210846FEF7E3FE20220821002084
:10273000FEF7DEFE0D2210210020FEF787FE0622A6
:1027400020210020FEF782FE072230210020FEF724
:102750007DFE012240210020FEF778FE022250215A
:102760000020FEF773FE0D2260210020FEF76EFEB2
:102770000D2270210020FEF769FE152200210220A3
:10278000FFF704F8032210210220FEF7FFFF0622C4
:1027900020210220FEF7FAFF072230210220FEF757
:1027A000F5FF162200210420FEF7F0FF032210217E
:1027B0000420FEF7EBFF062220210420FEF7E6FFAF
:1027C000072230210420FEF7E1FF08220021062025
:1027D000FEF7DCFF092210210620FEF7D7FF0622B4
:1027E00020211046FEF7D2FF072230210620FEF7F7
:1027F000CDFF49460820FDF789FF4FF01F0900E78C
:10280000FFF762F8332200210846FEF771FE2D2201
:1028100008210020FEF76CFE312210210020FEF777
:1028200067FE202218210020FEF762FE0D222021E3
:102830000020FEF70BFE152230210020FEF706FED9
:10284000032240210020FEF701FE06225021002035
:10285000FEF7FCFD072260210020FEF7F7FD01E0F6
:10286000060000200D2270210020FEF7EFFD15224A
:1028700000210220FEF78AFF032210210220FEF72A
:1028800085FF3A2220210220FEF7D0FF20222821B6
:102890000220FEF72DFE0A2096FBF0F00A2190FBA5
:1028A000F1F201FB1200303080B20246302100907C
:1028B0000220FEF71DFE0A2096FBF0F100FB1160DE
:1028C000303080B20246382100900220FEF710FE20
:1028D000102240210220FEF7B9FD1622002104201B
:1028E000FEF754FF032210210420FEF74FFF3A2287
:1028F00020210420FEF79AFF202228210420FEF741
:1029000095FF0A2095FBF0F0303080B2024630216E
:1029100000900420FEF78AFF0A2095FBF0F100FBEF
:102920001150303080B20246382100900420FEF76A
:102930007DFF102240210420FEF728FF4FF02909D7
:10294000FEE3FEF7C1FF332200210846FEF7D0FD6B
:102950002D2208210020FEF7CBFD3222102100207D
:10296000FEF7C6FD202218210020FEF7C1FD0D2232
:1029700020210020FEF76AFD162230210020FEF7FC
:1029800065FD032240210020FEF760FD0622502154
:102990000020FEF75BFD072260210020FEF756FDB8
:1029A0000D2270210020FEF751FD1522002102208A
:1029B000FEF7ECFE032210210220FEF7E7FE3A228A
:1029C00020210220FEF732FF202228210220FEF7DC
:1029D0002DFF0A2096FBF0F00A2190FBF1F201FB9B
:1029E0001200303080B20246302100900220FEF703
:1029F0001DFF0A2096FBF0F100FB1160303080B221
:102A00000246382100900220FEF710FF10224021DC
:102A10000220FEF7BBFE162200210420FEF7B6FEC0
:102A2000032210210420FEF7B1FE3A2220210420C7
:102A3000FEF7FCFE202228210420FEF759FD0A2083
:102A400095FBF0F00A2190FBF1F201FB120030300F
:102A500080B20246302100900420FEF749FD0A2092
:102A600095FBF0F100FB1150303080B20246382166
:102A700000900420FEF73CFD102240210420FEF7C8
:102A8000E5FC4FF033095BE3FEF71EFF3322002124
:102A90000846FEF72DFD2D2208210020FEF728FD17
:102AA000332210210020FEF723FD202218210020D0
:102AB000FEF71EFD0D2220210020FEF7C7FC082294
:102AC00030210020FEF7C2FC092240210020FEF741
:102AD000BDFC062250210020FEF7B8FC0722602131
:102AE0000020FEF7B3FC0D2270210020FEF7AEFCA3
:102AF000082200210420FEF749FE092210210420AB
:102B0000FEF744FE3A2220210420FEF78FFE202209
:102B100028210420FEF78AFE4FF47A7097FBF0F02C
:102B2000303080B20246302100900420FEF7E0FCF5
:102B3000642097FBF0F00A2190FBF1F201FB1200F8
:102B4000303080B20246382100900420FEF7D0FCDD
:102B50000A2097FBF0F00A2190FBF1F201FB120032
:102B6000303080B20246402100900420FEF7C0FCC5
:102B70000A2097FBF0F100FB1170303080B2024662
:102B8000482100900420FEF7B3FC4FF03D09D7E246
:102B9000FEF79AFE332200210846FEF7A9FC2D22FB
:102BA00008210020FEF7A4FC342210210020FEF7AB
:102BB0009FFC202218210020FEF79AFC0D222021E4
:102BC0000020FEF743FC052230210020FEF73EFCEA
:102BD000042240210020FEF739FC0622502100206B
:102BE000FEF734FC072260210020FEF72FFC0D22A7
:102BF00070210020FEF72AFC052200210420FEF7A8
:102C0000C5FD042210211046FEF7C0FD3A22202106
:102C10000420FEF70BFE202228210420FEF706FEEA
:102C20000A2098FBF0F00A2190FBF1F201FB120060
:102C3000303080B20246302100900420FEF758FC6C
:102C40000A2098FBF0F100FB1180303080B2024680
:102C5000382100900420FEF74BFC2522402104205F
:102C6000FEF746FC4FF047096AE2FE4800780A2169
:102C700090FBF1F0303080B20246402100900620F7
:102C8000FEF7D4FDF74800780A2190FBF1F201FB32
:102C90001200303080B20246482100900620FEF734
:102CA000C5FD3A2250210620FEF7C0FDEE4800780F
:102CB0000A2190FBF1F0303080B20246582100909A
:102CC0000620FEF7B3FDE84800780A2190FBF1F2F8
:102CD00001FB1200303001E01FE22AE280B202461E
:102CE000602100900620FEF7A1FD3A22682106200F
:102CF000FEF79CFDDD4800780A2190FBF1F03030B2
:102D000080B20246702100900620FEF78FFDD74862
:102D100000780A2190FBF1F201FB1200303080B202
:102D20000246782100900620FEF780FD9DF81C00E9
:102D300028B12D2248210220FEF778FD04E0202250
:102D400048210220FEF772FD9DF81D000A2190FB2C
:102D5000F1F0303080B20246502100900220FEF7A0
:102D600065FD9DF81D000A2190FBF1F201FB1200A8
:102D7000303080B20246582100900220FEF756FD06
:102D80002E2260210220FEF751FD9DF81E000A212F
:102D900090FBF1F0303080B20246682100900220B2
:102DA000FEF744FD04E0C8E1BBE122E0B1E1BCE193
:102DB0009DF814000A2190FBF1F090FBF1F201FB69
:102DC0001200303080B20246482100900420FEF705
:102DD0002DFD9DF814000A2190FBF1F201FB120079
:102DE000303080B20246502100900420FEF71EFDD4
:102DF000A6E14FF0000AD3460020049000241EE014
:102E00009B4800889B4921F81400994840889A49BA
:102E100021F8140096488088984921F8140000BFD2
:102E200002219748FDF7A4FB0028F9D00220FFF704
:102E3000F3F902219248FDF7E3FA601CC4B20A2CB0
:102E4000DEDB8C48008803908A48008802900024CA
:102E500015E0884830F814100398814203DD854856
:102E600030F814000390834830F81410029881421F
:102E700003DA804830F814000290601CC4B20A2CB7
:102E8000E7DB002407E07B4830F8140050441FFAC9
:102E900080FA601CC4B20A2CF5DB0399AAEB01028C
:102EA0000299501AC11700EB5171C1F3CF0A724851
:102EB00000880390704800880290002415E06E4856
:102EC00030F814100398814203DD6B4830F8140089
:102ED0000390694830F814100298814203DA66487A
:102EE00030F814000290601CC4B20A2CE7DB002406
:102EF00007E0614830F8140058441FFA80FB601C5A
:102F0000C4B20A2CF5DB0399ABEB01020299501A0B
:102F1000C11700EB5171C1F3CF0B584800880390E3
:102F2000564800880290002415E0544830F81410E8
:102F30000398814203DD514830F8140003904F4854
:102F400030F814100298814203DA4C4830F814002B
:102F50000290601CC4B20A2CE7DB002408E047485A
:102F600030F814100498084480B20490601CC4B275
:102F70000A2CF4DBDDE903218A1A0299501AC117E1
:102F800000EB5171C1F3CF0104914FF47A709AFBB9
:102F9000F0F0303080B20246282100900220FEF787
:102FA00045FC4FF47A709AFBF0F100FB11A064210C
:102FB00090FBF1F0303080B20246302100900220C8
:102FC000FEF734FC64209AFBF0F100FB11A00A210B
:102FD00090FBF1F0303080B20246382100900220A0
:102FE000FEF724FC0A209AFBF0F100FB11A0303020
:102FF00080B20246402100900220FEF717FC4FF4F9
:103000007A709BFBF0F0303080B2024628210090AD
:103010000420FEF70BFC4FF47A709BFBF0F100FBF1
:1030200011B0642190FBF1F0303080B202463021C3
:1030300000900420FEF7FAFB64209BFBF0F100FBFC
:1030400011B00A2190FBF1F0303080B202463821F5
:1030500000900420FEF7EAFB0A209BFBF0F100FB46
:1030600011B00FE004000020050000200600002041
:1030700012000020F80000200C0100202001002098
:1030800000240140303080B20246402100900420EC
:10309000FEF7CCFB4FF47A71049890FBF1F03030DE
:1030A00080B20246282100900620FEF7BFFB4FF4B5
:1030B0007A71049890FBF1F201FB1200642190FBFD
:1030C000F1F0303080B20246302100900620FEF749
:1030D000ADFB6421049890FBF1F201FB12000A2180
:1030E00090FBF1F0303080B202463821009006208B
:1030F000FEF79CFB0A21049890FBF1F201FB120001
:10310000303080B20246402100900620FEF78EFB50
:1031100016E00A20FFF773F812E01420FFF76FF8AB
:103120000EE01420FFF76BF80AE00A20FFF767F8BB
:1031300006E00A20FFF763F802E04FF0010900BF44
:1031400000BFFE48007800287ED0B9F10B0F7BDB72
:10315000B9F1470F78DCB9F1290F47D009DCB9F193
:103160000B0F10D0B9F1150F1BD0B9F11F0F6CD197
:1031700025E0B9F1330F69D0B9F13D0F67D0B9F14E
:10318000470FF4D122E1ED480078012802D14FF039
:10319000020905E0E9480078022801D14FF003094F
:1031A00066E1E6480078012802D14FF0030905E006
:1031B000E2480078022801D14FF0010958E1DF48C8
:1031C0000078012801D181460FE0DC480078022810
:1031D00001D1814609E0D9480078032805D10120B2
:1031E00006904FF00009FDF7BBFA41E1D3480078A3
:1031F000012804D1761C632E18DD2E4616E0CF4838
:103200000078022804D1761EAE420FDA63260DE064
:10321000CA480078032809D14FF000090120069020
:10322000B1B20C20FDF772FAFDF7E2FA2022282154
:103230000220FEF75DF90A2096FBF0F00A2190FBD0
:10324000F1F201FB120003E0FEE30EE11BE062E09D
:10325000303080B20246302100900220FEF748F95B
:103260000A2096FBF0F100FB1160303080B202467C
:10327000382100900220FEF73BF910224021022065
:10328000FEF7E4F8F4E0AD480078012804D16D1CA5
:10329000B54218DD002516E0A8480078022804D1C0
:1032A0006D1E002D0FDA35460DE0A4480078032886
:1032B00009D14FF0000902200690A9B21020FDF7B5
:1032C00025FAFDF795FA202228210420FEF710F9AF
:1032D0000A2095FBF0F00A2190FBF1F201FB1200AD
:1032E000303080B20246302100900420FEF700F911
:1032F0000A2095FBF0F100FB1150303080B20246FD
:10330000382100900420FEF7F3F810224021042019
:10331000FEF79CF8ACE089480078012806D1781CBB
:1033200087B2B7F5805F17DB002715E08348007888
:10333000022804D107B9C702781E87B20CE07F4883
:103340000078032808D14FF0000906903946142070
:10335000FDF7DCF9FDF74CFA4FF47A7097FBF0F0CB
:10336000303080B20246302100900420FEF7C0F8D1
:10337000642097FBF0F00A2190FBF1F201FB1200B0
:10338000303080B20246382100900420FEF7B0F8B9
:103390000A2097FBF0F00A2190FBF1F201FB1200EA
:1033A000303080B20246402100900420FEF7A0F8A1
:1033B0000A2097FBF0F100FB1170303080B202461A
:1033C000482100900420FEF793F851E05B48007814
:1033D00001280CD108F1010000F0FF08B8F15A0FE4
:1033E00002DCB8F10F0F1DDA4FF00F081AE0534856
:1033F0000078022809D1B8F10F0F01DC4FF05B080B
:10340000A8F1010000F0FF080CE04C480078032808
:1034100008D14FF00009069041461820FDF776F9D3
:10342000FDF7E6F90A2098FBF0F00A2190FBF1F293
:1034300001FB1200303080B202463021009004209F
:10344000FEF756F80A2098FBF0F100FB11803030AF
:1034500080B20246382100900420FEF749F8252268
:1034600040210420FEF744F802E04FF0010900BFBC
:1034700000BF002031490870E6E206980B285CD0B6
:1034800006DC06287ED2DFE800F07D0CBFFDFCFBE9
:10349000152878D01F2877D0292876D0332871D1E5
:1034A00070E3FEF711FA332200210846FEF720F8F8
:1034B000202208210020FEF71BF80D2210210020F9
:1034C000FDF7C4FF062220210020FDF7BFFF0722E1
:1034D00030210020FDF7BAFF012240210020FDF736
:1034E000B5FF022250210020FDF7B0FF0D22602120
:1034F0000020FDF7ABFF0D2270210020FDF7A6FF95
:10350000152200210220FDF7A1FF03221021022035
:10351000FDF79CFF062220210220FDF797FF0722DE
:1035200030210220FDF792FF0D2240210220FDF7FD
:103530008DFF0D225021022002E013E3180000202D
:10354000FDF784FF0D2260210220FDF77FFF0D2291
:1035500070210220FDF77AFF162200210420FEF7D9
:1035600015F9032210210420FEF710F9062220216C
:103570000420FEF70BF9072230210420FEF706F99C
:103580000D2203E002E3F1E2F4E2F7E2402104203D
:10359000FEF7FCF80D2250210420FEF7F7F80D226B
:1035A00060210420FEF7F2F80D2270210420FEF7BE
:1035B000EDF8082200210620FEF7E8F80922102184
:1035C0000620FEF7E3F8062220211046FEF7DEF87B
:1035D000072230210620FEF7D9F80D2240210620CF
:1035E000FEF7D4F80D2250210620FEF7CFF80D2269
:1035F00060210620FEF7CAF80D2270210620FEF792
:10360000C5F80B200690C4E2FEF75EF933220021D4
:103610000846FDF76DFF202208210020FDF768FF16
:103620000D2210210020FDF711FF0622202100208D
:10363000FDF70CFF072230210020FDF707FF0122D4
:1036400040210020FDF702FF022250210020FDF75B
:10365000FDFE0D2260210020FDF7F8FE0D227021F5
:103660000020FDF7F3FE152200210220FEF78EF860
:10367000032210210220FEF789F80622202102E011
:10368000C4E119E16EE00220FEF780F80722302144
:103690000220FEF77BF80D2240210220FEF776F88B
:1036A0000D2250210220FEF771F80D226021022028
:1036B000FEF76CF80D2270210220FEF767F8162243
:1036C00000210420FDF7C2FE032210210420FDF793
:1036D000BDFE062220210420FDF7B8FE072230217E
:1036E0000420FDF7B3FE0D2240210420FDF7AEFEBD
:1036F0000D2250210420FDF7A9FE0D226021042097
:10370000FDF7A4FE0D2270210420FDF79FFE082284
:1037100000210620FEF73AF8092210210620FEF7C4
:1037200035F8062220211046FEF730F80722302116
:103730000620FEF72BF80D2240210620FEF726F882
:103740000D2250210620FEF721F80D2260210620CF
:10375000FEF71CF80D2270210620FEF717F8152041
:10376000069016E2FEF7B0F8332200210846FDF776
:10377000BFFE202208210020FDF7BAFE0D221021F5
:103780000020FDF763FE062220210020FDF75EFEEB
:10379000072230210020FDF759FE012240210020A0
:1037A000FDF754FE022250210020FDF74FFE0D22AE
:1037B00060210020FDF74AFE0D2270210020FDF758
:1037C00045FE152200210220FDF7E0FF0322102113
:1037D0000220FDF7DBFF062220210220FDF7D6FFA5
:1037E000072230210220FDF7D1FF0D2240210220C7
:1037F000FDF7CCFF0D2250210220FDF7C7FF0D225F
:1038000060210220FDF7C2FF0D2270210220FDF78A
:10381000BDFF162200210420FDF7B8FF032210216E
:103820000420FDF7B3FF062220210420FDF7AEFFA0
:10383000072230210420FDF7A9FF0D22402104209A
:10384000FDF7A4FF0D2250210420FDF79FFF0D225C
:1038500060210420FDF79AFF0D2270210420FDF75E
:1038600095FF082200210620FDF7F0FD0922102116
:103870000620FDF7EBFD062220211046FDF7E6FDB0
:10388000072230210620FDF7E1FD0D224021062010
:10389000FDF7DCFD0D2250210620FDF7D7FD0D229E
:1038A00060210620FDF7D2FD0D2270210620FDF7D4
:1038B000CDFD1F2006906CE1FEF706F833220021B3
:1038C0000846FDF715FE202208210020FDF710FE16
:1038D0000D2210210020FDF7B9FD06222021002035
:1038E000FDF7B4FD072230210020FDF7AFFD0122D6
:1038F00040210020FDF7AAFD022250210020FDF703
:10390000A5FD0D2260210020FDF7A0FD0D227021F4
:103910000020FDF79BFD162200210220FDF736FF57
:10392000032210210220FDF731FF06222021022070
:10393000FDF72CFF072230210220FDF727FF0D2283
:1039400040210220FDF722FF0D2250210220FDF729
:103950001DFF0D2260210220FDF718FF0D227021AE
:103960000220FDF713FF082200210420FDF70EFFBF
:10397000092210210420FDF709FF0622202104203E
:10398000FDF704FF072230210420FDF7FFFE0D2282
:1039900040210420FDF7FAFE0D2250210420FDF7FE
:1039A000F5FE0D2260210420FDF7F0FE0D227021AE
:1039B0000420FDF7EBFE052200210620FDF746FD61
:1039C000042210210620FDF741FD06222021104689
:1039D000FDF73CFD072230210620FDF737FD0D22C3
:1039E00040210620FDF732FD0D2250210620FDF773
:1039F0002DFD0D2260210620FDF728FD0D227021EE
:103A00000620FDF723FD29200690C2E0FDF75CFFAC
:103A1000332200210846FDF76BFD202208210020FB
:103A2000FDF766FD0D2210210020FDF70FFD062297
:103A300020210020FDF70AFD072230210020FDF79C
:103A400005FD0122402100E0DAE00020FDF7FEFC48
:103A5000022250210020FDF7F9FC0D2260210020F8
:103A6000FDF7F4FC0D2270210020FDF7EFFC082289
:103A700000210220FDF78AFE092210210220FDF715
:103A800085FE062220210220FDF780FE072230213C
:103A90000220FDF77BFE0D2240210220FDF776FE7D
:103AA0000D2250210220FDF771FE0D22602102201F
:103AB000FDF76CFE0D2270210220FDF767FE052246
:103AC00000210420FDF762FE042210211046FDF7BC
:103AD0005DFE062220210420FDF758FE072230213A
:103AE0000420FDF753FE0D2240210420FDF74EFE79
:103AF0000D2250210420FDF749FE0D2260210420F3
:103B0000FDF744FE0D2270210420FDF73FFE172231
:103B100000210620FDF79AFC182210210620FDF74F
:103B200095FC062220211046FDF790FC072230214B
:103B30000620FDF78BFC0D2240210620FDF786FCB8
:103B40000D2250210620FDF781FC0D226021062068
:103B5000FDF77CFC0D2270210620FDF777FC332059
:103B6000069016E03220FEF74AFB12E03220FEF704
:103B700046FB0EE03220FEF742FB0AE03220FEF761
:103B80003EFB06E03220FEF73AFB02E00120069001
:103B900000BF00BF4748007890B306981F2839D06F
:103BA00004DC0B2807D0152878D11BE0292847D042
:103BB000332873D15BE03F480078012802D102200E
:103BC00006900EE03B480078022802D105200690BE
:103BD00007E038480078032803D1002006904FF012
:103BE000040960E033480078012802D103200690E0
:103BF0000FE030480078022803D10120069008E049
:103C000055E02C480078032803D1002006904FF09F
:103C1000050948E027480078012802D104200690D1
:103C20000DE024480078022801D1069007E02148E1
:103C30000078032803D1002006904FF0060932E0F7
:103C40001C480078012802D1052006900EE0194892
:103C50000078022802D10320069007E0154800787A
:103C6000032803D1002006904FF007091BE01148FC
:103C70000078012801D106900EE00E480078022855
:103C800002D10420069007E00A480078032803D1F7
:103C9000002006904FF0030905E0FFE74FF003090D
:103CA0000020069000BF00BF002002490870FEF708
:103CB000D3BB000018000020000303060104060225
:103CC000050003051F1C1F1E1F1E1F1F1E1F1E1F7A
:103CD00000000000000000000000000000000000E4
:103CE000000038FCFC3800000000000D0D00000052
:103CF000000E1E00001E0E0000000000000000006C
:103D000020F8F820F8F82000020F0F020F0F020031
:103D1000387C444747CC98000306041C1C0703006A
:103D200030300080C06030000C060301000C0C0035
:103D300080D87CE4BCD84000070F0808070F0800B3
:103D400000101E0E00000000000000000000000037
:103D50000000F0F80C040000000003070C0800004D
:103D60000000040CF8F000000000080C070300003D
:103D700080A0E0C0C0E0A0800002030101030200B7
:103D8000008080E0E080800000000003030000006D
:103D900000000000000000000000101E0E000000E7
:103DA0008080808080808000000000000000000093
:103DB00000000000000000000000000C0C000000EB
:103DC00000000080C06030000C060301000000000D
:103DD000F8FC04C424FCF800070F0908080F0700CA
:103DE000001018FCFC0000000008080F0F08080075
:103DF000080C84C4643C18000E0F0908080C0C0061
:103E0000080C444444FCB800040C0808080F0700E0
:103E1000C0E0B098FCFC8000000000080F0F080014
:103E20007C7C4444C4C48400040C0808080F0700C8
:103E3000F0F84C4444C08000070F0808080F070042
:103E40000C0C0484C47C3C0000000F0F0000000038
:103E5000B8FC444444FCB800070F0808080F0700EA
:103E6000387C444444FCF800000808080C070300B0
:103E700000000030300000000000000606000000D6
:103E800000000030300000000000080E06000000B6
:103E90000080C0603018080000000103060C080014
:103EA0004040404040404000020202020202020044
:103EB0000008183060C0800000080C0603010000F4
:103EC000181C04C4E43C18000000000D0D000000A4
:103ED000F0F808C8C8F8F000070F080B0B0B01003A
:103EE000E0F0988C98F0E0000F0F0000000F0F003A
:103EF00004FCFC4444FCB800080F0F08080F07003E
:103F0000F0F80C04040C180003070C08080C060059
:103F100004FCFC040CF8F000080F0F080C07030069
:103F200004FCFC44E40C1C00080F0F08080C0E00F5
:103F300004FCFC44E40C1C00080F0F080000000007
:103F4000F0F80C84848C980003070C0808070F0015
:103F5000FCFC404040FCFC000F0F0000000F0F0075
:103F6000000004FCFC0400000000080F0F08000023
:103F700000000004FCFC0400070F08080F07000005
:103F800004FCFCC0F03C0C00080F0F00010F0E00F9
:103F900004FCFC0400000000080F0F08080C0E00D1
:103FA000FCFC387038FCFC000F0F0000000F0F0005
:103FB000FCFC3870E0FCFC000F0F0000000F0F004D
:103FC000F0F80C040CF8F00003070C080C070300D1
:103FD00004FCFC44447C3800080F0F08000000007B
:103FE000F8FC040404FCF800070F080E3C3F27000F
:103FF00004FCFC44C4FC3800080F0F00000F0F0045
:10400000183C6444C49C1800060E0808080F0700FA
:10401000001C0CFCFC0C1C000000080F0F0800002A
:10402000FCFC000000FCFC00070F0808080F07005C
:10403000FCFC000000FCFC000103060C0603010070
:10404000FCFC008000FCFC00030F0E030E0F0300BD
:104050000C3CF0C0F03C0C000C0F0300030F0C00F4
:10406000003C7CC0C07C3C000000080F0F08000032
:104070001C0C84C4643C1C000E0F0908080C0E00C4
:104080000000FCFC0404000000000F0F0808000002
:104090003870E0C0800000000000000103070E003F
:1040A00000000404FCFC0000000008080F0F0000E2
:1040B000080C0603060C08000000000000000000C9
:1040C00000000000000000002020202020202020F0
:1040D00000000307040000000000000000000000D2
:1040E00000A0A0A0E0C00000070F0808070F08000C
:1040F00004FCFC2060C08000080F0708080F0700C0
:10410000C0E0202020604000070F0808080C0400D1
:1041100080C06024FCFC0000070F0808070F08009F
:10412000C0E0A0A0A0E0C000070F0808080C040031
:1041300040F8FC440C180000080F0F0800000000B5
:10414000C0E02020C0E02000276F48487F3F0000EB
:1041500004FCFC4020E0C000080F0F00000F0F001F
:10416000000020ECEC0000000000080F0F08000029
:104170000000000020ECEC0000307040407F3F0069
:1041800004FCFC80C0602000080F0F01030E0C002F
:10419000000004FCFC0000000000080F0F080000F5
:1041A000E0E060C060E0C0000F0F000F000F0F00E4
:1041B00020E0C02020E0C000000F0F00000F0F0023
:1041C000C0E0202020E0C000070F0808080F07000B
:1041D00020E0C02020E0C000407F7F48080F07009B
:1041E000C0E02020C0E02000070F08487F7F40008B
:1041F00020E0C0602060C000080F0F080000000031
:1042000040E0A02020604000040C09090B0E0400CF
:104210002020F8FC202000000000070F080C0400FC
:10422000E0E00000E0E00000070F0808070F0800CA
:1042300000E0E00000E0E0000003070C0C070300D2
:10424000E0E0000000E0E000070F0C070C0F0700A3
:104250002060C080C0602000080C0703070C080025
:10426000E0E0000000E0E000474F4848683F1F00E2
:10427000606020A0E06020000C0E0B09080C0C0010
:10428000004040F8BC040400000000070F080800CC
:10429000000000BCBC0000000000000F0F00000088
:1042A000000404BCF84040000008080F07000000AC
:1042B000080C040C080C04000000000000000000C2
:1042C00080C0603060C08000070704040407070056
:1042D00000080808080809FA080808080808000083
:1042E000404041414141417F4141414141404000C5
:1042F000040444C44F4444C424242FB424040400BC
:1043000040442424150C04FE040C152424444000CD
:104310000000F8494A4C48F8484C4A49F800000067
:1043200010101312121212FF121212121310100098
:104330001060028C0000FE9292929292FE000000A9
:1043400004047E01407E42427E427E42427E400024
:104350000000FC242424FC252624FC24242404001E
:1043600040308F80844C55252525554C8080800019
:104370001060028C00FE929292929292FE000000D7
:1043800004047E014448507F40407F504844400030
:10439000404042CC0040A09E8282829EA02020000D
:1043A0000000003F908840432C1028464180800048
:1043B000001715D55557557D555755D5151700007C
:1043C0004040407F555555555555557F404040001C
:1043D0004040424458C0407F40C0504846404000A2
:1043E0008080402018070000003F40404040780097
:1043F00000FE424242FE0042A29E82A2C2BE0000D5
:10440000806F080828CF00002FC8080828CF0000B8
:104410001010D0FF9014E4AFA4A4A4AFE4040000F3
:10442000040300FF00894B2A1A0E1A2A4B888000C9
:10443000101010FF9000F80002041800FF000000A8
:104440000242817F00003F108840300C0B30C000DA
:10445000202020BEAAAAAAAAAAAAAABE202020007A
:10446000008080AFAAAAAAFFAAAAAAAF80800000F3
:10447000000000000000000000000000000000003C
:10448000000000000000000000000000000000002C
:10449000004042445840407F40405048C600000021
:1044A000004044444444444444444444FF00000025
:1044B0000808E8292E28E80808C80C0BE8080800B6
:1044C0000000FF0949897F00000F40807F00000045
:1044D000060909E6F80C040202020202041E0000AA
:1044E000000000071F3020404040404020100000E6
:1044F0000020202020FF000000FF402010080000C6
:104500002060201010FF0000003F40404040780035
:10451000040404E424242526242424E404040400BC
:104520000040201B0242827E0202020B106000004B
:1045300000FC848484FC001010101010FF10100088
:10454000003F1010103F0000010640807F00000077
:1045500000F8010600F0121212F2020202FE000040
:1045600000FF0000001F1111111F0040807F00009C
:1045700004040404F49495969494F404040404004C
:1045800000FE02027A4A4A4A4A4A7A0282FE000041
:10459000008060F80700FC848484FE8283828000AF
:1045A000010000FF0000FF402000418E3040F80075
:1045B000404042CC0000FF4949C949497F80000082
:1045C0000040201F20405F48444041424558400081
:1045D00000007C40404040FF40404040FC00000064
:1045E000007C40404040407F4040404040FC000054
:1045F00080828282FE8282828282FE828282800029
:10460000008040300F0000000000FF0000000000AC
:104610001010D0FF901000FE020202FE0000000009
:10462000040300FF0083601F0000003F404078004B
:10463000000202C2020202FE828282828202000024
:104640004040407F4040407F40404040404040002C
:10465000201808EAACA8A8AFA8A8ACEA0828180057
:1046600000003E02020202FF020212221E000000AF
:104670000000000000000000000000C0300C03003B
:104680000000001008041820100C030000000000B7
:1046900000000008102040804020100800000000AA
:1046A00000000008040201000102040800000000EC
:1046B00000007E92929292929292929E80E00000EE
:1046C000088848281E0808080808FE080808080086
:1046D00000000000000000000000000000000000DA
:1046E00000000000000000000000000000000000CA
:1046F00000000000000000000000000000000000BA
:1047000000000000000000000000000000000000A9
:104710000000000000000000000000000000000099
:104720000000000000000000000000000000000089
:104730000000000000000000000000000000000079
:104740000000000000000000000000000000000069
:104750000000000000000000000000000000000059
:10476000000000000000000000F8FC1C3830381C7D
:10477000FCF800F8F800F8F8000000F8FC8C8C8CCD
:104780000080D050F0E000F0F02030000080800089
:10479000808000808000000C1224120C00000000B9
:1047A0000000000080000000000000001824448881
:1047B0004424180000000000000000000000000079
:1047C00000000000000000000000000000000000E9
:1047D00000000000000000000000000000000000D9
:1047E00000000000000000000003838000808000C3
:1047F000030300080B0B0F07804080408303030373
:1048000000000303030300038380808080C3C3C0D0
:10481000C3C3C0C3C3C0C0C0C0C0808080C0C040CC
:104820002018040300000000002050A050200000C9
:104830000000000000000000000000000000000078
:104840000000000000000000000000000000000068
:104850000000000000000000000000000000000058
:104860000000000000000000000304081108040319
:104870000000000000000000010284C2E16030106E
:1048800078ECFCF63A1B05859713121313111111DE
:104890001111110181FFF9F9F2C2822225058D8BD8
:1048A00093B3E6C68C1C18387070E0C0800000001E
:1048B0000000001824482418000000000000000038
:1048C00000000000000000000000000000000000E8
:1048D00000000000000000000000000000000000D8
:1048E0000000000000000000000080E0E0703018D0
:1048F000181C1C1C0C1C1616160627636DAECE0E5B
:104900000E0F0F0F0E06060707060606060606061A
:1049100006060666776767E70707070606060707BE
:1049200087C76723231210000808090B0F0E0E0C0F
:104930003C70F0C08000000000000000000000009B
:104940000000000000000000000000000000000067
:104950000000000000000000000000000000000057
:10496000000000000000F0F8DEFFF63611E0F0F87D
:10497000FCFEDE1E3F3F1EFEFEFCF8F2E4080107CF
:10498000FC0000000000000000000000000000002B
:1049900000000000000000FF00000000003CFFE7F6
:1049A000311CE6FFFFFFFEFE1F3F3F1FFFFEFEFC28
:1049B000F8F8F031FBFFFEFC3800000000000000BA
:1049C00000000000000000000000000000000000E7
:1049D00000000000000000000000000000000000D7
:1049E0000000000000000003074F4C60607F7F7FE5
:1049F0007F7D4D44727240797D7F7F7F7F7C7070B8
:104A00007373707074747474747474747474747470
:104A10007676767676767673707072727273707060
:104A2000707C7F7F7F7F7D7D62727260687D7F7F1B
:104A30007F7F77746767630000000000000000005C
:104A40000000000000000000000000000000000066
:104A50000000000000000000000000000000000056
:104A60000000000000000000000000000000000046
:104A70000000000000000000000000000000000036
:104A80000000000000000000000000000000000026
:104A90000000000000000000000000000000000016
:104AA0000000000000000000000000000000000006
:104AB00000000000000000000000000000000000F6
:104AC00000000000000000000000000000000000E6
:104AD000F04A000800000020300000002801000813
:104AE000204B000830000020680700004401000847
:104AF00000000000000000000000000000000000B6
:104B000000000000000000000000000000000102A2
:104B10000304010203040607080902040608000052
:04000005080000ED02
:00000001FF
