:020000040800F2
:100000009807002091010008AD16000807100008AD
:10001000A9160008B9080008F52100080000000032
:10002000000000000000000000000000EF1F0008BA
:10003000150C0008000000008D190008D9200008E8
:10004000AB010008AB010008AB010008AB010008E0
:10005000AB010008AB010008AB010008AB010008D0
:10006000AB010008AB010008AB010008AB010008C0
:10007000AB010008AB010008AB010008AB010008B0
:10008000AB010008AB010008AB010008AB010008A0
:10009000AB010008AB010008AB010008E90C000847
:1000A000AB010008AB010008AB010008AB01000880
:1000B000AB010008AB010008AB010008AB01000870
:1000C000AB010008AB010008AB010008AB01000860
:1000D000AB0100083D210008AB010008AB0100089E
:1000E000AB010008AB010008AB01000800F002F80A
:1000F00000F03FF80AA090E8000C82448344AAF183
:100100000107DA4501D100F034F8AFF2090EBAE880
:100110000F0013F0010F18BFFB1A43F0010318473B
:10012000D84B0000F84B0000103A24BF78C878C1C3
:10013000FAD8520724BF30C830C144BF04680C60ED
:10014000704700000023002400250026103A28BF35
:1001500078C1FBD8520728BF30C148BF0B60704739
:10016000632900F0E080002070471FB51FBD10B567
:1001700010BD00F013F91146FFF7F7FF02F072F817
:1001800000F031F903B4FFF7F2FF03BC02F034F8DA
:100190000948804709480047FEE7FEE7FEE7FEE71B
:1001A000FEE7FEE7FEE7FEE7FEE7FEE70448054957
:1001B000054A064B70470000DD200008ED000008EE
:1001C0009801002098070020980300209803002041
:1001D000704700000FB4044910B503AA029800F05C
:1001E000AFF810BC5DF814FB0C0000202DE9F041C5
:1001F0000E460446002020622046E168884730B35E
:10020000252805D0D4E901219047206A401CF2E757
:10021000E168204600278847050018D0A5F1410075
:10022000192802D820354FF4006732462946204667
:100230002760FFF795FF40B1012804D0F61D26F096
:1002400007060836D8E7361DD6E72846DAE7206ADB
:10025000BDE8F08170B50C460546012A05D0287826
:10026000800600D5EA69002302E0012305E05B1C5B
:10027000934202D2E05C0028F9D1A869E618C01ABE
:10028000A861286A184428622846AFF3008004E079
:10029000D5E9012114F8010B9047B442F8D3284660
:1002A000AFF3008070BD10B5203AC0F00B80B1E80C
:1002B0001850203AA0E81850B1E81850A0E818509B
:1002C000BFF4F5AF5FEA027C24BFB1E81850A0E8A4
:1002D000185044BF18C918C0BDE810405FEA827CBE
:1002E00024BF51F8043B40F8043B08BF7047D207D5
:1002F00028BF31F8023B48BF11F8012B28BF20F876
:10030000023B48BF00F8012B7047704770477047A9
:10031000704710B5436913B1AFF3008001E0FFF7F8
:1003200099FF012010BD127800F124010A7000220B
:100330004A700122EDE711684FF0FF32E9E7000053
:10034000074B70B50D467B4400F011F80446284673
:1003500000F020F810B14FF0FF3070BD204670BDA6
:10036000FF1E000001694A1C02610878704700B551
:100370008FB0CDE901310021059105497944CDE9DE
:10038000031011466846FFF731FF0FB000BD0000B3
:10039000E5FFFFFF007B00F080007047754600F02E
:1003A0002BF8AE4605006946534620F00700854607
:1003B00018B020B5FFF7FAFEBDE820404FF0000668
:1003C0004FF000074FF000084FF0000B21F007013D
:1003D000AC46ACE8C009ACE8C009ACE8C009ACE880
:1003E000C0098D46704710B50446AFF30080204623
:1003F000BDE81040FFF7C6BE00487047340100203A
:10040000CA430260704721B1826842F001028260F3
:1004100003E0826822F001028260704700B585B077
:1004200000F082F800F054F801208DF8050000205B
:1004300003904FF4602002900020009003208DF87C
:10044000100001208DF8040069461A4800F0A4F855
:10045000022301220421174800F0C6F802231A469D
:100460000521144800F0C0F802230322012111489D
:1004700000F0BAF801210F4800F01EF801210D48E4
:10048000FFF7C1FF0B4800F00BF900BF094800F06F
:1004900078F80028FAD1074800F012F900BF0548A3
:1004A00000F05CF80028FAD10121024800F0FDF8C4
:1004B00005B000BD0024014021B1826842F4807281
:1004C000826003E0826822F48072826070470000DC
:1004D00000B58BB0114800F0D9FA0320039000203A
:1004E00002900A900E4801904FF48060079080209F
:1004F0000590202008900B48009080150690002061
:1005000004904FF4005009906946044800F064FBE1
:100510000121024800F0AEFA0BB000BD0800024015
:10052000120000204C24014008B50121042001F0F4
:100530004FFA0121084601F02BFA0121480201F08F
:1005400047FA3220ADF8000000208DF8030069461C
:10055000014800F0BBFC08BD000801400146002036
:100560008A6802F004020AB1012000E0002070470E
:100570000246002013680B400BB1012000E0002070
:100580007047014600208A6802F008020AB1012083
:1005900000E000207047000030B502460020002334
:1005A00050680F4C20400D790C6844EA0524204324
:1005B000506090680B4C2040D1E902542C434D7997
:1005C00044EA450420439060D06A20F470000C7C1B
:1005D000641EE4B2234340EA0350D06230BD000001
:1005E000FFFEF0FFFDF7F1FFF0B504460D460020D9
:1005F0000021092D11DDE068A5F10A0606EB46078A
:10060000072606FA07F18843A5F10A0606EB460617
:1006100003FA06F10843E0600CE0206905EB4507AA
:10062000072606FA07F1884305EB450603FA06F1AB
:1006300008432061072A0FDA606B561E06EB860717
:100640001F2606FA07F18843561E06EB860605FAB2
:1006500006F10843606322E00D2A0FDA206BD61FF3
:1006600006EB86071F2606FA07F18843D61F06EB1E
:10067000860605FA06F10843206310E0E06AA2F15D
:100680000D0606EB86071F2606FA07F18843A2F13E
:100690000D0606EB860605FA06F10843E062F0BD9A
:1006A000816841F008018160704721B1826842F49D
:1006B000A002826003E0826822F4A0028260704798
:1006C000816841F004018160704710B501214FF04D
:1006D000C05001F06DF9012001F052F910BD10B5C4
:1006E000012001F085F9002001F082F910BD000021
:1006F00008B5014600200090034800900098084487
:1007000000900098008808BD006C004008B50022E9
:100710000092044A0092009A02440092009A1160EA
:1007200008BD0000006C004010B5002413E000225A
:1007300020210A4800F062FC4FF4FA7001F06CFDD1
:1007400001222021054800F059FC4FF4FA7001F015
:1007500063FD601C84B2C82CE9DB10BD000C0140B5
:1007600010B5002411E000222021204800F046FCB2
:10077000C82001F051FD012220211C4800F03EFC60
:10078000C82001F049FD601C84B2962CEBDB0024EC
:1007900013E000222021154800F030FC4FF4967041
:1007A00001F03AFD01222021104800F027FC4FF40F
:1007B000967001F031FD601C84B2642CE9DB0024EA
:1007C00011E000222021094800F018FC642001F00B
:1007D00023FD01222021054800F010FC642001F0D7
:1007E0001BFD601C84B2FA2CEBDB10BD000C014039
:1007F00010B5002411E000222021214800F0FEFB6A
:10080000C82001F009FD012220211D4800F0F6FB5F
:10081000C82001F001FD601C84B2B4F5E17FEADB81
:10082000002413E000222021154800F0E7FB4FF4DC
:10083000C87001F0F1FC01222021114800F0DEFB1C
:100840004FF4C87001F0E8FC601C84B2FA2CE9DBBC
:10085000002411E000222021094800F0CFFB642091
:1008600001F0DAFC01222021054800F0C7FB6420DA
:1008700001F0D2FC601C84B2B4F5E17FEADB10BD6C
:10088000000C014008B50121082001F0A1F810205A
:100890008DF803002020ADF8000003208DF8020041
:1008A0006946044800F012FB01222021014800F0B3
:1008B000A5FB08BD000C014000BFFEE710B50024F9
:1008C00000F02AF804E0601CC4B2012001F0A4FC8E
:1008D0004FF480510F4800F084FB08B1502CF2DB3C
:1008E000502C01DA002401E0012010BD04E0601C5E
:1008F000C4B2012001F090FC4FF48051054800F093
:1009000070FB08B9642CF2DB642C01DD0120ECE7FC
:100910000020EAE70008014008B50121042001F0A9
:1009200057F84FF48050ADF8000048208DF80300D0
:100930006946024800F0CAFA08BD000000080140FC
:1009400008B50121042001F043F84FF48050ADF8C0
:10095000000010208DF8030003208DF80200694686
:10096000014800F0B3FA08BD0008014010B500F0DE
:1009700003F8FFF7A3FF10BD10B5FFF7E1FF4FF439
:100980008051074800F036FB142001F038FC4FF48A
:100990008051034800F030FB282001F03DFC10BDE1
:1009A0000008014010B5002404E0601CC4B201201E
:1009B00001F032FC4FF48051104800F012FB08B1F6
:1009C000642CF2DB002404E0601CC4B2012001F0BE
:1009D00023FC4FF48051094800F003FB08B9642C54
:1009E000F2DB282001F018FC4FF48051034800F09E
:1009F000F8FA08B1012010BD0020FCE70008014012
:100A000070B5002506E06006040EFFF7CBFF044337
:100A1000681CC5B2082DF6DB204670BD7CB50446C7
:100A2000FFF7AAFFFFF74AFF00BB002505E0FFF72D
:100A3000E7FF0DF80500681CC5B2052DF7DB9DF832
:100A400000009DF8011008449DF8021008449DF82C
:100A5000031008449DF80410884209D19DF8000055
:100A60002070641C9DF80200207001E001207CBD14
:100A70000020FCE721B1026842F00102026004E0BC
:100A800002684FF6FE731A400260704701684FF625
:100A9000FE72114001600021016041608160C1600F
:100AA0004B49884208D14A490839496841F00F0149
:100AB000474A083A51608AE045491431884208D1D2
:100AC00043490839496841F0F001414A083A516008
:100AD0007DE03F492831884208D13D4908394968BD
:100AE00041F470613A4A083A516070E038493C314B
:100AF000884208D136490839496841F47041344A7E
:100B0000083A516063E032495031884208D1304997
:100B10000839496841F470212D4A083A516056E07D
:100B20002B496431884208D129490839496841F480
:100B30007001274A083A516049E0254978318842D6
:100B400008D123490839496841F07061204A083AC0
:100B500051603CE01F49884206D1011F096841F0FD
:100B60000F01021F116032E01A491431884208D186
:100B70001849091F096841F0F001164A121F116057
:100B800025E014492831884208D11249091F096813
:100B900041F470610F4A121F116018E00D493C3199
:100BA000884208D10B49091F096841F47041094A7C
:100BB000121F11600BE007495031884207D10549E7
:100BC000091F096841F47021024A121F1160704721
:100BD000080002400804024010B50022026847F6EF
:100BE000F0739A430C6A8B6823430C6923434C6966
:100BF00023438C692343CC6923434C6A23438C6A87
:100C000023431A430260CB6843600B6883604B68E0
:100C1000C36010BD70470EB50121042000F0D8FE5E
:100C20000121084600F0D4FE0621002000F02EF934
:100C30004020009001208DF8060000208DF804006F
:100C40000C208DF80500684600F0BCF817208DF8E0
:100C5000080001208DF80B0002208DF809008DF8A6
:100C60000A0002A800F048FD0721002000F00EF95C
:100C70008020009001208DF8060000208DF80400EF
:100C80000C208DF80500684600F09CF817208DF8C0
:100C9000080001208DF80B0002208DF809008DF866
:100CA0000A0002A800F028FD0EBD000008B50121D1
:100CB0000C2000F08DFEC020ADF8000048208DF81B
:100CC00003006946064800F001F90420ADF8000071
:100CD00048208DF803006946024800F0F7F808BD87
:100CE00000080140000C014010B5402000F056F80B
:100CF000002831D0642000F0F0FC0421204800F0EE
:100D000070F920490870032000F0D7FC40211E48EC
:100D100000F067F9E8B91B48007810B901201B49B9
:100D2000087018480078012802D10220174908707D
:100D3000002404E0601C84B2142000F0CEFC4021AA
:100D4000114800F04EF918B94EF660208442F1DBEC
:100D500000BF402000F01CF8802000F01FF868B1B0
:100D6000142000F0AAFC8021074800F03AF910B9DD
:100D7000032006490870802000F00AF810BD00002A
:100D8000000C01401900002000080140180000205C
:100D9000014908607047000014040140014600202A
:100DA0000022074B1B6803EA0102054B14331B6842
:100DB0000B4013B10AB1012000E000207047000091
:100DC00000040140002123498279002A3AD00A46D2
:100DD000126803689A430B461A600A1D126803687A
:100DE0009A430B1D1A60027911440A6803681A437A
:100DF0000A60184A0832126803689A43154B083390
:100E00001A601A1D126803689A43124B0C331A6059
:100E10004279102A0ED11A1F126803681A430D4B2B
:100E200008331A601A1D126803681A43094B0C3301
:100E30001A600DE00749427911440A6803681A43B1
:100E40000A6005E0027911440A6803689A430A605F
:100E500070470000000401400549096821F01001B5
:100E6000034A116011460968014311607047000090
:100E70000020024001460020034A106800F03800BC
:100E800008431060704700000020024030B5002287
:100E90008B071C0F0F2303FA04F20B4B8C1053F833
:100EA00024309343084C8D1044F8253023468C1091
:100EB00053F824308C07240F00FA04F42343024C27
:100EC0008D1044F8253030BD080001402DE9F04177
:100ED000024600250026002000230024002791F868
:100EE00003C00CF00F0591F803C00CF0100CBCF11E
:100EF000000F03D091F802C04CEA050591F800C03C
:100F0000BCF1000F31D0146800202BE04FF0010C31
:100F10000CFA00F3B1F800C00CEA03069E4220D19F
:100F200083004FF00F0C0CFA03F7BC4305FA03FCE7
:100F30004CEA040491F803C0BCF1280F06D14FF02D
:100F4000010C0CFA00FCC2F814C00AE091F803C0CE
:100F5000BCF1480F05D14FF0010C0CFA00FCC2F8AF
:100F600010C0401C0828D1D31460B1F800C0BCF1F7
:100F7000FF0F34DD546800202EE000F1080C4FF024
:100F8000010808FA0CF3B1F800C00CEA03069E420F
:100F900021D183004FF00F0C0CFA03F7BC4305FA84
:100FA00003FC4CEA040491F803C0BCF1280F05D1FE
:100FB00000F1080C08FA0CF8C2F8148091F803C08C
:100FC000BCF1480F07D100F1080C4FF0010808FAF6
:100FD0000CF8C2F81080401C0828CED35460BDE83D
:100FE000F0810246002093680B400BB1012000E025
:100FF0000020704741617047016170470AB101618B
:1010000000E04161704700BFFEE721B1028842F471
:101010008062028004E002884FF6FF331A400280AB
:10102000704770B502460024002500230020958AF1
:10103000138B1B0445EA030626F07F4404EA0106ED
:101040008E4201D1012000E0002070BD21B1028854
:1010500042F00102028004E002884FF6FE731A405B
:10106000028070471FB500F021F80020ADF80400A1
:101070004BF6FF70ADF80600C020ADF808004FF445
:101080008060ADF80A000001ADF80C000548009042
:101090006946054800F05AF801210348FFF7D6FFDA
:1010A0001FBD0000400D03000054004008B50121A1
:1010B000082000F08DFC0121480500F079FCC020DB
:1010C000ADF800001C208DF8030003208DF802000D
:1010D00069460248FFF7FAFE08BD0000000C014017
:1010E00021B1028842F48072028004E002884FF647
:1010F000FF631A400280704721B1028842F40072F7
:10110000028004E002884FF6FF531A4002807047C5
:101110000CB50246002000230193009300920B0FB0
:10112000019321F07F41019B1BB1009B143300937D
:1011300003E0090C009B18330093009B1B680B40D5
:101140000BB1012000E000200CBD00002DE9F043B0
:1011500085B004460D460026B1460427DFF8CC8052
:10116000A6884FF6C0700640684600F0A9FCDDF87E
:1011700008802F48B8FBF0F01FFA80F946EA09060C
:10118000A68020884FF6FE7108402080002629495D
:10119000286888420CD828684000B8FBF0F087B275
:1011A000042F00DA04273E4309F10100208427E0E0
:1011B000E8884BF6FF71884206D1286800EB4000B2
:1011C000B8FBF0F087B209E0286800EBC00101EB42
:1011D0000010B8FBF0F087B247F48047C7F30B006C
:1011E00008B947F0010747F4004006434FF49670F2
:1011F00009FB00F04FF47A7190FBF1F0401C208461
:10120000A683208840F00100208026884FF6F53024
:101210000640A8886989084306432680A889298949
:101220000843208105B0BDE8F083000000127A0079
:1012300040420F00A08601002DE9F04106460F460E
:1012400015461C4600BF4FF400313248FFF760FFDF
:101250000028F8D101212F48FFF742FF00BF2E4997
:101260002C48FFF7DEFE0028F9D00022314629483D
:1012700000F05AF800BF29492648FFF7D2FE00289F
:10128000F9D001212348FFF7E1FE3946214800F05B
:1012900054F800BF2149891C1E48FFF7C2FE0028F0
:1012A000F8D001211B48FFF71BFF00BF1A4919485E
:1012B000FFF7B7FE0028F9D001223146154800F0AB
:1012C00033F800BF1449491C1248FFF7AAFE002852
:1012D000F8D016E0012C07D100210E48FFF795FE4B
:1012E00001210C48FFF708FF0B493F310948FFF780
:1012F00098FE30B1074800F013F828706D1C601E8E
:1013000084B2002CE6D101210248FFF77EFEBDE841
:10131000F08100000054004001000300820007003B
:101320000146088AC0B2704712B141F0010102E0E3
:101330004FF6FE731940018270470182704700002A
:101340002DE9F04105460F4614461E4601211D4871
:10135000FFF7C6FE00BF1C491A48FFF762FE0028CF
:10136000F9D0002229461748FFF7DEFF00BF1749D2
:101370001448FFF756FE0028F9D039461148FFF708
:10138000DCFF00BF1149891C0E48FFF74AFE002808
:10139000F8D00CE021780B48FFF7CFFF641C00BFAA
:1013A0000A49891C0748FFF73CFE0028F8D0301E88
:1013B000A6F101018EB2EDD101210248FFF79CFE9A
:1013C000BDE8F081005400400100030082000700E6
:1013D00070B504460E46154601211948FFF780FEF8
:1013E00000BF18491648FFF71CFE0028F9D000225C
:1013F00021461348FFF798FF00BF13491048FFF735
:1014000010FE0028F9D031460D48FFF796FF00BFC7
:101410000D49891C0A48FFF704FE0028F8D0294628
:101420000748FFF78AFF00BF0749891C0448FFF7F8
:10143000F8FD0028F8D001210148FFF75DFE70BDDE
:101440000054004001000300820007002DE9F0472E
:1014500005460C4616464FF0000AA01CC4B2D14601
:101460003AE005F1B000C2B200217820FFF7B0FFEA
:101470002746E01704EB107000111030C2B20021B3
:101480007820FFF7A5FFE01704EB10700011A4EB24
:101490000010C2B200217820FFF79AFF4FF0000839
:1014A00011E00AEB46101149085CC043C2B240216A
:1014B0007820FFF78DFF0AF1010000F0FF0A08F124
:1014C000010000F0FF08B8F1100FEADB681CC5B29C
:1014D00009F1010000F0FF09B9F1020FC1DBAF22F1
:1014E00000217820FFF774FFBDE8F087F84300087B
:1014F0002DE9F04705460C4616464FF0000AA01CA1
:10150000C4B2D1463CE005F1B000C2B2002178205F
:10151000FFF75EFF2746E01704EB10700011103054
:10152000C2B200217820FFF753FFE01704EB1070E0
:101530000011A4EB0010C2B200217820FFF748FF91
:101540004FF0000813E00AEB0610A0F500700F49F9
:10155000085CC043C2B240217820FFF739FF0AF18E
:10156000010000F0FF0A08F1010000F0FF08B8F1E7
:10157000080FE8DB681CC5B209F1010000F0FF09A3
:10158000B9F1020FBFDBBDE8F0870000F83D0008AD
:101590000146CA1701EB92729210A1EB820292B936
:1015A000642091FBF0F200FB121050B94FF4C870A8
:1015B00091FBF0F200FB121008B9012070470020E7
:1015C000FCE70120FAE70020F8E7000008B5012158
:1015D000082000F0FDF90320ADF8000010208DF880
:1015E000030001208DF8020069460248FFF76EFCF7
:1015F00008BD0000000C0140F8B506460024002597
:1016000002236A4600219E20FFF716FE9DF8004047
:101610000020307004F0800028B101203070E043D9
:10162000C4B2601CC4B204F0010008B1681CC5B2A9
:1016300004F0020008B1A81CC5B204F0040008B10F
:10164000281DC5B204F0080010B105F10800C5B2AC
:1016500004F0100010B105F11000C5B204F0200034
:1016600010B105F12000C5B204F0400010B105F141
:101670004000C5B2761C357000259DF8014004F08D
:10168000200010B105F10C00C5B204F0400010B10B
:1016900005F11900C5B204F0800010B105F1320067
:1016A000C5B2761C3570F8BD00BFFEE7704710B5B7
:1016B0004FF4A06000F058F810BD002107E042F69A
:1016C000E06100BF0A1EA1F1010399B2FAD1021E26
:1016D000A0F1010398B2F2D17047002106E00A217F
:1016E00000BF0A1EA1F1010399B2FAD1021EA0F1B6
:1016F000010398B2F3D1704770B5002100230F2287
:10170000C47804B3154C246804F4E064C4F5E064C0
:10171000210AC1F10403CA40447804FA03F1847831
:101720001440214309010E4C0678A155047804F0B9
:101730001F050124AC4005786D11AD0005F1E025D1
:10174000C5F8004109E0047804F01F050124AC400D
:10175000044D0678761145F8264070BD0CED00E08A
:1017600000E400E080E100E002490143024A116028
:10177000704700000000FA050CED00E010B500F025
:10178000D3F800F0A1F800F0DDF810BD2DE9F04726
:1017900005460C4616464FF0000AA01CC4B2D146BE
:1017A00038E005F1B000C2B200217820FFF710FE4A
:1017B0002746E01704EB107000111030C2B2002170
:1017C0007820FFF705FEE01704EB10700011A4EB82
:1017D0000010C2B200217820FFF7FAFD4FF0000898
:1017E0000FE00AEB461010490A5C40217820FFF711
:1017F000EFFD0AF1010000F0FF0A08F1010000F01E
:10180000FF08B8F1100FECDB681CC5B209F101004C
:1018100000F0FF09B9F1020FC3DBAF2200217820ED
:10182000FFF7D6FDBDE8F087F84300082DE9F04743
:1018300005460C4616464FF0000AA01CC4B2D1461D
:101840003AE005F1B000C2B200217820FFF7C0FDF8
:101850002746E01704EB107000111030C2B20021CF
:101860007820FFF7B5FDE01704EB10700011A4EB32
:101870000010C2B200217820FFF7AAFD4FF0000847
:1018800011E00AEB0610A0F500700E490A5C402139
:101890007820FFF79DFD0AF1010000F0FF0A08F132
:1018A000010000F0FF08B8F1080FEADB681CC5B2C0
:1018B00009F1010000F0FF09B9F1020FC1DBBDE839
:1018C000F0870000F83D000870B5B0241BE0224608
:1018D00000217820FFF77CFD102200217820FFF7FF
:1018E00077FD002211467820FFF772FD002506E003
:1018F000002240217820FFF76BFD681CC5B2842DC3
:10190000F6DB601CC4B2B82CE1DB70BD10B5044638
:10191000812200217820FFF75BFD224600217820FC
:10192000FFF756FD10BD000008B505A00068009047
:1019300002236A4600217820FFF702FD08BD00005F
:10194000AE8D000000B587B01C2206A16846FEF7E8
:10195000AAFC1C236A4600217820FFF7F1FC07B09F
:1019600000BD0000AE0010D580A83FD300B0408D70
:1019700014A1C8DA1281FFD9F1DB302000A4A6AF90
:10198000014908627047000000000E4270470000E5
:1019900029B1064A52690243044B5A6104E0034AE2
:1019A00052698243014B5A617047000000100240A7
:1019B00029B1064AD2690243044BDA6104E0034AC2
:1019C000D2698243014BDA61704700000010024087
:1019D00029B1064A92690243044B9A6104E0034A22
:1019E00092698243014B9A617047000000100240E7
:1019F0000149086070470000400442420348406AC1
:101A000040F08070014948627047000000100240B9
:101A100010B500F02FF84FF4803000F0EDF800F032
:101A200071F90446012C24D14FF4E011000400F0B8
:101A300041F9002000F0D4F8A00200F01DF90020C8
:101A400000F026F90220FFF715FA1020FFF704FA3C
:101A5000012000F029F900BF392000F09BF8002890
:101A6000FAD0022000F042F900BF00F0B1F80828D7
:101A7000FBD110BD0F48006840F001000D4908601F
:101A8000084640680C4908400A4948600846006812
:101A90000A490840074908600846006820F4802089
:101AA00008600846406820F4FE0048604FF41F00BC
:101AB00088607047001002400000FFF8FFFFF6FE4C
:101AC00030B500210022002400232D4D6D6805F063
:101AD0000C0121B1042905D0082923D105E0294DA5
:101AE000056022E0274D05601FE0254D6D6805F477
:101AF0007012234D6D6805F48034022505EB924287
:101B00001CB9214D554305600BE01D4D6D6805F472
:101B100000351DB11C4D5543056002E0194D55437C
:101B2000056002E0174D056000BF00BF144D6D68F1
:101B300005F0F0010909154D6B5C0568DD40456055
:101B40000F4D6D6805F4E061090A104D6B5C456846
:101B5000DD4085600A4D6D6805F46051C90A0B4D82
:101B60006B5C4568DD40C560054D6D6805F440411E
:101B7000890B074D6B5CC568B5FBF3F5056130BD9E
:101B80000010024000127A0000093D001A000020F7
:101B90002A00002010B501460022002300204A112F
:101BA000012A02D1094C236806E0022A02D1074C1F
:101BB000236A01E0054C636A01F01F02012494408E
:101BC0001C400CB1012000E0002010BD00100240BC
:101BD0000248406800F00C0070470000001002400E
:101BE00001460020034A506820F0F000084350608E
:101BF00070470000001002401149096821F480314B
:101C00000F4A11601146096821F480211160B0F576
:101C1000803F03D0B0F5802F0ED106E00849096857
:101C200041F48031064A116007E00549096841F432
:101C3000A021034A116000E000BF00BF7047000010
:101C40000010024000210B4A11700A4A203A82F823
:101C50002010012802D0042808D103E00121054A00
:101C6000117004E00521034A117000E000BF00BFBD
:101C7000704700002010024001460020034A5068CF
:101C800020F4E060084350607047000000100240FC
:101C900001460020034A506820F4605040EAC10029
:101CA000506070470010024001490866704700000C
:101CB0000000424202460020044B586820F47C1089
:101CC00042EA01031843014B58607047001002407C
:101CD00001490860704700003C0442420249096A19
:101CE0000143014A11627047001002400146002082
:101CF000034A506820F0030008435060704700001A
:101D00000010024038B5002000900024002500BFDC
:101D10003120FFF73FFF05460098401C00900098D7
:101D2000B0F5A06F01D0002DF2D03120FFF732FFC7
:101D300008B1012400E00024204638BD10B504207D
:101D4000FEF7D6FC4AF2A551884207D000F02AF8E7
:101D50004AF2A5510420FEF7D9FC0DE07B20FFF7E5
:101D600019FF10B97A20FFF715FFFFF747FE012092
:101D7000FFF7AEFF00F0F0F810BD00000348008848
:101D800040F010000149088070470000042800401E
:101D9000034800884FF6EF710840014908807047FA
:101DA0000428004010B501214FF0C050FFF700FE9D
:101DB0000120FFF7E5FDFEF792FC0120FFF742FF4F
:101DC00000BF4120FFF7E6FE0028FAD04FF48070F4
:101DD000FFF784FF0120FFF77BFF00F0BDF800F064
:101DE000B1F847F6FF7000F09DF800F0ABF810BDB9
:101DF00070B500260024002500F08AF806463A480F
:101E0000B6FBF0F439480088A0423DD037490C8039
:101E100040F2B27510E02846FFF7BAFB40B1B4F5C6
:101E2000B77F02D3A4F5B77404E0681C85B206E05E
:101E3000A4F26D14681C85B2B4F5B67FEBD800BF70
:101E40002B480580002516E029480088FFF7A0FBF5
:101E500030B1012D04D11D2C01D31D3C09E00CE053
:101E60002448405DA04203D82248405D241A00E087
:101E700003E0681C85B21C2CE6D200BF681C1E491A
:101E80000870601C1D4908701748B6FBF0F100FB94
:101E900011644FF46160B4FBF0F0194908704FF41D
:101EA0006160B4FBF0F100FB11403C21B0FBF1F0AC
:101EB000144908704FF46160B4FBF0F100FB11406D
:101EC0003C21B0FBF1F201FB12000F4908700B48F6
:101ED0000278094801780648008800F04FF80B495D
:101EE0000870002070BD0000805101000800002033
:101EF00000000020EC3D000802000020030000204C
:101F0000040000200500002006000020070000203B
:101F1000002103480188001F008841EA0040704703
:101F20001C28004000B50246FFF728FFC2F303401B
:101F300003490880091D0A80FFF72AFF00BD000041
:101F40000828004000BF0348008800F02000002857
:101F5000F9D0704704280040074800884FF6F77111
:101F600008400549088000BF0348008800F00800C9
:101F70000028F9D0704700000428004070B50346DF
:101F80001446012901DB0C2901DDFF2070BD012968
:101F900001D0022904D101F10C00C1B2581E83B254
:101FA000481C00EB4000052590FBF5F0022505FBE1
:101FB0000145284418441A46DD1703EB957500EBDC
:101FC000A500642593FBF5F5401B4FF4C87593FB02
:101FD000F5F52844401C072590FBF5F605FB160097
:101FE000C01D90FBF5F605FB1600C0B2CEE77047AA
:101FF00010B500F001F810BD0CB500200190009064
:102000003348006840F480303149086000BF3048F0
:10201000006800F4003000900198401C0190009886
:1020200018B90198B0F5A06FF1D12948006800F403
:10203000003010B10120009001E0002000900098D5
:10204000012843D12348006840F01000214908606E
:102050000846006820F0030008600846006840F069
:10206000020008601A4840681949486008464068FC
:1020700048600846406840F4806048600846406810
:1020800020F47C1048600846406840F4E81048603E
:102090000846006840F08070086000BF0C48006887
:1020A00000F000700028F9D00948406820F00300D3
:1020B000074948600846406840F00200486000BF99
:1020C0000348406800F00C000828F9D10CBD00005E
:1020D00000100240002002407047000010B5134875
:1020E000006840F001001149086008464068104946
:1020F00008400E494860084600680E4908400B49F0
:1021000008600846006820F480200860084640689F
:1021100020F4FE0048604FF41F008860FFF768FF5E
:102120004FF000600449086010BD0000001002403C
:102130000000FFF8FFFFF6FE08ED00E010B540F2EA
:1021400025511F4800F044F8002838D01C4800F002
:102150004CF8C4B221461BA0FEF73CF81A48008890
:1021600000F4004058BB1848008800F4804060B17B
:102170000A2C03D000201449088020E0124800886F
:1021800040F400401049088019E00D2C06D10E489B
:10219000008840F480400C49088010E00A4800881C
:1021A000C0F30D0009490C5407480088401C06493B
:1021B000088008460088C72801DD0020088010BD7F
:1021C000003801402563000010000020300000208E
:1021D00002460020B1F5007F00D100BF13880B40FC
:1021E0000BB1012000E00020704701468888C0F351
:1021F0000800704700BFFEE7014600BF704700B50A
:10220000034603E04FF47A7000F006F8181EA3F1BD
:1022100001018BB2F6D100BD00EBC001C9004FF047
:10222000E0225161002191610521116100BF4FF051
:10223000E021096901F480310029F8D004214FF030
:10224000E02211617047000000BF054A128802F0C9
:102250004002002AF9D0C2B2014B1B1D1A80704700
:10226000003801408AB04FF00109002008908246F2
:102270008346069001200390002002906420FFF71F
:10228000BEFFFFF7C5FBFEF7EDFE09A8FFF7B4F9A7
:10229000FEF70CFDFFF772FAFFF750FDFEF7BBFCEF
:1022A000FEF713FAFEF7BAF8FFF701FAFEF7EAFABB
:1022B000FFF78CF99B20FFF729FB4FF47A70FFF7AB
:1022C0009EFF0820FEF714FA00F0FF09B9F1010F94
:1022D00002DBB9F1030F01DD4FF001090C20FEF71D
:1022E00007FA06461020FEF703FA05461420FEF70B
:1022F000FFF907461820FEF7FBF900F0FF08632EF0
:1023000000DD0026002D01DB632D00DD0025B7F583
:10231000805F00DD0027B8F1630F01DD4FF00F088B
:10232000FFF7D2FA0D2200210846FFF78FF80D22A1
:1023300010210020FFF78AF80D2220210020FFF74E
:1023400085F8192230210020FFF780F81A22402159
:102350000020FFF77BF80D2250210020FFF776F8D0
:102360000D2260210020FFF771F80D22702100205E
:10237000FFF76CF8FEF7FAFA88BB4422002102202E
:10238000FFF754FA482208210220FFF74FFA54229F
:1023900010210220FFF74AFA312218210220FFF70C
:1023A00045FA312220210220FFF740FA3A22282163
:1023B0000220FFF73BFA1B2230210220FFF7E6F94B
:1023C0001C2240210220FFF7E1F91D2250210220AA
:1023D000FFF7DCF94FF47A70FFF711FF38E0FFE701
:1023E000442200210220FFF721FA4822082102207E
:1023F000FFF71CFA542210210220FFF717FA3122AE
:1024000018210220FFF712FA312220210220FFF7C3
:102410000DFA3A2228210220FFF708FA1F22302164
:102420000220FFF7B3F91C2240210220FFF7AEF98A
:102430001E2250210220FFF7A9F905E0FEF774F9EA
:102440004FF4FA70FFF7DBFEFEF738FA0028F5D1FB
:1024500007A8FEF7E3FA4FF4FA60FFF7D0FE01F0A9
:10246000BBBCFFF7C5FCF9480078032190FBF1F2F3
:1024700001FB120001280AD10398012807D109A8FD
:10248000FFF7BAF807A8FEF7C9FA00200390EF4853
:102490000078032190FBF1F201FB1200012803D028
:1024A000039808B90120039000241EE0E848008842
:1024B000E84921F81400E6484088E74921F814006B
:1024C000E3488088E54921F8140000BF0221E44870
:1024D000FEF74EF80028F9D00120FFF79DFE0221FB
:1024E000DF48FDF78DFF601CC4B20A2CDEDBD94843
:1024F00000880590D74800880490002415E0D5484E
:1025000030F814100598814203DDD24830F81400E9
:102510000590D04830F814100498814203DACD4871
:1025200030F814000490601CC4B20A2CE7DB0024CD
:1025300007E0C84830F8140050441FFA80FA601CC5
:10254000C4B20A2CF5DB0599AAEB01020499501AD2
:10255000C11700EB5171C1F3CF0ABF480088059045
:10256000BD4800880490002415E0BB4830F81410E2
:102570000598814203DDB84830F814000590B6484C
:1025800030F814100498814203DAB34830F814008C
:102590000490601CC4B20A2CE7DB002407E0AE48BC
:1025A00030F8140058441FFA80FB601CC4B20A2C97
:1025B000F5DB0599ABEB01020499501AC11700EB4A
:1025C0005171C1F3CF0BA54800880590A34800883E
:1025D0000490002415E0A14830F8141005988142B9
:1025E00003DD9E4830F8140005909C4830F8141024
:1025F0000498814203DA994830F814000490601C72
:10260000C4B20A2CE7DB002408E0944830F8141028
:102610000698084480B20690601CC4B20A2CF4DB11
:10262000DDE905218A1A0499501AC11700EB51718E
:10263000C1F3CF010691B9F1000F40F3B387B9F1AF
:102640000B0F7DD009DCB9F1090F7AD2DFE809F070
:10265000791DACFDFCFBFAF9F800B9F1330F71D02C
:1026600009DCB9F1150F6ED0B9F11F0F6CD0B9F1BB
:10267000290F66D1FEE3B9F13D0F66D0B9F1470FDE
:102680007ED0B9F1510FF4D1F5E3FFF71DF93122F6
:1026900000210846FEF72CFF202208210020FEF72B
:1026A00027FF0D2210210020FEF7D0FE002220215E
:1026B0001046FEF7CBFE012230210020FEF7C6FEB9
:1026C000022240210020FEF7C1FE0D2250210020F1
:1026D000FEF7BCFE0D2260210020FEF7B7FE0D22A2
:1026E00070210020FEF7B2FE0E2200210220FFF72B
:1026F0004DF80F2210210220FFF748F80322202175
:102700000220FFF743F8042230210220FFF73EF8B1
:102710003A2240210220FFF789F81022702102207E
:10272000FFF734F80E2200210420FFF72FF80F22C4
:1027300010210420FFF72AF805222021042005E0BB
:10274000D1E3FDE3FDE3FDE3FDE3FDE3FFF71EF869
:10275000042230211046FFF719F83A2240210420C4
:10276000FFF764F8252258210420FFF75FF81122B3
:1027700000210620FFF70AF812221021062000E0AF
:10278000FDE3FFF703F8132220210620FEF7FEFFEA
:10279000142230210620FEF7F9FF49460820FDF7F4
:1027A000B5FF4FF00B094AE2FFF78EF83222002105
:1027B0000846FEF79DFE202208210020FEF798FE25
:1027C0000D2210210020FEF741FE0D2220210020C5
:1027D000FEF73CFE0A2220210020FEF737FE0B22E6
:1027E00030210020FEF732FE0C2240210020FEF7AF
:1027F0002DFE012250210020FEF728FE022260213A
:102800000020FEF723FE0D2270210020FEF71EFEA1
:10281000412200210220FFF709F84422082102206A
:10282000FFF704F8432210210220FEF7FFFF3122B8
:1028300018210220FEF7FAFF3A222021022011E09F
:10284000EFE281E2FCE158E1B9E046E00600002059
:1028500012000020F80000200C01002020010020C0
:1028600000240140FEF7E2FF412200210420FEF790
:10287000DDFF442208210420FEF7D8FF4322102167
:102880000420FEF7D3FF322218210420FEF7CEFFEA
:102890003A2220210420FEF7C9FF41220021062010
:1028A000FEF7C4FF442208210620FEF7BFFF4322A3
:1028B00010210620FEF7BAFF332218210620FEF76A
:1028C000B5FF3A2220210620FEF7B0FF4946082036
:1028D000FDF71CFF4FF0150965E7FEF7F5FF332202
:1028E00000210846FEF704FE202208210020FEF702
:1028F000FFFD0D2210210020FEF7A8FD0622202159
:102900000020FEF7A3FD072230210020FEF79EFDE8
:10291000012240210020FEF799FD022250210020D3
:10292000FEF794FD0D2260210020FEF78FFD0D22A1
:1029300070210020FEF78AFD152200210220FEF7FB
:1029400025FF032210210220FEF720FF062220216E
:102950000220FEF71BFF072230210220FEF716FFA0
:10296000162200210420FEF711FF0322102104206B
:10297000FEF70CFF062220210420FEF707FF0722A6
:1029800030210420FEF702FF082200210620FEF776
:10299000FDFE092210210620FEF7F8FE0622202166
:1029A0001046FEF7F3FE072230210620FEF7EEFE6A
:1029B00049460820FDF7AAFE4FF01F09F3E6FEF78F
:1029C00083FF332200210846FEF792FD2D220821C5
:1029D0000020FEF78DFD312210210020FEF788FD3A
:1029E000202218210020FEF783FD0D222021002047
:1029F000FEF72CFD152230210020FEF727FD0322D3
:102A000040210020FEF722FD062250210020FEF783
:102A10001DFD072260210020FEF718FD0D22702108
:102A20000020FEF713FD152200210220FEF7AEFE66
:102A3000032210210220FEF7A9FE3A2220210220C3
:102A4000FEF7F4FE202228210220FEF751FD0A2085
:102A500096FBF0F00A2190FBF1F201FB12003030FE
:102A600080B20246302101900220FEF741FD0A208B
:102A700096FBF0F100FB1160303080B20246382145
:102A800001900220FEF734FD102240210220FEF7C3
:102A9000DDFC162200210420FEF778FE032210211F
:102AA0000420FEF773FE3A2220210420FEF7BEFE2A
:102AB000202228210420FEF7B9FE0A2095FBF0F021
:102AC000303080B20246302101900420FEF7AEFE85
:102AD0000A2095FBF0F100FB1150303080B2024625
:102AE000382101900420FEF7A1FE1022402104208D
:102AF000FEF74CFE4FF029099DE3FEF7E5FE332279
:102B000000210846FEF7F4FC2D2208210020FEF7E4
:102B1000EFFC322210210020FEF7EAFC20221821CF
:102B20000020FEF7E5FC0D2220210020FEF78EFCA0
:102B3000162230210020FEF789FC032240210020CC
:102B4000FEF784FC062250210020FEF77FFC0722BE
:102B500060210020FEF77AFC0D2270210020FEF794
:102B600075FC152200210220FEF710FE0322102121
:102B70000220FEF70BFE3A2220210220FEF756FE2D
:102B8000202228210220FEF751FE0A2096FBF0F0B9
:102B90000A2190FBF1F201FB1200303080B20246B4
:102BA000302101900220FEF741FE0A2096FBF0F151
:102BB00000FB1160303080B20246382101900220C3
:102BC000FEF734FE102240210220FEF7DFFD162220
:102BD00000210420FEF7DAFD032210210420FEF775
:102BE000D5FD3A2220210420FEF720FE20222821B4
:102BF0000420FEF77DFC0A2095FBF0F00A2190FBF3
:102C0000F1F201FB1200303080B202463021019017
:102C10000420FEF76DFC0A2095FBF0F100FB11503B
:102C2000303080B20246382101900420FEF760FC6B
:102C3000102240210420FEF709FC4FF03309FAE28C
:102C4000FEF742FE332200210846FEF751FC2D22FA
:102C500008210020FEF74CFC332210210020FEF753
:102C600047FC202218210020FEF742FC0D222021E3
:102C70000020FEF7EBFB082230210020FEF7E6FBE8
:102C8000092240210020FEF7E1FB0622502100200E
:102C9000FEF7DCFB072260210020FEF7D7FB0D22A8
:102CA00070210020FEF7D2FB082200210420FEF74D
:102CB0006DFD092210210420FEF768FD3A22202133
:102CC0000420FEF7B3FD202228210420FEF7AEFDEC
:102CD0004FF47A7097FBF0F0303080B2024630212A
:102CE00001900420FEF704FC642097FBF0F00A2119
:102CF00090FBF1F201FB1200303080B20246382125
:102D000001900420FEF7F4FB0A2097FBF0F00A2163
:102D100090FBF1F201FB1200303080B202464021FC
:102D200001900420FEF7E4FB0A2097FBF0F100FB82
:102D30001170303080B20246482101900420FEF725
:102D4000D7FB4FF03D0976E2FEF7BEFD33220021AE
:102D50000846FEF7CDFB2D2208210020FEF7C8FB18
:102D6000342210210020FEF7C3FB2022182100206E
:102D7000FEF7BEFB0D2220210020FEF767FB052297
:102D800030210020FEF762FB042240210020FEF7E4
:102D90005DFB062250210020FEF758FB0722602130
:102DA0000020FEF753FB0D2270210020FEF74EFBA2
:102DB000052200210420FEF7E9FC04221021104620
:102DC000FEF7E4FC3A2220210420FEF72FFD20220A
:102DD00028210420FEF72AFD0A2098FBF0F00A21A2
:102DE00090FBF1F201FB1200303080B2024630213C
:102DF00001900420FEF77CFB0A2098FBF0F100FB19
:102E00001180303080B20246382101900420FEF754
:102E10006FFB252240210420FEF76AFB4FF0470993
:102E200009E2FEF751FD342200210846FEF760FB5F
:102E3000202208210020FEF75BFB0D22102100203C
:102E4000FEF704FB202211460020FEF7FFFA2122A4
:102E500030210020FEF7FAFA4D2240210020FEF733
:102E600047FB552248210020FEF742FB5322502108
:102E7000002001E0B1E1C0E1FEF73AFB4922582110
:102E80000020FEF735FB432260210020FEF730FBD7
:102E9000202268210020FEF72BFB0D22702100204C
:102EA000FEF7D4FA222200210420FEF76FFC232231
:102EB00010210420FEF76AFC242220210420FEF7C2
:102EC00065FC252230210420FEF760FC3A224021D7
:102ED0000420FEF7ABFC202248210420FEF7A6FCCC
:102EE0004FF05109A7E1F84800780A2190FBF1F072
:102EF000303080B20246402101900620FEF796FC59
:102F0000F14800780A2190FBF1F201FB1200303009
:102F100080B20246482101900620FEF787FC3A2243
:102F200050210620FEF782FCE84800780A2190FB39
:102F3000F1F0303080B2024658210190062004E0C2
:102F400076E14EE192E044E14FE1FEF76FFCDF48AD
:102F500000780A2190FBF1F201FB1200303080B2C0
:102F60000246602101900620FEF760FC3A226821AB
:102F70000620FEF75BFCD64800780A2100E038E125
:102F800090FBF1F0303080B20246702101900620B3
:102F9000FEF74CFCCE4800780A2190FBF1F201FBD1
:102FA0001200303080B20246782101900620FEF7F0
:102FB0003DFC9DF8240028B12D2248210220FEF777
:102FC00035FC04E0202248210220FEF72FFC9DF86A
:102FD00025000A2190FBF1F0303080B202465021EA
:102FE00001900220FEF722FC9DF825000A2190FBAB
:102FF000F1F201FB1200303080B2024658210190FC
:103000000220FEF713FC2E2260210220FEF70EFCA8
:103010009DF826000A2190FBF1F0303080B2024684
:10302000682101900220FEF701FC9DF81C000A2196
:1030300090FBF1F090FBF1F201FB1200303080B216
:103040000246482101900420FEF7F0FB9DF81C0089
:103050000A2190FBF1F201FB1200303080B20246EF
:10306000502101900420FEF7E1FBE4E04FF47A7078
:103070009AFBF0F0303080B2024628210190022005
:10308000FEF7D4FB4FF47A709AFBF0F100FB11A02D
:10309000642190FBF1F0303080B202463021019083
:1030A0000220FEF7C3FB64209AFBF0F100FB11A0A5
:1030B0000A2190FBF1F0303080B2024638210190B5
:1030C0000220FEF7B3FB0A209AFBF0F100FB11A0EF
:1030D000303080B20246402101900220FEF7A6FB6C
:1030E0004FF47A709BFBF0F0303080B2024628211A
:1030F00001900420FEF79AFB4FF47A709BFBF0F1ED
:1031000000FB11B0642190FBF1F0303080B2024638
:10311000302101900420FEF789FB64209BFBF0F135
:1031200000FB11B00A2190FBF1F0303080B2024672
:10313000382101900420FEF779FB0A209BFBF0F177
:1031400000FB11B0303080B20246402101900420D3
:10315000FEF76CFB4FF47A71069890FBF1F030307B
:1031600080B20246282101900620FEF75FFB4FF453
:103170007A71069890FBF1F201FB1200642190FB3A
:10318000F1F0303080B20246302101900620FEF787
:103190004DFB6421069890FBF1F201FB12000A211D
:1031A00090FBF1F0303080B20246382101900620C9
:1031B000FEF73CFB0A21069890FBF1F201FB12009E
:1031C000303080B20246402101900620FEF72EFBEF
:1031D00031E00A20FFF713F82DE01420FFF70FF875
:1031E00029E01420FFF70BF825E00A20FFF707F885
:1031F00021E00A20FFF703F81DE0029850B12622D3
:1032000050210420FEF7C2FA1D2260210420FEF79F
:10321000BDFA09E0272250210420FEF7B7FA1E224A
:1032200060210420FEF7B2FA0520FEF7E8FF02E075
:103230004FF0010900BF00BF26480078002872D077
:10324000B9F10B0F6FDBB9F1510F6CDCB9F1330F32
:103250006AD00CDCB9F10B0F13D0B9F1150F1ED0E9
:10326000B9F11F0F29D0B9F1290F7CD152E0B9F182
:103270003D0F79D0B9F1470F77D0B9F1510FF4D1A3
:103280003BE014480078012802D14FF0020905E024
:1032900010480078022801D14FF008097DE10D485F
:1032A0000078012802D14FF0030905E009480078B1
:1032B000022801D14FF001096FE10648007801288A
:1032C0000AD14FF0080917E0040000200500002093
:1032D0000600002018000020FE480078022801D1D6
:1032E000814609E0FB480078032805D101200890B9
:1032F0004FF00009FDF734FA4FE1F6480078012855
:1033000001D1814605E0F3480078022801D14FF051
:10331000030942E1EF480078012806D1761C632EAC
:103320001ADD2E4618E0FDE342E0EA480078022864
:1033300004D1761EAE420FDA63260DE0E548007830
:10334000032809D14FF0000901200890B1B20C20E8
:10335000FDF7DCF9FDF74CFA202228210220FEF7C8
:10336000C7F80A2002E015E16AE0C4E096FBF0F03D
:103370000A2190FBF1F201FB1200303080B20246CC
:10338000302101900220FEF7B3F80A2096FBF0F1FD
:1033900000FB1160303080B20246382101900220DB
:1033A000FEF7A6F8102240210220FEF74FF8F4E0C5
:1033B000C8480078012804D16D1CB54218DD0025ED
:1033C00016E0C4480078022804D16D1E002D0FDAE3
:1033D00035460DE0BF480078032809D14FF00009B9
:1033E00002200890A9B21020FDF790F9FDF700FA2D
:1033F000202228210420FEF77BF80A2095FBF0F01C
:103400000A2190FBF1F201FB1200303080B202463B
:10341000302101900420FEF76BF80A2095FBF0F1B3
:1034200000FB1150303080B2024638210190042058
:10343000FEF75EF8102240210420FEF707F8ACE00A
:10344000A4480078012806D1781C87B2B7F5805FC0
:1034500017DB002715E09F480078022804D107B940
:10346000C702781E87B20CE09A480078032808D17A
:103470004FF00009089039461420FDF747F9FDF791
:10348000B7F94FF47A7097FBF0F0303080B2024613
:10349000302101900420FEF72BF8642097FBF0F018
:1034A0000A2190FBF1F201FB1200303080B202469B
:1034B000382101900420FEF71BF80A2097FBF0F05A
:1034C0000A2190FBF1F201FB1200303080B202467B
:1034D000402101900420FEF70BF80A2097FBF0F141
:1034E00000FB1170303080B2024648210190042068
:1034F000FDF7FEFF51E07748007801280CD108F174
:10350000010000F0FF08B8F15A0F02DCB8F10F0F0C
:103510001DDA4FF00F081AE06E480078022809D132
:10352000B8F10F0F01DC4FF05B08A8F1010000F0CB
:10353000FF080CE067480078032808D14FF0000925
:10354000089041461820FDF7E1F8FDF751F90A20EF
:1035500098FBF0F00A2190FBF1F201FB12003030F1
:1035600080B20246302101900420FDF7C1FF0A20FD
:1035700098FBF0F100FB1180303080B20246382118
:1035800001900420FDF7B4FF252240210420FDF71F
:10359000AFFF02E04FF0010900BF00BF00204D491E
:1035A0000870BFE208980B287ED006DC06287CD283
:1035B000DFE800F07B0CBFFEFDFC152876D01F284D
:1035C00075D0292874D033286FD170E3FEF77CF9C9
:1035D000332200210846FDF78BFF2022082100201E
:1035E000FDF786FF0D2210210020FDF72FFF062298
:1035F00020210020FDF72AFF072230210020FDF7BF
:1036000025FF012240210020FDF720FF022250214A
:103610000020FDF71BFF0D2260210020FDF716FFA3
:103620000D2270210020FDF711FF1522002102203C
:10363000FDF70CFF032210210220FDF707FF0622F1
:1036400020210220FDF702FF072230210220FDF792
:10365000FDFE0D2240210220FDF7F8FE0D22502133
:103660000220FDF7F3FE0D2260210220FDF7EEFEA1
:103670000D2270210220FDF7E9FE16220021042010
:10368000FEF784F8032210210420FEF77FF80622BB
:1036900020210420FEF77AF8072230210420FEF7CB
:1036A00075F80D22402104E0F1E204E3F3E2F6E2D2
:1036B000F9E20420FEF76AF80D2250210420FEF7FB
:1036C00065F80D2260210420FEF760F80D227021BC
:1036D000042001E018000020FEF758F8082200211D
:1036E0000620FEF753F8092210210620FEF74EF8B7
:1036F000062220211046FEF749F807223021062035
:10370000FEF744F80D2240210620FEF73FF80D2277
:1037100050210620FEF73AF80D2260210620FEF720
:1037200035F80D2270210620FEF730F80B200890A6
:10373000C4E2FEF7C9F8332200210846FDF7D8FE9F
:10374000202208210020FDF7D3FE0D2210210020A9
:10375000FDF77CFE062220210020FDF777FE0722E0
:1037600030210020FDF772FE012240210020FDF7EC
:103770006DFE022250210020FDF768FE0D2260211F
:103780000020FDF763FE0D2270210020FDF75EFE94
:10379000152200210220FDF7F9FF0322102102204B
:1037A000FDF7F4FF06222021022002E0C5E118E126
:1037B0006DE0FDF7EBFF072230210220FDF7E6FF69
:1037C0000D2240210220FDF7E1FF0D2250210220B1
:1037D000FDF7DCFF0D2260210220FDF7D7FF0D224F
:1037E00070210220FDF7D2FF162200210420FDF7F0
:1037F0002DFE032210210420FDF728FE06222021A1
:103800000420FDF723FE072230210420FDF71EFED1
:103810000D2240210420FDF719FE0D225021042025
:10382000FDF714FE0D2260210420FDF70FFE0D228E
:1038300070210420FDF70AFE082200210620FDF772
:10384000A5FF092210210620FDF7A0FF0622202156
:103850001046FDF79BFF072230210620FDF796FF5B
:103860000D2240210620FDF791FF0D225021062058
:10387000FDF78CFF0D2260210620FDF787FF0D224A
:1038800070210620FDF782FF1520089016E2FEF752
:103890001BF8332200210846FDF72AFE20220821CA
:1038A0000020FDF725FE0D2210210020FDF7CEFDA2
:1038B000062220210020FDF7C9FD0722302100202B
:1038C000FDF7C4FD012240210020FDF7BFFD0222CB
:1038D00050210020FDF7BAFD0D2260210020FDF7E8
:1038E000B5FD0D2270210020FDF7B0FD152200214D
:1038F0000220FDF74BFF032210210220FDF746FFB7
:10390000062220210220FDF741FF0722302102205C
:10391000FDF73CFF0D2240210220FDF737FF0D226D
:1039200050210220FDF732FF0D2260210220FDF719
:103930002DFF0D2270210220FDF728FF1622002105
:103940000420FDF723FF032210210420FDF71EFFB2
:10395000062220210420FDF719FF07223021042030
:10396000FDF714FF0D2240210420FDF70FFF0D226B
:1039700050210420FDF70AFF0D2260210420FDF7ED
:1039800005FF0D2270210420FDF700FF0822002111
:103990000620FDF75BFD092210210620FDF756FDEC
:1039A000062220211046FDF751FD07223021062076
:1039B000FDF74CFD0D2240210620FDF747FD0D22AD
:1039C00050210620FDF742FD0D2260210620FDF763
:1039D0003DFD0D2270210620FDF738FD1F200890C7
:1039E0006CE1FDF771FF332200210846FDF780FDF1
:1039F000202208210020FDF77BFD0D221021002050
:103A0000FDF724FD062220210020FDF71FFD0722DF
:103A100030210020FDF71AFD012240210020FDF792
:103A200015FD022250210020FDF710FD0D2260211E
:103A30000020FDF70BFD0D2270210020FDF706FD93
:103A4000162200210220FDF7A1FE032210210220F0
:103A5000FDF79CFE062220210220FDF797FE07229B
:103A600030210220FDF792FE0D2240210220FDF7B9
:103A70008DFE0D2250210220FDF788FE0D226021CF
:103A80000220FDF783FE0D2270210220FDF77EFE4D
:103A9000082200210420FDF779FE092210210420CC
:103AA000FDF774FE062220210420FDF76FFE072299
:103AB00030210420FDF76AFE0D2240210420FDF78D
:103AC00065FE0D2250210420FDF760FE0D226021CD
:103AD0000420FDF75BFE0D2270210420FDF756FE49
:103AE000052200210620FDF7B1FC0422102106204A
:103AF000FDF7ACFC062220211046FDF7A7FC0722AB
:103B000030210620FDF7A2FC0D2240210620FDF702
:103B10009DFC0D2250210620FDF798FC0D2260210E
:103B2000062000E001E1FDF791FC0D227021062046
:103B3000FDF78CFC29200890C0E0FDF7C5FE33227C
:103B400000210846FDF7D4FC202208210020FDF7C3
:103B5000CFFC0D2210210020FDF778FC0622202149
:103B60000020FDF773FC072230210020FDF76EFCDA
:103B7000012240210020FDF769FC02225021002093
:103B8000FDF764FC0D2260210020FDF75FFC0D2293
:103B900070210020FDF75AFC082200210220FDF7C9
:103BA000F5FD092210210220FDF7F0FD062220215B
:103BB0000220FDF7EBFD072230210220FDF7E6FD94
:103BC0000D2240210220FDF7E1FD0D2250210220AF
:103BD000FDF7DCFD0D2260210220FDF7D7FD0D224F
:103BE00070210220FDF7D2FD052200210420FDF7FF
:103BF000CDFD042210211046FDF7C8FD062220212C
:103C00000420FDF7C3FD072230210420FDF7BEFD8F
:103C10000D2240210420FDF7B9FD0D225021042082
:103C2000FDF7B4FD0D2260210420FDF7AFFD0D224C
:103C300070210420FDF7AAFD172200210620FDF7C0
:103C400005FC182210210620FDF700FC0622202189
:103C50001046FDF7FBFB072230210620FDF7F6FB9F
:103C60000D2240210620FDF7F1FB0D2250210620F8
:103C7000FDF7ECFB0D2260210620FDF7E7FB0D228E
:103C800070210620FDF7E2FB3320089016E0322079
:103C9000FEF7B5FA12E03220FEF7B1FA0EE032205C
:103CA000FEF7ADFA0AE03220FEF7A9FA06E032206C
:103CB000FEF7A5FA02E00120089000BF00BF4748C8
:103CC000007890B308981F2839D004DC0B2807D05F
:103CD000152878D11BE0292847D0332873D15BE021
:103CE0003E480078012802D1022008900EE03B48AF
:103CF0000078022802D10520089007E037480078B4
:103D0000032803D1002008904FF0040960E03348F5
:103D10000078012802D1032008900FE02F48007896
:103D2000022803D10120089008E055E02B480078D4
:103D3000032803D1002008904FF0050948E02748E8
:103D40000078012802D1042008900DE02348007873
:103D5000022801D1089007E020480078032803D109
:103D6000002008904FF0060932E01C480078012836
:103D700002D1052008900EE018480078022802D1F0
:103D80000320089007E015480078032803D100209D
:103D900008904FF007091BE010480078012801D176
:103DA00008900FE00D480078022803D10420089005
:103DB00008E008E009480078032803D100200890B3
:103DC0004FF0030904E04FF003090020089000BF02
:103DD00000BF002001490870FEF743BB1800002017
:103DE0000003030601040602050003051F1C1F1E35
:103DF0001F1E1F1F1E1F1E1F0000000000000000CE
:103E00000000000000000000000038FCFC3800004A
:103E10000000000D0D000000000E1E00001E0E0030
:103E2000000000000000000020F8F820F8F8200052
:103E3000020F0F020F0F0200387C444747CC980056
:103E40000306041C1C07030030300080C0603000F3
:103E50000C060301000C0C0080D87CE4BCD84000A8
:103E6000070F0808070F080000101E0E00000000D2
:103E700000000000000000000000F0F80C0400004A
:103E8000000003070C0800000000040CF8F000001C
:103E90000000080C0703000080A0E0C0C0E0A08084
:103EA0000002030101030200008080E0E080800046
:103EB00000000003030000000000000000000000FC
:103EC0000000101E0E000000808080808080800036
:103ED00000000000000000000000000000000000E2
:103EE0000000000C0C00000000000080C0603000EA
:103EF0000C06030100000000F8FC04C424FCF800D8
:103F0000070F0908080F0700001018FCFC0000004C
:103F10000008080F0F080800080C84C4643C18004F
:103F20000E0F0908080C0C00080C444444FCB800AF
:103F3000040C0808080F0700C0E0B098FCFC8000E3
:103F4000000000080F0F08007C7C4444C4C48400B7
:103F5000040C0808080F0700F0F84C4444C0800027
:103F6000070F0808080F07000C0C0484C47C3C00F1
:103F700000000F0F00000000B8FC444444FCB800EF
:103F8000070F0808080F0700387C444444FCF80079
:103F9000000808080C070300000000303000000093
:103FA00000000006060000000000003030000000A5
:103FB0000000080E060000000080C06030180800F5
:103FC00000000103060C0800404040404040400013
:103FD00002020202020202000008183060C08000E3
:103FE00000080C0603010000181C04C4E43C18007F
:103FF0000000000D0D000000F0F808C8C8F8F0003F
:10400000070F080B0B0B0100E0F0988C98F0E00014
:104010000F0F0000000F0F0004FCFC4444FCB8002C
:10402000080F0F08080F0700F0F80C04040C180024
:1040300003070C08080C060004FCFC040CF8F00054
:10404000080F0F080C07030004FCFC44E40C1C00E0
:10405000080F0F08080C0E0004FCFC44E40C1C00C4
:10406000080F0F0800000000F0F80C84848C980002
:1040700003070C0808070F00FCFC404040FCFC0054
:104080000F0F0000000F0F00000004FCFC040000F4
:104090000000080F0F08000000000004FCFC0400F2
:1040A000070F08080F07000004FCFCC0F03C0C00E0
:1040B000080F0F00010F0E0004FCFC0400000000BC
:1040C000080F0F08080C0E00FCFC387038FCFC00D0
:1040D0000F0F0000000F0F00FCFC3870E0FCFC002C
:1040E0000F0F0000000F0F00F0F80C040CF8F000A8
:1040F00003070C080C07030004FCFC44447C380054
:10410000080F0F0800000000F8FC040404FCF8008D
:10411000070F080E3C3F270004FCFC44C4FC380099
:10412000080F0F00000F0F00183C6444C49C1800D7
:10413000060E0808080F0700001C0CFCFC0C1C00F5
:104140000000080F0F080000FCFC000000FCFC0051
:10415000070F0808080F0700FCFC000000FCFC002B
:104160000103060C06030100FCFC008000FCFC00BF
:10417000030F0E030E0F03000C3CF0C0F03C0C00CC
:104180000C0F0300030F0C00003C7CC0C07C3C0003
:104190000000080F0F0800001C0C84C4643C1C00C5
:1041A0000E0F0908080C0E000000FCFC04040000BF
:1041B00000000F0F080800003870E0C08000000009
:1041C0000000000103070E0000000404FCFC0000D6
:1041D000000008080F0F0000080C0603060C08007A
:1041E00000000000000000000000000000000000CF
:1041F00020202020202020200000030704000000B1
:10420000000000000000000000A0A0A0E0C000002E
:10421000070F0808070F080004FCFC2060C080009E
:10422000080F0708080F0700C0E0202020604000AA
:10423000070F0808080C040080C06024FCFC000084
:10424000070F0808070F0800C0E0A0A0A0E0C0000A
:10425000070F0808080C040040F8FC440C18000084
:10426000080F0F0800000000C0E02020C0E0200080
:10427000276F48487F3F000004FCFC4020E0C0005E
:10428000080F0F00000F0F00000020ECEC000000F2
:104290000000080F0F0800000000000020ECEC00F8
:1042A00000307040407F3F0004FCFC80C060200074
:1042B000080F0F01030E0C00000004FCFC000000BE
:1042C0000000080F0F080000E0E060C060E0C000E0
:1042D0000F0F000F000F0F0020E0C02020E0C000F3
:1042E000000F0F00000F0F00C0E0202020E0C000F2
:1042F000070F0808080F070020E0C02020E0C000DA
:10430000407F7F48080F0700C0E02020C0E0200069
:10431000070F08487F7F400020E0C0602060C00099
:10432000080F0F080000000040E0A02020604000BF
:10433000040C09090B0E04002020F8FC20200000CA
:104340000000070F080C0400E0E00000E0E00000BF
:10435000070F0808070F080000E0E00000E0E00099
:104360000003070C0C070300E0E0000000E0E000A1
:10437000070F0C070C0F07002060C080C0602000F2
:10438000080C0703070C0800E0E0000000E0E00074
:10439000474F4848683F1F00606020A0E060200051
:1043A0000C0E0B09080C0C00004040F8BC04040083
:1043B000000000070F080800000000BCBC0000005F
:1043C0000000000F0F000000000404BCF840400093
:1043D0000008080F07000000080C040C080C04007B
:1043E000000000000000000080C0603060C080005D
:1043F000070704040407070000080808080809FA6A
:104400000808080808080000404041414141417F38
:104410004141414141404000040444C44F4444C42C
:1044200024242FB42404040040442424150C04FE46
:10443000040C1524244440000000F8494A4C48F874
:10444000484C4A49F800000010101312121212FFD3
:1044500012121212131010001060028C0000FE9253
:1044600092929292FE00000004047E01407E42423D
:104470007E427E42427E40000000FC242424FC2533
:104480002624FC242424040040308F80844C5525AD
:104490002525554C808080001060028C00FE929291
:1044A00092929292FE00000004047E014448507FE4
:1044B00040407F5048444000404042CC0040A09ED5
:1044C0008282829EA02020000000003F908840430E
:1044D0002C10284641808000001715D55557557D72
:1044E000555755D5151700004040407F5555555537
:1044F0005555557F404040004040424458C0407FA1
:1045000040C05048464040008080402018070000CE
:10451000003F40404040780000FE424242FE0042E0
:10452000A29E82A2C2BE0000806F080828CF0000B1
:104530002FC8080828CF00001010D0FF9014E4AF57
:10454000A4A4A4AFE4040000040300FF00894B2AE4
:104550001A0E1A2A4B888000101010FF9000F800E5
:1045600002041800FF0000000242817F00003F109B
:104570008840300C0B30C000202020BEAAAAAAAA76
:10458000AAAAAABE20202000008080AFAAAAAAFF63
:10459000AAAAAAAF8080000000000000000000006E
:1045A000000000000000000000000000000000000B
:1045B0000000000000000000004042445840407FDE
:1045C00040405048C6000000004044444444444435
:1045D00044444444FF0000000808E8292E28E80865
:1045E00008C80C0BE80808000000FF0949897F0093
:1045F000000F40807F000000060909E6F80C040265
:1046000002020202041E0000000000071F302040CA
:1046100040404040201000000020202020FF0000EB
:1046200000FF4020100800002060201010FF000054
:10463000003F404040407800040404E42424252640
:10464000242424E4040404000040201B0242827E4F
:104650000202020B1060000000FC848484FC001045
:1046600010101010FF101000003F1010103F00003D
:10467000010640807F00000000F8010600F01212E1
:1046800012F2020202FE000000FF0000001F1111E2
:10469000111F0040807F000004040404F4949596E8
:1046A0009494F4040404040000FE02027A4A4A4A84
:1046B0004A4A7A0282FE0000008060F80700FC840B
:1046C0008484FE8283828000010000FF0000FF409E
:1046D0002000418E3040F800404042CC0000FF49AD
:1046E00049C949497F8000000040201F20405F48A1
:1046F000444041424558400000007C40404040FF5B
:1047000040404040FC000000007C40404040407F72
:104710004040404040FC000080828282FE828282D3
:104720008282FE8282828000008040300F00000082
:104730000000FF00000000001010D0FF901000FEED
:10474000020202FE00000000040300FF0083601F5D
:104750000000003F40407800000202C2020202FE58
:1047600082828282820200004040407F4040407F3F
:104770004040404040404000201808EAACA8A8AFA4
:10478000A8A8ACEA0828180000003E02020202FFB6
:10479000020212221E0000000000000000000000C3
:1047A000000000C0300C03000000001008041820B6
:1047B000100C0300000000000000000810204080E2
:1047C0004020100800000000000000080402010062
:1047D000010204080000000000007E929292929272
:1047E0009292929E80E00000088848281E080808DF
:1047F0000808FE0808080800404044445464454640
:104800004464544444404000000000FF4949494981
:10481000494949FF000000000000E09C848484F4C2
:104820008282838280800000002010080640807F02
:1048300000000204083000000010101010D030FFFB
:1048400030D010101010000010080402090808FFF2
:104850000808090204081000202020FF202080F80A
:104860008040FF2010F000001030100F0808003FBB
:1048700040405F424443780082BAAAAABA82BE820C
:1048800020180FC808281800001E12125E807F0032
:1048900080601C031C60800000F0101010FF1010DE
:1048A00010FF101010F0000000FF4242427F424211
:1048B000427F424242FF000004040484E43C272477
:1048C000242424E40404040004020100FF0909096B
:1048D0000949897F000000000040424242C27E42F6
:1048E000C242424240400000804020100C030000C1
:1048F0003F40404040700000000000000000000009
:1049000000000000000000000000000000000000A7
:104910000000000000000000000000000000000097
:104920000000000000000000000000000000000087
:104930000000000000000000000000000000000077
:104940000000000000000000000000000000000067
:104950000000000000000000000000000000000057
:104960000000000000000000000000000000000047
:104970000000000000000000000000000000000037
:104980000000000000000000000000000000000027
:1049900000F8FC1C3830381CFCF800F8F800F8F877
:1049A000000000F8FC8C8C8C0080D050F0E000F00F
:1049B000F020300000808000808000808000000CAB
:1049C0001224120C00000000000000008000000013
:1049D000000000001824448844241800000000004F
:1049E00000000000000000000000000000000000C7
:1049F00000000000000000000000000000000000B7
:104A000000000000000000000000000000000000A6
:104A10000003838000808000030300080B0B0F0756
:104A2000804080408303030300000303030300036B
:104A30008380808080C3C3C0C3C3C0C3C3C0C0C0A1
:104A4000C0C0808080C0C040201804030000000067
:104A5000002050A0502000000000000000000000D6
:104A60000000000000000000000000000000000046
:104A70000000000000000000000000000000000036
:104A80000000000000000000000000000000000026
:104A900000030408110804030000000000000000E7
:104AA000010284C2E160301078ECFCF63A1B058507
:104AB00097131213131111111111110181FFF9F93B
:104AC000F2C2822225058D8B93B3E6C68C1C183862
:104AD0007070E0C080000000000000182448241816
:104AE00000000000000000000000000000000000C6
:104AF00000000000000000000000000000000000B6
:104B000000000000000000000000000000000000A5
:104B1000000080E0E0703018181C1C1C0C1C1616DD
:104B2000160627636DAECE0E0E0F0F0F0E0606078C
:104B3000070606060606060606060666776767E7A0
:104B4000070707060606070787C767232312100013
:104B50000808090B0F0E0E0C3C70F0C0800000001E
:104B60000000000000000000000000000000000045
:104B70000000000000000000000000000000000035
:104B80000000000000000000000000000000F0F83D
:104B9000DEFFF63611E0F0F8FCFEDE1E3F3F1EFEA3
:104BA000FEFCF8F2E4080107FC0000000000000031
:104BB000000000000000000000000000000000FFF6
:104BC00000000000003CFFE7311CE6FFFFFFFEFE97
:104BD0001F3F3F1FFFFEFEFCF8F8F031FBFFFEFC1D
:104BE000380000000000000000000000000000008D
:104BF00000000000000000000000000000000000B5
:104C000000000000000000000000000000000003A1
:104C1000074F4C60607F7F7F7F7D4D44727240798B
:104C20007D7F7F7F7F7C7070737370707474747419
:104C30007474747474747474767676767676767327
:104C40007070727272737070707C7F7F7F7F7D7DF9
:104C500062727260687D7F7F7F7F777467676300B1
:104C60000000000000000000000000000000000044
:104C70000000000000000000000000000000000034
:104C80000000000000000000000000000000000024
:104C90000000000000000000000000000000000014
:104CA0000000000000000000000000000000000004
:104CB00000000000000000000000000000000000F4
:104CC00000000000000000000000000000000000E4
:104CD00000000000000000000000000000000000D4
:104CE00000000000000000000000000000000000C4
:104CF0000000000000000000184D00080000002027
:104D00003000000028010008484D00083000002055
:104D100068070000440100080000000000000000D7
:104D20000000000000000000000000000000000083
:104D30000000000000000102030401020304060752
:084D4000080902040608000046
:04000005080000ED02
:00000001FF
