:020000040800F2
:10000000D00600203502000821330008232B000809
:100010001D3300089520000827420008000000005A
:10002000000000000000000000000000D93D0008B2
:100030002D2700080000000001360008D13E00080E
:100040004F0200084F0200084F0200084F0200084C
:100050004F0200084F0200084F0200084F0200083C
:100060004F0200084F0200084F0200084F0200082C
:100070004F0200084F0200084F0200084F0200081C
:100080004F0200084F0200084F0200084F0200080C
:100090004F0200084F0200084F0200080528000820
:1000A0004F0200084F0200084F0200084F020008EC
:1000B0004F0200084F0200084F0200084F020008DC
:1000C0004F0200084F0200084F0200084F020008CC
:1000D0004F0200084F0200084F020008353F000899
:1000E0004F0200084F0200084F02000800F002F81B
:1000F00000F090F80AA090E8000C82448344AAF132
:100100000107DA4501D100F085F8AFF2090EBAE82F
:100110000F0013F0010F18BFFB1A43F0010318473B
:10012000F073000010740000103A24BF78C878C142
:10013000FAD8520724BF30C830C144BF04680C60ED
:10014000704700000023002400250026103A28BF35
:1001500078C1FBD8520728BF30C148BF0B60704739
:100160006E2900F07182702900F0D183662906F0B3
:100170003F81652906F03C81672906F039816129B4
:1001800006F0388103681B0A28BF41F08001692905
:1001900000F01E82642900F01B82752900F018828D
:1001A0006F2900F05E83782900F09D83E92900F033
:1001B000F982E42900F0F682F52900F0F382EF29B4
:1001C00000F05B83F82900F09C830368DB0928BFFB
:1001D00041F08001632900F07A82732900F07F8268
:1001E000E32900F0D587F32900F0DA870020704773
:1001F0001FB501F027F804000020002106F0E2F806
:10020000401C60600020002106F0C6F8E0601FBDC1
:1002100010B510BD00F0E8FF1146FFF7E9FF04F04C
:1002200081F801F0C5F803B4FFF7F2FF03BC04F056
:100230002AF800000948804709480047FEE7FEE722
:10024000FEE7FEE7FEE7FEE7FEE7FEE7FEE7FEE786
:1002500004480549054A064B70470000D53E000892
:10026000ED000008D0000020D0060020D0020020C1
:10027000D0020020704700007CB51D4616460C00D9
:10028000009001D02044401E074B7B442A4669461B
:100290000190304600F0F1F905461CB10020694696
:1002A00000F0FEF928467CBD1D0400000FB41CB50B
:1002B000084B06AA7B4469460090059800F0DDF9DA
:1002C00004460020694600F0EBF920461CBC5DF8AE
:1002D00014FB0000E903000070B50C460546012A36
:1002E00005D02878800600D5EA69002302E00123C2
:1002F00005E05B1C934202D2E05C0028F9D1A869BA
:10030000E618C01AA861286A18442862284600F036
:1003100026F904E0D5E9012114F8010B9047B44215
:10032000F8D3284600F031F970BD00002DE9F05FE8
:10033000894604464FF0000ADFF874B1FB44C0F868
:1003400020A02046E1688847002874D0252806D0E0
:10035000D4E901219047206A401C2062F1E7002681
:100360005F462046E16888472028054607DB312D97
:1003700005D2781910F8200C08B10643F1E7B00750
:1003800001D526F00406C4F81CA00027C4F818A064
:100390002A2D09D0284603F06FFF38B304EB8708F5
:1003A000303DC8F8185019E059F8041B204604EBFA
:1003B00087029161E1688847012F054618D1E069FD
:1003C000002820DA26F020061DE0D8F8180000EBFF
:1003D000800005EB40003038C8F818002046E1687E
:1003E0008847054603F048FF0028EED1012F0AD0C8
:1003F0002E2D08D12046E16888477F1C0546022F34
:1004000046F02006C4DBA069002803DA404246F02B
:100410000106A061F00701D026F010066C2D0BD06C
:10042000682D09D04C2D39D06A2D35D0742D35D09A
:100430007A2D33D016E038E0E1682F462046884711
:10044000B842054609D16C2F26D04FF48060E16890
:10045000064320468847054604E06C2F1AD04FF427
:10046000807006430DB3A5F14100192802D820354C
:1004700046F400664A462946204626604E46FFF767
:100480006FFE80B101280BD0F61D26F0070000F1A9
:10049000080956E74020E4E78020D8E70020D6E7A7
:1004A00006F104094DE7284652E7206ABDE8F09FAF
:1004B000D070000010B5431C02E010F8011B71B1B0
:1004C0008107FAD14FF0013202C88C1A8C4314EA2A
:1004D000C211F9D0C01A0A0603D0C01E10BDC01A3E
:1004E00010BD0A0401D0801E10BD0902FCD0401EC0
:1004F00010BD10B5203AC0F00B80B1E81850203A7A
:10050000A0E81850B1E81850A0E81850BFF4F5AFB3
:100510005FEA027C24BFB1E81850A0E8185044BF3D
:1005200018C918C0BDE810405FEA827C24BF51F8AA
:10053000043B40F8043B08BF7047D20728BF31F89E
:10054000023B48BF11F8012B28BF20F8023B48BFEF
:1005500000F8012B7047704770477047704770B5BF
:10056000044685690068C10601D5302600E02026D2
:10057000C00707D070BDD4E9012130469047206AFA
:10058000401C20626D1EF6D570BD70B504468569AD
:100590000078C00707D170BDD4E901212020904721
:1005A000206A401C20626D1EF6D570BD09684A05A0
:1005B00001D540B27047C905FCD500B27047096843
:1005C0004A0501D5C0B27047C905FCD580B2704755
:1005D0002DE9F0410646002410687529314616A51C
:1005E00010D0FFF7E3FF002802DA404213A507E02E
:1005F00031688A0701D512A502E0490704D511A583
:10060000012401E0FFF7DBFF00210A2206F12407A5
:1006100009E0B0FBF2FCB0FBF2F302FB1C0030304F
:1006200078541846491C0028F3D123462A46304600
:10063000BDE8F04100F0BBB9000000002D00000053
:100640002B0000002000000011680268006A5305BA
:1006500001D508700AE0D30501D5088006E013062D
:1006600003D5C217C1E9000200E00860012070470D
:1006700001694A1C02610878704700B58FB0CDE966
:1006800001310021059105497944CDE90310114656
:100690006846FFF74BFE0FB000BD0000E5FFFFFF0F
:1006A0000A6802F8010B0A607047D1E900239A42F8
:1006B00002D2531C0B601070704710B5436913B120
:1006C000AFF3008001E0FFF707FE012010BD1278B4
:1006D00000F124010A7000224A700122EDE711683E
:1006E0004FF0FF32E9E700002DE9FF5F15468A462B
:1006F0000446DFF8AC80F8440027D8E900103E46F5
:10070000CDE9001010E03AF816106A4602A800F091
:100710004BFD411C07D02178890603D5E2693918C1
:1007200091420DD80744761C2078800602D5E069F6
:10073000B84205DDAE42E6DB3AF816000028E2D109
:10074000A069C01BA0612046FFF709FFD8E900108F
:10075000CDE90010002017E03AF818106A4602A808
:1007600000F022FDB0F1FF3F81460BD000250DF1D6
:10077000080B05E0D4E901211BF8050090476D1C2A
:100780004D45F7D308F10100B0428046E4DB206A12
:10079000384420622046FFF7F8FEBDE8FF9F0000C6
:1007A0002A6D00002DE9F0418046D21D22F007029B
:1007B0000025D2E90002F52915A614D0011E72F118
:1007C000000106DA0023D0EB030063EB020211A65E
:1007D00008E0D8F800108B0701D50FA602E0490702
:1007E00001D50EA601251146002408F1240704E0D6
:1007F00000F098F830323A55641C50EA0102F7D103
:100800002B46324621464046BDE8F04100F0CFB8C5
:10081000000000002D0000002B0000002000000060
:1008200030B4002100F1240408E002F00705D208EA
:10083000303542EA4372DB086554491C52EA03052D
:10084000F3D10468002310A2250707D5A40600D41D
:1008500021B1C46901230DA2641EC46130BC00F043
:10086000A6B810B5044621461068FFF7A8FE024658
:100870002046BDE810400023D2E7D21D22F0070138
:10088000D1E90023CCE700000000000030000000A8
:10089000F0B40D460188090502D5214C7C4402E0E4
:1008A0001F4C7C440E34002100F1240608E002F0C5
:1008B0000F071209E75D42EA03721B097754491CCE
:1008C00052EA0307F3D102780023120704D5702DF2
:1008D00006D009B1022311342246F0BC00F067B8FB
:1008E00001231034F8E770B504460D462146106820
:1008F000FFF765FE024629462046BDE8704000230A
:10090000C6E7D21D22F00703D3E90023C0E703683E
:10091000126843F0200303600823C3610023B7E794
:100920008C6B000030B5B0F10A024FEA900E71F105
:1009300000034EEA817EB0EB0E0061EB91014FEABD
:10094000101E4EEA017E10EB0E0041EB11114FEA32
:10095000102E4EEA016E10EB0E0041EB11214FEA12
:10096000104E4EEA014E10EB0E0041EB11414018C3
:1009700041F100014FEAD00040EA41704FEAD10155
:1009800010EB80054FEA810444EA907444EB0104C3
:100990006D1944EB0404521BA3414FF0000348BF00
:1009A0000A3200D530BD401C41F1000130BD2DE9B7
:1009B000F0470D4699469246044600F12408016826
:1009C000880604D5E06921F01001216000E00120D3
:1009D000A84201DD471B00E00027A1697A1902EB5C
:1009E0000900081AA0612078C00602D42046FFF74B
:1009F000B6FD002608E0D4E901211AF80600904768
:100A0000206A401C761C20624E45F4DB2078C0062C
:100A10000AD52046FFF7A3FD06E0D4E901213020E6
:100A20009047206A401C2062381EA7F10107F4DCC1
:100A300007E0D4E9012118F805009047206A401C1E
:100A40002062281EA5F10105F3DC2046FFF79DFD7D
:100A50002078000602D50220BDE8F0870120FBE7E0
:100A600070472DE9FF4F0C461E464FF0FF378BB005
:100A7000D2E90001DDF860800A908A46C1F30A5588
:100A800005B93D46002108464FF00000BAF1000FBD
:100A900000F4400005DA00EB80004FF4400101EA69
:100AA00050004FEA9059B9F1010F00DDB9460A989C
:100AB00050EA4A000ED044F61050A5F2FF354543E7
:100AC0002F14B8F1000F1ED07542291E1EDDC9F18A
:100AD00000021CE0B8F1010F4FF0000001D03021FE
:100AE00003E0F24305E02154401CB042FBDB3046FA
:100AF0000022002121540B99C1F80880C1E900208F
:100B00000FB0BDE8F08FBD1B6D1CDEE74A4600DA72
:100B1000694206A800F0DAFB06AB93E8070003ABD6
:100B200083E8070050460A9900F090FC8DE8070022
:100B3000A0F500501F3800900398002D0ADD42F206
:100B40001F014A460844002303A90390684600F0A9
:100B5000F9FE09E0A0F500504A461F38002303A91A
:100B60000390684600F003FF8DE807000004000CC6
:100B700003D04FF0FF30410800E01046B8F1000FFD
:100B800003D00022009215461EE0751E05D4FFF723
:100B9000C9FE303262556D1EF9D5B34601220843B5
:100BA00002D000227F1C04E02078302801D10022EE
:100BB0007F1E002A099784D01DE0112D07DAFFF768
:100BC000B1FE303262556D1C50EA0102F5D1084386
:100BD00002D00098C8B10EE00021681E05E0235C39
:100BE000625C63542254401E491C8142F7DBAB46D1
:100BF000A81B401E0990002004F80B000B98099ACE
:100C0000C0F80880C0E9002B7AE711264FF00008F1
:100C100057E72DE9F04F88460446D21D22F0070120
:100C200091B0D1E90001CDE90A0103F011FB0246C0
:100C30000B98C00F01D02D2007E02068810701D557
:100C40002B2002E0202101EAC000032A099001D0F4
:100C5000072A05DB03464146204600F0F7FA0BE180
:100C60002078800601D5E06900E00620B8F1650F24
:100C7000814606D0B8F1660F18D0B8F1670F70D171
:100C800031E00020B9F1110F009001DB112301E0E8
:100C900009F101030AAA01A90CA8FFF7E2FEDDE9A8
:100CA0000C70002609F10105834647E001204B4600
:100CB00000904FF000470AAA01A90CA8FFF7D1FE47
:100CC000DDE90DB00C995D46002610B909F101006F
:100CD0000D18B9EB050003D4C0F1FF3609F1010589
:100CE000A5EB09002BE0B9F1010F01DA4FF0010982
:100CF0000020B9F1110F0090484601DD112300E0FA
:100D000003460AAA01A90CA8FFF7ABFEDDE90C70A7
:100D10004D4600268346207800070AD4AB4500DA0A
:100D20005D4601A8012D04DD411911F8011C30298F
:100D300007D04F4502DA17F1040F04DA012082468A
:100D40000FE06D1EEEE7002F02DCED1B3E4403E0DA
:100D5000781CA84200DD7D1CB81B00F1010A4FF091
:100D600000472078000703D4AA4501DB4FF0FF3A83
:100D70000021B7F1004F0DF143088DF8431024D046
:100D800002202B23002F01DA7F422D230A21021E8D
:100D9000A0F1010000DC5FB197FBF1FC97FBF1F2E1
:100DA00001FB1C7C17460CF1300C08F801CDEEE776
:100DB000A8F1010003702188090501D5452100E053
:100DC0006521A0F1010800F8011C09980FA9A1EB09
:100DD0000807FF1D00B10120411901EBEA70A1696C
:100DE0003844081A401EA0612078C00602D420466C
:100DF000FFF7B5FB099828B1D4E901219047206A93
:100E0000401C20622078C00622D52046FFF7A7FBB1
:100E10001EE0002E04DBB34502DD01A8805D00E08A
:100E20003020D4E901219047206A401C2062761CC2
:100E3000AAF101005FEA000A0AD100F003FAC068D3
:100E40000168405CD4E901219047206A401C20627F
:100E5000281EA5F10105DCDC07E0D4E9012118F822
:100E6000010B9047206A401C2062381EA7F1010741
:100E7000F3DC2046FFF789FB032011B041E60000B8
:100E80002DE9F04F04460D46D21D22F0070089B02F
:100E9000D0E900974846394603F0DAF90246F80FE0
:100EA00001D02D2307E02068810701D52B2302E024
:100EB000202101EAC0038DF820300BB1012000E0B1
:100EC0000020032A824601D0072A04DB2946204657
:100ED00000F0BCF93FE12078800601D40D2500E048
:100EE000E569C7F30A560D2D49DA00214FEA175B71
:100EF00008464FF00000002F00F4400007DA00EB36
:100F000080004FF4400100EBD07001EA60008115D1
:100F1000012901DD4FF0FF3100224FEA850CBCF1C1
:100F2000180F06D31346ACF118004FF08052C240A0
:100F300003E04FF4801323FA0CF30CF10C0CBCF11A
:100F4000200F04D3ACF1200C09FA0CF001E007FAF1
:100F50000CF000294FF0004801DD18B90FE00ED168
:100F600040450CD319EB02095F4121B9404502D13C
:100F70009F4329EA0209BBEB175F00D0761C20884B
:100F8000000502D57B48784402E07A487844193855
:100F900008AA302302F80A30037C0AF10101002E6E
:100FA0000AF1020A53546A4602DC4FF0300101E0B4
:100FB0004FF031014FF001088DF8001002D0A6F279
:100FC000FF3603E059EA470100D06B4E002D02DCEA
:100FD0002178090704D54FF002082E218DF8011061
:100FE000C44600210BE0C7F303433F01C35C491C27
:100FF0006D1E02F80830052908F1010801DA002DFC
:10100000F1DC00210CE000EB1973491C1B786D1E0C
:10101000082902F808304FEA091908F1010801DA35
:10102000002DF0DC21688B0602D516E0A8F101083E
:10103000E04505DD02EB080313F8013C302BF5D049
:10104000B8F1000F09DD02EB080313F8013C2E2B69
:1010500003D1090701D4A8F10108002D05DD3E21C7
:1010600002F808106D1E08F10108407C002E02F8FD
:10107000080008F1010804DA2D20764202F8080081
:1010800002E02B2002F808000A214FF47A70864211
:1010900008F101080BDB96FBF0F3303302F808305F
:1010A00096FBF0F308F1010800FB136601E0642EE3
:1010B0000CDB642096FBF0F3303302F8083096FB2B
:1010C000F0F308F1010800FB136601E00A2E06DBCD
:1010D00096FBF1F0303002F8080008F1010896FBA9
:1010E000F1F001FB1060303002F80800A16908F14E
:1010F000010808EB050202EB0A00081AA06120783B
:10110000C00602D42046FFF72AFA216A08AE01EB96
:101110000A00206204E0D4E9012116F8010B90478F
:10112000BAF1010AF7D22078C00602D52046FFF7AF
:1011300016FA6E4609E016F8010B3E280FD0D4E9E6
:1011400001219047206A401C2062B8F10108F2D2C8
:101150002046FFF71AFA09B00320BDE8F08F206A95
:101160002844206203E0D4E90121302090476D1E1D
:10117000EBD3F8E7DD64000002FCFFFF10B5436924
:1011800013B1AFF3008001E0FFF7AEFA012010BD0C
:10119000128800F1240182840022C2840122EDE73A
:1011A00011684FF0FF32E9E770B516460C46054668
:1011B00000F040F8036893F80101012806D0FF2CE5
:1011C0000FD8185D68B101202C7070BDD3F80701ED
:1011D0003246214603F2071303442846BDE8704017
:1011E00018474FF0FF3070BD754600F0EBF8AE4683
:1011F00005006946534620F00700854618B020B523
:10120000FFF726F8BDE820404FF000064FF000073A
:101210004FF000084FF0000B21F00701AC46ACE89E
:10122000C009ACE8C009ACE8C009ACE8C0098D460B
:101230007047000010B500F005F8001D10BD00BF9C
:1012400085510000004870478C0000202DE9F041D6
:101250001F46044603260168072A01F4006004DBE8
:1012600008B116A505E016A503E008B115A500E034
:1012700015A521F010002060A069C01EA0610FB16B
:10128000401EA0612046FFF76AF94FB1D4E9012161
:1012900038469047206A401C2062C01C206206E04D
:1012A000206AFAE7D4E9012115F8010B9047761E70
:1012B000F8D22046FFF769F9BDE8F0814E414E00B3
:1012C0006E616E00494E4600696E66002DE9F0477A
:1012D000814616468AB0354878440DC88DE80D0021
:1012E00032487844801C03AC0DC884E80D0041F6F8
:1012F0009B300844372190FBF1F290FBF1F5A5F10A
:10130000800501FB12041B3C02D56442012000E071
:101310000020DFF898A080460027FA44AAF1BE0A10
:101320000EE0E0070AD03246684607EB470101238A
:101330000AEB810100F01BFB8DE8070064107F1CA5
:10134000002CEED1194F7F44AE3F19E0E80715D0CD
:1013500007EB04100DF1180A90E80E008AE80E0061
:10136000C068F04201D1981908903246012306A9BD
:1013700003A800F0FCFA03AB83E807006D10641CBF
:10138000002DE3D14FF0010332466946B8F1000F5A
:1013900003A802D000F0D6FA01E000F0E8FAC9E9AB
:1013A0000001C9F808200AB0BDE8F0871C620000FF
:1013B00010B50446AFF300802046BDE81040FEF7AC
:1013C00032BF0000004870476C0000204FF0013C25
:1013D00050F8042B51F8043B9A4221D1A2EB0C03A4
:1013E000934313EACC1317D150F8042B51F8043B64
:1013F0009A4215D1A2EB0C03934313EACC130BD101
:1014000050F8042B51F8043B9A4209D1A2EB0C038B
:10141000934313EACC13DBD04FF00000704700BFBA
:10142000D01A01BAB1FA81F101F0180122FA01F0E3
:10143000CB40C1F12001DBB2C0B2C01A2CFA01F3DB
:10144000D11A914311EAC311E6D170475FEA400C0B
:1014500008BF91F0000F4FEA8C234FEAC12243EA04
:1014600051514FEA1C5018BF00F5F0404FEA3000D0
:1014700018BF41F000415FEA6C5C00F02980BCF1CC
:10148000FF3F08BF40F080407047130C06BF1204B6
:101490004FF0100C4FF0000C130E04BF12020CF1B1
:1014A000080C130F04BF12010CF1040C930F04BFBE
:1014B00092000CF1020CD30F04BF52000CF1010C8E
:1014C00011464FF00002A0F11F00A0EB0C00704786
:1014D00011F0004F08BF704731F000413FF4D5AF25
:1014E0000B0C06BF09044FF0100C4FF0000C0B0E54
:1014F00004BF09020CF1080C0B0F04BF09010CF129
:10150000040C8B0F04BF89000CF1020CCB0F04BF3D
:1015100049000CF1010CCCF12003A0EB0C0022FAE5
:1015200003F302FA0CF241EA030100F101007047F3
:1015300020F07F4C80EA030023F07F47ACEB0703E9
:1015400003F57C5300F0004003F1FF032DE98049CF
:101550004FEA154B09B44FEA144325EA0B4E24EA2F
:1015600003480FF2042606EB132749083E785FEA8A
:10157000320203FB0667C7F5000707FB06F64FEAD2
:1015800054374FEAD64606F1020607FB066CCCF14B
:10159000005C4FEA1C472CEA074C07FB06F40CFBE7
:1015A00006F504EB15464FEA961634BF00204FF0BF
:1015B00000404FEAD13706FB07FC4FEA1C4C0CFBFE
:1015C0000BF7D21B03FB0CF761EB07010CFB0EF7CB
:1015D000B0EB074072EB17420CFB08F734BFA2EBED
:1015E0000742B2EB074261EB17414FEA0C444FEA66
:1015F000910706FB07FC4FEA1C4C0CFB0BF7B0EB0A
:10160000C74072EB573203FB0CF734BFA2EBC74263
:10161000B2EBC74261EB57310CFB0EF7B0EBC700E2
:1016200072EB57720CFB08F734BFA2EBC702B2EBA8
:10163000C70261EB5771039F4FEA816141EA921142
:1016400004EBCC044FEAD1374FEA826206FB07FC79
:1016500042EA90124FEA80604FEA1C4C0CFB0BF7F9
:10166000D21B03FB0CF761EB07010CFB0EF7B0EB91
:10167000074072EB17420CFB08F734BFA2EB07429E
:10168000B2EB074261EB17414FEA8C554FEA9107E5
:1016900004EB9C2406FB07FC4FEA1C4C0CFB0BF7ED
:1016A000B0EBC74072EB573203FB0CF734BFA2EB31
:1016B000C742B2EBC74261EB57310CFB0EF7B0EB00
:1016C000C70072EB57720CFB08F734BFA2EBC702DE
:1016D000B2EBC70261EB577115EB4C254FEA816104
:1016E00041EA92114FEA82624FEAD13742EA901200
:1016F00006FB07FC44F100044FEA80604FEA1C4CF3
:101700000CFB0BF7D21B03FB0CF761EB07010CFB87
:101710000EF7B0EB074072EB17420CFB08F734BF33
:10172000A2EB0742B2EB074261EB174115EB1C1528
:101730004FEA813141EA92414FEA823242EA9042D5
:101740004FEA80304FEA0C7644F1000448EA034344
:101750004EEA0B484FF0000EB2EB080C71EB03079A
:1017600024BF624639464EEB0E0E4FF0000B0018B8
:10177000524149414BEB0B0BB2EB080C71EB0307E9
:101780007BF1000B24BF624639464EEB0E0E4FF044
:10179000000B0018524149414BEB0B0BB2EB080C0C
:1017A00071EB03077BF1000B24BF624639464EEB19
:1017B0000E0E51EA020718BF46F0010616EB0E7630
:1017C00055F1000254F1000103D5BDE88901BDE8DF
:1017D0000088BDE88901BDE80048B619524141EBD7
:1017E0000101A3F10103704780807F7E7D7C7B7ABD
:1017F0007978777676757473727171706F6E6E6DBD
:101800006C6C6B6A6A696868676666656464636362
:1018100062616160605F5F5E5E5D5D5C5C5B5B5AE8
:101820005A59595858575756565555555454535355
:1018300052525251515050504F4F4F4E4E4D4D4DB0
:101840004C4C4C4B4B4B4A4A4A49494948484847FB
:101850004747474646464545454444444443434339
:101860004342424242414141002B9C4630D47700E2
:101870002BD01CB54FEA370703B44FF010004FF0E0
:101880001001BAF1000F06D0BCF1000FDCBF40F030
:10189000080040F008014FF000000FBCBDE8104008
:1018A0000BF1010BBBF1010F08BF5FEA170722BF65
:1018B00012F1010211F101014FF0004143F1000367
:1018C00000F0004043EA00007047F9D35708D0E722
:1018D00046EA064613F1400F4FEA16461FDD13F1A4
:1018E000200FDFBF16430A46002120335B42BED0E3
:1018F000C3F1200746EA064602FA07F74FEA164602
:1019000046EA0706C3F1200722FA03F201FA07F7B5
:1019100021FA03F14FF0000342EA0702A7E746EA83
:10192000020646EA06464FEA164646EA0106BCBFEC
:1019300046EA0646360C4FF000034FF000024FF027
:10194000000194E72DE9804C9A46934670B491E8E3
:10195000380007C831EA400C48BF34EA430C03D5CD
:10196000FFF7E6FDFFF780FFF0BCBDE8008C2DE936
:10197000804C9A46934670B491E8380007C810F03E
:10198000804F08BF13F0804F03D100F005F8FFF738
:101990006BFFF0BCBDE8008C20F07F4780EA0300BD
:1019A00023F07F4C07EB0C03A3F57C5300F00040C1
:1019B000A3F1FE0392F0000F00F0B38095F0000F4A
:1019C00000F077802DE901494FEA11404FEA1446B3
:1019D00021EA004800FB06FC24EA064708FB06F65D
:1019E00007FB08F800FB07F718EB06484CEB164C12
:1019F0004FEA124B18EB07484FEA15464CEB1740DD
:101A000022EA0B4E0BFB06FC25EA06470EFB06F608
:101A100007FB0EFE0BFB07F71EEB064E4CEB164CBE
:101A20004FF000061EEB074E4CEB174B18EB0B0864
:101A300040F1000018EB0E0B58EB000840F10000DD
:101A40008F1A4FF000013CBFC943661B14BFB5EBB2
:101A5000040C00213CBFC943F61B4FEA17444EEA71
:101A60008E0E27EA04454FEA1C4704FB07622CEA66
:101A7000074C05FB07F70CFB05F604FB0CFC16EB0B
:101A8000074642EB174216EB0C4642EB1C421BEB9F
:101A9000060658EB0202414146EA9E0601D5BDE822
:101AA0000189B619524141EB0101A3F10103BDE8DF
:101AB00001894FEA14454FEA114724EA054621EA15
:101AC000074C05FB07F406FB07F70CFB06F105FBCB
:101AD0000CFC11EB074144EB17444FEA124711EBA2
:101AE0000C4144EB1C4422EA074C05FB07F206FBC1
:101AF00007F70CFB06F605FB0CFC16EB074642EB62
:101B0000174216EB0C4642EB1C456A1854F10001D3
:101B100048BF7047B619524141EB0101A3F10103DF
:101B2000704795F0000F37D04FEA11424FEA144743
:101B300021EA024624EA074C02FB07F106FB07F7FD
:101B40000CFB06F402FB0CFC14EB074441EB1741C1
:101B50004FEA154714EB0C4441EB1C4125EA074CB6
:101B600002FB07F506FB07F70CFB06F602FB0CFC75
:101B700016EB074645EB174516EB0C4645EB1C42AA
:101B8000121951F1000148BF7047B619524141EB9B
:101B90000101A3F1010370474FEA14454FEA1147D1
:101BA00024EA054621EA074C05FB07F106FB07F787
:101BB0000CFB06F24FF0000605FB0CFC12EB074293
:101BC00041EB174112EB0C4251EB1C4148BF7047EF
:101BD000921841EB0101A3F101037047CA4302606F
:101BE000704721B1826842F00102826003E082689E
:101BF00022F001028260704700B585B000F082F8E3
:101C000000F054F801208DF80500002003904FF4F7
:101C1000602002900020009003208DF81000012029
:101C20008DF8040069461A4800F0A4F80223012246
:101C30000421174800F0C6F802231A46052114486B
:101C400000F0C0F8022303220121114800F0BAF885
:101C500001210F4800F01EF801210D48FFF7C1FFD8
:101C60000B4800F00BF900BF094800F078F8002895
:101C7000FAD1074800F012F900BF054800F05CF8FF
:101C80000028FAD10121024800F0FDF805B000BD9E
:101C90000024014021B1826842F48072826003E036
:101CA000826822F4807282607047000000B58BB0B9
:101CB000114800F077FC03200390002002900A9066
:101CC0000E4801904FF480600790802005902020FE
:101CD00008900B48009080150690002004904FF467
:101CE000005009906946044800F002FD01210248B5
:101CF00000F04CFC0BB000BD0800024012000020B8
:101D00004C24014008B50121042001F0A7FC012169
:101D1000084601F083FC0121480201F09FFC3220BB
:101D2000ADF8000000208DF803006946014800F07E
:101D30005BFE08BD00080140014600208A6802F0F1
:101D400004020AB1012000E0002070470246002092
:101D500013680B400BB1012000E0002070470146E2
:101D600000208A6802F008020AB1012000E0002089
:101D70007047000030B502460020002350680F4C29
:101D800020400D790C6844EA052420435060906897
:101D90000B4C2040D1E902542C434D7944EA4504D0
:101DA00020439060D06A20F470000C7C641EE4B282
:101DB000234340EA0350D06230BD0000FFFEF0FF35
:101DC000FDF7F1FFF0B504460D4600200021092D76
:101DD00011DDE068A5F10A0606EB4607072606FABC
:101DE00007F18843A5F10A0606EB460603FA06F159
:101DF0000843E0600CE0206905EB4507072606FA7A
:101E000007F1884305EB450603FA06F10843206114
:101E1000072A0FDA606B561E06EB86071F2606FAA6
:101E200007F18843561E06EB860605FA06F10843BD
:101E3000606322E00D2A0FDA206BD61F06EB8607BF
:101E40001F2606FA07F18843D61F06EB860605FA19
:101E500006F10843206310E0E06AA2F10D0606EBEC
:101E600086071F2606FA07F18843A2F10D0606EB46
:101E7000860605FA06F10843E062F0BD816841F08C
:101E800008018160704721B1826842F4A00282603B
:101E900003E0826822F4A00282607047816841F00A
:101EA00004018160704710B501214FF0C05001F06E
:101EB000C5FB012001F09EFB10BD10B5012001F013
:101EC000DDFB002001F0DAFB10BD000008B5014683
:101ED000002000900348009000980844009000986B
:101EE000008808BD006C004008B500220092044A3A
:101EF0000092009A02440092009A116008BD00000E
:101F0000006C004010B5002413E0002220210A4894
:101F100000F002FE4FF4FA7002F0C5F90122202110
:101F2000054800F0F9FD4FF4FA7002F0BCF9601CAE
:101F300084B2C82CE9DB10BD000C014010B50024B0
:101F400011E000222021204800F0E6FDC82002F028
:101F5000AAF9012220211C4800F0DEFDC82002F071
:101F6000A2F9601C84B2962CEBDB002413E0002263
:101F70002021154800F0D0FD4FF4967002F093F93F
:101F800001222021104800F0C7FD4FF4967002F0A6
:101F90008AF9601C84B2642CE9DB002411E0002281
:101FA0002021094800F0B8FD642002F07CF90122EC
:101FB0002021054800F0B0FD642002F074F9601C97
:101FC00084B2FA2CEBDB10BD000C014010B50024EC
:101FD00011E000222021214800F09EFDC82002F0DF
:101FE00062F9012220211D4800F096FDC82002F070
:101FF0005AF9601C84B2B4F5E17FEADB002413E0F7
:1020000000222021154800F087FD4FF4C87002F02F
:102010004AF901222021114800F07EFD4FF4C870DA
:1020200002F041F9601C84B2FA2CE9DB002411E0D3
:1020300000222021094800F06FFD642002F033F9EE
:1020400001222021054800F067FD642002F02BF9F1
:10205000601C84B2B4F5E17FEADB10BD000C0140E6
:1020600008B50121082001F0F9FA10208DF80300CD
:102070002020ADF8000003208DF8020069460448D6
:1020800000F0B2FC01222021014800F045FD08BD0E
:10209000000C014000BFFEE72DE9F04107460E4667
:1020A00014463C2004F054F9F0B204F06BF93012FD
:1020B00004F068F904F038F90CB10020208016E033
:1020C00002F0B4F805461E2D0ED1384600F050F946
:1020D00005463D2004F03CF904F026F92F4434B1C4
:1020E00020882844208002E02846BDE8F081E7E708
:1020F00010B501F087FA08B100F080F8302000F048
:10210000C8F810BD10B5312000F0C3F810BD10B5EF
:1021100004462146362000F0AEF810BD10B5044646
:1021200014B1204600F0D6F8342000F0B2F810BD0B
:1021300070B50646304600F0B6F8054685B129462A
:10214000304600F024F80446412C09D0142C01D16B
:10215000432070BD422C01D1B320FAE72046F8E7B6
:102160007019FFF7DBFFF4E710B50446204600F0D6
:10217000B1F820785C2802D020782F2803D10021E4
:10218000642000F00CF9322000F083F810BD2DE936
:10219000F04105460F460026012429E001E0601CBD
:1021A000C4B2285D5C2805D0285D2F2802D0285DA8
:1021B0000028F4D1285D10B1601CC4B200E00024F6
:1021C000A819FFF7D1FF064684B1BC420ED0412EBC
:1021D0000AD0142E02D14320BDE8F081422E01D155
:1021E000B320F9E73046F7E7264601E03046F3E74B
:1021F000D4E710B52B2000F02FF810BD10B5222029
:1022000004F0A6F804F09AF8044604F08DF820468D
:1022100010BD2DE9F04104F091F8044604F08EF869
:10222000054604F08BF8064604F088F8074604F0EB
:102230007BF844EA052040EA064040EA0760BDE832
:10224000F08110B504460C2004F082F8204604F01A
:1022500099F8FFF7DEFF10BD70B504460A2004F0C0
:1022600077F8204604F08EF804F068F8054604F08C
:102270005BF8284670BD70B505460C46284604F04C
:1022800067F8204604F07EF804F04EF801F0CEFF27
:1022900070BD10B50446204604F05AF804F044F826
:1022A00001F0C4FF10BD0246114600E0491C087849
:1022B0000028FBD100E0491E08785C2804D008788B
:1022C0002F2801D09142F6D1914200D0491C881AA2
:1022D000C0B270472DE9F0410646012004F038F8FD
:1022E00004F02CF843282BDA2B20FFF7B5FF102839
:1022F00026DA2F2004F02CF8002004F043F83220D6
:10230000FFF7C7FF0446142C1AD1CF20FFF7A4FF14
:102310000446ACB14C20FFF794FF00EB042739468C
:102320004C2000F03CF85020FFF78BFF00EB042717
:102330003946502000F033F80021702000F02FF8CB
:102340002F2004F005F83578284604F01BF809E042
:10235000761C35785C2D01D02F2D00D10025284624
:1023600004F010F8002DF3D103F0DEFFBDE8F0819A
:1023700070B504462D2003F0EBFF03F0DFFF0646A7
:10238000054646B100BF207803F0FCFF641C701EB8
:10239000C0B2061EF7D103F0C7FF284670BD70B566
:1023A00005460C460D2003F0D3FF284603F0EAFF54
:1023B000E0B203F0E7FFC4F3072003F0E3FFC4F348
:1023C000074003F0DFFF200E03F0DCFF03F0ACFF5B
:1023D00070BD000010B5002400F02AF804E0601C75
:1023E000C4B2012001F05FFF4FF480510F4800F0AC
:1023F00086FB08B1502CF2DB502C01DA002401E0FE
:10240000012010BD04E0601CC4B2012001F04BFFAC
:102410004FF48051054800F072FB08B9642CF2DBE0
:10242000642C01DD0120ECE70020EAE70008014010
:1024300008B50121042001F011F94FF48050ADF8E6
:10244000000048208DF803006946024800F0CCFAED
:1024500008BD00000008014008B50121042001F07A
:10246000FDF84FF48050ADF8000010208DF8030007
:1024700003208DF802006946014800F0B5FA08BD56
:102480000008014010B500F003F8FFF7A3FF10BDEE
:1024900010B5FFF7E1FF4FF48051074800F038FB1B
:1024A000142001F0F3FE4FF48051034800F032FB9A
:1024B000282001F0F8FE10BD0008014010B50024EE
:1024C00004E0601CC4B2012001F0EDFE4FF4805125
:1024D000104800F014FB08B1642CF2DB002404E087
:1024E000601CC4B2012001F0DEFE4FF480510948A7
:1024F00000F005FB08B9642CF2DB282001F0D3FEC4
:102500004FF48051034800F0FAFA08B1012010BDE1
:102510000020FCE70008014070B5002506E06006D9
:10252000040EFFF7CBFF0443681CC5B2082DF6DB91
:10253000204670BD7CB50446FFF7AAFFFFF74AFFAF
:1025400000BB002505E0FFF7E7FF0DF80500681C5C
:10255000C5B2052DF7DB9DF800009DF80110084479
:102560009DF8021008449DF8031008449DF80410DB
:10257000884209D19DF800002070641C9DF802007B
:10258000207001E001207CBD0020FCE721B1026841
:1025900042F00102026004E002684FF6FE731A4046
:1025A0000260704701684FF6FE7211400160002121
:1025B000016041608160C1604B49884208D14A494D
:1025C0000839496841F00F01474A083A51608AE0EA
:1025D00045491431884208D143490839496841F0D6
:1025E000F001414A083A51607DE03F492831884274
:1025F00008D13D490839496841F470613A4A083ABE
:10260000516070E038493C31884208D13649083978
:10261000496841F47041344A083A516063E03249F4
:102620005031884208D130490839496841F4702155
:102630002D4A083A516056E02B496431884208D14E
:1026400029490839496841F47001274A083A51601C
:1026500049E025497831884208D123490839496839
:1026600041F07061204A083A51603CE01F498842BD
:1026700006D1011F096841F00F01021F116032E00D
:102680001A491431884208D11849091F096841F0D4
:10269000F001164A121F116025E0144928318842C2
:1026A00008D11249091F096841F470610F4A121FCD
:1026B000116018E00D493C31884208D10B49091FCF
:1026C000096841F47041094A121F11600BE0074983
:1026D0005031884207D10549091F096841F470212A
:1026E000024A121F116070470800024008040240AD
:1026F00010B50022026847F6F0739A430C6A8B68A3
:1027000023430C6923434C6923438C692343CC69DD
:1027100023434C6A23438C6A23431A430260CB68E9
:1027200043600B6883604B68C36010BD70470EB593
:102730000121042000F092FF0121084600F08EFFE5
:102740000621002000F030F94020009001208DF893
:10275000060000208DF804000C208DF80500684666
:1027600000F0BEF817208DF8080001208DF80B004E
:1027700002208DF8090001208DF80A0002A800F05F
:10278000F5FD0721002000F00FF9802000900120C6
:102790008DF8060000208DF804000C208DF805004F
:1027A000684600F09DF817208DF8080001208DF88C
:1027B0000B0002208DF8090001208DF80A0002A804
:1027C00000F0D4FD0EBD000008B501210C2000F082
:1027D00045FFC020ADF8000048208DF80300694691
:1027E000064800F001F90420ADF8000048208DF8FB
:1027F00003006946024800F0F7F808BD00080140F0
:10280000000C014010B5402000F056F8002831D0EF
:10281000642000F09CFD0421204800F070F920495C
:102820000870032000F083FD40211E4800F067F986
:10283000E8B91B48007810B901201B4908701848F6
:102840000078012802D1022017490870002404E012
:10285000601C84B2142000F07AFD4021114800F081
:102860004EF918B94EF660208442F1DB00BF4020DB
:1028700000F01CF8802000F01FF868B1142000F070
:1028800056FD8021074800F03AF910B903200649A7
:102890000870802000F00AF810BD0000000C014014
:1028A00019000020000801401800002001490860BC
:1028B0007047000014040140014600200022074B2D
:1028C0001B6803EA0102054B14331B680B4013B16C
:1028D0000AB1012000E00020704700000004014020
:1028E000002123498279002A3AD00A4612680368F7
:1028F0009A430B461A600A1D126803689A430B1D1F
:102900001A60027911440A6803681A430A60184A77
:102910000832126803689A43154B08331A601A1D6F
:10292000126803689A43124B0C331A604279102ADA
:102930000ED11A1F126803681A430D4B08331A6030
:102940001A1D126803681A43094B0C331A600DE014
:102950000749427911440A6803681A430A6005E08E
:10296000027911440A6803689A430A6070470000BC
:10297000000401400549096821F01001034A116073
:1029800011460968014311607047000000200240B1
:1029900001460020034A106800F038000843106028
:1029A000704700000020024030B500228B071C0F4A
:1029B0000F2303FA04F20B4B8C1053F8243093438B
:1029C000084C8D1044F8253023468C1053F82430E1
:1029D0008C07240F00FA04F42343024C8D1044F8B2
:1029E000253030BD080001402DE9F04102460025A8
:1029F0000026002000230024002791F803C00CF0DB
:102A00000F0591F803C00CF0100CBCF1000F03D0BF
:102A100091F802C04CEA050591F800C0BCF1000F26
:102A200031D0146800202BE04FF0010C0CFA00F3B9
:102A3000B1F800C00CEA03069E4220D183004FF09B
:102A40000F0C0CFA03F7BC4305FA03FC4CEA040430
:102A500091F803C0BCF1280F06D14FF0010C0CFA1D
:102A600000FCC2F814C00AE091F803C0BCF1480FA2
:102A700005D14FF0010C0CFA00FCC2F810C0401C4C
:102A80000828D1D31460B1F800C0BCF1FF0F34DDC9
:102A9000546800202EE000F1080C4FF0010808FAFD
:102AA0000CF3B1F800C00CEA03069E4221D183006A
:102AB0004FF00F0C0CFA03F7BC4305FA03FC4CEA89
:102AC000040491F803C0BCF1280F05D100F1080CF3
:102AD00008FA0CF8C2F8148091F803C0BCF1480F52
:102AE00007D100F1080C4FF0010808FA0CF8C2F801
:102AF0001080401C0828CED35460BDE8F081024607
:102B0000002093680B400BB1012000E000207047CB
:102B100041617047016170470AB1016100E04161A4
:102B2000704700BFFEE721B1028842F48062028054
:102B300004E002884FF6FF331A400280704770B5F8
:102B400002460024002500230020958A138B1B04D5
:102B500045EA030626F07F4404EA01068E4201D1CD
:102B6000012000E0002070BD21B1028842F0010286
:102B7000028004E002884FF6FE731A40028070471C
:102B80001FB500F021F80020ADF804004BF6FF70EF
:102B9000ADF80600C020ADF808004FF48060ADF835
:102BA0000A000001ADF80C00054800906946054890
:102BB00000F05AF801210348FFF7D6FF1FBD0000BF
:102BC000400D03000054004008B50121082000F02A
:102BD00045FD0121480500F031FDC020ADF80000A1
:102BE0001C208DF8030003208DF80200694602487E
:102BF000FFF7FAFE08BD0000000C014021B1028879
:102C000042F48072028004E002884FF6FF631A40AB
:102C10000280704721B1028842F40072028004E011
:102C200002884FF6FF531A40028070470CB50246E7
:102C3000002000230193009300920B0F019321F0D9
:102C40007F41019B1BB1009B1433009303E0090CEF
:102C5000009B18330093009B1B680B400BB10120B5
:102C600000E000200CBD00002DE9F04385B00446D3
:102C70000D460026B1460427DFF8CC80A6884FF623
:102C8000C0700640684600F061FDDDF808802F48FE
:102C9000B8FBF0F01FFA80F946EA0906A680208802
:102CA0004FF6FE7108402080002629492868884296
:102CB0000CD828684000B8FBF0F087B2042F00DA87
:102CC00004273E4309F10100208427E0E8884BF601
:102CD000FF71884206D1286800EB4000B8FBF0F095
:102CE00087B209E0286800EBC00101EB0010B8FBD7
:102CF000F0F087B247F48047C7F30B0008B947F0FC
:102D0000010747F4004006434FF4967009FB00F0BA
:102D10004FF47A7190FBF1F0401C2084A683208848
:102D200040F00100208026884FF6F5300640A88844
:102D30006989084306432680A88929890843208198
:102D400005B0BDE8F083000000127A0040420F0099
:102D5000A08601002DE9F04106460F4615461C46A7
:102D600000BF4FF400313248FFF760FF0028F8D170
:102D700001212F48FFF742FF00BF2E492C48FFF7E3
:102D8000DEFE0028F9D000223146294800F05AF82A
:102D900000BF29492648FFF7D2FE0028F9D00121BB
:102DA0002348FFF7E1FE3946214800F054F800BF00
:102DB0002149891C1E48FFF7C2FE0028F8D00121D6
:102DC0001B48FFF71BFF00BF1A491948FFF7B7FE62
:102DD0000028F9D001223146154800F033F800BF31
:102DE0001449491C1248FFF7AAFE0028F8D016E043
:102DF000012C07D100210E48FFF795FE01210C4858
:102E0000FFF708FF0B493F310948FFF798FE30B143
:102E1000074800F013F828706D1C601E84B2002C67
:102E2000E6D101210248FFF77EFEBDE8F0810000F7
:102E30000054004001000300820007000146088A98
:102E4000C0B2704712B141F0010102E04FF6FE73CB
:102E50001940018270470182704700002DE9F0415E
:102E600005460F4614461E4601211D48FFF7C6FEC3
:102E700000BF1C491A48FFF762FE0028F9D0002263
:102E800029461748FFF7DEFF00BF17491448FFF730
:102E900056FE0028F9D039461148FFF7DCFF00BF85
:102EA0001149891C0E48FFF74AFE0028F8D00CE0B3
:102EB00021780B48FFF7CFFF641C00BF0A49891C2B
:102EC0000748FFF73CFE0028F8D0301EA6F10101AC
:102ED0008EB2EDD101210248FFF79CFEBDE8F081E2
:102EE00000540040010003008200070070B5044652
:102EF0000E46154601211948FFF780FE00BF18490C
:102F00001648FFF71CFE0028F9D00022214613487E
:102F1000FFF798FF00BF13491048FFF710FE002885
:102F2000F9D031460D48FFF796FF00BF0D49891CC7
:102F30000A48FFF704FE0028F8D029460748FFF7A3
:102F40008AFF00BF0749891C0448FFF7F8FD0028E5
:102F5000F8D001210148FFF75DFE70BD005400402C
:102F600001000300820007002DE9F04705460C46EA
:102F700016464FF0000AA01CC4B2D1463AE005F153
:102F8000B000C2B200217820FFF7B0FF2746E0175B
:102F900004EB107000111030C2B200217820FFF74E
:102FA000A5FFE01704EB10700011A4EB0010C2B2F3
:102FB00000217820FFF79AFF4FF0000811E00AEB9C
:102FC00046101149085CC043C2B240217820FFF787
:102FD0008DFF0AF1010000F0FF0A08F1010000F086
:102FE000FF08B8F1100FEADB681CC5B209F1010057
:102FF00000F0FF09B9F1020FC1DBAF2200217820F8
:10300000FFF774FFBDE8F087106A00082DE9F0476C
:1030100005460C4616464FF0000AA01CC4B2D14625
:103020003CE005F1B000C2B200217820FFF75EFF5E
:103030002746E01704EB107000111030C2B20021D7
:103040007820FFF753FFE01704EB10700011A4EB9A
:103050000010C2B200217820FFF748FF4FF00008AF
:1030600013E00AEB0610A0F500700F49085CC0439E
:10307000C2B240217820FFF739FF0AF1010000F0C9
:10308000FF0A08F1010000F0FF08B8F1080FE8DBC3
:10309000681CC5B209F1010000F0FF09B9F1020F87
:1030A000BFDBBDE8F0870000106400080146CA17C6
:1030B00001EB92729210A1EB820292B9642091FB13
:1030C000F0F200FB121050B94FF4C87091FBF0F20F
:1030D00000FB121008B9012070470020FCE7012016
:1030E000FAE70020F8E7000008B50121082000F009
:1030F000B5FA0320ADF8000010208DF80300012080
:103100008DF8020069460248FFF76EFC08BD00001A
:10311000000C0140F8B506460024002502236A464B
:1031200000219E20FFF716FE9DF800400020307021
:1031300004F0800028B101203070E043C4B2601C6C
:10314000C4B204F0010008B1681CC5B204F002006A
:1031500008B1A81CC5B204F0040008B1281DC5B20E
:1031600004F0080010B105F10800C5B204F0100029
:1031700010B105F11000C5B204F0200010B105F146
:103180002000C5B204F0400010B105F14000C5B206
:10319000761C357000259DF8014004F0200010B128
:1031A00005F10C00C5B204F0400010B105F11900A2
:1031B000C5B204F0800010B105F13200C5B2761C32
:1031C0003570F8BD70B504460D4684F004066E40B7
:1031D0007E21214801F023F800BF40211E4800F065
:1031E00051FF0028F9D004211B4801F018F800BF56
:1031F0004021194800F046FF0028F9D02146164822
:1032000001F00DF800BF4021134800F03BFF0028FB
:10321000F9D02946104801F002F800BF40210E48BD
:1032200000F030FF0028F9D031460B4800F0F7FFDE
:1032300000BF4021084800F025FF0028F9D0EF2109
:10324000054800F0ECFF00BF4021034800F01AFFE2
:103250000028F9D070BD00000048004010B54FF4C0
:10326000165000F083FE01213520FFF7ABFF192037
:1032700001F00CF800213320FFF7A4FF192001F022
:1032800005F801213220FFF79DFF192000F0FEFF15
:103290000A213120FFF796FF192000F0F7FF00F018
:1032A0001FF810BD10B502A000F0B4FE10BD000064
:1032B0007E031310EF00000010B502A000F0AAFE7C
:1032C00010BD00007E031112EF00000010B502A037
:1032D00000F0A0FE10BD00007E031417EF000000F8
:1032E00010B502A000F096FE10BD00007E031E1D6A
:1032F000EF00000010B502A000F08CFE10BD000031
:103300007E031615EF00000010B502A000F082FE4B
:1033100010BD00007E031516EF00000000BFFEE7A1
:10332000704710B54FF4A06000F058F810BD0021B0
:1033300007E042F6E06100BF0A1EA1F1010399B265
:10334000FAD1021EA0F1010398B2F2D17047002118
:1033500006E00A2100BF0A1EA1F1010399B2FAD1C9
:10336000021EA0F1010398B2F3D1704770B500219D
:1033700000230F22C47804B3154C246804F4E064DD
:10338000C4F5E064210AC1F10403CA40447804FA98
:1033900003F184781440214309010E4C0678A155AD
:1033A000047804F01F050124AC4005786D11AD00D0
:1033B00005F1E025C5F8004109E0047804F01F0597
:1033C0000124AC40044D0678761145F8264070BDC6
:1033D0000CED00E000E400E080E100E00249014380
:1033E000024A1160704700000000FA050CED00E091
:1033F00010B500F0D3F800F0A1F800F0DDF810BD32
:103400002DE9F04705460C4616464FF0000AA01C71
:10341000C4B2D14638E005F1B000C2B20021782034
:10342000FFF764FD2746E01704EB10700011103021
:10343000C2B200217820FFF759FDE01704EB1070AD
:103440000011A4EB0010C2B200217820FFF74EFD5E
:103450004FF000080FE00AEB461010490A5C4021CB
:103460007820FFF743FD0AF1010000F0FF0A08F1A0
:10347000010000F0FF08B8F1100FECDB681CC5B2CA
:1034800009F1010000F0FF09B9F1020FC3DBAF221F
:1034900000217820FFF72AFDBDE8F087106A0008B8
:1034A0002DE9F04705460C4616464FF0000AA01CD1
:1034B000C4B2D1463AE005F1B000C2B20021782092
:1034C000FFF714FD2746E01704EB107000111030D1
:1034D000C2B200217820FFF709FDE01704EB10705D
:1034E0000011A4EB0010C2B200217820FFF7FEFC0F
:1034F0004FF0000811E00AEB0610A0F500700E492D
:103500000A5C40217820FFF7F1FC0AF1010000F08D
:10351000FF0A08F1010000F0FF08B8F1080FEADB2C
:10352000681CC5B209F1010000F0FF09B9F1020FF2
:10353000C1DBBDE8F08700001064000870B5B0245E
:103540001BE0224600217820FFF7D0FC102200214A
:103550007820FFF7CBFC002211467820FFF7C6FC4D
:10356000002506E0002240217820FFF7BFFC681C00
:10357000C5B2842DF6DB601CC4B2B82CE1DB70BD93
:1035800010B50446812200217820FFF7AFFC2246C7
:1035900000217820FFF7AAFC10BD000008B505A0A7
:1035A0000068009002236A4600217820FFF756FC4D
:1035B00008BD0000AE8D000000B587B01C2206A13A
:1035C0006846FCF796FF1C236A4600217820FFF727
:1035D00045FC07B000BD0000AE0010D580A83FD369
:1035E00000B0408D14A1C8DA1281FFD9F1DB302080
:1035F00000A4A6AF014908627047000000000E4217
:103600007047000010B54FF480710348FFF777FA58
:103610000446204610BD00000008014029B1064ABA
:1036200052690243044B5A6104E0034A52698243DF
:10363000014B5A61704700000010024029B1064A50
:10364000D2690243044BDA6104E0034AD26982433F
:10365000014BDA61704700000010024029B1064AB0
:1036600092690243044B9A6104E0034A92698243DF
:10367000014B9A6170470000001002400149086048
:1036800070470000400442420348406A40F08070A6
:1036900001494862704700000010024010B500F078
:1036A0002FF84FF4803000F0EDF800F071F9044687
:1036B000012C24D14FF4E011000400F041F9002066
:1036C00000F0D4F8A00200F01DF9002000F026F967
:1036D0000220FFF75DF91020FFF74CF9012000F000
:1036E00029F900BF392000F09BF80028FAD0022009
:1036F00000F042F900BF00F0B1F80828FBD110BD7E
:103700000F48006840F001000D4908600846406815
:103710000C4908400A494860084600680A490840C0
:10372000074908600846006820F4802008600846C1
:10373000406820F4FE0048604FF41F008860704726
:10374000001002400000FFF8FFFFF6FE30B5002138
:103750000022002400232D4D6D6805F00C0121B1DD
:10376000042905D0082923D105E0294D056022E070
:10377000274D05601FE0254D6D6805F47012234D3F
:103780006D6805F48034022505EB92421CB9214D89
:10379000554305600BE01D4D6D6805F400351DB106
:1037A0001C4D5543056002E0194D5543056002E08C
:1037B000174D056000BF00BF144D6D6805F0F001A6
:1037C0000909154D6B5C0568DD4045600F4D6D685E
:1037D00005F4E061090A104D6B5C4568DD408560C9
:1037E0000A4D6D6805F46051C90A0B4D6B5C456864
:1037F000DD40C560054D6D6805F44041890B074DFE
:103800006B5CC568B5FBF3F5056130BD0010024087
:1038100000127A0000093D001A0000202A00002052
:1038200010B501460022002300204A11012A02D1CE
:10383000094C236806E0022A02D1074C236A01E002
:10384000054C636A01F01F02012494401C400CB136
:10385000012000E0002010BD001002400248406836
:1038600000F00C00704700000010024001460020EC
:10387000034A506820F0F000084350607047000091
:10388000001002401149096821F480310F4A11608B
:103890001146096821F480211160B0F5803F03D002
:1038A000B0F5802F0ED106E00849096841F4803157
:1038B000064A116007E00549096841F4A021034A5E
:1038C000116000E000BF00BF704700000010024020
:1038D00000210B4A11700A4A203A82F82010012870
:1038E00002D0042808D103E00121054A117004E048
:1038F0000521034A117000E000BF00BF70470000BF
:103900002010024001460020034A506820F4E06085
:10391000084350607047000000100240014600203C
:10392000034A506820F4605040EAC100506070477C
:103930000010024001490866704700000000424242
:1039400002460020044B586820F47C1042EA010330
:103950001843014B5860704700100240014908604D
:10396000704700003C0442420249096A0143014A8F
:10397000116270470010024001460020034A50685F
:1039800020F0030008435060704700000010024020
:1039900038B5002000900024002500BF3120FFF73B
:1039A0003FFF05460098401C00900098B0F5A06FBE
:1039B00001D0002DF2D03120FFF732FF08B10124F1
:1039C00000E00024204638BD10B50420FEF77EFA42
:1039D0004AF2A551884207D000F02AF84AF2A551D0
:1039E0000420FEF781FA0DE07B20FFF719FF10B9E4
:1039F0007A20FFF715FFFFF747FE0120FFF7AEFF24
:103A000000F0F0F810BD00000348008840F01000FE
:103A100001490880704700000428004003480088DE
:103A20004FF6EF71084001490880704704280040B4
:103A300010B501214FF0C050FFF700FE0120FFF745
:103A4000D9FDFEF73AFA0120FFF742FF00BF4120FF
:103A5000FFF7E6FE0028FAD04FF48070FFF784FFEE
:103A60000120FFF77BFF00F0BDF800F0B1F847F64A
:103A7000FF7000F09DF800F0ABF810BD70B50026A7
:103A80000024002500F08AF806463A48B6FBF0F418
:103A900039480088A0423DD037490C8040F2B275C9
:103AA00010E02846FFF702FB40B1B4F5B77F02D320
:103AB000A4F5B77404E0681C85B206E0A4F26D14A6
:103AC000681C85B2B4F5B67FEBD800BF2B480580E3
:103AD000002516E029480088FFF7E8FA30B1012DEB
:103AE00004D11D2C01D31D3C09E00CE02448405DAD
:103AF000A04203D82248405D241A00E003E0681C7D
:103B000085B21C2CE6D200BF681C1E490870601CE0
:103B10001D4908701748B6FBF0F100FB11644FF423
:103B20006160B4FBF0F0194908704FF46160B4FBB8
:103B3000F0F100FB11403C21B0FBF1F0144908709A
:103B40004FF46160B4FBF0F100FB11403C21B0FB8D
:103B5000F1F201FB12000F4908700B480278094886
:103B600001780648008800F04FF80B4908700020E3
:103B700070BD0000805101000800002000000020FE
:103B8000046400080200002003000020040000205C
:103B90000500002006000020070000200021034847
:103BA0000188001F008841EA004070471C2800403F
:103BB00000B50246FFF728FFC2F30340034908801F
:103BC000091D0A80FFF72AFF00BD000008280040F9
:103BD00000BF0348008800F020000028F9D070479B
:103BE00004280040074800884FF6F771084005494F
:103BF000088000BF0348008800F008000028F9D0C2
:103C0000704700000428004070B50346144601299F
:103C100001DB0C2901DDFF2070BD012901D0022943
:103C200004D101F10C00C1B2581E83B2481C00EB54
:103C30004000052590FBF5F0022505FB01452844D1
:103C400018441A46DD1703EB957500EBA5006425B3
:103C500093FBF5F5401B4FF4C87593FBF5F528442D
:103C6000401C072590FBF5F605FB1600C01D90FBD8
:103C7000F5F605FB1600C0B2CEE7000000B587B030
:103C800001210820FFF7EAFC01218803FFF7D6FC99
:103C90004FF48040ADF8040004208DF8070001A91E
:103CA0002148FEF7A1FE4FF42040ADF80400182093
:103CB0008DF8070003208DF8060001A91A48FEF7C9
:103CC00093FE4FF48050ADF8040010208DF80700EB
:103CD00003208DF8060001A91348FEF785FE382061
:103CE000ADF814000120ADF810000220ADF80E0070
:103CF0000720ADF818000020ADF80C00ADF8080062
:103D0000ADF816004FF48270ADF80A004FF4007061
:103D1000ADF8120002A9054800F040F8012103485F
:103D200000F022F807B000BD000C01400038004050
:103D300010B5044600BF02210A4800F021F800280F
:103D4000F9D02146074800F027F800BF01210548B7
:103D500000F016F80028F9D0024800F01AF8C0B2B6
:103D600010BD00000038004021B1028842F040023E
:103D7000028004E002884FF6BF731A400280704749
:103D80000246002013890B400BB1012000E0002007
:103D900070470146888970478181704710B50022BD
:103DA000028802F441520B884C8823438C882343B9
:103DB000CC8823430C8923434C8923438C89234398
:103DC000CC8923431A430280838B4FF2FF74234034
:103DD00083830B8A038210BD704710B500F002F890
:103DE00010BD00000CB50020019000903348006821
:103DF00040F480303149086000BF3048006800F46A
:103E0000003000900198401C0190009818B901986A
:103E1000B0F5A06FF1D12948006800F4003010B16E
:103E20000120009001E0002000900098012843D17B
:103E30002348006840F010002149086008460068E7
:103E400020F0030008600846006840F002000860A7
:103E50001A48406819494860084640684860084662
:103E6000406840F4806048600846406820F47C1058
:103E700048600846406840F4E8104860084600681A
:103E800040F08070086000BF0C48006800F00070CF
:103E90000028F9D00948406820F00300074948602D
:103EA0000846406840F00200486000BF0348406890
:103EB00000F00C000828F9D10CBD000000100240F1
:103EC0000020024010B504462046FFF731FF10BD28
:103ED0007047000010B51348006840F00100114918
:103EE000086008464068104908400E494860084686
:103EF00000680E4908400B4908600846006820F435
:103F0000802008600846406820F4FE0048604FF4B6
:103F10001F008860FFF761FF4FF0006004490860F0
:103F200010BD0000001002400000FFF8FFFFF6FE89
:103F300008ED00E010B540F225510A4800F0AFF856
:103F400070B1084800F066F9C4B2532C03D10120C7
:103F50000549088004E04B2C02D102200249088068
:103F600010BD0000004800401000002010B586B0D1
:103F7000044601210820FFF771FB01218804FFF7A7
:103F80005DFB4FF40060ADF8140004208DF81700BD
:103F900005A91E48FEF728FD4FF48060ADF8140017
:103FA00003208DF8160018208DF8170005A9174872
:103FB000FEF71AFD01940020ADF80800ADF80A00E4
:103FC000ADF80C00ADF810000C20ADF80E00272065
:103FD0008DF8000001208DF8010000208DF802000E
:103FE00001208DF803006846FFF7C0F901A90848D1
:103FF00000F0A4F8012240F22551054800F079F8BC
:104000000121034800F032F806B010BD000C014059
:10401000004800400FB410B5B4B0002437A8009099
:10402000C92101A8009B369AFCF726F90EE020462C
:10403000621CD4B201AA115C0B4800F0F0F800BF7A
:104040004021094800F01EF80028F9D0C82C04DAF5
:1040500001A8FCF72FFAA042E9D80020009034B064
:1040600010BC5DF814FB00000048004021B18289BB
:1040700042F40052828104E082894DF6FF731A40B7
:104080008281704702460020B1F5007F00D100BF59
:1040900013880B400BB1012000E00020704770B581
:1040A0000246002400230025002040F66A16B14293
:1040B00000D100BFC1F3421501F01F03012606FA2B
:1040C00003F3012D02D19689334006E0022D02D17F
:1040D000168A334001E0968A33400C12012606FA14
:1040E00004F41688344013B10CB1012000E0002024
:1040F00070BDF0B50346002400260025002040F6E0
:104100006A17B94200D100BF1846C1F3421401F04A
:104110001F06012707FA06F5012C01D10C3004E037
:10412000022C01D1103000E014301AB107682F437F
:10413000076002E00768AF430760F0BD2DE9F04774
:1041400086B005460E460024A24600BFA1460027C1
:10415000B08900B100BF2F462C8A4CF6FF70044096
:10416000F08804432C82AC894EF6F3100440B088EA
:1041700031890843718908430443AC81AC8A4FF606
:10418000FF400440B0890443AC8201A8FFF7DEFA87
:104190001F48874202D1DDF810A001E0DDF80CA035
:1041A000A88900F4004040B10AEBCA0000EB0A10F5
:1041B00031684900B0FBF1F807E00AEBCA0000EBF8
:1041C0000A1031688900B0FBF1F86420B8FBF0F008
:1041D00004012009642101FB1089A88900F4004032
:1041E00040B1322000EBC900B0FBF1F000F0070055
:1041F000044308E0322000EB09106421B0FBF1F029
:1042000000F00F0004432C8106B0BDE8F0870000E9
:104210000038014001468888C0F308007047C1F3A8
:1042200008028280704700BFFEE7000010B500243E
:1042300006E0FFF7E7F910B1FDF7E0FF10BD641CE1
:1042400002488442F5D3FA20F8E70000404B4C00C6
:10425000490050EAC12018BF04204A0D18BF40F0A1
:10426000010040F2FF72B2EB515F08BF40F0020064
:10427000012808BF0520704730380A2801D20120E4
:10428000704700207047014600BF704700B50346E5
:1042900003E04FF47A7000F006F8181EA3F1010154
:1042A0008BB2F6D100BD00EBC001C9004FF0E02297
:1042B0005161002191610521116100BF4FF0E021A2
:1042C000096901F480310029F8D004214FF0E0227F
:1042D0001161704710B54FF41670FFF7D7FF062035
:1042E00002F036F8552002F04DF802F027F80446A7
:1042F00002F01AF8AA2C01D0FA2010BD152002F005
:1043000027F8062002F03EF81420FFF7CCFF02F059
:1043100015F8044602F008F8512C01D11420ECE7FE
:10432000FA20EAE7B0B04FF0010900202E902D905E
:10433000824683462B9001202890279000202690CB
:104340004FF4FA70FFF7A2FFFFF7A8F9FEF718FC89
:10435000FEF7E7FF2FA8FEF7DDFEFEF735FAFFF7C1
:1043600047F8FFF731FBFEF7E2F9FDF79CFDFDF79B
:1043700043FCFDF775FEFEF7B7FEFEF76FFFFFF794
:104380007DFC9B20FFF7FCF84FF47A70FFF77EFF6F
:104390000820FDF79BFD00F0FF09B9F1010F02DBDA
:1043A000B9F1030F01DD4FF001090C20FDF78EFD7F
:1043B00006461020FDF78AFD05461420FDF786FD10
:1043C00007461820FDF782FD00F0FF08632E00DD90
:1043D0000026002D01DB632D00DD0025B7F5805F91
:1043E00000DD0027B8F1630F01DD4FF00F08FFF784
:1043F000A5F80D2200210846FEF7B6FD0D2210217A
:104400000020FEF7B1FD0D2220210020FEF7ACFDBB
:10441000192230210020FEF7A7FD1A22402100209A
:10442000FEF7A2FD0D2250210020FEF79DFD0D227A
:1044300060210020FEF798FD0D2270210020FEF77C
:1044400093FDFFF747FF142831D1432200210420B8
:10445000FFF726F8482208210420FFF721F833222D
:1044600010210420FFF71CF8372218210420FFF741
:1044700017F8362220210420FFF712F83A222821CB
:104480000420FFF70DF84F2238210420FFF708F829
:104490004B2240210420FFF703F821224821042069
:1044A000FEF7FEFF1D2250210420FEF7A9FFFDF7B5
:1044B000E9FF88BB442200210220FEF7F1FF4822D9
:1044C00008210220FEF7ECFF542210210220FEF703
:1044D000E7FF312218210220FEF7E2FF31222021DE
:1044E0000220FEF7DDFF3A2228210220FEF7D8FF46
:1044F0001B2230210220FEF783FF1C2240210220D4
:10450000FEF77EFF1D2250210220FEF779FF4FF4B7
:104510007A70FFF7BBFE38E0FFE74422002102205B
:10452000FEF7BEFF482208210220FEF7B9FF542201
:1045300010210220FEF7B4FF312218210220FEF7DD
:10454000AFFF312220210220FEF7AAFF3A222821C4
:104550000220FEF7A5FF1F2230210220FEF750FFA8
:104560001C2240210220FEF74BFF1E225021022078
:10457000FEF746FF05E0FDF7C5FC4FF4FA70FFF7C4
:1045800085FEFDF727FF0028F5D12CA8FDF7D2FF07
:104590004FF4FA60FFF77AFEF0A02390F3A0249086
:1045A000F9A0259002E06420FFF770FEFDF7A0FD62
:1045B0001428F8D1C820FFF769FE0020019019E007
:1045C0003220FFF763FEFDF79DFD2290229814280C
:1045D00000D112E02298822800D10EE0FDF709FEFA
:1045E000032803DB0198052800DB06E00198401C46
:1045F000C0B2019001986428E2DB00BFC820FFF739
:1046000045FEE9A0FDF794FD2290C820FFF73EFE8D
:10461000E7A102A8239AFBF749FEC0B2229000222C
:1046200002A82299FDF738FD2290E1A102A8249A60
:10463000FBF73CFEC0B22290002202A82299FDF7AF
:104640002BFD2290DAA102A8259AFBF72FFEC0B21B
:104650002290002202A82299FDF71EFDC820FFF734
:1046600015FE0120FDF753FD01F059BEFFF706FAD4
:10467000D0480078032190FBF1F201FB12000128E1
:104680000AD12898012807D12FA8FEF743FD2CA8AE
:10469000FDF750FF00202890C6480078032190FBCA
:1046A000F1F201FB1200012803D0289808B901207B
:1046B000289000241EE0C0480088C04921F814005A
:1046C000BD484088BE4921F81400BB488088BD49D8
:1046D00021F8140000BF0221BB48FDF737FB00287A
:1046E000F9D00120FFF7DFFD0221B748FDF776FA88
:1046F000601CC4B20A2CDEDBB04800882A90AF48A8
:1047000000882990002415E0AC4830F814102A984D
:10471000814203DDA94830F814002A90A74830F8F8
:1047200014102998814203DAA44830F81400299023
:10473000601CC4B20A2CE7DB002407E09F4830F875
:10474000140050441FFA80FA601CC4B20A2CF5DB36
:104750002A99AAEB01022999501AC11700EB51714D
:10476000C1F3CF0A964800882A909548008829907E
:10477000002415E0924830F814102A98814203DD95
:104780008F4830F814002A908D4830F8141029987A
:10479000814203DA8A4830F814002990601CC4B2C0
:1047A0000A2CE7DB002407E0854830F81400584461
:1047B0001FFA80FB601CC4B20A2CF5DB2A99ABEB14
:1047C00001022999501AC11700EB5171C1F3CF0BA7
:1047D0007C4800882A907B4800882990002415E0B6
:1047E000784830F814102A98814203DD754830F873
:1047F00014002A90734830F814102998814203DA83
:10480000704830F814002990601CC4B20A2CE7DB11
:10481000002408E06B4830F814102B98084480B24C
:104820002B90601CC4B20A2CF4DBDDE92A218A1A21
:104830002999501AC11700EB5171C1F3CF012B9187
:10484000B9F1000F40F3F187B9F10B0F7ED009DC0D
:10485000B9F1090F7BD2DFE809F07A20E7FEFDFC11
:10486000FBFAF900B9F13D0F72D00CDCB9F1150F6C
:104870006FD0B9F11F0F6DD0B9F1290F6BD0B9F11D
:10488000330F64D1FDE3B9F1470F65D0B9F1510F92
:1048900063D0B9F15B0FF4D1F4E3FEF74FFE3122A0
:1048A00000210846FEF7B2FB202208210020FEF777
:1048B000ADFB0D2210210020FEF756FB0022202127
:1048C0001046FEF751FB012230210020FEF74CFB81
:1048D000022240210020FEF747FB0D22502100203C
:1048E000FEF742FB0D2260210020FEF73DFB0D226A
:1048F00070210020FEF738FB0E2200210220FEF777
:104900007FFD0F2210210220FEF77AFD03222021D5
:104910000220FEF775FD042230210220FEF770FD13
:104920003A2240210220FEF7BBFD10227021022016
:10493000FEF766FD0E2200210420FEF761FD0F2226
:1049400010210420FEF75CFD05223FE0FDE3FDE3BE
:10495000FDE3FDE3FDE3FDE3FDE3FDE355C5CCC869
:10496000D5D6BEBCC7C2BCB2E2CAD400CAB1BCE490
:10497000090909CEC2B6C80909CAAAB6C80909B93F
:10498000E2D5D5C1BF00000030303A30303A303087
:10499000200931382E37A1E62009093332250909CB
:1049A00009303438320000002F41412E5458540051
:1049B00025730A00060000201200002030000020AD
:1049C0004400002058000020002401402021042041
:1049D000FEF716FD042230211046FEF711FD3A22A3
:1049E00040210420FEF75CFD252258210420FEF71B
:1049F00057FD112200210620FEF702FD1222102190
:104A00000620FEF7FDFC132220210620FEF7F8FC0D
:104A1000142230210620FEF7F3FC49460820FDF75A
:104A200063FA4FF00B093EE2FEF788FD32220021C7
:104A30000846FEF7EBFA202208210020FEF7E6FAEE
:104A40000D2210210020FEF78FFA05E020E3AFE2EF
:104A50002AE286E1E7E074E00D2220210020FEF743
:104A600083FA0A2220210020FEF77EFA0B22302151
:104A70000020FEF779FA0C2240210020FEF774FA9C
:104A8000012250210020FEF76FFA0222602100204F
:104A9000FEF76AFA0D2270210020FEF765FA412226
:104AA00000210220FEF7FCFC442208210220FEF730
:104AB000F7FC432210210220FEF7F2FC31221821DC
:104AC0000220FEF7EDFC3A2220210220FEF7E8FC4E
:104AD000412200210420FEF7E3FC442208210420A7
:104AE000FEF7DEFC432210210420FEF7D9FC32221F
:104AF00018210420FEF7D4FC3A2220210420FEF7DE
:104B0000CFFC412200210620FEF7CAFC44220821E6
:104B10000620FEF7C5FC432210210620FEF7C0FC4C
:104B2000332218210620FEF7BBFC3A222021062062
:104B3000FEF7B6FC49460820FDF7D6F94FF01509F7
:104B400071E7FEF7FBFC332200210846FEF75EFA10
:104B5000202208210020FEF759FA0D221021002002
:104B6000FEF702FA062220210020FEF7FDF90722B7
:104B700030210020FEF7F8F9012240210020FEF745
:104B8000F3F9022250210020FEF7EEF90D226021F8
:104B90000020FEF7E9F90D2270210020FEF7E4F96C
:104BA000152200210220FEF72BFC032210210220F7
:104BB000FEF726FC062220210220FEF721FC072218
:104BC00030210220FEF71CFC162200210420FEF7F3
:104BD00017FC032210210420FEF712FC06222021DC
:104BE0000420FEF70DFC072230210420FEF708FC0C
:104BF000082200210620FEF703FC092210210620CE
:104C0000FEF7FEFB062220211046FEF7F9FB0722E5
:104C100030210620FEF7F4FB49460820FDF764F931
:104C20004FF01F09FFE6FEF789FC332200210846FA
:104C3000FEF7ECF92D2208210020FEF7E7F93122DA
:104C400010210020FEF7E2F9202218210020FEF7B3
:104C5000DDF90D2220210020FEF786F915223021F2
:104C60000020FEF781F9032240210020FEF77CF9A5
:104C7000062250210020FEF777F90722602100204C
:104C8000FEF772F90D2270210020FEF76DF9152252
:104C900000210220FEF7B4FB032210210220FEF7C0
:104CA000AFFB3A2220210220FEF7FAFB2022282126
:104CB0000220FEF7ABF90A2096FBF0F00A2190FBE8
:104CC000F1F201FB1200303080B202463021019037
:104CD0000220FEF79BF90A2096FBF0F100FB116021
:104CE000303080B20246382101900220FEF78EF962
:104CF000102240210220FEF737F91622002104205D
:104D0000FEF77EFB032210210420FEF779FB3A22F6
:104D100020210420FEF7C4FB202228210420FEF7D6
:104D2000BFFB0A2095FBF0F0303080B20246302104
:104D300001900420FEF7B4FB0A2095FBF0F100FB84
:104D40001150303080B20246382101900420FEF725
:104D5000A7FB102240210420FEF752FB4FF0290947
:104D6000A2E3FEF7EBFB332200210846FEF74EF9E3
:104D70002D2208210020FEF749F9322210210020BF
:104D8000FEF744F9202218210020FEF73FF90D22FA
:104D900020210020FEF7E8F8162230210020FEF73F
:104DA000E3F8032240210020FEF7DEF8062250211E
:104DB0000020FEF7D9F8072260210020FEF7D4F882
:104DC0000D2270210020FEF7CFF8152200210220CD
:104DD000FEF716FB032210210220FEF711FB3A22F8
:104DE00020210220FEF75CFB202228210220FEF772
:104DF00057FB0A2096FBF0F00A2190FBF1F201FB31
:104E00001200303080B20246302101900220FEF7BD
:104E100047FB0A2096FBF0F100FB1160303080B2B6
:104E20000246382101900220FEF73AFB1022402171
:104E30000220FEF7E5FA162200210420FEF7E0FA30
:104E4000032210210420FEF7DBFA3A22202104205D
:104E5000FEF726FB202228210420FEF7D7F80A209F
:104E600095FBF0F00A2190FBF1F201FB12003030CB
:104E700080B20246302101900420FEF7C7F80A20D4
:104E800095FBF0F100FB1150303080B20246382122
:104E900001900420FEF7BAF8102240210420FEF70A
:104EA00063F84FF03309FFE2FEF748FB332200219D
:104EB0000846FEF7ABF82D2208210020FEF7A6F8E1
:104EC000332210210020FEF7A1F820221821002013
:104ED000FEF79CF80D2220210020FEF745F808225D
:104EE00030210020FEF740F8092240210020FEF783
:104EF0003BF8062250210020FEF736F807226021F9
:104F00000020FEF731F80D2270210020FEF72CF86A
:104F1000082200210420FEF773FA09221021042040
:104F2000FEF76EFA3A2220210420FEF7B9FA202279
:104F300028210420FEF7B4FA4FF47A7097FBF0F0C2
:104F4000303080B20246302101900420FEF75EF836
:104F5000642097FBF0F00A2190FBF1F201FB1200B4
:104F6000303080B20246382101900420FEF74EF81E
:104F70000A2097FBF0F00A2190FBF1F201FB1200EE
:104F8000303080B20246402101900420FEF73EF806
:104F90000A2097FBF0F100FB1170303080B202461E
:104FA000482101900420FEF731F84FF03D097BE2E3
:104FB000FEF7C4FA332200210846FEF727F82D2217
:104FC00008210020FEF722F8342210210020FEF7ED
:104FD0001DF8202218210020FEF718F80D222021AC
:104FE0000020FDF7C1FF052230210020FDF7BCFFA6
:104FF000042240210020FDF7B7FF062250210020A7
:10500000FDF7B2FF072260210020FDF7ADFF0D2262
:1050100070210020FDF7A8FF052200210420FEF7E3
:10502000EFF9042210211046FEF7EAF93A22202176
:105030000420FEF735FA202228210420FEF730FA5A
:105040000A2098FBF0F00A2190FBF1F201FB12001C
:10505000303080B20246302101900420FDF7D6FFA7
:105060000A2098FBF0F100FB1180303080B202463C
:10507000382101900420FDF7C9FF2522402104209A
:1050800001E0E3E109E2FDF7C1FF4FF047090BE260
:10509000FEF754FA342200210846FDF7B7FF20221C
:1050A00008210020FDF7B2FF0D2210210020FDF79E
:1050B0005BFF202211460020FDF756FF2122302100
:1050C0000020FDF751FF4D2240210020FDF79EFFFB
:1050D000552248210020FDF799FF5322502100203E
:1050E000FDF794FF492258210020FDF78FFF43224E
:1050F00060210020FDF78AFF202268210020FDF7B3
:1051000085FF0D2270210020FDF72EFF22220021B5
:105110000420FEF775F9232210210420FEF770F910
:10512000242220210420FEF76BF9252230210420BF
:10513000FEF766F93A2240210420FEF7B1F9202259
:1051400048210420FEF7ACF907E009E0A9E181E17C
:10515000C1E073E176E181E184E14FF05109A3E11F
:10516000F74800780A2190FBF1F0303080B2024617
:10517000402101900620FEF793F9F14800780A21BA
:1051800090FBF1F201FB1200303080B20246482160
:1051900001900620FEF784F93A2250210620FEF7FE
:1051A0007FF9E84800780A2190FBF1F0303080B2B6
:1051B0000246582101900620FEF772F9E148007876
:1051C0000A2190FBF1F201FB1200303080B202465E
:1051D000602101900620FEF763F93A22682106203B
:1051E000FEF75EF9D84800780A2190FBF1F03030E4
:1051F00080B20246702101900620FEF751F9D24894
:1052000000780A2190FBF1F201FB1200303080B2ED
:105210000246782101900620FEF742F99DF8BC0075
:1052200028B12D2248210220FEF73AF904E020227D
:1052300048210220FEF734F99DF8BD000A2190FBB9
:10524000F1F0303080B20246502101900220FEF78A
:1052500027F99DF8BD000A2190FBF1F201FB120035
:10526000303080B20246582101900220FEF718F932
:105270002E2260210220FEF713F99DF8BE000A21BC
:1052800090FBF1F0303080B202466821019002209C
:10529000FEF706F99DF8B0000A2190FBF1F090FBB3
:1052A000F1F201FB1200303080B202464821019039
:1052B0000420FEF7F5F89DF8B0000A2190FBF1F20A
:1052C00001FB1200303080B20246502101900420D0
:1052D000FEF7E6F8E8E04FF47A709AFBF0F0303031
:1052E00080B20246282101900220FEF7D9F84FF43F
:1052F0007A709AFBF0F100FB11A0642190FBF1F0B1
:10530000303080B20246302101900220FEF7C8F80A
:1053100064209AFBF0F100FB11A00A2190FBF1F050
:10532000303080B20246382101900220FEF7B8F8F2
:105330000A209AFBF0F100FB11A0303080B2024647
:10534000402101900220FEF7ABF84FF47A709BFBEE
:10535000F0F0303080B20246282101900420FEF7A0
:105360009FF84FF47A709BFBF0F100FB11B06421C1
:1053700090FBF1F0303080B20246302101900420E1
:10538000FEF78EF864209BFBF0F100FB11B00A21C0
:1053900090FBF1F0303080B20246382101900420B9
:1053A000FEF77EF80A209BFBF0F100FB11B03030D5
:1053B00080B20246402101900420FEF771F84FF4BC
:1053C0007A712B9890FBF1F0303080B202462821A0
:1053D00001900620FEF764F84FF47A712B9890FB49
:1053E000F1F201FB1200642190FBF1F0303080B249
:1053F0000246302101900620FEF752F864212B98D6
:1054000090FBF1F201FB12000A2190FBF1F0303029
:1054100080B20246382101900620FEF741F80A21A9
:105420002B9890FBF1F201FB1200303080B2024663
:10543000402101900620FEF733F835E00A20FEF700
:1054400025FF31E01420FEF721FF2DE01420FEF7A8
:105450001DFF29E00A20FEF719FF25E00A20FEF7CC
:1054600015FF21E0279850B1262250210420FDF796
:10547000C7FF1D2260210420FDF7C2FF09E027229B
:1054800050210420FDF7BCFF1E2260210420FDF7FF
:10549000B7FF0520FEF7FAFE06E00A20FEF7F6FE4B
:1054A00002E04FF0010900BF00BF28480078002843
:1054B00000F03587B9F10B0FC0F23187B9F1510F08
:1054C00000F32D87B9F1330F72D00CDCB9F10B0F5B
:1054D00013D0B9F1150F1ED0B9F11F0F29D0B9F1B2
:1054E000290F6FD15BE0B9F13D0F6CD0B9F1470FD7
:1054F0006AD0B9F1510FF4D13BE01448007801288B
:1055000002D14FF0020905E010480078022801D1CD
:105510004FF0080984E10D480078012802D14FF0CE
:10552000030905E009480078022801D14FF001097C
:1055300076E10648007801280AD14FF0080917E003
:1055400004000020050000200600002018000020B4
:10555000FE480078022801D1814609E0FB48007826
:10556000032805D101202E904FF00009FCF7E6FC3E
:1055700056E1F6480078012801D181460EE0F34853
:105580000078022802D14FF0030907E0EF480078C5
:10559000032803D14FF0000901202D9040E1EB4892
:1055A0000078012805D1761C632E1CDD2E461AE0FA
:1055B00041E0E6480078022807D1761EAE4212DAB2
:1055C000632610E029E17EE0D8E0E0480078032877
:1055D00009D14FF0000901202E90B1B20C20FCF748
:1055E00083FCFCF7F3FC202228210220FDF70EFDAE
:1055F0000A2096FBF0F00A2190FBF1F201FB120069
:10560000303080B20246302101900220FDF7FEFCCE
:105610000A2096FBF0F100FB1160303080B20246A8
:10562000382101900220FDF7F1FC102240210220D8
:10563000FDF79AFCF4E0C5480078012804D16D1C00
:10564000B54218DD002516E0C0480078022804D1D4
:105650006D1E002D0FDA35460DE0BC48007803289A
:1056600009D14FF0000902202E90A9B21020FCF7BA
:105670003BFCFCF7ABFC202228210420FDF7C6FCF4
:105680000A2095FBF0F00A2190FBF1F201FB1200D9
:10569000303080B20246302101900420FDF7B6FC84
:1056A0000A2095FBF0F100FB1150303080B2024629
:1056B000382101900420FDF7A9FC1022402104208C
:1056C000FDF752FCACE0A1480078012806D1781C17
:1056D00087B2B7F5805F17DB002715E09B4800789D
:1056E000022804D107B9C702781E87B20CE0974898
:1056F0000078032808D14FF000092E903946142075
:10570000FCF7F2FBFCF762FC4FF47A7097FBF0F0C9
:10571000303080B20246302101900420FDF776FC43
:10572000642097FBF0F00A2190FBF1F201FB1200DC
:10573000303080B20246382101900420FDF766FC2B
:105740000A2097FBF0F00A2190FBF1F201FB120016
:10575000303080B20246402101900420FDF756FC13
:105760000A2097FBF0F100FB1170303080B2024646
:10577000482101900420FDF749FC51E0734800786E
:1057800001280CD108F1010000F0FF08B8F15A0F10
:1057900002DCB8F10F0F1DDA4FF00F081AE06B486A
:1057A0000078022809D1B8F10F0F01DC4FF05B0837
:1057B000A8F1010000F0FF080CE06448007803281D
:1057C00008D14FF000092E9041461820FCF78CFBC1
:1057D000FCF7FCFB0A2098FBF0F00A2190FBF1F2A9
:1057E00001FB1200303080B20246302101900420CB
:1057F000FDF70CFC0A2098FBF0F100FB1180303023
:1058000080B20246382101900420FDF7FFFB2522DB
:1058100040210420FDF7FAFB02E04FF0010900BF30
:1058200000BF002049490870F5E32E9800287DD07C
:105830002E980B287BD006DC062879D2DFE800F012
:10584000780CC0FEFDFC152873D01F2872D02928C3
:1058500071D033286CD16FE3FDF770FE3322002145
:105860000846FDF7D3FB202208210020FDF7CEFBE0
:105870000D2210210020FDF777FB062220210020B9
:10588000FDF772FB072230210020FDF76DFB01229E
:1058900040210020FDF768FB022250210020FDF787
:1058A00063FB0D2260210020FDF75EFB0D227021BD
:1058B0000020FDF759FB152200210220FDF754FBC3
:1058C000032210210220FDF74FFB06222021022097
:1058D000FDF74AFB072230210220FDF745FB0D2290
:1058E00040210220FDF740FB0D2250210220FDF750
:1058F0003BFB0D2260210220FDF736FB0D227021BB
:105900000220FDF731FB162200210420FDF778FD6F
:10591000032210210420FDF773FD0622202104201C
:10592000FDF76EFD07223021042005E09EE3F3E23F
:1059300006E3F5E2F8E2FBE2FDF762FD0D2240210D
:105940000420FDF75DFD0D22502101E0180000202C
:105950000420FDF755FD0D2260210420FDF750FDC8
:105960000D2270210420FDF74BFD082200210620A6
:10597000FDF746FD092210210620FDF741FD062214
:1059800020211046FDF73CFD072230210620FDF7BF
:1059900037FD0D2240210620FDF732FD0D2250215A
:1059A0000620FDF72DFD0D2260210620FDF728FDC4
:1059B0000D2270210620FDF723FD0B202E90C2E260
:1059C000FDF7BCFD332200210846FDF71FFB202216
:1059D00008210020FDF71AFB0D2210210020FDF701
:1059E000C3FA062220210020FDF7BEFA072230214B
:1059F0000020FDF7B9FA012240210020FDF7B4FA9A
:105A0000022250210020FDF7AFFA0D226021002074
:105A1000FDF7AAFA0D2270210020FDF7A5FA152244
:105A200000210220FDF7ECFC032210210220FDF7EB
:105A3000E7FC0622202102E0C4E119E16EE0022029
:105A4000FDF7DEFC072230210220FDF7D9FC0D22F4
:105A500040210220FDF7D4FC0D2250210220FDF749
:105A6000CFFC0D2260210220FDF7CAFC0D2270211F
:105A70000220FDF7C5FC162200210420FDF774FA70
:105A8000032210210420FDF76FFA062220210420B2
:105A9000FDF76AFA072230210420FDF765FA0D228E
:105AA00040210420FDF760FA0D2250210420FDF76B
:105AB0005BFA0D2260210420FDF756FA0D227021B9
:105AC0000420FDF751FA082200210620FDF798FC7A
:105AD000092210210620FDF793FC06222021104602
