:020000040800F2
:1000000058070020910100082B0D0008B5060008D4
:10001000270D00085D040008A51700080000000077
:100020000000000000000000000000009F15000814
:1000300061040008000000005D0F00088916000838
:10004000AB010008AB010008AB010008AB010008E0
:10005000AB010008AB010008AB010008AB010008D0
:10006000AB010008AB010008AB010008AB010008C0
:10007000AB010008AB010008AB010008AB010008B0
:10008000AB010008AB010008AB010008AB010008A0
:10009000AB010008AB010008AB010008AB01000890
:1000A000AB010008AB010008AB010008AB01000880
:1000B000AB010008AB010008AB010008AB01000870
:1000C000AB010008AB010008AB010008AB01000860
:1000D000AB010008ED160008AB010008AB010008F9
:1000E000AB010008AB010008AB01000800F002F80A
:1000F00000F03FF80AA090E8000C82448344AAF183
:100100000107DA4501D100F034F8AFF2090EBAE880
:100110000F0013F0010F18BFFB1A43F0010318473B
:100120004028000060280000103A24BF78C878C139
:10013000FAD8520724BF30C830C144BF04680C60ED
:10014000704700000023002400250026103A28BF35
:1001500078C1FBD8520728BF30C148BF0B60704739
:10016000632900F0E080002070471FB51FBD10B567
:1001700010BD00F013F91146FFF7F7FF01F04AFB3D
:1001800000F031F903B4FFF7F2FF03BC01F00CFB00
:100190000948804709480047FEE7FEE7FEE7FEE71B
:1001A000FEE7FEE7FEE7FEE7FEE7FEE70448054957
:1001B000054A064B704700008D160008ED00000848
:1001C0005801002058070020580300205803002041
:1001D000704700000FB4044910B503AA029800F05C
:1001E000AFF810BC5DF814FB0C0000202DE9F041C5
:1001F0000E460446002020622046E168884730B35E
:10020000252805D0D4E901219047206A401CF2E757
:10021000E168204600278847050018D0A5F1410075
:10022000192802D820354FF4006732462946204667
:100230002760FFF795FF40B1012804D0F61D26F096
:1002400007060836D8E7361DD6E72846DAE7206ADB
:10025000BDE8F08170B50C460546012A05D0287826
:10026000800600D5EA69002302E0012305E05B1C5B
:10027000934202D2E05C0028F9D1A869E618C01ABE
:10028000A861286A184428622846AFF3008004E079
:10029000D5E9012114F8010B9047B442F8D3284660
:1002A000AFF3008070BD10B5203AC0F00B80B1E80C
:1002B0001850203AA0E81850B1E81850A0E818509B
:1002C000BFF4F5AF5FEA027C24BFB1E81850A0E8A4
:1002D000185044BF18C918C0BDE810405FEA827CBE
:1002E00024BF51F8043B40F8043B08BF7047D207D5
:1002F00028BF31F8023B48BF11F8012B28BF20F876
:10030000023B48BF00F8012B7047704770477047A9
:10031000704710B5436913B1AFF3008001E0FFF7F8
:1003200099FF012010BD127800F124010A7000220B
:100330004A700122EDE711684FF0FF32E9E7000053
:10034000074B70B50D467B4400F011F80446284673
:1003500000F020F810B14FF0FF3070BD204670BDA6
:10036000AF14000001694A1C02610878704700B5AB
:100370008FB0CDE901310021059105497944CDE9DE
:10038000031011466846FFF731FF0FB000BD0000B3
:10039000E5FFFFFF007B00F080007047754600F02E
:1003A0002BF8AE4605006946534620F00700854607
:1003B00018B020B5FFF7FAFEBDE820404FF0000668
:1003C0004FF000074FF000084FF0000B21F007013D
:1003D000AC46ACE8C009ACE8C009ACE8C009ACE880
:1003E000C0098D46704710B50446AFF30080204623
:1003F000BDE81040FFF7C6BE00487047F40000207B
:1004000010B501214FF0C05000F0AAFD012000F00E
:100410009FFD10BD10B5012000F0C2FD002000F0CE
:10042000BFFD10BD08B501460020009003480090B4
:100430000098084400900098008808BD006C0040B7
:1004400008B500220092044A0092009A02440092E9
:10045000009A116008BD0000006C004000BFFEE77C
:100460007047000008B501210C2000F089FDC02074
:10047000ADF8000048208DF803006946064800F0FA
:1004800085F80420ADF8000048208DF80300694687
:10049000024800F07BF808BD00080140000C014054
:1004A00070B500254021284800F0FBF810B100206D
:1004B000264908704021244800F0F3F8002830D184
:1004C0002248007868BB642001F07EF904212048AE
:1004D00000F0E7F80446032001F069F940211A48CA
:1004E00000F0DFF8E8B90CB9012500E00225002092
:1004F000184908800AE017480088401C1549088000
:10050000012012490870142001F05EF940210E48C4
:1005100000F0C7F828B90F4800884EF660218842DD
:10052000E9DB8021084800F0BCF858B9074800789A
:1005300040B9142001F03BF98021034800F0B1F8E4
:1005400000B90325284670BD0008014012000020B4
:10055000000C0140140000200549096821F0100139
:10056000034A116011460968014311607047000099
:100570000020024001460020034A106800F03800C5
:100580000843106070470000002002402DE9F04150
:10059000024600250026002000230024002791F8B1
:1005A00003C00CF00F0591F803C00CF0100CBCF167
:1005B000000F03D091F802C04CEA050591F800C085
:1005C000BCF1000F31D0146800202BE04FF0010C7B
:1005D0000CFA00F3B1F800C00CEA03069E4220D1E9
:1005E00083004FF00F0C0CFA03F7BC4305FA03FC31
:1005F0004CEA040491F803C0BCF1280F06D14FF077
:10060000010C0CFA00FCC2F814C00AE091F803C017
:10061000BCF1480F05D14FF0010C0CFA00FCC2F8F8
:1006200010C0401C0828D1D31460B1F800C0BCF140
:10063000FF0F34DD546800202EE000F1080C4FF06D
:10064000010808FA0CF3B1F800C00CEA03069E4258
:1006500021D183004FF00F0C0CFA03F7BC4305FACD
:1006600003FC4CEA040491F803C0BCF1280F05D147
:1006700000F1080C08FA0CF8C2F8148091F803C0D5
:10068000BCF1480F07D100F1080C4FF0010808FA3F
:100690000CF8C2F81080401C0828CED35460BDE886
:1006A000F0810246002093680B400BB1012000E06E
:1006B0000020704700BFFEE721B1028842F480624B
:1006C000028004E002884FF6FF331A400280704730
:1006D00070B502460024002500230020958A138B64
:1006E0001B0445EA030626F07F4404EA01068E4215
:1006F00001D1012000E0002070BD21B1028842F04C
:100700000102028004E002884FF6FE731A40028064
:10071000704700001FB500F021F80020ADF804007C
:100720004BF6FF70ADF80600C020ADF808004FF49E
:100730008060ADF80A000001ADF80C00054800909B
:100740006946054800F05AF801210348FFF7D5FF34
:100750001FBD0000400D03000054004008B50121FA
:10076000082000F00DFC0121480500F0F9FBC02035
:10077000ADF800001C208DF8030003208DF8020066
:1007800069460248FFF702FF08BD0000000C014067
:1007900021B1028842F48072028004E002884FF6A0
:1007A000FF631A400280704721B1028842F4007250
:1007B000028004E002884FF6FF531A40028070471F
:1007C0000CB50246002000230193009300920B0F0A
:1007D000019321F07F41019B1BB1009B14330093D7
:1007E00003E0090C009B18330093009B1B680B402F
:1007F0000BB1012000E000200CBD00002DE9F0430A
:1008000085B004460D460026B1460427DFF8CC80AB
:10081000A6884FF6C0700640684600F029FCDDF857
:1008200008802F48B8FBF0F01FFA80F946EA090665
:10083000A68020884FF6FE710840208000262949B6
:10084000286888420CD828684000B8FBF0F087B2CE
:10085000042F00DA04273E4309F10100208427E039
:10086000E8884BF6FF71884206D1286800EB40000B
:10087000B8FBF0F087B209E0286800EBC00101EB9B
:100880000010B8FBF0F087B247F48047C7F30B00C5
:1008900008B947F0010747F4004006434FF496704B
:1008A00009FB00F04FF47A7190FBF1F0401C2084BA
:1008B000A683208840F00100208026884FF6F5307E
:1008C0000640A8886989084306432680A8892989A3
:1008D0000843208105B0BDE8F083000000127A00D3
:1008E00040420F00A08601002DE9F04106460F4668
:1008F00015461C4600BF4FF400313248FFF760FF39
:100900000028F8D101212F48FFF742FF00BF2E49F0
:100910002C48FFF7DDFE0028F9D000223146294897
:1009200000F05AF800BF29492648FFF7D1FE0028F9
:10093000F9D001212348FFF7E0FE3946214800F0B5
:1009400054F800BF2149891C1E48FFF7C1FE00284A
:10095000F8D001211B48FFF71BFF00BF1A491948B7
:10096000FFF7B6FE0028F9D001223146154800F005
:1009700033F800BF1449491C1248FFF7A9FE0028AC
:10098000F8D016E0012C07D100210E48FFF794FEA5
:1009900001210C48FFF708FF0B493F310948FFF7D9
:1009A00097FE30B1074800F013F828706D1C601EE8
:1009B00084B2002CE6D101210248FFF77DFEBDE89C
:1009C000F081000000540040010003008200070095
:1009D0000146088AC0B2704712B141F0010102E03D
:1009E0004FF6FE7319400182704701827047000084
:1009F0002DE9F04105460F4614461E4601211D48CB
:100A0000FFF7C6FE00BF1C491A48FFF761FE002829
:100A1000F9D0002229461748FFF7DEFF00BF17492B
:100A20001448FFF755FE0028F9D039461148FFF762
:100A3000DCFF00BF1149891C0E48FFF749FE002862
:100A4000F8D00CE021780B48FFF7CFFF641C00BF03
:100A50000A49891C0748FFF73BFE0028F8D0301EE2
:100A6000A6F101018EB2EDD101210248FFF79CFEF3
:100A7000BDE8F0810054004001000300820007003F
:100A800070B504460E46154601211948FFF780FE51
:100A900000BF18491648FFF71BFE0028F9D00022B6
:100AA00021461348FFF798FF00BF13491048FFF78E
:100AB0000FFE0028F9D031460D48FFF796FF00BF22
:100AC0000D49891C0A48FFF703FE0028F8D0294683
:100AD0000748FFF78AFF00BF0749891C0448FFF752
:100AE000F7FD0028F8D001210148FFF75DFE70BD39
:100AF0000054004001000300820007002DE9F04788
:100B000005460C4616464FF0000AD1463AE005F17C
:100B1000B000C2B200217820FFF7B2FF2746E017ED
:100B200004EB107000111030C2B200217820FFF7E2
:100B3000A7FFE01704EB10700011A4EB0010C2B285
:100B400000217820FFF79CFF4FF0000811E00AEB2E
:100B500046101149085CC043C2B240217820FFF71B
:100B60008FFF0AF1010000F0FF0A08F1010000F018
:100B7000FF08B8F1100FEADB681CC5B209F10100EB
:100B800000F0FF09B9F1020FC1DBAF22002178208C
:100B9000FFF776FFBDE8F087802200082DE9F047D7
:100BA00005460C4616464FF0000AA01CC4B2D146BA
:100BB0003CE005F1B000C2B200217820FFF760FFF1
:100BC0002746E01704EB107000111030C2B200216C
:100BD0007820FFF755FFE01704EB10700011A4EB2D
:100BE0000010C2B200217820FFF74AFF4FF0000842
:100BF00013E00AEB0610A0F500700F49085CC04333
:100C0000C2B240217820FFF73BFF0AF1010000F05B
:100C1000FF0A08F1010000F0FF08B8F1080FE8DB57
:100C2000681CC5B209F1010000F0FF09B9F1020F1B
:100C3000BFDBBDE8F0870000801C00080146CA1732
:100C400001EB92729210A1EB820292B9642091FBA7
:100C5000F0F200FB121050B94FF4C87091FBF0F2A3
:100C600000FB121008B9012070470020FCE70120AA
:100C7000FAE70020F8E7F8B506460024002502232D
:100C80006A4600219E20FFF72FFE9DF800400020BD
:100C9000307004F0800028B101203070E043C4B20D
:100CA000601CC4B204F0010008B1681CC5B204F0B5
:100CB000020008B1A81CC5B204F0040008B1281D48
:100CC000C5B204F0080010B105F10800C5B204F087
:100CD000100010B105F11000C5B204F0200010B1F1
:100CE00005F12000C5B204F0400010B105F140004C
:100CF000C5B2761C357000259DF8014004F0200037
:100D000010B105F10C00C5B204F0400010B105F1BE
:100D10001900C5B204F0800010B105F13200C5B26F
:100D2000761C3570F8BD00BFFEE7704710B500F0C7
:100D3000E3F800F0B1F800F0EDF810BD2DE9F04750
:100D400005460C4616464FF0000AD14638E005F13C
:100D5000B000C2B200217820FFF792FE2746E017CC
:100D600004EB107000111030C2B200217820FFF7A0
:100D700087FEE01704EB10700011A4EB0010C2B264
:100D800000217820FFF77CFE4FF000080FE00AEB0F
:100D9000461010490A5C40217820FFF771FE0AF1E5
:100DA000010000F0FF0A08F1010000F0FF08B8F1AF
:100DB000100FECDB681CC5B209F1010000F0FF095F
:100DC000B9F1020FC3DBAF2200217820FFF758FEF4
:100DD000BDE8F087802200082DE9F04705460C4663
:100DE00016464FF0000AA01CC4B2D1463AE005F105
:100DF000B000C2B200217820FFF742FE2746E0177C
:100E000004EB107000111030C2B200217820FFF7FF
:100E100037FEE01704EB10700011A4EB0010C2B213
:100E200000217820FFF72CFE4FF0000811E00AEBBC
:100E30000610A0F500700E490A5C40217820FFF7EB
:100E40001FFE0AF1010000F0FF0A08F1010000F0A6
:100E5000FF08B8F1080FEADB681CC5B209F1010010
:100E600000F0FF09B9F1020FC1DBBDE8F087000017
:100E7000801C000870B506460C46002508E014F8F2
:100E8000012BE806010E3046FFF7A6FF681CC5B22D
:100E900020780028F3D170BD70B5B0241BE0224645
:100EA00000217820FFF7ECFD102200217820FFF7C9
:100EB000E7FD002211467820FFF7E2FD002506E05D
:100EC000002240217820FFF7DBFD681CC5B2842D8D
:100ED000F6DB601CC4B2B82CE1DB70BD10B5044673
:100EE000812200217820FFF7CBFD224600217820C7
:100EF000FFF7C6FD10BD000008B505A00068009012
:100F000002236A4600217820FFF772FD08BD000029
:100F1000AE8D000000B587B01C2206A16846FFF721
:100F2000C2F91C236A4600217820FFF761FD07B053
:100F300000BD0000AE0010D580A83FD300B0408DAA
:100F400014A1C8DA1281FFD9F1DB302000A4A6AFCA
:100F5000014908627047000000000E42704700001F
:100F600029B1064AD2690243044BDA6104E0034A1C
:100F7000D2698243014BDA617047000000100240E1
:100F800029B1064A92690243044B9A6104E0034A7C
:100F900092698243014B9A61704700000010024041
:100FA0000149086070470000400442420348406A1B
:100FB00040F0807001494862704700000010024014
:100FC00010B500F02FF84FF4803000F0EDF800F08D
:100FD00071F90446012C24D14FF4E011000400F013
:100FE00041F9002000F0D4F8A00200F01DF9002023
:100FF00000F026F90220FFF7BDFA1020FFF7ACFA47
:10100000012000F029F900BF392000F09BF80028EA
:10101000FAD0022000F042F900BF00F0B1F8082831
:10102000FBD110BD0F48006840F001000D49086079
:10103000084640680C4908400A494860084600686C
:101040000A490840074908600846006820F48020E3
:1010500008600846406820F4FE0048604FF41F0016
:1010600088607047001002400000FFF8FFFFF6FEA6
:1010700030B500210022002400232D4D6D6805F0BD
:101080000C0121B1042905D0082923D105E0294DFF
:10109000056022E0274D05601FE0254D6D6805F4D1
:1010A0007012234D6D6805F48034022505EB9242E1
:1010B0001CB9214D554305600BE01D4D6D6805F4CD
:1010C00000351DB11C4D5543056002E0194D5543D7
:1010D000056002E0174D056000BF00BF144D6D684C
:1010E00005F0F0010909154D6B5C0568DD404560B0
:1010F0000F4D6D6805F4E061090A104D6B5C4568A1
:10110000DD4085600A4D6D6805F46051C90A0B4DDC
:101110006B5C4568DD40C560054D6D6805F4404178
:10112000890B074D6B5CC568B5FBF3F5056130BDF8
:101130000010024000127A0000093D001600002055
:101140002600002010B501460022002300204A118D
:10115000012A02D1094C236806E0022A02D1074C79
:10116000236A01E0054C636A01F01F0201249440E8
:101170001C400CB1012000E0002010BD0010024016
:101180000248406800F00C00704700000010024068
:1011900001460020034A506820F0F00008435060E8
:1011A00070470000001002401149096821F48031A5
:1011B0000F4A11601146096821F480211160B0F5D1
:1011C000803F03D0B0F5802F0ED106E008490968B2
:1011D00041F48031064A116007E00549096841F48D
:1011E000A021034A116000E000BF00BF704700006B
:1011F0000010024000210B4A11700A4A203A82F87E
:101200002010012802D0042808D103E00121054A5A
:10121000117004E00521034A117000E000BF00BF17
:10122000704700002010024001460020034A506829
:1012300020F4E06008435060704700000010024056
:1012400001460020034A506820F4605040EAC10083
:101250005060704700100240014908667047000066
:101260000000424202460020044B586820F47C10E3
:1012700042EA01031843014B5860704700100240D6
:1012800001490860704700003C0442420249096A73
:101290000143014A116270470010024001460020DC
:1012A000034A506820F00300084350607047000074
:1012B0000010024038B5002000900024002500BF37
:1012C0003120FFF73FFF05460098401C0090009832
:1012D000B0F5A06F01D0002DF2D03120FFF732FF22
:1012E00008B1012400E00024204638BD10B50420D8
:1012F000FFF798F84AF2A551884207D000F02AF883
:101300004AF2A5510420FFF79BF80DE07B20FFF780
:1013100019FF10B97A20FFF715FFFFF747FE0120EC
:10132000FFF7AEFF00F0F0F810BD000003480088A2
:1013300040F0100001490880704700000428004078
:10134000034800884FF6EF71084001490880704754
:101350000428004010B501214FF0C050FFF700FEF7
:101360000120FFF7F5FDFFF755F80120FFF742FFD9
:1013700000BF4120FFF7E6FE0028FAD04FF480704E
:10138000FFF784FF0120FFF77BFF00F0BDF800F0BE
:10139000B1F847F6FF7000F09DF800F0ABF810BD13
:1013A00070B500260024002500F08AF806463A4869
:1013B000B6FBF0F439480088A0423DD037490C8094
:1013C00040F2B27510E02846FFF738FC40B1B4F5A2
:1013D000B77F02D3A4F5B77404E0681C85B206E0B9
:1013E000A4F26D14681C85B2B4F5B67FEBD800BFCB
:1013F0002B480580002516E029480088FFF71EFCD1
:1014000030B1012D04D11D2C01D31D3C09E00CE0AD
:101410002448405DA04203D82248405D241A00E0E1
:1014200003E0681C85B21C2CE6D200BF681C1E4974
:101430000870601C1D4908701748B6FBF0F100FBEE
:1014400011644FF46160B4FBF0F0194908704FF477
:101450006160B4FBF0F100FB11403C21B0FBF1F006
:10146000144908704FF46160B4FBF0F100FB1140C7
:101470003C21B0FBF1F201FB12000F4908700B4850
:101480000278094801780648008800F04FF80B49B7
:101490000870002070BD000080510100080000208D
:1014A00000000020741C000802000020030000203F
:1014B0000400002005000020060000200700002096
:1014C000002103480188001F008841EA004070475E
:1014D0001C28004000B50246FFF728FFC2F3034076
:1014E00003490880091D0A80FFF72AFF00BD00009C
:1014F0000828004000BF0348008800F020000028B2
:10150000F9D0704704280040074800884FF6F7716B
:1015100008400549088000BF0348008800F0080023
:101520000028F9D0704700000428004070B5034639
:101530001446012901DB0C2901DDFF2070BD0129C2
:1015400001D0022904D101F10C00C1B2581E83B2AE
:10155000481C00EB4000052590FBF5F0022505FB3B
:101560000145284418441A46DD1703EB957500EB36
:10157000A500642593FBF5F5401B4FF4C87593FB5C
:10158000F5F52844401C072590FBF5F605FB1600F1
:10159000C01D90FBF5F605FB1600C0B2CEE7704704
:1015A00010B500F001F810BD0CB5002001900090BE
:1015B0003348006840F480303149086000BF30484B
:1015C000006800F4003000900198401C01900098E1
:1015D00018B90198B0F5A06FF1D12948006800F45E
:1015E000003010B10120009001E000200090009830
:1015F000012843D12348006840F0100021490860C9
:101600000846006820F0030008600846006840F0C3
:10161000020008601A484068194948600846406856
:1016200048600846406840F480604860084640686A
:1016300020F47C1048600846406840F4E810486098
:101640000846006840F08070086000BF0C480068E1
:1016500000F000700028F9D00948406820F003002D
:10166000074948600846406840F00200486000BFF3
:101670000348406800F00C000828F9D10CBD0000B8
:1016800000100240002002407047000010B51348CF
:10169000006840F0010011490860084640681049A0
:1016A00008400E494860084600680E4908400B494A
:1016B00008600846006820F48020086008464068FA
:1016C00020F4FE0048604FF41F008860FFF768FFB9
:1016D0004FF000600449086010BD00000010024097
:1016E0000000FFF8FFFFF6FE08ED00E010B540F245
:1016F00025511F4800F044F8002838D01C4800F05D
:101700004CF8C4B221461BA0FEF764FD1A480088BD
:1017100000F4004058BB1848008800F4804060B1D5
:101720000A2C03D000201449088020E012480088C9
:1017300040F400401049088019E00D2C06D10E48F5
:10174000008840F480400C49088010E00A48008876
:10175000C0F30D0009490C5407480088401C064995
:10176000088008460088C72801DD0020088010BDD9
:101770000038014025630000100000202C000020EC
:1017800002460020B1F5007F00D100BF13880B4056
:101790000BB1012000E00020704701468888C0F3AB
:1017A0000800704700BFFEE7014600BF704700B564
:1017B000034603E04FF47A7000F006F8181EA3F118
:1017C00001018BB2F6D100BD00EBC001C9004FF0A2
:1017D000E0225161002191610521116100BF4FF0AC
:1017E000E021096901F480310029F8D004214FF08B
:1017F000E02211617047000000BF054A128802F024
:101800004002002AF9D0C2B2014B1B1D1A8070475A
:101810000038014008B501246420FFF7C8FFFFF736
:10182000CFFBFEF777FF6846FFF725FAFEF71AFEB3
:10183000FFF75CFDFEF7E4FDFFF778FA9B20FFF76A
:101840004DFB0420FEF7EEFDC4B2012C01DB032C9E
:1018500000DD0124F5E1012C7DD1FFF71DFB3122D4
:1018600000210846FFF79AF9202208210020FFF7FF
:1018700095F90D2210210020FFF740F90D222021BB
:101880000020FFF73BF9002230211046FFF736F920
:10189000012240210020FFF731F9022250210020CF
:1018A000FFF72CF90D2260210020FFF727F90D2208
:1018B00070210020FFF722F90E2200210220FFF7FD
:1018C0003DFA0F2210210220FFF738FA03222021CF
:1018D0000220FFF733FA042230210220FFF72EFA0C
:1018E0003A2240210220FFF777FA102270210220CD
:1018F000FFF724FA0E2200210420FFF71FFA0F221F
:1019000010210420FFF71AFA052220210420FFF7F6
:1019100015FA042230211046FFF710FA3A2240212E
:101920000420FFF759FA322248210420FFF754FA25
:10193000352250210420FFF74FFA25225821042098
:10194000FFF74AFA112200210620FFF7F7F91222C9
:101950001021062000E010E0FFF7F0F9132220210B
:101960000620FFF7EBF9142230210620FFF7E6F9F5
:1019700021460420FEF764FD0B24022C44D1FFF71E
:101980008BFA322200210846FFF708F9802208214D
:101990000020FFF703F90D2210210020FFF7AEF819
:1019A0000D2220210020FFF7A9F80A222021002083
:1019B000FFF7A4F80B2230210020FFF79FF80C223C
:1019C00040210020FFF79AF8012250210020FFF764
:1019D00095F8022260210020FFF790F80D22702177
:1019E0000020FFF78BF897A10220FFF743FA97A199
:1019F0000420FFF73FFA97A10620FFF73BFA2146A4
:101A00000420FEF71DFD1524032C60D1FFF744FAD6
:101A1000332200210846FFF7C1F880220821002068
:101A2000FFF7BCF80D2210210020FFF767F806220F
:101A300020210020FFF762F8072230210020FFF765
:101A40005DF8012240210020FFF758F802225021C2
:101A50000020FFF753F80D2260210020FFF74EF819
:101A60000D2270210020FFF749F8152200210220E5
:101A7000FFF764F9032210210220FFF75FF93A22F1
:101A800020210220FFF7A8F9162200210420FFF7E9
:101A900055F9032210210420FFF750F93A222021A2
:101AA0000420FFF799F9082200210620FFF726F805
:101AB000092210210620FFF721F83A2220210620D2
:101AC000FFF78AF921460420FEF7BAFC1F240B2CED
:101AD0007DD1FFF765FC6846FFF7CDF85F480078D9
:101AE0000A2190FBF1F0303086B2324640210620C8
:101AF000FFF772F9594800780A2190FBF1F201FBD7
:101B00001200303086B2324648210620FFF764F9D1
:101B10004DA082B250210620FFF75EF950480078B0
:101B20000A2190FBF1F0303086B23246582106206F
:101B3000FFF752F94A4800780A2190FBF1F201FBC5
:101B40001200303086B2324660210620FFF744F999
:101B50003A2268210620FFF73FF9424800780A211F
:101B600090FBF1F0303086B2324670210620FFF74C
:101B700033F93C4800780A2190FBF1F201FB120096
:101B8000303086B2324678210620FFF725F99DF8DD
:101B9000000028B12D2248210220FFF71DF904E0A2
:101BA000202248210220FFF717F99DF801000A21A1
:101BB00090FBF1F0303086B2324650210220FFF720
:101BC0000BF99DF801000A2190FBF1F200E022E000
:101BD00001FB1200303086B2324658210220FFF756
:101BE000FBF82E2260210220FFF7F6F89DF8020094
:101BF0000A2190FBF1F0303086B232466821022093
:101C0000FFF7EAF8FEF74CFC0546012D00D102244F
:101C1000022D00D10324152C08D1FEF741FC054606
:101C2000012D00D10324022D00D101241F2C08D145
:101C3000FEF736FC0546012D00D10124022D00D10E
:101C4000022408E6414443313A0000004144433253
:101C50003A000000414443333A20000004000020D1
:101C60000500002006000020000303060104060210
:101C7000050003051F1C1F1E1F1E1F1F1E1F1E1FEA
:101C80000000000000000000000000000000000054
:101C9000000038FCFC3800000000000D0D000000C2
:101CA000000E1E00001E0E000000000000000000DC
:101CB00020F8F820F8F82000020F0F020F0F0200A2
:101CC000387C444747CC98000306041C1C070300DB
:101CD00030300080C06030000C060301000C0C00A6
:101CE00080D87CE4BCD84000070F0808070F080024
:101CF00000101E0E000000000000000000000000A8
:101D00000000F0F80C040000000003070C080000BD
:101D10000000040CF8F000000000080C07030000AD
:101D200080A0E0C0C0E0A080000203010103020027
:101D3000008080E0E08080000000000303000000DD
:101D400000000000000000000000101E0E00000057
:101D50008080808080808000000000000000000003
:101D600000000000000000000000000C0C0000005B
:101D700000000080C06030000C060301000000007D
:101D8000F8FC04C424FCF800070F0908080F07003A
:101D9000001018FCFC0000000008080F0F080800E5
:101DA000080C84C4643C18000E0F0908080C0C00D1
:101DB000080C444444FCB800040C0808080F070051
:101DC000C0E0B098FCFC8000000000080F0F080085
:101DD0007C7C4444C4C48400040C0808080F070039
:101DE000F0F84C4444C08000070F0808080F0700B3
:101DF0000C0C0484C47C3C0000000F0F00000000A9
:101E0000B8FC444444FCB800070F0808080F07005A
:101E1000387C444444FCF800000808080C07030020
:101E20000000003030000000000000060600000046
:101E300000000030300000000000080E0600000026
:101E40000080C0603018080000000103060C080084
:101E500040404040404040000202020202020200B4
:101E60000008183060C0800000080C060301000064
:101E7000181C04C4E43C18000000000D0D00000014
:101E8000F0F808C8C8F8F000070F080B0B0B0100AA
:101E9000E0F0988C98F0E0000F0F0000000F0F00AA
:101EA00004FCFC4444FCB800080F0F08080F0700AE
:101EB000F0F80C04040C180003070C08080C0600CA
:101EC00004FCFC040CF8F000080F0F080C070300DA
:101ED00004FCFC44E40C1C00080F0F08080C0E0066
:101EE00004FCFC44E40C1C00080F0F080000000078
:101EF000F0F80C84848C980003070C0808070F0086
:101F0000FCFC404040FCFC000F0F0000000F0F00E5
:101F1000000004FCFC0400000000080F0F08000093
:101F200000000004FCFC0400070F08080F07000075
:101F300004FCFCC0F03C0C00080F0F00010F0E0069
:101F400004FCFC0400000000080F0F08080C0E0041
:101F5000FCFC387038FCFC000F0F0000000F0F0075
:101F6000FCFC3870E0FCFC000F0F0000000F0F00BD
:101F7000F0F80C040CF8F00003070C080C07030041
:101F800004FCFC44447C3800080F0F0800000000EB
:101F9000F8FC040404FCF800070F080E3C3F27007F
:101FA00004FCFC44C4FC3800080F0F00000F0F00B5
:101FB000183C6444C49C1800060E0808080F07006B
:101FC000001C0CFCFC0C1C000000080F0F0800009B
:101FD000FCFC000000FCFC00070F0808080F0700CD
:101FE000FCFC000000FCFC000103060C06030100E1
:101FF000FCFC008000FCFC00030F0E030E0F03002E
:102000000C3CF0C0F03C0C000C0F0300030F0C0064
:10201000003C7CC0C07C3C000000080F0F080000A2
:102020001C0C84C4643C1C000E0F0908080C0E0034
:102030000000FCFC0404000000000F0F0808000072
:102040003870E0C0800000000000000103070E00AF
:1020500000000404FCFC0000000008080F0F000052
:10206000080C0603060C0800000000000000000039
:102070000000000000000000202020202020202060
:102080000000030704000000000000000000000042
:1020900000A0A0A0E0C00000070F0808070F08007C
:1020A00004FCFC2060C08000080F0708080F070030
:1020B000C0E0202020604000070F0808080C040042
:1020C00080C06024FCFC0000070F0808070F080010
:1020D000C0E0A0A0A0E0C000070F0808080C0400A2
:1020E00040F8FC440C180000080F0F080000000026
:1020F000C0E02020C0E02000276F48487F3F00005C
:1021000004FCFC4020E0C000080F0F00000F0F008F
:10211000000020ECEC0000000000080F0F08000099
:102120000000000020ECEC0000307040407F3F00D9
:1021300004FCFC80C0602000080F0F01030E0C009F
:10214000000004FCFC0000000000080F0F08000065
:10215000E0E060C060E0C0000F0F000F000F0F0054
:1021600020E0C02020E0C000000F0F00000F0F0093
:10217000C0E0202020E0C000070F0808080F07007B
:1021800020E0C02020E0C000407F7F48080F07000B
:10219000C0E02020C0E02000070F08487F7F4000FB
:1021A00020E0C0602060C000080F0F0800000000A1
:1021B00040E0A02020604000040C09090B0E040040
:1021C0002020F8FC202000000000070F080C04006D
:1021D000E0E00000E0E00000070F0808070F08003B
:1021E00000E0E00000E0E0000003070C0C07030043
:1021F000E0E0000000E0E000070F0C070C0F070014
:102200002060C080C0602000080C0703070C080095
:10221000E0E0000000E0E000474F4848683F1F0052
:10222000606020A0E06020000C0E0B09080C0C0080
:10223000004040F8BC040400000000070F0808003C
:10224000000000BCBC0000000000000F0F000000F8
:10225000000404BCF84040000008080F070000001C
:10226000080C040C080C0400000000000000000032
:1022700080C0603060C080000707040404070700C6
:1022800000080808080809FA0808080808080000F3
:10229000404041414141417F414141414140400035
:1022A000040444C44F4444C424242FB4240404002C
:1022B00040442424150C04FE040C1524244440003E
:1022C0000000F8494A4C48F8484C4A49F8000000D8
:1022D00010101312121212FF121212121310100009
:1022E0001060028C0000FE9292929292FE0000001A
:1022F00004047E01407E42427E427E42427E400095
:102300000000FC242424FC252624FC24242404008E
:1023100040308F80844C55252525554C8080800089
:102320001060028C00FE929292929292FE00000047
:1023300004047E014448507F40407F5048444000A0
:10234000404042CC0040A09E8282829EA02020007D
:102350000000003F908840432C10284641808000B8
:10236000001715D55557557D555755D515170000EC
:102370004040407F555555555555557F404040008C
:102380004040424458C0407F40C050484640400012
:102390008080402018070000003F40404040780007
:1023A00000FE424242FE0042A29E82A2C2BE000045
:1023B000806F080828CF00002FC8080828CF000029
:1023C0001010D0FF9014E4AFA4A4A4AFE404000064
:1023D000040300FF00894B2A1A0E1A2A4B8880003A
:1023E000101010FF9000F80002041800FF00000019
:1023F0000242817F00003F108840300C0B30C0004B
:10240000202020BEAAAAAAAAAAAAAABE20202000EA
:10241000008080AFAAAAAAFFAAAAAAAF8080000063
:1024200000000000000000000000000000000000AC
:10243000000000000000000000000000000000009C
:10244000004042445840407F40405048C600000091
:10245000004044444444444444444444FF00000095
:102460000808E8292E28E80808C80C0BE808080026
:102470000000FF0949897F00000F40807F000000B5
:10248000060909E6F80C040202020202041E00001A
:10249000000000071F302040404040402010000056
:1024A0000020202020FF000000FF40201008000036
:1024B0002060201010FF0000003F404040407800A6
:1024C000040404E424242526242424E4040404002D
:1024D0000040201B0242827E0202020B10600000BC
:1024E00000FC848484FC001010101010FF101000F9
:1024F000003F1010103F0000010640807F000000E8
:1025000000F8010600F0121212F2020202FE0000B0
:1025100000FF0000001F1111111F0040807F00000C
:1025200004040404F49495969494F40404040400BC
:1025300000FE02027A4A4A4A4A4A7A0282FE0000B1
:10254000008060F80700FC848484FE82838280001F
:10255000010000FF0000FF402000418E3040F800E5
:10256000000000000000000000000000000000006B
:10257000000000000000000000000000000000005B
:10258000000000000000000000000000000000004B
:10259000000000000000000000000000000000003B
:1025A000000000000000000000000000000000002B
:1025B000000000000000000000000000000000001B
:1025C000000000000000000000000000000000000B
:1025D00000000000000000000000000000000000FB
:1025E00000000000000000000000000000000000EB
:1025F000000000000000000000F8FC1C3830381C0F
:10260000FCF800F8F800F8F8000000F8FC8C8C8C5E
:102610000080D050F0E000F0F0203000008080001A
:10262000808000808000000C1224120C000000004A
:102630000000000080000000000000001824448812
:10264000442418000000000000000000000000000A
:10265000000000000000000000000000000000007A
:10266000000000000000000000000000000000006A
:102670000000000000000000000383800080800054
:10268000030300080B0B0F07804080408303030304
:1026900000000303030300038380808080C3C3C062
:1026A000C3C3C0C3C3C0C0C0C0C0808080C0C0405E
:1026B0002018040300000000002050A0502000005B
:1026C000000000000000000000000000000000000A
:1026D00000000000000000000000000000000000FA
:1026E00000000000000000000000000000000000EA
:1026F00000000000000000000003040811080403AB
:102700000000000000000000010284C2E1603010FF
:1027100078ECFCF63A1B058597131213131111116F
:102720001111110181FFF9F9F2C2822225058D8B69
:1027300093B3E6C68C1C18387070E0C080000000AF
:1027400000000018244824180000000000000000C9
:102750000000000000000000000000000000000079
:102760000000000000000000000000000000000069
:102770000000000000000000000080E0E070301861
:10278000181C1C1C0C1C1616160627636DAECE0EEC
:102790000E0F0F0F0E0606070706060606060606AC
:1027A00006060666776767E7070707060606070750
:1027B00087C76723231210000808090B0F0E0E0CA1
:1027C0003C70F0C08000000000000000000000002D
:1027D00000000000000000000000000000000000F9
:1027E00000000000000000000000000000000000E9
:1027F000000000000000F0F8DEFFF63611E0F0F80F
:10280000FCFEDE1E3F3F1EFEFEFCF8F2E408010760
:10281000FC000000000000000000000000000000BC
:1028200000000000000000FF00000000003CFFE787
:10283000311CE6FFFFFFFEFE1F3F3F1FFFFEFEFCB9
:10284000F8F8F031FBFFFEFC38000000000000004B
:102850000000000000000000000000000000000078
:102860000000000000000000000000000000000068
:102870000000000000000003074F4C60607F7F7F76
:102880007F7D4D44727240797D7F7F7F7F7C707049
:102890007373707074747474747474747474747402
:1028A00076767676767676737070727272737070F2
:1028B000707C7F7F7F7F7D7D62727260687D7F7FAD
:1028C0007F7F7774676763000000000000000000EE
:1028D00000000000000000000000000000000000F8
:1028E00000000000000000000000000000000000E8
:1028F00000000000000000000000000000000000D8
:1029000000000000000000000000000000000000C7
:1029100000000000000000000000000000000000B7
:1029200000000000000000000000000000000000A7
:102930000000000000000000000000000000000097
:102940000000000000000000000000000000000087
:102950000000000000000000000000000000000077
:1029600080290008000000202C0000002801000839
:10297000AC2900082C0000202C07000044010008AE
:102980000000000000000000000000000000000047
:10299000000000000000000000000102030401022A
:0C29A000030406070809020406080000F2
:04000005080000ED02
:00000001FF
