:020000040800F2
:100000009807002091010008871300080F0D0008D1
:100010008313000881070008D51E000800000000B7
:10002000000000000000000000000000CF1C0008DD
:1000300025090008000000006D160008B91D000821
:10004000AB010008AB010008AB010008AB010008E0
:10005000AB010008AB010008AB010008AB010008D0
:10006000AB010008AB010008AB010008AB010008C0
:10007000AB010008AB010008AB010008AB010008B0
:10008000AB010008AB010008AB010008AB010008A0
:10009000AB010008AB010008AB010008F90900083A
:1000A000AB010008AB010008AB010008AB01000880
:1000B000AB010008AB010008AB010008AB01000870
:1000C000AB010008AB010008AB010008AB01000860
:1000D000AB0100081D1E0008AB010008AB010008C1
:1000E000AB010008AB010008AB01000800F002F80A
:1000F00000F03FF80AA090E8000C82448344AAF183
:100100000107DA4501D100F034F8AFF2090EBAE880
:100110000F0013F0010F18BFFB1A43F0010318473B
:1001200080320000A0320000103A24BF78C878C1A5
:10013000FAD8520724BF30C830C144BF04680C60ED
:10014000704700000023002400250026103A28BF35
:1001500078C1FBD8520728BF30C148BF0B60704739
:10016000632900F0E080002070471FB51FBD10B567
:1001700010BD00F013F91146FFF7F7FF01F0E2FEA2
:1001800000F031F903B4FFF7F2FF03BC01F0A4FE65
:100190000948804709480047FEE7FEE7FEE7FEE71B
:1001A000FEE7FEE7FEE7FEE7FEE7FEE70448054957
:1001B000054A064B70470000BD1D0008ED00000811
:1001C0009801002098070020980300209803002041
:1001D000704700000FB4044910B503AA029800F05C
:1001E000AFF810BC5DF814FB0C0000202DE9F041C5
:1001F0000E460446002020622046E168884730B35E
:10020000252805D0D4E901219047206A401CF2E757
:10021000E168204600278847050018D0A5F1410075
:10022000192802D820354FF4006732462946204667
:100230002760FFF795FF40B1012804D0F61D26F096
:1002400007060836D8E7361DD6E72846DAE7206ADB
:10025000BDE8F08170B50C460546012A05D0287826
:10026000800600D5EA69002302E0012305E05B1C5B
:10027000934202D2E05C0028F9D1A869E618C01ABE
:10028000A861286A184428622846AFF3008004E079
:10029000D5E9012114F8010B9047B442F8D3284660
:1002A000AFF3008070BD10B5203AC0F00B80B1E80C
:1002B0001850203AA0E81850B1E81850A0E818509B
:1002C000BFF4F5AF5FEA027C24BFB1E81850A0E8A4
:1002D000185044BF18C918C0BDE810405FEA827CBE
:1002E00024BF51F8043B40F8043B08BF7047D207D5
:1002F00028BF31F8023B48BF11F8012B28BF20F876
:10030000023B48BF00F8012B7047704770477047A9
:10031000704710B5436913B1AFF3008001E0FFF7F8
:1003200099FF012010BD127800F124010A7000220B
:100330004A700122EDE711684FF0FF32E9E7000053
:10034000074B70B50D467B4400F011F80446284673
:1003500000F020F810B14FF0FF3070BD204670BDA6
:10036000DF1B000001694A1C02610878704700B574
:100370008FB0CDE901310021059105497944CDE9DE
:10038000031011466846FFF731FF0FB000BD0000B3
:10039000E5FFFFFF007B00F080007047754600F02E
:1003A0002BF8AE4605006946534620F00700854607
:1003B00018B020B5FFF7FAFEBDE820404FF0000668
:1003C0004FF000074FF000084FF0000B21F007013D
:1003D000AC46ACE8C009ACE8C009ACE8C009ACE880
:1003E000C0098D46704710B50446AFF30080204623
:1003F000BDE81040FFF7C6BE00487047340100203A
:10040000CA430260704721B1826842F001028260F3
:1004100003E0826822F001028260704700B585B077
:1004200000F082F800F054F801208DF8050000205B
:1004300003904FF4602002900020009003208DF87C
:10044000100001208DF8040069461A4800F0A4F855
:10045000022301220421174800F0C6F802231A469D
:100460000521144800F0C0F802230322012111489D
:1004700000F0BAF801210F4800F01EF801210D48E4
:10048000FFF7C1FF0B4800F00BF900BF094800F06F
:1004900078F80028FAD1074800F012F900BF0548A3
:1004A00000F05CF80028FAD10121024800F0FDF8C4
:1004B00005B000BD0024014021B1826842F4807281
:1004C000826003E0826822F48072826070470000DC
:1004D00000B58BB0114800F061F9032003900020B3
:1004E00002900A900E4801904FF48060079080209F
:1004F0000590202008900B48009080150690002061
:1005000004904FF4005009906946044800F0ECF95B
:100510000121024800F036F90BB000BD080002408E
:10052000120000204C24014008B50121042001F0F4
:10053000BFF80121084601F09BF80121480201F0B3
:10054000B7F83220ADF8000000208DF803006946AE
:10055000014800F043FB08BD0008014001460020AF
:100560008A6802F004020AB1012000E0002070470E
:100570000246002013680B400BB1012000E0002070
:100580007047014600208A6802F008020AB1012083
:1005900000E000207047000030B502460020002334
:1005A00050680F4C20400D790C6844EA0524204324
:1005B000506090680B4C2040D1E902542C434D7997
:1005C00044EA450420439060D06A20F470000C7C1B
:1005D000641EE4B2234340EA0350D06230BD000001
:1005E000FFFEF0FFFDF7F1FFF0B504460D460020D9
:1005F0000021092D11DDE068A5F10A0606EB46078A
:10060000072606FA07F18843A5F10A0606EB460617
:1006100003FA06F10843E0600CE0206905EB4507AA
:10062000072606FA07F1884305EB450603FA06F1AB
:1006300008432061072A0FDA606B561E06EB860717
:100640001F2606FA07F18843561E06EB860605FAB2
:1006500006F10843606322E00D2A0FDA206BD61FF3
:1006600006EB86071F2606FA07F18843D61F06EB1E
:10067000860605FA06F10843206310E0E06AA2F15D
:100680000D0606EB86071F2606FA07F18843A2F13E
:100690000D0606EB860605FA06F10843E062F0BD9A
:1006A000816841F008018160704721B1826842F49D
:1006B000A002826003E0826822F4A0028260704798
:1006C000816841F004018160704710B5012000F09D
:1006D000FFFF002000F0FCFF10BD000008B5014640
:1006E0000020009003480090009808440090009873
:1006F000008808BD006C004008B500220092044A42
:100700000092009A02440092009A116008BD000015
:10071000006C004010B5002413E0002220210A489C
:1007200000F0F0FA4FF4FA7001F0E6FB012220210C
:10073000054800F0E7FA4FF4FA7001F0DDFB601CA9
:1007400084B2C82CE9DB10BD000C014008B50121C2
:10075000082000F0ADFF10208DF803002020ADF838
:10076000000003208DF802006946044800F036FAC4
:1007700001222021014800F0C5FA08BD000C01400B
:1007800000BFFEE721B1026842F00102026004E00E
:1007900002684FF6FE731A400260704701684FF618
:1007A000FE72114001600021016041608160C16002
:1007B0004B49884208D14A490839496841F00F013C
:1007C000474A083A51608AE045491431884208D1C5
:1007D00043490839496841F0F001414A083A5160FB
:1007E0007DE03F492831884208D13D4908394968B0
:1007F00041F470613A4A083A516070E038493C313E
:10080000884208D136490839496841F47041344A70
:10081000083A516063E032495031884208D130498A
:100820000839496841F470212D4A083A516056E070
:100830002B496431884208D129490839496841F473
:100840007001274A083A516049E0254978318842C9
:1008500008D123490839496841F07061204A083AB3
:1008600051603CE01F49884206D1011F096841F0F0
:100870000F01021F116032E01A491431884208D179
:100880001849091F096841F0F001164A121F11604A
:1008900025E014492831884208D11249091F096806
:1008A00041F470610F4A121F116018E00D493C318C
:1008B000884208D10B49091F096841F47041094A6F
:1008C000121F11600BE007495031884207D10549DA
:1008D000091F096841F47021024A121F1160704714
:1008E000080002400804024010B50022026847F6E2
:1008F000F0739A430C6A8B6823430C6923434C6959
:1009000023438C692343CC6923434C6A23438C6A79
:1009100023431A430260CB6843600B6883604B68D3
:10092000C36010BD70470EB50121042000F0C0FE69
:100930000121084600F0BCFE0621002000F02EF93F
:100940004020009001208DF8060000208DF8040062
:100950000C208DF80500684600F0BCF817208DF8D3
:10096000080001208DF80B0002208DF809008DF899
:100970000A0002A800F028FD0721002000F00EF96F
:100980008020009001208DF8060000208DF80400E2
:100990000C208DF80500684600F09CF817208DF8B3
:1009A000080001208DF80B0002208DF809008DF859
:1009B0000A0002A800F008FD0EBD000008B50121E4
:1009C0000C2000F075FEC020ADF8000048208DF826
:1009D00003006946064800F001F90420ADF8000064
:1009E00048208DF803006946024800F0F7F808BD7A
:1009F00000080140000C014010B5402000F056F8FE
:100A0000002831D0642000F0CFFC0421204800F001
:100A100070F920490870032000F0B6FC40211E4800
:100A200000F067F9E8B91B48007810B901201B49AC
:100A3000087018480078012802D102201749087070
:100A4000002404E0601C84B2142000F0ADFC4021BE
:100A5000114800F04EF918B94EF660208442F1DBDF
:100A600000BF402000F01CF8802000F01FF868B1A3
:100A7000142000F089FC8021074800F03AF910B9F1
:100A8000032006490870802000F00AF810BD00001D
:100A9000000C01401900002000080140180000204F
:100AA000014908607047000014040140014600201D
:100AB0000022074B1B6803EA0102054B14331B6835
:100AC0000B4013B10AB1012000E000207047000084
:100AD00000040140002123498279002A3AD00A46C5
:100AE000126803689A430B461A600A1D126803686D
:100AF0009A430B1D1A60027911440A6803681A436D
:100B00000A60184A0832126803689A43154B083382
:100B10001A601A1D126803689A43124B0C331A604C
:100B20004279102A0ED11A1F126803681A430D4B1E
:100B300008331A601A1D126803681A43094B0C33F4
:100B40001A600DE00749427911440A6803681A43A4
:100B50000A6005E0027911440A6803689A430A6052
:100B600070470000000401400549096821F01001A8
:100B7000034A116011460968014311607047000083
:100B80000020024001460020034A106800F03800AF
:100B900008431060704700000020024030B500227A
:100BA0008B071C0F0F2303FA04F20B4B8C1053F826
:100BB00024309343084C8D1044F8253023468C1084
:100BC00053F824308C07240F00FA04F42343024C1A
:100BD0008D1044F8253030BD080001402DE9F0416A
:100BE000024600250026002000230024002791F85B
:100BF00003C00CF00F0591F803C00CF0100CBCF111
:100C0000000F03D091F802C04CEA050591F800C02E
:100C1000BCF1000F31D0146800202BE04FF0010C24
:100C20000CFA00F3B1F800C00CEA03069E4220D192
:100C300083004FF00F0C0CFA03F7BC4305FA03FCDA
:100C40004CEA040491F803C0BCF1280F06D14FF020
:100C5000010C0CFA00FCC2F814C00AE091F803C0C1
:100C6000BCF1480F05D14FF0010C0CFA00FCC2F8A2
:100C700010C0401C0828D1D31460B1F800C0BCF1EA
:100C8000FF0F34DD546800202EE000F1080C4FF017
:100C9000010808FA0CF3B1F800C00CEA03069E4202
:100CA00021D183004FF00F0C0CFA03F7BC4305FA77
:100CB00003FC4CEA040491F803C0BCF1280F05D1F1
:100CC00000F1080C08FA0CF8C2F8148091F803C07F
:100CD000BCF1480F07D100F1080C4FF0010808FAE9
:100CE0000CF8C2F81080401C0828CED35460BDE830
:100CF000F0810246002093680B400BB1012000E018
:100D0000002070470AB1016100E04161704700BFF7
:100D1000FEE721B1028842F48062028004E002888A
:100D20004FF6FF331A400280704770B50246002428
:100D3000002500230020958A138B1B0445EA030637
:100D400026F07F4404EA01068E4201D1012000E032
:100D5000002070BD21B1028842F00102028004E04F
:100D600002884FF6FE731A40028070471FB500F0EC
:100D700021F80020ADF804004BF6FF70ADF8060036
:100D8000C020ADF808004FF48060ADF80A00000103
:100D9000ADF80C00054800906946054800F05AF887
:100DA00001210348FFF7D6FF1FBD0000400D0300DF
:100DB0000054004008B50121082000F079FC012111
:100DC000480500F065FCC020ADF800001C208DF83F
:100DD000030003208DF8020069460248FFF7FEFE7B
:100DE00008BD0000000C014021B1028842F480726D
:100DF000028004E002884FF6FF631A4002807047C9
:100E000021B1028842F40072028004E002884FF6A9
:100E1000FF531A40028070470CB5024600200023A1
:100E20000193009300920B0F019321F07F41019BEE
:100E30001BB1009B1433009303E0090C009B183393
:100E40000093009B1B680B400BB1012000E00020C9
:100E50000CBD00002DE9F04385B004460D46002688
:100E6000B1460427DFF8CC80A6884FF6C070064054
:100E7000684600F095FCDDF808802F48B8FBF0F0DC
:100E80001FFA80F946EA0906A68020884FF6FE710F
:100E90000840208000262949286888420CD8286804
:100EA0004000B8FBF0F087B2042F00DA04273E437D
:100EB00009F10100208427E0E8884BF6FF718842A1
:100EC00006D1286800EB4000B8FBF0F087B209E0DB
:100ED000286800EBC00101EB0010B8FBF0F087B20E
:100EE00047F48047C7F30B0008B947F0010747F400
:100EF000004006434FF4967009FB00F04FF47A71FE
:100F000090FBF1F0401C2084A683208840F0010073
:100F1000208026884FF6F5300640A8886989084366
:100F200006432680A88929890843208105B0BDE8A9
:100F3000F083000000127A0040420F00A0860100FA
:100F40002DE9F04106460F4615461C4600BF4FF4FA
:100F500000313248FFF760FF0028F8D101212F4807
:100F6000FFF742FF00BF2E492C48FFF7DEFE0028A6
:100F7000F9D000223146294800F05AF800BF29492B
:100F80002648FFF7D2FE0028F9D001212348FFF7B9
:100F9000E1FE3946214800F054F800BF2149891C80
:100FA0001E48FFF7C2FE0028F8D001211B48FFF7BA
:100FB0001BFF00BF1A491948FFF7B7FE0028F9D0F8
:100FC00001223146154800F033F800BF1449491C8E
:100FD0001248FFF7AAFE0028F8D016E0012C07D12E
:100FE00000210E48FFF795FE01210C48FFF708FF8E
:100FF0000B493F310948FFF798FE30B1074800F030
:1010000013F828706D1C601E84B2002CE6D10121FB
:101010000248FFF77EFEBDE8F0810000005400406A
:1010200001000300820007000146088AC0B2704731
:1010300012B141F0010102E04FF6FE731940018246
:1010400070470182704700002DE9F04105460F46C8
:1010500014461E4601211D48FFF7C6FE00BF1C496D
:101060001A48FFF762FE0028F9D0002229461748E7
:10107000FFF7DEFF00BF17491448FFF756FE0028B0
:10108000F9D039461148FFF7DCFF00BF1149891C30
:101090000E48FFF74AFE0028F8D00CE021780B48F4
:1010A000FFF7CFFF641C00BF0A49891C0748FFF700
:1010B0003CFE0028F8D0301EA6F101018EB2EDD121
:1010C00001210248FFF79CFEBDE8F081005400407A
:1010D000010003008200070070B504460E46154665
:1010E00001211948FFF780FE00BF18491648FFF795
:1010F0001CFE0028F9D0002221461348FFF798FF74
:1011000000BF13491048FFF710FE0028F9D0314600
:101110000D48FFF796FF00BF0D49891C0A48FFF7ED
:1011200004FE0028F8D029460748FFF78AFF00BFD1
:101130000749891C0448FFF7F8FD0028F8D0012171
:101140000148FFF75DFE70BD005400400100030040
:10115000820007002DE9F04705460C4616464FF081
:10116000000AA01CC4B2D1463AE005F1B000C2B2F8
:1011700000217820FFF7B0FF2746E01704EB10703E
:1011800000111030C2B200217820FFF7A5FFE01750
:1011900004EB10700011A4EB0010C2B20021782003
:1011A000FFF79AFF4FF0000811E00AEB46101149D3
:1011B000085CC043C2B240217820FFF78DFF0AF1DE
:1011C000010000F0FF0A08F1010000F0FF08B8F18B
:1011D000100FEADB681CC5B209F1010000F0FF093D
:1011E000B9F1020FC1DBAF2200217820FFF774FFB5
:1011F000BDE8F087C02C00082DE9F04705460C46F5
:1012000016464FF0000AA01CC4B2D1463CE005F1DE
:10121000B000C2B200217820FFF75EFF2746E0173A
:1012200004EB107000111030C2B200217820FFF7DB
:1012300053FFE01704EB10700011A4EB0010C2B2D2
:1012400000217820FFF748FF4FF0000813E00AEB79
:101250000610A0F500700F49085CC043C2B24021DF
:101260007820FFF739FF0AF1010000F0FF0A08F1CA
:10127000010000F0FF08B8F1080FE8DB681CC5B2F8
:1012800009F1010000F0FF09B9F1020FBFDBBDE871
:10129000F0870000C02600080146CA1701EB9272D1
:1012A0009210A1EB820292B9642091FBF0F200FB54
:1012B000121050B94FF4C87091FBF0F200FB1210FD
:1012C00008B9012070470020FCE70120FAE7002060
:1012D000F8E7F8B506460024002502236A460021F7
:1012E0009E20FFF72DFE9DF800400020307004F096
:1012F000800028B101203070E043C4B2601CC4B249
:1013000004F0010008B1681CC5B204F0020008B185
:10131000A81CC5B204F0040008B1281DC5B204F031
:10132000080010B105F10800C5B204F0100010B1BA
:1013300005F11000C5B204F0200010B105F1200045
:10134000C5B204F0400010B105F14000C5B2761CF2
:10135000357000259DF8014004F0200010B105F122
:101360000C00C5B204F0400010B105F11900C5B27F
:1013700004F0800010B105F13200C5B2761C357062
:10138000F8BD00BFFEE77047002107E042F6E061CC
:1013900000BF0A1EA1F1010399B2FAD1021EA0F109
:1013A000010398B2F2D17047002106E00A2100BF84
:1013B0000A1EA1F1010399B2FAD1021EA0F10103A4
:1013C00098B2F3D17047000070B5002100230F22BE
:1013D000C47804B3154C246804F4E064C4F5E064F4
:1013E000210AC1F10403CA40447804FA03F1847865
:1013F0001440214309010E4C0678A155047804F0ED
:101400001F050124AC4005786D11AD0005F1E02504
:10141000C5F8004109E0047804F01F050124AC4040
:10142000044D0678761145F8264070BD0CED00E0BD
:1014300000E400E080E100E010B500F0E5F800F025
:10144000B3F800F0EFF810BD2DE9F04705460C4663
:1014500016464FF0000AA01CC4B2D14638E005F190
:10146000B000C2B200217820FFF736FE2746E01711
:1014700004EB107000111030C2B200217820FFF789
:101480002BFEE01704EB10700011A4EB0010C2B2A9
:1014900000217820FFF720FE4FF000080FE00AEB54
:1014A000461010490A5C40217820FFF715FE0AF12A
:1014B000010000F0FF0A08F1010000F0FF08B8F198
:1014C000100FECDB681CC5B209F1010000F0FF0948
:1014D000B9F1020FC3DBAF2200217820FFF7FCFD3A
:1014E000BDE8F087C02C00082DE9F04705460C4602
:1014F00016464FF0000AA01CC4B2D1463AE005F1EE
:10150000B000C2B200217820FFF7E6FD2746E017C1
:1015100004EB107000111030C2B200217820FFF7E8
:10152000DBFDE01704EB10700011A4EB0010C2B259
:1015300000217820FFF7D0FD4FF0000811E00AEB02
:101540000610A0F500700E490A5C40217820FFF7D4
:10155000C3FD0AF1010000F0FF0A08F1010000F0EC
:10156000FF08B8F1080FEADB681CC5B209F10100F9
:1015700000F0FF09B9F1020FC1DBBDE8F087000000
:10158000C026000870B506460C46002508E014F891
:10159000012BE806010E3046FFF7A6FF681CC5B216
:1015A00020780028F3D170BD70B5B0241BE022462E
:1015B00000217820FFF790FD102200217820FFF70E
:1015C0008BFD002211467820FFF786FD002506E0FE
:1015D000002240217820FFF77FFD681CC5B2842DD2
:1015E000F6DB601CC4B2B82CE1DB70BD10B504465C
:1015F000812200217820FFF76FFD2246002178200C
:10160000FFF76AFD10BD000008B505A00068009056
:1016100002236A4600217820FFF716FD08BD00006E
:10162000AE8D000000B587B01C2206A16846FEF70B
:101630003AFE1C236A4600217820FFF705FD07B01B
:1016400000BD0000AE0010D580A83FD300B0408D93
:1016500014A1C8DA1281FFD9F1DB302000A4A6AFB3
:10166000014908627047000000000E427047000008
:1016700029B1064A52690243044B5A6104E0034A05
:1016800052698243014B5A617047000000100240CA
:1016900029B1064AD2690243044BDA6104E0034AE5
:1016A000D2698243014BDA617047000000100240AA
:1016B00029B1064A92690243044B9A6104E0034A45
:1016C00092698243014B9A6170470000001002400A
:1016D0000149086070470000400442420348406AE4
:1016E00040F08070014948627047000000100240DD
:1016F00010B500F02FF84FF4803000F0EDF800F056
:1017000071F90446012C24D14FF4E011000400F0DB
:1017100041F9002000F0D4F8A00200F01DF90020EB
:1017200000F026F90220FFF72DFA1020FFF71CFA2F
:10173000012000F029F900BF392000F09BF80028B3
:10174000FAD0022000F042F900BF00F0B1F80828FA
:10175000FBD110BD0F48006840F001000D49086042
:10176000084640680C4908400A4948600846006835
:101770000A490840074908600846006820F48020AC
:1017800008600846406820F4FE0048604FF41F00DF
:1017900088607047001002400000FFF8FFFFF6FE6F
:1017A00030B500210022002400232D4D6D6805F086
:1017B0000C0121B1042905D0082923D105E0294DC8
:1017C000056022E0274D05601FE0254D6D6805F49A
:1017D0007012234D6D6805F48034022505EB9242AA
:1017E0001CB9214D554305600BE01D4D6D6805F496
:1017F00000351DB11C4D5543056002E0194D5543A0
:10180000056002E0174D056000BF00BF144D6D6814
:1018100005F0F0010909154D6B5C0568DD40456078
:101820000F4D6D6805F4E061090A104D6B5C456869
:10183000DD4085600A4D6D6805F46051C90A0B4DA5
:101840006B5C4568DD40C560054D6D6805F4404141
:10185000890B074D6B5CC568B5FBF3F5056130BDC1
:101860000010024000127A0000093D001A0000201A
:101870002A00002010B501460022002300204A1152
:10188000012A02D1094C236806E0022A02D1074C42
:10189000236A01E0054C636A01F01F0201249440B1
:1018A0001C400CB1012000E0002010BD00100240DF
:1018B0000248406800F00C00704700000010024031
:1018C00001460020034A506820F0F00008435060B1
:1018D00070470000001002401149096821F480316E
:1018E0000F4A11601146096821F480211160B0F59A
:1018F000803F03D0B0F5802F0ED106E0084909687B
:1019000041F48031064A116007E00549096841F455
:10191000A021034A116000E000BF00BF7047000033
:101920000010024000210B4A11700A4A203A82F846
:101930002010012802D0042808D103E00121054A23
:10194000117004E00521034A117000E000BF00BFE0
:10195000704700002010024001460020034A5068F2
:1019600020F4E0600843506070470000001002401F
:1019700001460020034A506820F4605040EAC1004C
:10198000506070470010024001490866704700002F
:101990000000424202460020044B586820F47C10AC
:1019A00042EA01031843014B58607047001002409F
:1019B00001490860704700003C0442420249096A3C
:1019C0000143014A116270470010024001460020A5
:1019D000034A506820F0030008435060704700003D
:1019E0000010024038B5002000900024002500BF00
:1019F0003120FFF73FFF05460098401C00900098FB
:101A0000B0F5A06F01D0002DF2D03120FFF732FFEA
:101A100008B1012400E00024204638BD10B50420A0
:101A2000FEF75CFE4AF2A551884207D000F02AF882
:101A30004AF2A5510420FEF75FFE0DE07B20FFF780
:101A400019FF10B97A20FFF715FFFFF747FE0120B5
:101A5000FFF7AEFF00F0F0F810BD0000034800886B
:101A600040F0100001490880704700000428004041
:101A7000034800884FF6EF7108400149088070471D
:101A80000428004010B501214FF0C050FFF700FEC0
:101A90000120FFF7E5FDFEF718FE0120FFF742FFEA
:101AA00000BF4120FFF7E6FE0028FAD04FF4807017
:101AB000FFF784FF0120FFF77BFF00F0BDF800F087
:101AC000B1F847F6FF7000F09DF800F0ABF810BDDC
:101AD00070B500260024002500F08AF806463A4832
:101AE000B6FBF0F439480088A0423DD037490C805D
:101AF00040F2B27510E02846FFF7CEFB40B1B4F5D6
:101B0000B77F02D3A4F5B77404E0681C85B206E081
:101B1000A4F26D14681C85B2B4F5B67FEBD800BF93
:101B20002B480580002516E029480088FFF7B4FB04
:101B300030B1012D04D11D2C01D31D3C09E00CE076
:101B40002448405DA04203D82248405D241A00E0AA
:101B500003E0681C85B21C2CE6D200BF681C1E493D
:101B60000870601C1D4908701748B6FBF0F100FBB7
:101B700011644FF46160B4FBF0F0194908704FF440
:101B80006160B4FBF0F100FB11403C21B0FBF1F0CF
:101B9000144908704FF46160B4FBF0F100FB114090
:101BA0003C21B0FBF1F201FB12000F4908700B4819
:101BB0000278094801780648008800F04FF80B4980
:101BC0000870002070BD0000805101000800002056
:101BD00000000020B42600080200002003000020BE
:101BE000040000200500002006000020070000205F
:101BF000002103480188001F008841EA0040704727
:101C00001C28004000B50246FFF728FFC2F303403E
:101C100003490880091D0A80FFF72AFF00BD000064
:101C20000828004000BF0348008800F0200000287A
:101C3000F9D0704704280040074800884FF6F77134
:101C400008400549088000BF0348008800F00800EC
:101C50000028F9D0704700000428004070B5034602
:101C60001446012901DB0C2901DDFF2070BD01298B
:101C700001D0022904D101F10C00C1B2581E83B277
:101C8000481C00EB4000052590FBF5F0022505FB04
:101C90000145284418441A46DD1703EB957500EBFF
:101CA000A500642593FBF5F5401B4FF4C87593FB25
:101CB000F5F52844401C072590FBF5F605FB1600BA
:101CC000C01D90FBF5F605FB1600C0B2CEE77047CD
:101CD00010B500F001F810BD0CB500200190009087
:101CE0003348006840F480303149086000BF304814
:101CF000006800F4003000900198401C01900098AA
:101D000018B90198B0F5A06FF1D12948006800F426
:101D1000003010B10120009001E0002000900098F8
:101D2000012843D12348006840F010002149086091
:101D30000846006820F0030008600846006840F08C
:101D4000020008601A48406819494860084640681F
:101D500048600846406840F4806048600846406833
:101D600020F47C1048600846406840F4E810486061
:101D70000846006840F08070086000BF0C480068AA
:101D800000F000700028F9D00948406820F00300F6
:101D9000074948600846406840F00200486000BFBC
:101DA0000348406800F00C000828F9D10CBD000081
:101DB00000100240002002407047000010B5134898
:101DC000006840F001001149086008464068104969
:101DD00008400E494860084600680E4908400B4913
:101DE00008600846006820F48020086008464068C3
:101DF00020F4FE0048604FF41F008860FFF768FF82
:101E00004FF000600449086010BD0000001002405F
:101E10000000FFF8FFFFF6FE08ED00E010B540F20D
:101E200025511F4800F044F8002838D01C4800F025
:101E30004CF8C4B221461BA0FEF7CCF91A48008822
:101E400000F4004058BB1848008800F4804060B19E
:101E50000A2C03D000201449088020E01248008892
:101E600040F400401049088019E00D2C06D10E48BE
:101E7000008840F480400C49088010E00A4800883F
:101E8000C0F30D0009490C5407480088401C06495E
:101E9000088008460088C72801DD0020088010BDA2
:101EA00000380140256300001000002030000020B1
:101EB00002460020B1F5007F00D100BF13880B401F
:101EC0000BB1012000E00020704701468888C0F374
:101ED0000800704700BFFEE7014600BF704700B52D
:101EE000034603E04FF47A7000F006F8181EA3F1E1
:101EF00001018BB2F6D100BD00EBC001C9004FF06B
:101F0000E0225161002191610521116100BF4FF074
:101F1000E021096901F480310029F8D004214FF053
:101F2000E02211617047000000BF054A128802F0EC
:101F30004002002AF9D0C2B2014B1B1D1A80704723
:101F40000038014008B501256420FFF7C8FFFFF7FE
:101F5000CFFBFEF70BFF6846FFF7BBF9FEF72EFD40
:101F6000FFF76AFAFFF75AFDFEF7DDFCFEF756FAB7
:101F7000FEF7ECFB9B20FFF739FB4FF47A70FFF77D
:101F8000AEFF8EE3012D7DD1FFF70EFB3122002144
:101F90000846FFF731F9202208210020FFF72CF92D
:101FA0000D2210210020FFF7D5F80D22202100205E
:101FB000FFF7D0F8002230211046FFF7CBF80122BE
:101FC00040210020FFF7C6F8022250210020FFF731
:101FD000C1F80D2260210020FFF7BCF80D2270210E
:101FE0000020FFF7B7F80E2200210220FFF72CFA9D
:101FF0000F2210210220FFF727FA032220210220BE
:10200000FFF722FA042230210220FFF71DFA3A22BC
:1020100040210220FFF768FA102270210220FFF70A
:1020200013FA0E2200210420FFF70EFA0F221021CE
:102030000420FFF709FA052220210420FFF704FA03
:10204000042230211046FFF7FFF93A2240210420F4
:10205000FFF74AFA322248210420FFF745FA3522D9
:1020600050210420FFF740FA252258210420FFF7D1
:102070003BFA112200210620FFF7E6F91222102177
:10208000062000E00CE0FFF7DFF9132220210620F4
:10209000FFF7DAF9142230210620FFF7D5F90B25D6
:1020A000022D40D1FFF780FA322200210846FFF7C7
:1020B000A3F8202208210020FFF79EF80D2210210E
:1020C0000020FFF747F80D2220210020FFF742F8FB
:1020D0000A2220210020FFF73DF80B2230210020AA
:1020E000FFF738F80C2240210020FFF733F80122D7
:1020F00050210020FFF72EF8022260210020FFF778
:1021000029F80D2270210020FFF724F8FEA10220FB
:10211000FFF738FAFEA10420FFF734FAFEA10620EB
:10212000FFF730FA1525032D5CD1FFF73DFA332276
:1021300000210846FFF760F8202208210020FFF761
:102140005BF80D2210210020FFF704F80622202161
:102150000020FEF7FFFF072230210020FEF7FAFFE4
:10216000012240210020FEF7F5FF0222502100202D
:10217000FEF7F0FF0D2260210020FEF7EBFF0D229D
:1021800070210020FEF7E6FF152200210220FFF754
:102190005BF9032210210220FFF756F93A22202191
:1021A0000220FFF7A1F9162200210420FFF74CF9C5
:1021B000032210210420FFF747F93A2220210420AE
:1021C000FFF792F9082200210620FEF7C3FF09223B
:1021D00010210620FEF7BEFF3A2220210620FFF73D
:1021E00083F91F250B2D7CD1FFF772FC6846FFF7A2
:1021F00070F8CB4800780A2190FBF1F030301FFADC
:1022000080FB5A4640210620FFF76EF9C44800784B
:102210000A2190FBF1F201FB120030301FFA80FB23
:102220005A4648210620FFF75FF93A22502106203E
:10223000FFF75AF9BB4800780A2190FBF1F03030E3
:102240001FFA80FB5A4658210620FFF74DF9B54882
:1022500000780A2190FBF1F201FB120030301FFAE6
:1022600080FB5A4660210620FFF73EF93A2268219A
:102270000620FFF739F9AC4800780A2190FBF1F00D
:1022800030301FFA80FB5A4670210620FFF72CF9E8
:10229000A54800780A2190FBF1F201FB12003030D2
:1022A0001FFA80FB5A4678210620FFF71DF99DF89A
:1022B000000028B12D2248210220FFF715F904E083
:1022C000202248210220FFF70FF99DF801000A2182
:1022D00090FBF1F030301FFA80FB5A46502102206B
:1022E00000E022E0FFF700F99DF801000A2190FBD1
:1022F000F1F201FB120030301FFA80FB5A465821E0
:102300000220FFF7F1F82E2260210220FFF7ECF8FF
:102310009DF802000A2190FBF1F030301FFA80FB9B
:102320005A4668210220FFF7DFF8152D72D10026EA
:1023300000274FF0000800241EE07C4800887C49FC
:1023400021F81400794840887A4921F81400774828
:102350008088794921F8140000BF02217748FEF7F0
:1023600007F90028F9D00120FFF7C6FD02217348C4
:10237000FEF746F8601CC4B20A2CDEDB6C48B0F8ED
:102380000090B0F800A0002411E0694830F8140073
:10239000484502DD664830F81490654830F814006E
:1023A000504502DA624830F814A0601CC4B20A2C0E
:1023B000EBDB002406E05E4830F81400304486B2BF
:1023C000601CC4B20A2CF6DBA6EB0901A1EB0A00E3
:1023D000C11700EB5171C1F3CF065648B0F8009019
:1023E000B0F800A0002411E0524830F8140048452D
:1023F00002DD504830F814904E4830F81400504533
:1024000002DA4C4830F814A0601CC4B20A2CEBDB92
:10241000002407E00CE1474830F81400384487B244
:10242000601CC4B20A2CF6DBA7EB0901A1EB0A0081
:10243000C11700EB5171C1F3CF073F48B0F80090CE
:10244000B0F800A0002411E03B4830F814004845E3
:1024500002DD394830F81490374830F81400504500
:1024600002DA354830F814A0601CC4B20A2CEBDB49
:10247000002407E0304830F8140040441FFA80F888
:10248000601CC4B20A2CF5DBA8EB0901A1EB0A0021
:10249000C11700EB5171C1F3CF084FF47A7096FB6E
:1024A000F0F030301FFA80FB5A4628210220FFF757
:1024B0001BF84FF47A7096FBF0F100FB1160642179
:1024C00090FBF1F030301FFA80FB5A463021022099
:1024D000FFF70AF8642096FBF0F100FB11600A2177
:1024E00090FBF1F030301FFA80FB5A463821022071
:1024F000FEF7FAFF0A2096FBF0F100FB1160303086
:102500001FFA80FB5A461BE0414443313A00000069
:10251000414443323A000000414443333A20000032
:10252000040000200500002006000020120000200A
:10253000F80000200C0100202001002000240140B0
:1025400040210220FEF7D0FF4FF47A7097FBF0F0A5
:1025500030301FFA80FB5A4628210420FEF7C4FFC2
:102560004FF47A7097FBF0F100FB1170642190FB3F
:10257000F1F030301FFA80FB5A4630210420FEF77C
:10258000B3FF642097FBF0F100FB11700A2190FB70
:10259000F1F030301FFA80FB5A4638210420FEF754
:1025A000A3FF0A2097FBF0F100FB117030301FFAF7
:1025B00080FB5A4640210420FEF796FF4FF47A70C4
:1025C00098FBF0F030301FFA80FB5A462821062095
:1025D000FEF78AFF4FF47A7098FBF0F100FB118050
:1025E000642190FBF1F030301FFA80FB5A46302115
:1025F0000620FEF779FF642098FBF0F100FB1180C4
:102600000A2190FBF1F030301FFA80FB5A46382146
:102610000620FEF769FF0A2098FBF0F100FB11800D
:1026200030301FFA80FB5A4640210620FEF75CFF3F
:102630001F2D03D14FF47A70FFF751FC1948007831
:1026400000282EDDFEF766F80B2D04D11548007822
:10265000012800D102250B2D04D112480078022850
:1026600000D10325152D04D10E480078012800D192
:102670000325152D04D10B480078022800D101252F
:102680001F2D04D107480078012800D101251F2DF6
:1026900004D104480078022800D102250020014915
:1026A00008706FE41800002000030306010406020E
:1026B000050003051F1C1F1E1F1E1F1F1E1F1E1FA0
:1026C000000000000000000000000000000000000A
:1026D000000038FCFC3800000000000D0D00000078
:1026E000000E1E00001E0E00000000000000000092
:1026F00020F8F820F8F82000020F0F020F0F020058
:10270000387C444747CC98000306041C1C07030090
:1027100030300080C06030000C060301000C0C005B
:1027200080D87CE4BCD84000070F0808070F0800D9
:1027300000101E0E0000000000000000000000005D
:102740000000F0F80C040000000003070C08000073
:102750000000040CF8F000000000080C0703000063
:1027600080A0E0C0C0E0A0800002030101030200DD
:10277000008080E0E0808000000000030300000093
:1027800000000000000000000000101E0E0000000D
:1027900080808080808080000000000000000000B9
:1027A00000000000000000000000000C0C00000011
:1027B00000000080C06030000C0603010000000033
:1027C000F8FC04C424FCF800070F0908080F0700F0
:1027D000001018FCFC0000000008080F0F0808009B
:1027E000080C84C4643C18000E0F0908080C0C0087
:1027F000080C444444FCB800040C0808080F070007
:10280000C0E0B098FCFC8000000000080F0F08003A
:102810007C7C4444C4C48400040C0808080F0700EE
:10282000F0F84C4444C08000070F0808080F070068
:102830000C0C0484C47C3C0000000F0F000000005E
:10284000B8FC444444FCB800070F0808080F070010
:10285000387C444444FCF800000808080C070300D6
:1028600000000030300000000000000606000000FC
:1028700000000030300000000000080E06000000DC
:102880000080C0603018080000000103060C08003A
:10289000404040404040400002020202020202006A
:1028A0000008183060C0800000080C06030100001A
:1028B000181C04C4E43C18000000000D0D000000CA
:1028C000F0F808C8C8F8F000070F080B0B0B010060
:1028D000E0F0988C98F0E0000F0F0000000F0F0060
:1028E00004FCFC4444FCB800080F0F08080F070064
:1028F000F0F80C04040C180003070C08080C060080
:1029000004FCFC040CF8F000080F0F080C0703008F
:1029100004FCFC44E40C1C00080F0F08080C0E001B
:1029200004FCFC44E40C1C00080F0F08000000002D
:10293000F0F80C84848C980003070C0808070F003B
:10294000FCFC404040FCFC000F0F0000000F0F009B
:10295000000004FCFC0400000000080F0F08000049
:1029600000000004FCFC0400070F08080F0700002B
:1029700004FCFCC0F03C0C00080F0F00010F0E001F
:1029800004FCFC0400000000080F0F08080C0E00F7
:10299000FCFC387038FCFC000F0F0000000F0F002B
:1029A000FCFC3870E0FCFC000F0F0000000F0F0073
:1029B000F0F80C040CF8F00003070C080C070300F7
:1029C00004FCFC44447C3800080F0F0800000000A1
:1029D000F8FC040404FCF800070F080E3C3F270035
:1029E00004FCFC44C4FC3800080F0F00000F0F006B
:1029F000183C6444C49C1800060E0808080F070021
:102A0000001C0CFCFC0C1C000000080F0F08000050
:102A1000FCFC000000FCFC00070F0808080F070082
:102A2000FCFC000000FCFC000103060C0603010096
:102A3000FCFC008000FCFC00030F0E030E0F0300E3
:102A40000C3CF0C0F03C0C000C0F0300030F0C001A
:102A5000003C7CC0C07C3C000000080F0F08000058
:102A60001C0C84C4643C1C000E0F0908080C0E00EA
:102A70000000FCFC0404000000000F0F0808000028
:102A80003870E0C0800000000000000103070E0065
:102A900000000404FCFC0000000008080F0F000008
:102AA000080C0603060C08000000000000000000EF
:102AB0000000000000000000202020202020202016
:102AC00000000307040000000000000000000000F8
:102AD00000A0A0A0E0C00000070F0808070F080032
:102AE00004FCFC2060C08000080F0708080F0700E6
:102AF000C0E0202020604000070F0808080C0400F8
:102B000080C06024FCFC0000070F0808070F0800C5
:102B1000C0E0A0A0A0E0C000070F0808080C040057
:102B200040F8FC440C180000080F0F0800000000DB
:102B3000C0E02020C0E02000276F48487F3F000011
:102B400004FCFC4020E0C000080F0F00000F0F0045
:102B5000000020ECEC0000000000080F0F0800004F
:102B60000000000020ECEC0000307040407F3F008F
:102B700004FCFC80C0602000080F0F01030E0C0055
:102B8000000004FCFC0000000000080F0F0800001B
:102B9000E0E060C060E0C0000F0F000F000F0F000A
:102BA00020E0C02020E0C000000F0F00000F0F0049
:102BB000C0E0202020E0C000070F0808080F070031
:102BC00020E0C02020E0C000407F7F48080F0700C1
:102BD000C0E02020C0E02000070F08487F7F4000B1
:102BE00020E0C0602060C000080F0F080000000057
:102BF00040E0A02020604000040C09090B0E0400F6
:102C00002020F8FC202000000000070F080C040022
:102C1000E0E00000E0E00000070F0808070F0800F0
:102C200000E0E00000E0E0000003070C0C070300F8
:102C3000E0E0000000E0E000070F0C070C0F0700C9
:102C40002060C080C0602000080C0703070C08004B
:102C5000E0E0000000E0E000474F4848683F1F0008
:102C6000606020A0E06020000C0E0B09080C0C0036
:102C7000004040F8BC040400000000070F080800F2
:102C8000000000BCBC0000000000000F0F000000AE
:102C9000000404BCF84040000008080F07000000D2
:102CA000080C040C080C04000000000000000000E8
:102CB00080C0603060C0800007070404040707007C
:102CC00000080808080809FA0808080808080000A9
:102CD000404041414141417F4141414141404000EB
:102CE000040444C44F4444C424242FB424040400E2
:102CF00040442424150C04FE040C152424444000F4
:102D00000000F8494A4C48F8484C4A49F80000008D
:102D100010101312121212FF1212121213101000BE
:102D20001060028C0000FE9292929292FE000000CF
:102D300004047E01407E42427E427E42427E40004A
:102D40000000FC242424FC252624FC242424040044
:102D500040308F80844C55252525554C808080003F
:102D60001060028C00FE929292929292FE000000FD
:102D700004047E014448507F40407F504844400056
:102D8000404042CC0040A09E8282829EA020200033
:102D90000000003F908840432C102846418080006E
:102DA000001715D55557557D555755D515170000A2
:102DB0004040407F555555555555557F4040400042
:102DC0004040424458C0407F40C0504846404000C8
:102DD0008080402018070000003F404040407800BD
:102DE00000FE424242FE0042A29E82A2C2BE0000FB
:102DF000806F080828CF00002FC8080828CF0000DF
:102E00001010D0FF9014E4AFA4A4A4AFE404000019
:102E1000040300FF00894B2A1A0E1A2A4B888000EF
:102E2000101010FF9000F80002041800FF000000CE
:102E30000242817F00003F108840300C0B30C00000
:102E4000202020BEAAAAAAAAAAAAAABE20202000A0
:102E5000008080AFAAAAAAFFAAAAAAAF8080000019
:102E60000000000000000000000000000000000062
:102E70000000000000000000000000000000000052
:102E8000004042445840407F40405048C600000047
:102E9000004044444444444444444444FF0000004B
:102EA0000808E8292E28E80808C80C0BE8080800DC
:102EB0000000FF0949897F00000F40807F0000006B
:102EC000060909E6F80C040202020202041E0000D0
:102ED000000000071F30204040404040201000000C
:102EE0000020202020FF000000FF402010080000EC
:102EF0002060201010FF0000003F4040404078005C
:102F0000040404E424242526242424E404040400E2
:102F10000040201B0242827E0202020B1060000071
:102F200000FC848484FC001010101010FF101000AE
:102F3000003F1010103F0000010640807F0000009D
:102F400000F8010600F0121212F2020202FE000066
:102F500000FF0000001F1111111F0040807F0000C2
:102F600004040404F49495969494F4040404040072
:102F700000FE02027A4A4A4A4A4A7A0282FE000067
:102F8000008060F80700FC848484FE8283828000D5
:102F9000010000FF0000FF402000418E3040F8009B
:102FA0000000000000000000000000000000000021
:102FB0000000000000000000000000000000000011
:102FC0000000000000000000000000000000000001
:102FD00000000000000000000000000000000000F1
:102FE00000000000000000000000000000000000E1
:102FF00000000000000000000000000000000000D1
:1030000000000000000000000000000000000000C0
:1030100000000000000000000000000000000000B0
:1030200000000000000000000000000000000000A0
:10303000000000000000000000F8FC1C3830381CC4
:10304000FCF800F8F800F8F8000000F8FC8C8C8C14
:103050000080D050F0E000F0F020300000808000D0
:10306000808000808000000C1224120C0000000000
:1030700000000000800000000000000018244488C8
:1030800044241800000000000000000000000000C0
:103090000000000000000000000000000000000030
:1030A0000000000000000000000000000000000020
:1030B000000000000000000000038380008080000A
:1030C000030300080B0B0F078040804083030303BA
:1030D00000000303030300038380808080C3C3C018
:1030E000C3C3C0C3C3C0C0C0C0C0808080C0C04014
:1030F0002018040300000000002050A05020000011
:1031000000000000000000000000000000000000BF
:1031100000000000000000000000000000000000AF
:10312000000000000000000000000000000000009F
:103130000000000000000000000304081108040360
:103140000000000000000000010284C2E1603010B5
:1031500078ECFCF63A1B0585971312131311111125
:103160001111110181FFF9F9F2C2822225058D8B1F
:1031700093B3E6C68C1C18387070E0C08000000065
:10318000000000182448241800000000000000007F
:10319000000000000000000000000000000000002F
:1031A000000000000000000000000000000000001F
:1031B0000000000000000000000080E0E070301817
:1031C000181C1C1C0C1C1616160627636DAECE0EA2
:1031D0000E0F0F0F0E060607070606060606060662
:1031E00006060666776767E7070707060606070706
:1031F00087C76723231210000808090B0F0E0E0C57
:103200003C70F0C0800000000000000000000000E2
:1032100000000000000000000000000000000000AE
:10322000000000000000000000000000000000009E
:10323000000000000000F0F8DEFFF63611E0F0F8C4
:10324000FCFEDE1E3F3F1EFEFEFCF8F2E408010716
:10325000FC00000000000000000000000000000072
:1032600000000000000000FF00000000003CFFE73D
:10327000311CE6FFFFFFFEFE1F3F3F1FFFFEFEFC6F
:10328000F8F8F031FBFFFEFC380000000000000001
:10329000000000000000000000000000000000002E
:1032A000000000000000000000000000000000001E
:1032B0000000000000000003074F4C60607F7F7F2C
:1032C0007F7D4D44727240797D7F7F7F7F7C7070FF
:1032D00073737070747474747474747474747474B8
:1032E00076767676767676737070727272737070A8
:1032F000707C7F7F7F7F7D7D62727260687D7F7F63
:103300007F7F7774676763000000000000000000A3
:1033100000000000000000000000000000000000AD
:10332000000000000000000000000000000000009D
:10333000000000000000000000000000000000008D
:10334000000000000000000000000000000000007D
:10335000000000000000000000000000000000006D
:10336000000000000000000000000000000000005D
:10337000000000000000000000000000000000004D
:10338000000000000000000000000000000000003D
:10339000000000000000000000000000000000002D
:1033A000C0330008000000203000000028010008A1
:1033B000F0330008300000206807000044010008D6
:1033C00000000000000000000000000000000000FD
:1033D00000000000000000000000000000000102EA
:1033E000030401020304060708090204060800009A
:04000005080000ED02
:00000001FF
