:020000040800F2
:100000006008002035020008292F0008FB2700089F
:10001000252F0008AD200008473D00080000000023
:100020000000000000000000000000006B38000825
:1000300009240008000000000932000855390008B2
:100040004F0200084F0200084F0200084F0200084C
:100050004F0200084F0200084F0200084F0200083C
:100060004F0200084F0200084F0200084F0200082C
:100070004F0200084F0200084F0200084F0200081C
:100080004F0200084F0200084F0200084F0200080C
:100090004F0200084F0200084F020008DD2400084C
:1000A0004F0200084F0200084F0200084F020008EC
:1000B0004F0200084F0200084F0200084F020008DC
:1000C0004F0200084F0200084F0200084F020008CC
:1000D0004F020008B93900084F0200084D3A0008E5
:1000E0004F0200084F0200084F02000800F002F81B
:1000F00000F090F80AA090E8000C82448344AAF132
:100100000107DA4501D100F085F8AFF2090EBAE82F
:100110000F0013F0010F18BFFB1A43F0010318473B
:10012000B06C0000D06C0000103A24BF78C878C1D1
:10013000FAD8520724BF30C830C144BF04680C60ED
:10014000704700000023002400250026103A28BF35
:1001500078C1FBD8520728BF30C148BF0B60704739
:100160006E2900F06782702900F0D983662905F0B6
:100170009F85652905F09C85672905F0998561298A
:1001800005F0988503681B0A28BF41F080016929A2
:1001900000F01482642900F01182752900F00E82AB
:1001A0006F2900F06683782900F0A583E92900F023
:1001B0000183E42900F0FE82F52900F0FB82EF299B
:1001C00000F06383F82900F0A4830368DB0928BFEB
:1001D00041F08001632900F07082732900F075827C
:1001E000E32900F0DD87F32900F0E2870020704763
:1001F0001FB501F033F804000020002105F042FD96
:10020000401C60600020002105F026FDE0601FBD5D
:1002100010B510BD00F0F4FF1146FFF7E9FF03F041
:10022000E5FD01F0D1F803B4FFF7F2FF03BC03F0E2
:10023000A7FD00000948804709480047FEE7FEE7A0
:10024000FEE7FEE7FEE7FEE7FEE7FEE7FEE7FEE786
:1002500004480549054A064B704700005939000813
:10026000ED0000086002002060080020600400200B
:1002700060040020704700007CB51D4616460C0047
:10028000009001D02044401E074B7B442A4669461B
:100290000190304600F0E7F905461CB100206946A0
:1002A00000F0F4F928467CBD090400000FB40449AD
:1002B00010B503AA029800F00DFA10BC5DF814FB0B
:1002C0000C00002070B50C460546012A05D02878A0
:1002D000800600D5EA69002302E0012305E05B1CEB
:1002E000934202D2E05C0028F9D1A869E618C01A4E
:1002F000A861286A18442862284600F026F904E01C
:10030000D5E9012114F8010B9047B442F8D32846EF
:1003100000F031F970BD00002DE9F05F8946044618
:100320004FF0000ADFF874B1FB44C0F820A020466B
:10033000E1688847002874D0252806D0D4E9012137
:100340009047206A401C2062F1E700265F46204665
:10035000E16888472028054607DB312D05D278194A
:1003600010F8200C08B10643F1E7B00701D526F0DC
:100370000406C4F81CA00027C4F818A02A2D09D030
:10038000284603F0F6FC38B304EB8708303DC8F884
:10039000185019E059F8041B204604EB87029161BC
:1003A000E1688847012F054618D1E069002820DA66
:1003B00026F020061DE0D8F8180000EB800005EBC1
:1003C00040003038C8F818002046E16888470546E4
:1003D00003F0CFFC0028EED1012F0AD02E2D08D13A
:1003E0002046E16888477F1C0546022F46F020061C
:1003F000C4DBA069002803DA404246F00106A06190
:10040000F00701D026F010066C2D0BD0682D09D016
:100410004C2D39D06A2D35D0742D35D07A2D33D06E
:1004200016E038E0E1682F4620468847B842054686
:1004300009D16C2F26D04FF48060E1680643204636
:100440008847054604E06C2F1AD04FF480700643AD
:100450000DB3A5F14100192802D8203546F40066F5
:100460004A462946204626604E46FFF779FE80B16F
:1004700001280BD0F61D26F0070000F1080956E709
:100480004020E4E78020D8E70020D6E706F1040901
:100490004DE7284652E7206ABDE8F09FA4690000B6
:1004A00010B5431C02E010F8011B71B18107FAD1AD
:1004B0004FF0013202C88C1A8C4314EAC211F9D0F1
:1004C000C01A0A0603D0C01E10BDC01A10BD0A040F
:1004D00001D0801E10BD0902FCD0401E10BD10B519
:1004E000203AC0F00B80B1E81850203AA0E818502C
:1004F000B1E81850A0E81850BFF4F5AF5FEA027CED
:1005000024BFB1E81850A0E8185044BF18C918C05B
:10051000BDE810405FEA827C24BF51F8043B40F8FC
:10052000043B08BF7047D20728BF31F8023B48BFE1
:1005300011F8012B28BF20F8023B48BF00F8012B1F
:100540007047704770477047704770B504468569BB
:100550000068C10601D5302600E02026C00707D07C
:1005600070BDD4E9012130469047206A401C2062CA
:100570006D1EF6D570BD70B5044685690078C0075C
:1005800007D170BDD4E9012120209047206A401C8A
:1005900020626D1EF6D570BD09684A0501D540B2CE
:1005A0007047C905FCD500B2704709684A0501D5F6
:1005B000C0B27047C905FCD580B270472DE9F04143
:1005C0000646002410687529314616A510D0FFF79D
:1005D000E3FF002802DA404213A507E031688A07EA
:1005E00001D512A502E0490704D511A5012401E0B7
:1005F000FFF7DBFF00210A2206F1240709E0B0FB28
:10060000F2FCB0FBF2F302FB1C00303078541846C9
:10061000491C0028F3D123462A463046BDE8F04164
:1006200000F0CDB9000000002D0000002B000000FC
:100630002000000011680268006A530501D50870A7
:100640000AE0D30501D5088006E0130603D5C217DA
:10065000C1E9000200E008600120704701694A1CFE
:1006600002610878704700B58FB0CDE901310021F3
:10067000059105497944CDE9031011466846FFF715
:100680004BFE0FB000BD0000E5FFFFFF0A6802F857
:10069000010B0A607047D1E900239A4202D2531C31
:1006A0000B601070704710B5436913B1AFF3008051
:1006B00001E0FFF707FE012010BD127800F12401D0
:1006C0000A7000224A700122EDE711684FF0FF32F4
:1006D000E9E70000074B70B50D467B44FFF7C3FF09
:1006E0000446284600F068FD10B14FF0FF3070BDA1
:1006F000204670BDF33600002DE9FF5F15468A469F
:100700000446DFF8AC80F8440027D8E900103E46E4
:10071000CDE9001010E03AF816106A4602A800F081
:100720004FFD411C07D02178890603D5E2693918AD
:1007300091420DD80744761C2078800602D5E069E6
:10074000B84205DDAE42E6DB3AF816000028E2D1F9
:10075000A069C01BA0612046FFF7F7FED8E9001092
:10076000CDE90010002017E03AF818106A4602A8F8
:1007700000F026FDB0F1FF3F81460BD000250DF1C2
:10078000080B05E0D4E901211BF8050090476D1C1A
:100790004D45F7D308F10100B0428046E4DB206A02
:1007A000384420622046FFF7E6FEBDE8FF9F0000C8
:1007B000DA6500002DE9F0418046D21D22F00702E3
:1007C0000025D2E90002F52915A614D0011E72F108
:1007D000000106DA0023D0EB030063EB020211A64E
:1007E00008E0D8F800108B0701D50FA602E04907F2
:1007F00001D50EA601251146002408F1240704E0C6
:1008000000F098F830323A55641C50EA0102F7D1F2
:100810002B46324621464046BDE8F04100F0CFB8B5
:10082000000000002D0000002B0000002000000050
:1008300030B4002100F1240408E002F00705D208DA
:10084000303542EA4372DB086554491C52EA03051D
:10085000F3D10468002310A2250707D5A40600D40D
:1008600021B1C46901230DA2641EC46130BC00F033
:10087000A6B810B5044621461068FFF796FE02465A
:100880002046BDE810400023D2E7D21D22F0070128
:10089000D1E90023CCE70000000000003000000098
:1008A000F0B40D460188090502D5214C7C4402E0D4
:1008B0001F4C7C440E34002100F1240608E002F0B5
:1008C0000F071209E75D42EA03721B097754491CBE
:1008D00052EA0307F3D102780023120704D5702DE2
:1008E00006D009B1022311342246F0BC00F067B8EB
:1008F00001231034F8E770B504460D462146106810
:10090000FFF753FE024629462046BDE8704000230B
:10091000C6E7D21D22F00703D3E90023C0E703682E
:10092000126843F0200303600823C3610023B7E784
:100930003C64000030B5B0F10A024FEA900E71F14C
:1009400000034EEA817EB0EB0E0061EB91014FEAAD
:10095000101E4EEA017E10EB0E0041EB11114FEA22
:10096000102E4EEA016E10EB0E0041EB11214FEA02
:10097000104E4EEA014E10EB0E0041EB11414018B3
:1009800041F100014FEAD00040EA41704FEAD10145
:1009900010EB80054FEA810444EA907444EB0104B3
:1009A0006D1944EB0404521BA3414FF0000348BFF0
:1009B0000A3200D530BD401C41F1000130BD2DE9A7
:1009C000F0470D4699469246044600F12408016816
:1009D000880604D5E06921F01001216000E00120C3
:1009E000A84201DD471B00E00027A1697A1902EB4C
:1009F0000900081AA0612078C00602D42046FFF73B
:100A0000A4FD002608E0D4E901211AF80600904769
:100A1000206A401C761C20624E45F4DB2078C0061C
:100A20000AD52046FFF791FD06E0D4E901213020E8
:100A30009047206A401C2062381EA7F10107F4DCB1
:100A400007E0D4E9012118F805009047206A401C0E
:100A50002062281EA5F10105F3DC2046FFF78BFD7F
:100A60002078000602D50220BDE8F0870120FBE7D0
:100A700070472DE9FF4F0C461E464FF0FF378BB0F5
:100A8000D2E90001DDF860800A908A46C1F30A5578
:100A900005B93D46002108464FF00000BAF1000FAD
:100AA00000F4400005DA00EB80004FF4400101EA59
:100AB00050004FEA9059B9F1010F00DDB9460A988C
:100AC00050EA4A000ED044F61050A5F2FF354543D7
:100AD0002F14B8F1000F1ED07542291E1EDDC9F17A
:100AE00000021CE0B8F1010F4FF0000001D03021EE
:100AF00003E0F24305E02154401CB042FBDB3046EA
:100B00000022002121540B99C1F80880C1E900207E
:100B10000FB0BDE8F08FBD1B6D1CDEE74A4600DA62
:100B2000694206A800F0DEFB06AB93E8070003ABC2
:100B300083E8070050460A9900F094FC8DE807000E
:100B4000A0F500501F3800900398002D0ADD42F2F6
:100B50001F014A460844002303A90390684600F099
:100B6000FDFE09E0A0F500504A461F38002303A906
:100B70000390684600F007FF8DE807000004000CB2
:100B800003D04FF0FF30410800E01046B8F1000FED
:100B900003D00022009215461EE0751E05D4FFF713
:100BA000C9FE303262556D1EF9D5B34601220843A5
:100BB00002D000227F1C04E02078302801D10022DE
:100BC0007F1E002A099784D01DE0112D07DAFFF758
:100BD000B1FE303262556D1C50EA0102F5D1084376
:100BE00002D00098C8B10EE00021681E05E0235C29
:100BF000625C63542254401E491C8142F7DBAB46C1
:100C0000A81B401E0990002004F80B000B98099ABD
:100C1000C0F80880C0E9002B7AE711264FF00008E1
:100C200057E72DE9F04F88460446D21D22F0070110
:100C300091B0D1E90001CDE90A0103F086F802463E
:100C40000B98C00F01D02D2007E02068810701D547
:100C50002B2002E0202101EAC000032A099001D0E4
:100C6000072A05DB03464146204600F0FBFA0BE16C
:100C70002078800601D5E06900E00620B8F1650F14
:100C8000814606D0B8F1660F18D0B8F1670F70D161
:100C900031E00020B9F1110F009001DB112301E0D8
:100CA00009F101030AAA01A90CA8FFF7E2FEDDE998
:100CB0000C70002609F10105834647E001204B46F0
:100CC00000904FF000470AAA01A90CA8FFF7D1FE37
:100CD000DDE90DB00C995D46002610B909F101005F
:100CE0000D18B9EB050003D4C0F1FF3609F1010579
:100CF000A5EB09002BE0B9F1010F01DA4FF0010972
:100D00000020B9F1110F0090484601DD112300E0E9
:100D100003460AAA01A90CA8FFF7ABFEDDE90C7097
:100D20004D4600268346207800070AD4AB4500DAFA
:100D30005D4601A8012D04DD411911F8011C30297F
:100D400007D04F4502DA17F1040F04DA012082467A
:100D50000FE06D1EEEE7002F02DCED1B3E4403E0CA
:100D6000781CA84200DD7D1CB81B00F1010A4FF081
:100D700000472078000703D4AA4501DB4FF0FF3A73
:100D80000021B7F1004F0DF143088DF8431024D036
:100D900002202B23002F01DA7F422D230A21021E7D
:100DA000A0F1010000DC5FB197FBF1FC97FBF1F2D1
:100DB00001FB1C7C17460CF1300C08F801CDEEE766
:100DC000A8F1010003702188090501D5452100E043
:100DD0006521A0F1010800F8011C09980FA9A1EBF9
:100DE0000807FF1D00B10120411901EBEA70A1695C
:100DF0003844081A401EA0612078C00602D420465C
:100E0000FFF7A3FB099828B1D4E901219047206A94
:100E1000401C20622078C00622D52046FFF795FBB3
:100E20001EE0002E04DBB34502DD01A8805D00E07A
:100E30003020D4E901219047206A401C2062761CB2
:100E4000AAF101005FEA000A0AD100F007FAC068BF
:100E50000168405CD4E901219047206A401C20626F
:100E6000281EA5F10105DCDC07E0D4E9012118F812
:100E7000010B9047206A401C2062381EA7F1010731
:100E8000F3DC2046FFF777FB032011B041E60000BA
:100E90002DE9F04F04460D46D21D22F0070089B01F
:100EA000D0E900974846394602F04FFF0246F80F56
:100EB00001D02D2307E02068810701D52B2302E014
:100EC000202101EAC0038DF820300BB1012000E0A1
:100ED0000020032A824601D0072A04DB2946204647
:100EE00000F0C0F93FE12078800601D40D2500E034
:100EF000E569C7F30A560D2D49DA00214FEA175B61
:100F000008464FF00000002F00F4400007DA00EB25
:100F100080004FF4400100EBD07001EA60008115C1
:100F2000012901DD4FF0FF3100224FEA850CBCF1B1
:100F3000180F06D31346ACF118004FF08052C24090
:100F400003E04FF4801323FA0CF30CF10C0CBCF10A
:100F5000200F04D3ACF1200C09FA0CF001E007FAE1
:100F60000CF000294FF0004801DD18B90FE00ED158
:100F700040450CD319EB02095F4121B9404502D12C
:100F80009F4329EA0209BBEB175F00D0761C20883B
:100F9000000502D57B48784402E07A487844193845
:100FA00008AA302302F80A30037C0AF10101002E5E
:100FB0000AF1020A53546A4602DC4FF0300101E0A4
:100FC0004FF031014FF001088DF8001002D0A6F269
:100FD000FF3603E059EA470100D06B4E002D02DCDA
:100FE0002178090704D54FF002082E218DF8011051
:100FF000C44600210BE0C7F303433F01C35C491C17
:101000006D1E02F80830052908F1010801DA002DEB
:10101000F1DC00210CE000EB1973491C1B786D1EFC
:10102000082902F808304FEA091908F1010801DA25
:10103000002DF0DC21688B0602D516E0A8F101082E
:10104000E04505DD02EB080313F8013C302BF5D039
:10105000B8F1000F09DD02EB080313F8013C2E2B59
:1010600003D1090701D4A8F10108002D05DD3E21B7
:1010700002F808106D1E08F10108407C002E02F8ED
:10108000080008F1010804DA2D20764202F8080071
:1010900002E02B2002F808000A214FF47A70864201
:1010A00008F101080BDB96FBF0F3303302F808304F
:1010B00096FBF0F308F1010800FB136601E0642ED3
:1010C0000CDB642096FBF0F3303302F8083096FB1B
:1010D000F0F308F1010800FB136601E00A2E06DBBD
:1010E00096FBF1F0303002F8080008F1010896FB99
:1010F000F1F001FB1060303002F80800A16908F13E
:10110000010808EB050202EB0A00081AA06120782A
:10111000C00602D42046FFF718FA216A08AE01EB98
:101120000A00206204E0D4E9012116F8010B90477F
:10113000BAF1010AF7D22078C00602D52046FFF79F
:1011400004FA6E4609E016F8010B3E280FD0D4E9E8
:1011500001219047206A401C2062B8F10108F2D2B8
:101160002046FFF708FA09B00320BDE8F08F206A97
:101170002844206203E0D4E90121302090476D1E0D
:10118000EBD3F8E78D5D000002FCFFFF10B543696B
:1011900013B1AFF3008001E0FFF7AEFA012010BDFC
:1011A000128800F1240182840022C2840122EDE72A
:1011B00011684FF0FF32E9E7007B00F080007047D4
:1011C00070B516460C46054600F040F8036893F8E3
:1011D0000101012806D0FF2C0FD8185D68B101204D
:1011E0002C7070BDD3F807013246214603F2071375
:1011F00003442846BDE8704018474FF0FF3070BDEB
:10120000754600F0EBF8AE4605006946534620F0FF
:101210000700854618B020B5FFF71AF8BDE8204052
:101220004FF000064FF000074FF000084FF0000BA2
:1012300021F00701AC46ACE8C009ACE8C009ACE855
:10124000C009ACE8C0098D467047000010B500F039
:1012500005F8001D10BD00BF2D4A00000048704772
:101260001C0200202DE9F0411F46044603260168B8
:10127000072A01F4006004DB08B116A505E016A5F5
:1012800003E008B115A500E015A521F010002060CD
:10129000A069C01EA0610FB1401EA0612046FFF7EB
:1012A00054F94FB1D4E9012138469047206A401CD7
:1012B0002062C01C206206E0206AFAE7D4E901211E
:1012C00015F8010B9047761EF8D22046FFF753F928
:1012D000BDE8F0814E414E006E616E00494E460001
:1012E000696E66002DE9F047814616468AB035489A
:1012F00078440DC88DE80D0032487844801C03AC5A
:101300000DC884E80D0041F69B300844372190FB5E
:10131000F1F290FBF1F5A5F1800501FB12041B3CF5
:1013200002D56442012000E00020DFF898A080464A
:101330000027FA44AAF1BE0A0EE0E0070AD03246BE
:10134000684607EB470101230AEB810100F01BFB14
:101350008DE8070064107F1C002CEED1194F7F44EC
:10136000AE3F19E0E80715D007EB04100DF1180A9D
:1013700090E80E008AE80E00C068F04201D198198A
:1013800008903246012306A903A800F0FCFA03AB3B
:1013900083E807006D10641C002DE3D14FF00103BA
:1013A00032466946B8F1000F03A802D000F0D6FA21
:1013B00001E000F0E8FAC9E90001C9F808200AB024
:1013C000BDE8F087C45A000010B50446AFF30080B2
:1013D0002046BDE81040FEF726BF000000487047D9
:1013E000FC0100204FF0013C50F8042B51F8043B65
:1013F0009A4221D1A2EB0C03934313EACC1317D1E9
:1014000050F8042B51F8043B9A4215D1A2EB0C037F
:10141000934313EACC130BD150F8042B51F8043B3F
:101420009A4209D1A2EB0C03934313EACC13DBD00D
:101430004FF00000704700BFD01A01BAB1FA81F135
:1014400001F0180122FA01F0CB40C1F12001DBB21A
:10145000C0B2C01A2CFA01F3D11A914311EAC31198
:10146000E6D170475FEA400C08BF91F0000F4FEAE9
:101470008C234FEAC12243EA51514FEA1C5018BF56
:1014800000F5F0404FEA300018BF41F000415FEA3C
:101490006C5C00F02980BCF1FF3F08BF40F0804049
:1014A0007047130C06BF12044FF0100C4FF0000CE5
:1014B000130E04BF12020CF1080C130F04BF12012B
:1014C0000CF1040C930F04BF92000CF1020CD30F2B
:1014D00004BF52000CF1010C11464FF00002A0F1C4
:1014E0001F00A0EB0C00704711F0004F08BF7047C1
:1014F00031F000413FF4D5AF0B0C06BF09044FF0AB
:10150000100C4FF0000C0B0E04BF09020CF1080C7C
:101510000B0F04BF09010CF1040C8B0F04BF8900F1
:101520000CF1020CCB0F04BF49000CF1010CCCF103
:101530002003A0EB0C0022FA03F302FA0CF241EABA
:10154000030100F10100704720F07F4C80EA0300A6
:1015500023F07F47ACEB070303F57C5300F000401A
:1015600003F1FF032DE980494FEA154B09B44FEA17
:10157000144325EA0B4E24EA03480FF2042606EB37
:10158000132749083E785FEA320203FB0667C7F576
:10159000000707FB06F64FEA54374FEAD64606F136
:1015A000020607FB066CCCF1005C4FEA1C472CEAF4
:1015B000074C07FB06F40CFB06F504EB15464FEA57
:1015C000961634BF00204FF000404FEAD13706FB9B
:1015D00007FC4FEA1C4C0CFB0BF7D21B03FB0CF770
:1015E00061EB07010CFB0EF7B0EB074072EB174203
:1015F0000CFB08F734BFA2EB0742B2EB074261EBEA
:1016000017414FEA0C444FEA910706FB07FC4FEAEB
:101610001C4C0CFB0BF7B0EBC74072EB573203FBD3
:101620000CF734BFA2EBC742B2EBC74261EB5731B4
:101630000CFB0EF7B0EBC70072EB57720CFB08F710
:1016400034BFA2EBC702B2EBC70261EB5771039F35
:101650004FEA816141EA921104EBCC044FEAD137A1
:101660004FEA826206FB07FC42EA90124FEA806072
:101670004FEA1C4C0CFB0BF7D21B03FB0CF761EB86
:1016800007010CFB0EF7B0EB074072EB17420CFBA7
:1016900008F734BFA2EB0742B2EB074261EB1741F8
:1016A0004FEA8C554FEA910704EB9C2406FB07FC9C
:1016B0004FEA1C4C0CFB0BF7B0EBC74072EB5732F8
:1016C00003FB0CF734BFA2EBC742B2EBC74261EB9E
:1016D00057310CFB0EF7B0EBC70072EB57720CFBE7
:1016E00008F734BFA2EBC702B2EBC70261EB577138
:1016F00015EB4C254FEA816141EA92114FEA826273
:101700004FEAD13742EA901206FB07FC44F100048D
:101710004FEA80604FEA1C4C0CFB0BF7D21B03FB1B
:101720000CF761EB07010CFB0EF7B0EB074072EB17
:1017300017420CFB08F734BFA2EB0742B2EB07429B
:1017400061EB174115EB1C154FEA813141EA9241DB
:101750004FEA823242EA90424FEA80304FEA0C76FA
:1017600044F1000448EA03434EEA0B484FF0000EF0
:10177000B2EB080C71EB030724BF624639464EEB0F
:101780000E0E4FF0000B0018524149414BEB0B0B72
:10179000B2EB080C71EB03077BF1000B24BF624630
:1017A00039464EEB0E0E4FF0000B001852414941E6
:1017B0004BEB0B0BB2EB080C71EB03077BF1000B4F
:1017C00024BF624639464EEB0E0E51EA020718BF9F
:1017D00046F0010616EB0E7655F1000254F10001B9
:1017E00003D5BDE88901BDE80088BDE88901BDE8F1
:1017F0000048B619524141EB0101A3F101037047C2
:1018000080807F7E7D7C7B7A79787776767574733D
:10181000727171706F6E6E6D6C6C6B6A6A696868FC
:10182000676666656464636362616160605F5F5E92
:101830005E5D5D5C5C5B5B5A5A5959585857575608
:10184000565555555454535352525251515050506D
:101850004F4F4F4E4E4D4D4D4C4C4C4B4B4B4A4ABF
:101860004A49494948484847474747464646454503
:10187000454444444443434343424242424141413C
:10188000002B9C4630D477002BD01CB54FEA37078D
:1018900003B44FF010004FF01001BAF1000F06D062
:1018A000BCF1000FDCBF40F0080040F008014FF031
:1018B00000000FBCBDE810400BF1010BBBF1010FA4
:1018C00008BF5FEA170722BF12F1010211F10101FF
:1018D0004FF0004143F1000300F0004043EA0000F4
:1018E0007047F9D35708D0E746EA064613F1400F90
:1018F0004FEA16461FDD13F1200FDFBF16430A46DD
:10190000002120335B42BED0C3F1200746EA0646E1
:1019100002FA07F74FEA164646EA0706C3F1200720
:1019200022FA03F201FA07F721FA03F14FF000035C
:1019300042EA0702A7E746EA020646EA06464FEAF7
:10194000164646EA0106BCBF46EA0646360C4FF08C
:1019500000034FF000024FF0000194E72DE9804CA6
:101960009A46934670B491E8380007C831EA400CB3
:1019700048BF34EA430C03D5FFF7E6FDFFF780FFCD
:10198000F0BCBDE8008C2DE9804C9A46934670B4BB
:1019900091E8380007C810F0804F08BF13F0804F5F
:1019A00003D100F005F8FFF76BFFF0BCBDE8008C39
:1019B00020F07F4780EA030023F07F4C07EB0C0305
:1019C000A3F57C5300F00040A3F1FE0392F0000F5A
:1019D00000F0B38095F0000F00F077802DE9014909
:1019E0004FEA11404FEA144621EA004800FB06FC8A
:1019F00024EA064708FB06F607FB08F800FB07F792
:101A000018EB06484CEB164C4FEA124B18EB074804
:101A10004FEA15464CEB174022EA0B4E0BFB06FC37
:101A200025EA06470EFB06F607FB0EFE0BFB07F743
:101A30001EEB064E4CEB164C4FF000061EEB074E0D
:101A40004CEB174B18EB0B0840F1000018EB0E0B9A
:101A500058EB000840F100008F1A4FF000013CBF26
:101A6000C943661B14BFB5EB040C00213CBFC9433E
:101A7000F61B4FEA17444EEA8E0E27EA04454FEA5A
:101A80001C4704FB07622CEA074C05FB07F70CFB1D
:101A900005F604FB0CFC16EB074642EB174216EB6F
:101AA0000C4642EB1C421BEB060658EB020241417E
:101AB00046EA9E0601D5BDE80189B619524141EBBF
:101AC0000101A3F10103BDE801894FEA14454FEA82
:101AD000114724EA054621EA074C05FB07F406FBFB
:101AE00007F70CFB06F105FB0CFC11EB074144EB7F
:101AF00017444FEA124711EB0C4144EB1C4422EA15
:101B0000074C05FB07F206FB07F70CFB06F605FB87
:101B10000CFC16EB074642EB174216EB0C4642EB69
:101B20001C456A1854F1000148BF7047B61952416C
:101B300041EB0101A3F10103704795F0000F37D08D
:101B40004FEA11424FEA144721EA024624EA074CC1
:101B500002FB07F106FB07F70CFB06F402FB0CFC8B
:101B600014EB074441EB17414FEA154714EB0C44C3
:101B700041EB1C4125EA074C02FB07F506FB07F782
:101B80000CFB06F602FB0CFC16EB074645EB174573
:101B900016EB0C4645EB1C42121951F1000148BFEF
:101BA0007047B619524141EB0101A3F1010370479F
:101BB0004FEA14454FEA114724EA054621EA074C4B
:101BC00005FB07F106FB07F70CFB06F24FF00006DA
:101BD00005FB0CFC12EB074241EB174112EB0C42E8
:101BE00051EB1C4148BF7047921841EB0101A3F132
:101BF00001037047CA430260704721B1826842F016
:101C00000102826003E0826822F001028260704774
:101C100000B585B000F082F800F054F801208DF88E
:101C20000500002003904FF46020029000200090F7
:101C300003208DF8100001208DF8040069461A4831
:101C400000F0A4F8022301220421174800F0C6F88E
:101C500002231A460521144800F0C0F8022303228B
:101C60000121114800F0BAF801210F4800F01EF8D8
:101C700001210D48FFF7C1FF0B4800F00BF900BF31
:101C8000094800F078F80028FAD1074800F012F966
:101C900000BF054800F05CF80028FAD10121024895
:101CA00000F0FDF805B000BD0024014021B18268BC
:101CB00042F48072826003E0826822F48072826063
:101CC0007047000000B58BB0114800F0D9FA03202E
:101CD0000390002002900A900E4801904FF480601B
:101CE000079080200590202008900B4800908015D8
:101CF0000690002004904FF4005009906946044873
:101D000000F064FB0121024800F0AEFA0BB000BD08
:101D100008000240140000204C24014008B50121B5
:101D2000042001F093FA0121084601F06FFA012125
:101D3000480201F08BFA3220ADF8000000208DF847
:101D400003006946014800F0BBFC08BD00080140E3
:101D5000014600208A6802F004020AB1012000E076
:101D6000002070470246002013680B400BB1012091
:101D700000E000207047014600208A6802F0080257
:101D80000AB1012000E000207047000030B5024693
:101D90000020002350680F4C20400D790C6844EA65
:101DA00005242043506090680B4C2040D1E9025438
:101DB0002C434D7944EA450420439060D06A20F4D6
:101DC00070000C7C641EE4B2234340EA0350D062EE
:101DD00030BD0000FFFEF0FFFDF7F1FFF0B5044657
:101DE0000D4600200021092D11DDE068A5F10A064D
:101DF00006EB4607072606FA07F18843A5F10A060F
:101E000006EB460603FA06F10843E0600CE02069A1
:101E100005EB4507072606FA07F1884305EB45065B
:101E200003FA06F108432061072A0FDA606B561E99
:101E300006EB86071F2606FA07F18843561E06EBB7
:101E4000860605FA06F10843606322E00D2A0FDAE0
:101E5000206BD61F06EB86071F2606FA07F188437C
:101E6000D61F06EB860605FA06F10843206310E04C
:101E7000E06AA2F10D0606EB86071F2606FA07F1B7
:101E80008843A2F10D0606EB860605FA06F1084323
:101E9000E062F0BD816841F008018160704721B1C6
:101EA000826842F4A002826003E0826822F4A00209
:101EB00082607047816841F004018160704710B50D
:101EC00001214FF0C05001F0B1F9012001F096F965
:101ED00010BD10B5012001F0C9F9002001F0C6F9CC
:101EE00010BD000008B50146002000900348009096
:101EF0000098084400900098008808BD006C0040DD
:101F000008B500220092044A0092009A024400920E
:101F1000009A116008BD0000006C004010B500245C
:101F200013E0002220210A4800F062FC4FF4FA700E
:101F300001F036FF01222021054800F059FC4FF442
:101F4000FA7001F02DFF601C84B2C82CE9DB10BDD3
:101F5000000C014010B5002411E00022202120488F
:101F600000F046FCC82001F01BFF012220211C4884
:101F700000F03EFCC82001F013FF601C84B2962CD8
:101F8000EBDB002413E000222021154800F030FC98
:101F90004FF4967001F004FF01222021104800F058
:101FA00027FC4FF4967001F0FBFE601C84B2642C99
:101FB000E9DB002411E000222021094800F018FC90
:101FC000642001F0EDFE01222021054800F010FC04
:101FD000642001F0E5FE601C84B2FA2CEBDB10BD3E
:101FE000000C014010B5002411E0002220212148FE
:101FF00000F0FEFBC82001F0D3FE012220211D4885
:1020000000F0F6FBC82001F0CBFE601C84B2B4F5F2
:10201000E17FEADB002413E000222021154800F0D4
:10202000E7FB4FF4C87001F0BBFE012220211148EC
:1020300000F0DEFB4FF4C87001F0B2FE601C84B209
:10204000FA2CE9DB002411E000222021094800F0ED
:10205000CFFB642001F0A4FE01222021054800F0FE
:10206000C7FB642001F09CFE601C84B2B4F5E17FE4
:10207000EADB10BD000C014008B50121082001F089
:10208000E5F810208DF803002020ADF800000320B3
:102090008DF802006946044800F012FB012220215D
:1020A000014800F0A5FB08BD000C014000BFFEE7A1
:1020B00010B5002400F02AF804E0601CC4B201202E
:1020C00001F06EFE4FF480510F4800F084FB08B120
:1020D000502CF2DB502C01DA002401E0012010BD6D
:1020E00004E0601CC4B2012001F05AFE4FF480519C
:1020F000054800F070FB08B9642CF2DB642C01DDAC
:102100000120ECE70020EAE70008014008B50121C2
:10211000042001F09BF84FF48050ADF800004820F7
:102120008DF803006946024800F0CAFA08BD0000B5
:102130000008014008B50121042001F087F84FF4A0
:102140008050ADF8000010208DF8030003208DF8BA
:1021500002006946014800F0B3FA08BD00080140DA
:1021600010B500F003F8FFF7A3FF10BD10B5FFF79F
:10217000E1FF4FF48051074800F036FB142001F0D6
:1021800002FE4FF48051034800F030FB282001F09C
:1021900007FE10BD0008014010B5002404E0601CDB
:1021A000C4B2012001F0FCFD4FF48051104800F052
:1021B00012FB08B1642CF2DB002404E0601CC4B202
:1021C000012001F0EDFD4FF48051094800F003FBC0
:1021D00008B9642CF2DB282001F0E2FD4FF48051B5
:1021E000034800F0F8FA08B1012010BD0020FCE718
:1021F0000008014070B5002506E06006040EFFF7F8
:10220000CBFF0443681CC5B2082DF6DB204670BD29
:102210007CB50446FFF7AAFFFFF74AFF00BB002585
:1022200005E0FFF7E7FF0DF80500681CC5B2052DB6
:10223000F7DB9DF800009DF8011008449DF802109E
:1022400008449DF8031008449DF80410884209D101
:102250009DF800002070641C9DF80200207001E0D1
:1022600001207CBD0020FCE721B1026842F00102A0
:10227000026004E002684FF6FE731A400260704785
:1022800001684FF6FE72114001600021016041605B
:102290008160C1604B49884208D14A490839496880
:1022A00041F00F01474A083A51608AE0454914312C
:1022B000884208D143490839496841F0F001414A50
:1022C000083A51607DE03F492831884208D13D49B4
:1022D0000839496841F470613A4A083A516070E03F
:1022E00038493C31884208D136490839496841F4B7
:1022F0007041344A083A516063E0324950318842B3
:1023000008D130490839496841F470212D4A083A0A
:10231000516056E02B496431884208D12949083977
:10232000496841F47001274A083A516049E025495B
:102330007831884208D123490839496841F07061F1
:10234000204A083A51603CE01F49884206D1011FEB
:10235000096841F00F01021F116032E01A4914317F
:10236000884208D11849091F096841F0F001164A4E
:10237000121F116025E014492831884208D1124902
:10238000091F096841F470610F4A121F116018E0BB
:102390000D493C31884208D10B49091F096841F4B5
:1023A0007041094A121F11600BE007495031884201
:1023B00007D10549091F096841F47021024A121F1B
:1023C00011607047080002400804024010B5002266
:1023D000026847F6F0739A430C6A8B6823430C69D2
:1023E00023434C6923438C692343CC6923434C6AC0
:1023F00023438C6A23431A430260CB6843600B6813
:1024000083604B68C36010BD70470EB50121042086
:1024100000F01CFF0121084600F018FF06210020F3
:1024200000F02EF94020009001208DF806000020D9
:102430008DF804000C208DF80500684600F0BCF80B
:1024400017208DF8080001208DF80B0002208DF870
:1024500009008DF80A0002A800F08CFD0721002079
:1024600000F00EF98020009001208DF80600002079
:102470008DF804000C208DF80500684600F09CF8EB
:1024800017208DF8080001208DF80B0002208DF830
:1024900009008DF80A0002A800F06CFD0EBD0000D6
:1024A00008B501210C2000F0D1FEC020ADF80000DD
:1024B00048208DF803006946064800F001F9042021
:1024C000ADF8000048208DF803006946024800F08E
:1024D000F7F808BD00080140000C014010B540208D
:1024E00000F056F8002831D0642000F034FD0421BB
:1024F000204800F070F920490870032000F01BFD0F
:1025000040211E4800F067F9E8B91B48007810B96F
:1025100001201B49087018480078012802D10220C8
:1025200017490870002404E0601C84B2142000F0F5
:1025300012FD4021114800F04EF918B94EF6602006
:102540008442F1DB00BF402000F01CF8802000F046
:102550001FF868B1142000F0EEFC8021074800F05D
:102560003AF910B9032006490870802000F00AF8F3
:1025700010BD0000000C01401B00002000080140BD
:102580001A0000200149086070470000140401404F
:10259000014600200022074B1B6803EA0102054B9D
:1025A00014331B680B4013B10AB1012000E0002076
:1025B0007047000000040140002123498279002A6D
:1025C0003AD00A46126803689A430B461A600A1DFD
:1025D000126803689A430B1D1A60027911440A6855
:1025E00003681A430A60184A0832126803689A435B
:1025F000154B08331A601A1D126803689A43124B70
:102600000C331A604279102A0ED11A1F126803681F
:102610001A430D4B08331A601A1D126803681A43D7
:10262000094B0C331A600DE00749427911440A68DE
:1026300003681A430A6005E0027911440A680368D6
:102640009A430A6070470000000401400549096888
:1026500021F01001034A116011460968014311601D
:10266000704700000020024001460020034A106825
:1026700000F038000843106070470000002002405E
:1026800030B500228B071C0F0F2303FA04F20B4B0B
:102690008C1053F824309343084C8D1044F82530A7
:1026A00023468C1053F824308C07240F00FA04F4CE
:1026B0002343024C8D1044F8253030BD0800014002
:1026C0002DE9F041024600250026002000230024C9
:1026D000002791F803C00CF00F0591F803C00CF02F
:1026E000100CBCF1000F03D091F802C04CEA0505B4
:1026F00091F800C0BCF1000F31D0146800202BE02D
:102700004FF0010C0CFA00F3B1F800C00CEA03061C
:102710009E4220D183004FF00F0C0CFA03F7BC430C
:1027200005FA03FC4CEA040491F803C0BCF1280F3D
:1027300006D14FF0010C0CFA00FCC2F814C00AE0FC
:1027400091F803C0BCF1480F05D14FF0010C0CFA11
:1027500000FCC2F810C0401C0828D1D31460B1F8A6
:1027600000C0BCF1FF0F34DD546800202EE000F102
:10277000080C4FF0010808FA0CF3B1F800C00CEA9D
:1027800003069E4221D183004FF00F0C0CFA03F791
:10279000BC4305FA03FC4CEA040491F803C0BCF105
:1027A000280F05D100F1080C08FA0CF8C2F81480C3
:1027B00091F803C0BCF1480F07D100F1080C4FF0AD
:1027C000010808FA0CF8C2F81080401C0828CED383
:1027D0005460BDE8F0810246002093680B400BB1C5
:1027E000012000E00020704741617047016170479F
:1027F0000AB1016100E04161704700BFFEE721B10D
:10280000028842F48062028004E002884FF6FF33BF
:102810001A400280704770B502460024002500234C
:102820000020958A138B1B0445EA030626F07F449B
:1028300004EA01068E4201D1012000E0002070BDB3
:1028400021B1028842F00102028004E002884FF6C2
:10285000FE731A40028070471FB500F021F8002077
:10286000ADF804004BF6FF70ADF80600C020ADF8DF
:1028700008004FF48060ADF80A000001ADF80C00CC
:10288000054800906946054800F05AF801210348C0
:10289000FFF7D6FF1FBD0000400D030000540040AD
:1028A00008B50121082000F0D1FC0121480500F005
:1028B000BDFCC020ADF800001C208DF803000320F3
:1028C0008DF8020069460248FFF7FAFE08BD0000D5
:1028D000000C014021B1028842F48072028004E0C1
:1028E00002884FF6FF631A400280704721B10288C8
:1028F00042F40072028004E002884FF6FF531A404F
:10290000028070470CB5024600200023019300931B
:1029100000920B0F019321F07F41019B1BB1009BA3
:102920001433009303E0090C009B18330093009BC1
:102930001B680B400BB1012000E000200CBD000023
:102940002DE9F04385B004460D460026B146042724
:10295000DFF8CC80A6884FF6C0700640684600F0CD
:10296000EDFCDDF808802F48B8FBF0F01FFA80F985
:1029700046EA0906A68020884FF6FE7108402080AE
:1029800000262949286888420CD828684000B8FBEE
:10299000F0F087B2042F00DA04273E4309F101006A
:1029A000208427E0E8884BF6FF71884206D128682A
:1029B00000EB4000B8FBF0F087B209E0286800EBBC
:1029C000C00101EB0010B8FBF0F087B247F480477C
:1029D000C7F30B0008B947F0010747F4004006436E
:1029E0004FF4967009FB00F04FF47A7190FBF1F010
:1029F000401C2084A683208840F001002080268887
:102A00004FF6F5300640A8886989084306432680BA
:102A1000A88929890843208105B0BDE8F08300001A
:102A200000127A0040420F00A08601002DE9F0411B
:102A300006460F4615461C4600BF4FF4003132488B
:102A4000FFF760FF0028F8D101212F48FFF742FF70
:102A500000BF2E492C48FFF7DEFE0028F9D00022E7
:102A60003146294800F05AF800BF29492648FFF7A7
:102A7000D2FE0028F9D001212348FFF7E1FE3946B4
:102A8000214800F054F800BF2149891C1E48FFF777
:102A9000C2FE0028F8D001211B48FFF71BFF00BF32
:102AA0001A491948FFF7B7FE0028F9D0012231462C
:102AB000154800F033F800BF1449491C1248FFF7CD
:102AC000AAFE0028F8D016E0012C07D100210E48FC
:102AD000FFF795FE01210C48FFF708FF0B493F3136
:102AE0000948FFF798FE30B1074800F013F8287046
:102AF0006D1C601E84B2002CE6D101210248FFF754
:102B00007EFEBDE8F081000000540040010003009B
:102B1000820007000146088AC0B2704712B141F036
:102B2000010102E04FF6FE731940018270470182F5
:102B3000704700002DE9F04105460F4614461E4639
:102B400001211D48FFF7C6FE00BF1C491A48FFF7C8
:102B500062FE0028F9D0002229461748FFF7DEFF61
:102B600000BF17491448FFF756FE0028F9D0394630
:102B70001148FFF7DCFF00BF1149891C0E48FFF721
:102B80004AFE0028F8D00CE021780B48FFF7CFFF71
:102B9000641C00BF0A49891C0748FFF73CFE002857
:102BA000F8D0301EA6F101018EB2EDD1012102480C
:102BB000FFF79CFEBDE8F0810054004001000300D7
:102BC0008200070070B504460E46154601211948DB
:102BD000FFF780FE00BF18491648FFF71CFE0028CB
:102BE000F9D0002221461348FFF798FF00BF134990
:102BF0001048FFF710FE0028F9D031460D48FFF7C6
:102C000096FF00BF0D49891C0A48FFF704FE002803
:102C1000F8D029460748FFF78AFF00BF0749891CFB
:102C20000448FFF7F8FD0028F8D001210148FFF71C
:102C30005DFE70BD005400400100030082000700EB
:102C40002DE9F04705460C4616464FF0000AA01C39
:102C5000C4B2D1463AE005F1B000C2B200217820FA
:102C6000FFF7B0FF2746E01704EB1070001110309B
:102C7000C2B200217820FFF7A5FFE01704EB107027
:102C80000011A4EB0010C2B200217820FFF79AFFD8
:102C90004FF0000811E00AEB46101149085CC043F0
:102CA000C2B240217820FFF78DFF0AF1010000F049
:102CB000FF0A08F1010000F0FF08B8F1100FEADB8D
:102CC000681CC5B209F1010000F0FF09B9F1020F5B
:102CD000C1DBAF2200217820FFF774FFBDE8F08749
:102CE000D06200082DE9F04705460C4616464FF025
:102CF000000AA01CC4B2D1463CE005F1B000C2B24B
:102D000000217820FFF75EFF2746E01704EB1070E4
:102D100000111030C2B200217820FFF753FFE017F6
:102D200004EB10700011A4EB0010C2B20021782057
:102D3000FFF748FF4FF0000813E00AEB0610A0F57C
:102D400000700F49085CC043C2B240217820FFF7F1
:102D500039FF0AF1010000F0FF0A08F1010000F05C
:102D6000FF08B8F1080FE8DB681CC5B209F10100E3
:102D700000F0FF09B9F1020FBFDBBDE8F0870000EA
:102D8000D05C00080146CA1701EB92729210A1EBC9
:102D9000820292B9642091FBF0F200FB121050B94C
:102DA0004FF4C87091FBF0F200FB121008B901203B
:102DB00070470020FCE70120FAE70020F8E7000058
:102DC00008B50121082000F041FA0320ADF8000009
:102DD00010208DF8030001208DF80200694602489A
:102DE000FFF76EFC08BD0000000C0140F8B5064678
:102DF0000024002502236A4600219E20FFF716FECC
:102E00009DF800400020307004F0800028B10120BF
:102E10003070E043C4B2601CC4B204F0010008B1D9
:102E2000681CC5B204F0020008B1A81CC5B204F0C9
:102E3000040008B1281DC5B204F0080010B105F166
:102E40000800C5B204F0100010B105F11000C5B2C1
:102E500004F0200010B105F12000C5B204F04000DC
:102E600010B105F14000C5B2761C357000259DF803
:102E7000014004F0200010B105F10C00C5B204F0CF
:102E8000400010B105F11900C5B204F0800010B186
:102E900005F13200C5B2761C3570F8BD10B54FF49F
:102EA000165000F0EFFD00F01FF810BD10B502A0A5
:102EB00000F040FE10BD00007E031310EF00000084
:102EC00010B502A000F036FE10BD00007E03111206
:102ED000EF00000010B502A000F02CFE10BD0000B5
:102EE0007E031417EF00000010B502A000F022FED0
:102EF00010BD00007E031E1DEF00000010B502A0F3
:102F000000F018FE10BD00007E031615EF00000053
:102F100010B502A000F00EFE10BD00007E031516D5
:102F2000EF00000000BFFEE7704710B54FF4A0604F
:102F300000F058F810BD002107E042F6E06100BF44
:102F40000A1EA1F1010399B2FAD1021EA0F10103F8
:102F500098B2F2D17047002106E00A2100BF0A1E94
:102F6000A1F1010399B2FAD1021EA0F1010398B2B6
:102F7000F3D1704770B5002100230F22C47804B349
:102F8000154C246804F4E064C4F5E064210AC1F13E
:102F90000403CA40447804FA03F1847814402143BE
:102FA00009010E4C0678A155047804F01F05012490
:102FB000AC4005786D11AD0005F1E025C5F8004184
:102FC00009E0047804F01F050124AC40044D0678A4
:102FD000761145F8264070BD0CED00E000E400E0FD
:102FE00080E100E002490143024A1160704700009D
:102FF0000000FA050CED00E010B500F0D3F800F089
:10300000A1F800F0DDF810BD2DE9F04705460C46AB
:1030100016464FF0000AA01CC4B2D14638E005F1B4
:10302000B000C2B200217820FFF7CCFD2746E017A0
:1030300004EB107000111030C2B200217820FFF7AD
:10304000C1FDE01704EB10700011A4EB0010C2B238
:1030500000217820FFF7B6FD4FF000080FE00AEBE3
:10306000461010490A5C40217820FFF7ABFD0AF1B9
:10307000010000F0FF0A08F1010000F0FF08B8F1BC
:10308000100FECDB681CC5B209F1010000F0FF096C
:10309000B9F1020FC3DBAF2200217820FFF792FDC8
:1030A000BDE8F087D06200082DE9F04705460C46E0
:1030B00016464FF0000AA01CC4B2D1463AE005F112
:1030C000B000C2B200217820FFF77CFD2746E01750
:1030D00004EB107000111030C2B200217820FFF70D
:1030E00071FDE01704EB10700011A4EB0010C2B2E8
:1030F00000217820FFF766FD4FF0000811E00AEB91
:103100000610A0F500700E490A5C40217820FFF7F8
:1031100059FD0AF1010000F0FF0A08F1010000F07A
:10312000FF08B8F1080FEADB681CC5B209F101001D
:1031300000F0FF09B9F1020FC1DBBDE8F087000024
:10314000D05C000870B5B0241BE022460021782036
:10315000FFF738FD102200217820FFF733FD002211
:1031600011467820FFF72EFD002506E000224021C1
:103170007820FFF727FD681CC5B2842DF6DB601CA4
:10318000C4B2B82CE1DB70BD10B504468122002129
:103190007820FFF717FD224600217820FFF712FD67
:1031A00010BD000008B505A00068009002236A4623
:1031B00000217820FFF7BEFC08BD0000AE8D0000A6
:1031C00000B587B01C2206A16846FDF788F91C23CC
:1031D0006A4600217820FFF7ADFC07B000BD000073
:1031E000AE0010D580A83FD300B0408D14A1C8DA3E
:1031F0001281FFD9F1DB302000A4A6AF014908629B
:103200007047000000000E427047000029B1064AD6
:1032100052690243044B5A6104E0034A52698243F3
:10322000014B5A61704700000010024029B1064A64
:10323000D2690243044BDA6104E0034AD269824353
:10324000014BDA61704700000010024029B1064AC4
:1032500092690243044B9A6104E0034A92698243F3
:10326000014B9A617047000000100240014908605C
:1032700070470000400442420348406A40F08070BA
:1032800001494862704700000010024010B500F08C
:103290002FF84FF4803000F0EDF800F071F904469B
:1032A000012C24D14FF4E011000400F041F900207A
:1032B00000F0D4F8A00200F01DF9002000F026F97B
:1032C0000220FFF7D1F91020FFF7C0F9012000F02C
:1032D00029F900BF392000F09BF80028FAD002201D
:1032E00000F042F900BF00F0B1F80828FBD110BD92
:1032F0000F48006840F001000D490860084640682A
:103300000C4908400A494860084600680A490840D4
:10331000074908600846006820F4802008600846D5
:10332000406820F4FE0048604FF41F00886070473A
:10333000001002400000FFF8FFFFF6FE30B500214C
:103340000022002400232D4D6D6805F00C0121B1F1
:10335000042905D0082923D105E0294D056022E084
:10336000274D05601FE0254D6D6805F47012234D53
:103370006D6805F48034022505EB92421CB9214D9D
:10338000554305600BE01D4D6D6805F400351DB11A
:103390001C4D5543056002E0194D5543056002E0A0
:1033A000174D056000BF00BF144D6D6805F0F001BA
:1033B0000909154D6B5C0568DD4045600F4D6D6872
:1033C00005F4E061090A104D6B5C4568DD408560DD
:1033D0000A4D6D6805F46051C90A0B4D6B5C456878
:1033E000DD40C560054D6D6805F44041890B074D12
:1033F0006B5CC568B5FBF3F5056130BD001002409C
:1034000000127A0000093D001C0000202C00002062
:1034100010B501460022002300204A11012A02D1E2
:10342000094C236806E0022A02D1074C236A01E016
:10343000054C636A01F01F02012494401C400CB14A
:10344000012000E0002010BD00100240024840684A
:1034500000F00C0070470000001002400146002000
:10346000034A506820F0F0000843506070470000A5
:10347000001002401149096821F480310F4A11609F
:103480001146096821F480211160B0F5803F03D016
:10349000B0F5802F0ED106E00849096841F480316B
:1034A000064A116007E00549096841F4A021034A72
:1034B000116000E000BF00BF704700000010024034
:1034C00000210B4A11700A4A203A82F82010012884
:1034D00002D0042808D103E00121054A117004E05C
:1034E0000521034A117000E000BF00BF70470000D3
:1034F0002010024001460020034A506820F4E0609A
:103500000843506070470000001002400146002050
:10351000034A506820F4605040EAC1005060704790
:103520000010024001490866704700000000424256
:1035300002460020044B586820F47C1042EA010344
:103540001843014B58607047001002400149086061
:10355000704700003C0442420249096A0143014AA3
:10356000116270470010024001460020034A506873
:1035700020F0030008435060704700000010024034
:1035800038B5002000900024002500BF3120FFF74F
:103590003FFF05460098401C00900098B0F5A06FD2
:1035A00001D0002DF2D03120FFF732FF08B1012405
:1035B00000E00024204638BD10B50420FEF792FC40
:1035C0004AF2A551884207D000F02AF84AF2A551E4
:1035D0000420FEF795FC0DE07B20FFF719FF10B9E2
:1035E0007A20FFF715FFFFF747FE0120FFF7AEFF38
:1035F00000F0F0F810BD00000348008840F0100013
:1036000001490880704700000428004003480088F2
:103610004FF6EF71084001490880704704280040C8
:1036200010B501214FF0C050FFF700FE0120FFF759
:10363000E5FDFEF74EFC0120FFF742FF00BF4120F1
:10364000FFF7E6FE0028FAD04FF48070FFF784FF02
:103650000120FFF77BFF00F0BDF800F0B1F847F65E
:10366000FF7000F09DF800F0ABF810BD70B50026BB
:103670000024002500F08AF806463A48B6FBF0F42C
:1036800039480088A0423DD037490C8040F2B275DD
:1036900010E02846FFF776FB40B1B4F5B77F02D3C0
:1036A000A4F5B77404E0681C85B206E0A4F26D14BA
:1036B000681C85B2B4F5B67FEBD800BF2B480580F7
:1036C000002516E029480088FFF75CFB30B1012D8A
:1036D00004D11D2C01D31D3C09E00CE02448405DC1
:1036E000A04203D82248405D241A00E003E0681C91
:1036F00085B21C2CE6D200BF681C1E490870601CF5
:103700001D4908701748B6FBF0F100FB11644FF437
:103710006160B4FBF0F0194908704FF46160B4FBCC
:10372000F0F100FB11403C21B0FBF1F014490870AE
:103730004FF46160B4FBF0F100FB11403C21B0FBA1
:10374000F1F201FB12000F4908700B48027809489A
:1037500001780648008800F04FF80B4908700020F7
:1037600070BD000080510100080000200000002012
:10377000C45C0008020000200300002004000020B8
:10378000050000200600002007000020002103485B
:103790000188001F008841EA004070471C28004053
:1037A00000B50246FFF728FFC2F303400349088033
:1037B000091D0A80FFF72AFF00BD0000082800400D
:1037C00000BF0348008800F020000028F9D07047AF
:1037D00004280040074800884FF6F7710840054963
:1037E000088000BF0348008800F008000028F9D0D6
:1037F000704700000428004070B5034614460129B4
:1038000001DB0C2901DDFF2070BD012901D0022957
:1038100004D101F10C00C1B2581E83B2481C00EB68
:103820004000052590FBF5F0022505FB01452844E5
:1038300018441A46DD1703EB957500EBA5006425C7
:1038400093FBF5F5401B4FF4C87593FBF5F5284441
:10385000401C072590FBF5F605FB1600C01D90FBEC
:10386000F5F605FB1600C0B2CEE7704710B500F0C4
:1038700001F810BD0CB5002001900090334800689D
:1038800040F480303149086000BF3048006800F4DF
:10389000003000900198401C0190009818B90198E0
:1038A000B0F5A06FF1D12948006800F4003010B1E4
:1038B0000120009001E0002000900098012843D1F1
:1038C0002348006840F0100021490860084600685D
:1038D00020F0030008600846006840F0020008601D
:1038E0001A484068194948600846406848600846D8
:1038F000406840F4806048600846406820F47C10CE
:1039000048600846406840F4E8104860084600688F
:1039100040F08070086000BF0C48006800F0007044
:103920000028F9D00948406820F0030007494860A2
:103930000846406840F00200486000BF0348406805
:1039400000F00C000828F9D10CBD00000010024066
:10395000002002407047000010B51348006840F096
:1039600001001149086008464068104908400E49A6
:103970004860084600680E4908400B490860084640
:10398000006820F4802008600846406820F4FE00AB
:1039900048604FF41F008860FFF768FF4FF0006039
:1039A0000449086010BD0000001002400000FFF84C
:1039B000FFFFF6FE08ED00E010B540F225511F486C
:1039C00000F0F0F8002838D01C4800F0B3F9C4B279
:1039D00021461BA0FCF76AFC1A48008800F400404E
:1039E00058BB1848008800F4804060B10A2C03D00E
:1039F00000201449088020E01248008840F400406C
:103A00001049088019E00D2C06D10E48008840F4BA
:103A100080400C49088010E00A480088C0F30D007F
:103A200009490C5407480088401C0649088008468C
:103A30000088C72801DD0020088010BD0038014043
:103A400025630000100000203000002010B540F277
:103A500025510A4800F0B3F870B1084800F06AF93F
:103A6000C4B2532C03D101200549088004E04B2C3B
:103A700002D102200249088010BD00000048004029
:103A80001200002010B586B0044601210820FFF77F
:103A9000DDFB01218804FFF7C9FB4FF40060ADF89E
:103AA000140004208DF8170005A92048FEF708FE31
:103AB0004FF48060ADF8140003208DF81600182034
:103AC0008DF8170005A91948FEF7FAFD01940020AA
:103AD000ADF80800ADF80A00ADF80C00ADF8100024
:103AE0000C20ADF80E0001A9114800F0B7F8012232
:103AF00040F225510E4800F08CF801210C4800F0EE
:103B000045F84FF4E060FFF76DFA27208DF80000CC
:103B100002208DF801008DF8020001208DF80300CD
:103B20006846FFF727FA06B010BD0000000C014000
:103B3000004800400FB410B5B4B0002437A800907E
:103B4000C92101A8009B369AFCF796FB0EE020469F
:103B5000621CD4B201AA115C0B4800F0F0F800BF5F
:103B60004021094800F01EF80028F9D0C82C04DADA
:103B700001A8FCF795FCA042E9D80020009034B0E1
:103B800010BC5DF814FB00000048004021B18289A0
:103B900042F40052828104E082894DF6FF731A409C
:103BA0008281704702460020B1F5007F00D100BF3E
:103BB00013880B400BB1012000E00020704770B566
:103BC0000246002400230025002040F66A16B14278
:103BD00000D100BFC1F3421501F01F03012606FA10
:103BE00003F3012D02D19689334006E0022D02D164
:103BF000168A334001E0968A33400C12012606FAF9
:103C000004F41688344013B10CB1012000E0002008
:103C100070BDF0B50346002400260025002040F6C4
:103C20006A17B94200D100BF1846C1F3421401F02F
:103C30001F06012707FA06F5012C01D10C3004E01C
:103C4000022C01D1103000E014301AB107682F4364
:103C5000076002E00768AF430760F0BD2DE9F04759
:103C600086B005460E460024A24600BFA1460027A6
:103C7000B08900B100BF2F462C8A4CF6FF7004407B
:103C8000F08804432C82AC894EF6F3100440B088CF
:103C900031890843718908430443AC81AC8A4FF6EB
:103CA000FF400440B0890443AC8201A8FFF746FB03
:103CB0001F48874202D1DDF810A001E0DDF80CA01A
:103CC000A88900F4004040B10AEBCA0000EB0A10DA
:103CD00031684900B0FBF1F807E00AEBCA0000EBDD
:103CE0000A1031688900B0FBF1F86420B8FBF0F0ED
:103CF00004012009642101FB1089A88900F4004017
:103D000040B1322000EBC900B0FBF1F000F0070039
:103D1000044308E0322000EB09106421B0FBF1F00D
:103D200000F00F0004432C8106B0BDE8F0870000CE
:103D30000038014001468888C0F308007047C1F38D
:103D400008028280704700BFFEE7490050EAC120A8
:103D500018BF04204A0D18BF40F0010040F2FF7266
:103D6000B2EB515F08BF40F00200012808BF0520F8
:103D7000704730380A2801D2012070470020704770
:103D8000014600BF704700B5034603E04FF47A7068
:103D900000F006F8181EA3F101018BB2F6D100BDA8
:103DA00000EBC001C9004FF0E02251610021916198
:103DB0000521116100BF4FF0E021096901F4803154
:103DC0000029F8D004214FF0E02211617047000073
:103DD00000BF054A128802F04002002AF9D0C2B2A0
:103DE000014B1B1D1A807047003801408CB04FF00A
:103DF000010900200A90099082468346079001201D
:103E000004900020039002904FF4FA70FFF7BBFF7C
:103E1000FFF73CFAFEF720FD0BA8FEF7E7FFFEF7E1
:103E20003FFBFFF7E9F8FFF7C7FBFEF7EEFAFEF7F7
:103E300046F8FDF7EDFEFFF778F8FEF71DF9FEF7FF
:103E4000BFFFFFF72BF89B20FFF79EF94FF47A7026
:103E5000FFF799FF0820FEF745F800F0FF09B9F1D8
:103E6000010F02DBB9F1030F01DD4FF001090C2056
:103E7000FEF738F806461020FEF734F80546142001
:103E8000FEF730F807461820FEF72CF800F0FF0880
:103E9000632E00DD0026002D01DB632D00DD0025F3
:103EA000B7F5805F00DD0027B8F1630F01DD4FF04B
:103EB0000F08FFF747F90D2200210846FEF7C0FE64
:103EC0000D2210210020FEF7BBFE0D222021002034
:103ED000FEF7B6FE192230210020FEF7B1FE1A22AD
:103EE00040210020FEF7ACFE0D2250210020FEF7FD
:103EF000A7FE0D2260210020FEF7A2FE0D227021F8
:103F00000020FEF79DFEFEF72BF988BB442200211E
:103F10000220FFF7C9F8482208210220FFF7C4F861
:103F2000542210210220FFF7BFF83122182102206D
:103F3000FFF7BAF8312220210220FFF7B5F83A2224
:103F400028210220FFF7B0F81B2230210220FFF7C2
:103F50005BF81C2240210220FFF756F81D22502159
:103F60000220FFF751F84FF47A70FFF70CFF38E0AA
:103F7000FFE7442200210220FFF796F8482208219B
:103F80000220FFF791F8542210210220FFF78CF84D
:103F9000312218210220FFF787F831222021022048
:103FA000FFF782F83A2228210220FFF77DF81F222E
:103FB00030210220FFF728F81C2240210220FFF7C1
:103FC00023F81E2250210220FFF71EF805E0FDF71E
:103FD000A5FF4FF4FA70FFF7D6FEFEF769F8002848
:103FE000F5D108A8FEF714F94FF4FA60FFF7CBFEFD
:103FF00001F02EBEFFF73AFBF9480078032190FB51
:10400000F1F201FB120001280AD10498012807D11E
:104010000BA8FEF7EBFE08A8FEF7FAF800200490C4
:10402000EF480078032190FBF1F201FB1200012818
:1040300003D0049808B90120049000241EE0E94848
:104040000088E94921F81400E6484088E74921F84A
:104050001400E4488088E64921F8140000BF0221DA
:10406000E448FDF77FFE0028F9D00120FFF798FE15
:104070000221E048FDF7BEFD601CC4B20A2CDEDB65
:10408000D94800880690D84800880590002415E09B
:10409000D54830F814100698814203DDD24830F834
:1040A00014000690D04830F814100598814203DAC5
:1040B000CD4830F814000590601CC4B20A2CE7DB30
:1040C000002407E0C84830F8140050441FFA80FA72
:1040D000601CC4B20A2CF5DB0699AAEB0102059913
:1040E000501AC11700EB5171C1F3CF0ABF480088C5
:1040F0000690BE4800880590002415E0BB4830F8C3
:1041000014100698814203DDB84830F81400069078
:10411000B64830F814100598814203DAB34830F8F5
:1041200014000590601CC4B20A2CE7DB002407E0F1
:10413000AE4830F8140058441FFA80FB601CC4B22B
:104140000A2CF5DB0699ABEB01020599501AC11751
:1041500000EB5171C1F3CF0BA54800880690A4482D
:1041600000880590002415E0A14830F81410069846
:10417000814203DD9E4830F8140006909C4830F8D8
:1041800014100598814203DA994830F8140005901C
:10419000601CC4B20A2CE7DB002408E0944830F825
:1041A00014100798084480B20790601CC4B20A2C0F
:1041B000F4DBDDE906218A1A0599501AC11700EBD4
:1041C0005171C1F3CF010791B9F1000F40F3C787D7
:1041D000B9F10B0F7ED009DCB9F1090F7BD2DFE812
:1041E00009F07A20B0FEFDFCFBFAF900B9F13D0FB1
:1041F00072D00CDCB9F1150F6FD0B9F11F0F6DD073
:10420000B9F1290F6BD0B9F1330F64D1FEE3B9F1E5
:10421000470F7CD0B9F1510F7AD0B9F15B0FF4D1CF
:10422000F5E3FEF78FFF312200210846FEF75AFD25
:10423000202208210020FEF755FD0D22102100202C
:10424000FEF7FEFC002220211046FEF7F9FC0122B9
:1042500030210020FEF7F4FC022240210020FEF76E
:10426000EFFC0D2250210020FEF7EAFC0D22602118
:104270000020FEF7E5FC0D2270210020FEF7E0FC97
:104280000E2200210220FEF7BFFE0F221021022085
:10429000FEF7BAFE032220210220FEF7B5FE04221B
:1042A00030210220FEF7B0FE3A2240210220FEF724
:1042B000FBFE102270210220FEF7A6FE0E22002136
:1042C0000420FEF7A1FE0F2210210420FEF79CFE21
:1042D000052205E0D4E3FDE3FDE3FDE3FDE3FDE3BB
:1042E00020210420FEF790FE042230211046FEF724
:1042F0008BFE3A2240210420FEF7D6FE25225821CB
:104300000420FEF7D1FE11220021062001E0E6E3A1
:10431000E6E3FEF779FE122210210620FEF774FE76
:10432000132220210620FEF76FFE142230210620E2
:10433000FEF76AFE49460820FDF7E2FD4FF00B0943
:104340004AE2FEF7FFFE322200210846FEF7CAFCD1
:10435000202208210020FEF7C5FC0D22102100209C
:10436000FEF76EFC0D2220210020FEF769FC0A22D8
:1043700020210020FEF764FC0B2230210020FEF7F4
:104380005FFC0C2240210020FEF75AFC0122502144
:104390000020FEF755FC022260210020FEF750FCB1
:1043A0000D2270210020FEF74BFC4122002102204B
:1043B000FEF77AFE442208210220FEF775FE432212
:1043C00010210220FEF770FE312218210220FEF794
:1043D0006BFE11E0F2E284E2FFE15BE1BCE049E068
:1043E0000600002014000020C0010020D40100209D
:1043F000E8010020002401403A2220210220FEF79B
:1044000053FE412200210420FEF74EFE44220821E3
:104410000420FEF749FE432210210420FEF744FE4B
:10442000322218210420FEF73FFE3A2220210420E8
:10443000FEF73AFE412200210620FEF735FE442217
:1044400008210620FEF730FE432210210620FEF749
:104450002BFE332218210620FEF726FE3A222021C9
:104460000620FEF721FE49460820FDF749FD4FF0E2
:10447000150965E7FEF766FE332200210846FEF7C0
:1044800031FC202208210020FEF72CFC0D221021F7
:104490000020FEF7D5FB062220210020FEF7D0FBEE
:1044A000072230210020FEF7CBFB01224021002013
:1044B000FEF7C6FB022250210020FEF7C1FB0D22B1
:1044C00060210020FEF7BCFB0D2270210020FEF7CA
:1044D000B7FB152200210220FEF796FD03221021D2
:1044E0000220FEF791FD062220210220FEF78CFD1E
:1044F000072230210220FEF787FD1622002104202A
:10450000FEF782FD032210210420FEF77DFD062226
:1045100020210420FEF778FD072230210420FEF739
:1045200073FD082200210620FEF76EFD09221021EE
:104530000620FEF769FD062220211046FEF764FDE5
:10454000072230210620FEF75FFD49460820FDF7CF
:10455000D7FC4FF01F09F3E6FEF7F4FD33220021EC
:104560000846FEF7BFFB2D2208210020FEF7BAFB0C
:10457000312210210020FEF7B5FB20221821002057
:10458000FEF7B0FB0D2220210020FEF759FB15227B
:1045900030210020FEF754FB032240210020FEF7CB
:1045A0004FFB062250210020FEF74AFB0722602124
:1045B0000020FEF745FB0D2270210020FEF740FB96
:1045C000152200210220FEF71FFD032210210220E8
:1045D000FEF71AFD3A2220210220FEF765FD202277
:1045E00028210220FEF77EFB0A2096FBF0F00A212C
:1045F00090FBF1F201FB1200303080B20246302114
:1046000001900220FEF76EFB0A2096FBF0F100FB02
:104610001160303080B20246382101900220FEF74E
:1046200061FB102240210220FEF70AFB1622002126
:104630000420FEF7E9FC032210210420FEF7E4FC2D
:104640003A2220210420FEF72FFD202228210420D9
:10465000FEF72AFD0A2095FBF0F0303080B20246CA
:10466000302101900420FEF71FFD0A2095FBF0F198
:1046700000FB1150303080B20246382101900420F6
:10468000FEF712FD102240210420FEF7BDFC4FF082
:104690002909A1E3FEF756FD332200210846FEF763
:1046A00021FB2D2208210020FEF71CFB32221021C5
:1046B0000020FEF717FB202218210020FEF712FB36
:1046C0000D2220210020FEF7BBFA16223021002007
:1046D000FEF7B6FA032240210020FEF7B1FA0622C7
:1046E00050210020FEF7ACFA072260210020FEF7DF
:1046F000A7FA0D2270210020FEF7A2FA1522002150
:104700000220FEF781FC032210210220FEF77CFC30
:104710003A2220210220FEF7C7FC20222821022075
:10472000FEF7C2FC0A2096FBF0F00A2190FBF1F2A2
:1047300001FB1200303080B202463021019002208D
:10474000FEF7B2FC0A2096FBF0F100FB116030305E
:1047500080B20246382101900220FEF7A5FC10220B
:1047600040210220FEF750FC162200210420FEF713
:104770004BFC032210210420FEF746FC3A222021A4
:104780000420FEF791FC202228210420FEF7AAFA3B
:104790000A2095FBF0F00A2190FBF1F201FB1200D8
:1047A000303080B20246302101900420FEF79AFAA0
:1047B0000A2095FBF0F100FB1150303080B2024628
:1047C000382101900420FEF78DFA102240210420A8
:1047D000FEF736FA4FF03309FEE2FEF7B3FC332260
:1047E00000210846FEF77EFA2D2208210020FEF760
:1047F00079FA332210210020FEF774FA20221821C2
:104800000020FEF76FFA0D2220210020FEF718FA93
:10481000082230210020FEF713FA0922402100204F
:10482000FEF70EFA062250210020FEF709FA0722B1
:1048300060210020FEF704FA0D2270210020FEF70F
:10484000FFF9082200210420FEF7DEFB09221021D7
:104850000420FEF7D9FB3A2220210420FEF724FC95
:10486000202228210420FEF71FFC4FF47A7097FBCA
:10487000F0F0303080B20246302101900420FEF783
:1048800031FA642097FBF0F00A2190FBF1F201FB72
:104890001200303080B20246382101900420FEF729
:1048A00021FA0A2097FBF0F00A2190FBF1F201FBBC
:1048B0001200303080B20246402101900420FEF701
:1048C00011FA0A2097FBF0F100FB1170303080B232
:1048D0000246482101900420FEF704FA4FF03D09FA
:1048E0007AE2FEF72FFC332200210846FEF7FAF9A0
:1048F0002D2208210020FEF7F5F934221021002096
:10490000FEF7F0F9202218210020FEF7EBF90D2226
:1049100020210020FEF794F9052230210020FEF727
:104920008FF9042240210020FEF78AF90622502147
:104930000020FEF785F9072260210020FEF780F9AC
:104940000D2270210020FEF77BF9052200210420B2
:10495000FEF75AFB042210211046FEF755FB3A22BF
:1049600020210420FEF7A0FB202228210420FEF7AE
:104970009BFB0A2098FBF0F00A2190FBF1F201FB6F
:104980001200303080B20246302101900420FEF740
:10499000A9F90A2098FBF0F100FB1180303080B2B9
:1049A0000246382101900420FEF79CF9252240217F
:1049B0000420FEF797F94FF047090DE2FEF7C2FB1E
:1049C000342200210846FEF78DF92022082100201C
:1049D000FEF788F90D2210210020FEF731F9202280
:1049E00011460020FEF72CF9212230210020FEF78D
:1049F00027F94D2240210020FEF774F95522482165
:104A00000020FEF76FF95322502101E0B6E1DCE10E
:104A10000020FEF767F9492258210020FEF762F9CD
:104A2000432260210020FEF75DF92022682100204A
:104A3000FEF758F90D2270210020FEF701F922221D
:104A400000210420FEF7E0FA232210210420FEF7C3
:104A5000DBFA242220210420FEF7D6FA2522302179
:104A60000420FEF7D1FA3A2240210420FEF71CFB75
:104A7000202248210420FEF717FB4FF05109ABE13B
:104A8000F84800780A2190FBF1F0303080B20246FD
:104A9000402101900620FEF707FBF24800780A212A
:104AA00090FBF1F201FB1200303080B20246482147
:104AB00001900620FEF7F8FA3A2250210620FEF770
:104AC000F3FAE94800780A2190FBF1F0303080B227
:104AD000024606E07DE155E195E047E14AE155E116
:104AE00058E1582101900620FEF7DEFADE480078F2
:104AF0000A2190FBF1F201FB1200303080B2024635
:104B0000602101900620FEF7CFFA3A2268210620A4
:104B1000FEF7CAFAD54800780A2190FBF1F0303050
:104B200080B20246702101900620FEF7BDFACF4800
:104B300000780A2190FBF1F201FB1200303080B2C4
:104B40000246782101900620FEF7AEFA9DF82C006F
:104B500028B12D2248210220FEF7A6FA04E02022E7
:104B600048210220FEF7A0FA9DF82D000A2190FBB3
:104B7000F1F0303080B20246502101900220FEF761
:104B800093FA9DF82D000A2190FBF1F201FB12002F
:104B9000303080B20246582101900220FEF784FA9C
:104BA0002E2260210220FEF77FFA9DF82E000A21B6
:104BB00090FBF1F0303080B2024668210190022073
:104BC000FEF772FA9DF820000A2190FBF1F090FBAD
:104BD000F1F201FB1200303080B202464821019010
:104BE0000420FEF761FA9DF820000A2190FBF1F203
:104BF00001FB1200303080B20246502101900420A7
:104C0000FEF752FAE8E04FF47A709AFBF0F0303099
:104C100080B20246282101900220FEF745FA4FF4A7
:104C20007A709AFBF0F100FB11A0642190FBF1F087
:104C3000303080B20246302101900220FEF734FA73
:104C400064209AFBF0F100FB11A00A2190FBF1F027
:104C5000303080B20246382101900220FEF724FA5B
:104C60000A209AFBF0F100FB11A0303080B202461E
:104C7000402101900220FEF717FA4FF47A709BFB57
:104C8000F0F0303080B20246282101900420FEF777
:104C90000BFA4FF47A709BFBF0F100FB11B064212A
:104CA00090FBF1F0303080B20246302101900420B8
:104CB000FEF7FAF964209BFBF0F100FB11B00A212A
:104CC00090FBF1F0303080B2024638210190042090
:104CD000FEF7EAF90A209BFBF0F100FB11B030303F
:104CE00080B20246402101900420FEF7DDF94FF426
:104CF0007A71079890FBF1F0303080B2024628219B
:104D000001900620FEF7D0F94FF47A71079890FBD6
:104D1000F1F201FB1200642190FBF1F0303080B21F
:104D20000246302101900620FEF7BEF96421079863
:104D300090FBF1F201FB12000A2190FBF1F0303000
:104D400080B20246382101900620FEF7ADF90A2113
:104D5000079890FBF1F201FB1200303080B202465E
:104D6000402101900620FEF79FF935E00A20FFF769
:104D70000AF831E01420FFF706F82DE01420FFF7C1
:104D800002F829E00A20FEF7FEFF25E00A20FEF7E0
:104D9000FAFF21E0039850B1262250210420FEF7AB
:104DA00033F91D2260210420FEF72EF909E02722A5
:104DB00050210420FEF728F91E2260210420FEF76E
:104DC00023F90520FEF7DFFF06E00A20FEF7DBFFF0
:104DD00002E04FF0010900BF00BF2548007800281D
:104DE00000F03687B9F10B0FC0F23287B9F1510FDD
:104DF00000F32E87B9F1330F73D00CDCB9F10B0F30
:104E000013D0B9F1150F1ED0B9F11F0F32D0B9F17F
:104E1000290F67D15CE0B9F13D0F7DD0B9F1470FA3
:104E20007BD0B9F1510FF4D13CE011480078012852
:104E300002D14FF0020905E00D480078022801D1A7
:104E40004FF0080986E10A480078012802D14FF0A6
:104E5000030905E006480078022801D14FF0010956
:104E600078E100000400002005000020060000207A
:104E70001A000020FA480078012802D14FF00809F2
:104E80000FE0F7480078022801D1814609E0F44894
:104E90000078032805D101200A904FF00009FDF7A2
:104EA00059F857E1EE480078012801D181460EE01B
:104EB000EB480078022802D14FF0030907E0E848E8
:104EC0000078032803D14FF000090120099041E147
:104ED000E3480078012806D1761C632E1ADD2E46A1
:104EE00018E042E033E1DE480078022804D1761E63
:104EF000AE420FDA63260DE0D9480078032809D1C5
:104F00004FF0000901200A90B1B20C20FCF7F8FF25
:104F1000FDF768F8202201E06FE0C9E028210220B7
:104F2000FDF7E0FE0A2096FBF0F00A2190FBF1F27B
:104F300001FB1200303080B2024630210190022085
:104F4000FDF7D0FE0A2096FBF0F100FB1160303037
:104F500080B20246382101900220FDF7C3FE1022E4
:104F600040210220FDF76CFEF4E0BD4800780128E6
:104F700004D16D1CB54218DD002516E0B848007854
:104F8000022804D16D1E002D0FDA35460DE0B4481D
:104F90000078032809D14FF0000902200A90A9B235
:104FA0001020FCF7ADFFFDF71DF82022282104207A
:104FB000FDF798FE0A2095FBF0F00A2190FBF1F234
:104FC00001FB1200303080B20246302101900420F3
:104FD000FDF788FE0A2095FBF0F100FB1150303000
:104FE00080B20246382101900420FDF77BFE10229A
:104FF00040210420FDF724FEACE099480078012808
:1050000006D1781C87B2B7F5805F17DB002715E063
:1050100093480078022804D107B9C702781E87B2E6
:105020000CE08F480078032808D14FF000090A905F
:1050300039461420FCF764FFFCF7D4FF4FF47A7074
:1050400097FBF0F0303080B202463021019004200E
:10505000FDF748FE642097FBF0F00A2190FBF1F287
:1050600001FB1200303080B202463821019004204A
:10507000FDF738FE0A2097FBF0F00A2190FBF1F2D1
:1050800001FB1200303080B2024640210190042022
:10509000FDF728FE0A2097FBF0F100FB117030307D
:1050A00080B20246482101900420FDF71BFE51E02A
:1050B0006B48007801280CD108F1010000F0FF08CE
:1050C000B8F15A0F02DCB8F10F0F1DDA4FF00F08DC
:1050D0001AE063480078022809D1B8F10F0F01DC0B
:1050E0004FF05B08A8F1010000F0FF080CE05C48FD
:1050F0000078032808D14FF000090A904146182093
:10510000FCF7FEFEFCF76EFF0A2098FBF0F00A2188
:1051100090FBF1F201FB1200303080B202463021E8
:1051200001900420FDF7DEFD0A2098FBF0F100FB62
:105130001180303080B20246382101900420FDF702
:10514000D1FD252240210420FDF7CCFD02E04FF0E7
:10515000010900BF00BF002041490870F4E30A982C
:1051600000287FD00A980B287DD006DC06287BD249
:10517000DFE800F07A0CBFFEFDFC152875D01F2873
:1051800074D0292873D033286ED16EE3FDF7DAFF8F
:10519000332200210846FDF7A5FD2022082100202A
:1051A000FDF7A0FD0D2210210020FDF749FD06228C
:1051B00020210020FDF744FD072230210020FDF7CB
:1051C0003FFD012240210020FDF73AFD022250213F
:1051D0000020FDF735FD0D2260210020FDF730FD98
:1051E0000D2270210020FDF72BFD15220021022049
:1051F000FDF726FD032210210220FDF721FD0622E6
:1052000020210220FDF71CFD072230210220FDF79E
:1052100017FD0D2240210220FDF712FD0D22502125
:105220000220FDF70DFD0D2260210220FDF708FD93
:105230000D2270210220FDF703FD1622002104201B
:10524000FDF7E2FE032210210420FDF7DDFE062219
:1052500020210420FDF7D8FE07223021042007E09A
:105260001A0000209BE3F0E203E3F2E2F5E2F8E249
:10527000FDF7CAFE0D2240210420FDF7C5FE0D22D8
:1052800050210420FDF7C0FE0D2260210420FDF70F
:10529000BBFE0D2270210420FDF7B6FE082200217E
:1052A0000620FDF7B1FE092210210620FDF7ACFE15
:1052B000062220211046FDF7A7FE072230210620F6
:1052C000FDF7A2FE0D2240210620FDF79DFE0D22D6
:1052D00050210620FDF798FE0D2260210620FDF7E3
:1052E00093FE0D2270210620FDF78EFE0B200A9002
:1052F000C2E2FDF727FF332200210846FDF7F2FC4A
:10530000202208210020FDF7EDFC0D2210210020B5
:10531000FDF796FC062220210020FDF791FC0722D4
:1053200030210020FDF78CFC012240210020FDF7F8
:1053300087FC022250210020FDF782FC0D22602113
:105340000020FDF77DFC0D2270210020FDF778FC88
:10535000152200210220FDF757FE03221021022012
:10536000FDF752FE06222021022002E0C3E118E1EF
:105370006DE0FDF749FE072230210220FDF744FED3
:105380000D2240210220FDF73FFE0D225021022078
:10539000FDF73AFE0D2260210220FDF735FE0D22B9
:1053A00070210220FDF730FE162200210420FDF7B7
:1053B00047FC032210210420FDF742FC0622202195
:1053C0000420FDF73DFC072230210420FDF738FCC6
:1053D0000D2240210420FDF733FC0D225021042032
:1053E000FDF72EFC0D2260210420FDF729FC0D2283
:1053F00070210420FDF724FC082200210620FDF77F
:1054000003FE092210210620FDF7FEFD06222021C1
:105410001046FDF7F9FD072230210620FDF7F4FDC7
:105420000D2240210620FDF7EFFD0D225021062020
:10543000FDF7EAFD0D2260210620FDF7E5FD0D22B6
:1054400070210620FDF7E0FD15200A9014E2FDF71B
:1054500079FE332200210846FDF744FC2022082172
:105460000020FDF73FFC0D2210210020FDF7E8FB96
:10547000062220210020FDF7E3FB07223021002037
:10548000FDF7DEFB012240210020FDF7D9FB0222BF
:1054900050210020FDF7D4FB0D2260210020FDF7F4
:1054A000CFFB0D2270210020FDF7CAFB1522002141
:1054B0000220FDF7A9FD032210210220FDF7A4FD23
:1054C000062220210220FDF79FFD07223021022025
:1054D000FDF79AFD0D2240210220FDF795FD0D22DA
:1054E00050210220FDF790FD0D2260210220FDF7E2
:1054F0008BFD0D2270210220FDF786FD1622002172
:105500000420FDF781FD032210210420FDF77CFD1E
:10551000062220210420FDF777FD072230210420F8
:10552000FDF772FD0D2240210420FDF76DFD0D22D7
:1055300050210420FDF768FD0D2260210420FDF7B5
:1055400063FD0D2270210420FDF75EFD082200217D
:105550000620FDF775FB092210210620FDF770FBE0
:10556000062220211046FDF76BFB07223021062082
:10557000FDF766FB0D2240210620FDF761FB0D22A1
:1055800050210620FDF75CFB0D2260210620FDF76F
:1055900057FB0D2270210620FDF752FB1F200A90B9
:1055A0006AE1FDF7CFFD332200210846FDF79AFBA3
:1055B000202208210020FDF795FB0D22102100205C
:1055C000FDF73EFB062220210020FDF739FB0722D4
:1055D00030210020FDF734FB012240210020FDF79F
:1055E0002FFB022250210020FDF72AFB0D22602113
:1055F0000020FDF725FB0D2270210020FDF720FB88
:10560000162200210220FDF7FFFC032210210220B8
:10561000FDF7FAFC062220210220FDF7F5FC072207
:1056200030210220FDF7F0FC0D2240210220FDF781
:10563000EBFC0D2250210220FDF7E6FC0D2260213B
:105640000220FDF7E1FC0D2270210220FDF7DCFCB9
:10565000082200210420FDF7D7FC09221021042094
:10566000FDF7D2FC062220210420FDF7CDFC072205
:1056700030210420FDF7C8FC0D2240210420FDF755
:10568000C3FC0D2250210420FDF7BEFC0D22602139
:105690000420FDF7B9FC0D2270210420FDF7B4FCB5
:1056A000052200210620FDF7CBFA04221021062056
:1056B000FDF7C6FA062220211046FDF7C1FA07229F
:1056C00030210620FDF7BCFA0D2240210620FDF70F
:1056D000B7FA0D2250210620FDF7B2FA0D22602103
:1056E0000620FDF7ADFA0D2270210620FDF7A8FA7D
:1056F00029200A90C0E0FDF725FD3322002108464D
:10570000FDF7F0FA202208210020FDF7EBFA0D2228
:1057100010210020FDF794FA062220210020FDF739
:105720008FFA072230210020FDF78AFA012240215A
:105730000020FDF785FA022250210020FDF780FAB3
:105740000D2260210020FDF77BFA0D227021002040
:10575000FDF776FA082200210220FDF755FC092208
:1057600010210220FDF750FC062220210220FDF727
:105770004BFC072230210220FDF746FC0D22402180
:105780000220FDF741FC0D2250210220FDF73CFCD8
:105790000D2260210220FDF737FC0D22702102202E
:1057A000FDF732FC052200210420FDF72DFC042228
:1057B00010211046FDF728FC062220210420FDF7C9
:1057C00023FC072230210420FDF71EFC0D2240217E
:1057D0000420FDF719FC0D2250210420FDF714FCD4
:1057E0000D2260210420FDF70FFC0D227021042002
:1057F000FDF70AFC172200210620FDF721FA1822E6
:1058000010210620FDF71CFA062220211046FDF784
:1058100017FA072230210620FDF712FA0D22402147
:105820000620FDF70DFA0D2250210620FDF708FA9B
:105830000D2260210620FDF703FA0D2270210620BB
:10584000FDF7FEF933200A9016E03220FEF79BFAAE
:1058500012E03220FEF797FA0EE03220FEF793FABC
:105860000AE03220FEF78FFA06E03220FEF78BFACC
:1058700002E001200A9000BF00BFF648007800282F
:1058800062D00A980B285FDB0A981F2838D004DC06
:105890000B2807D0152878D11BE0292846D03328BB
:1058A00073D15BE0EB480078012802D102200A9016
:1058B0000EE0E8480078022802D105200A9007E0AF
:1058C000E4480078032803D100200A904FF004092F
:1058D00060E0E0480078012802D103200A900EE041
:1058E000DC480078022802D101200A9007E0D9485C
:1058F0000078032803D100200A904FF0050949E001
:10590000D4480078012802D104200A900DE0D14843
:105910000078022801D10A9007E0CE4800780328D9
:1059200003D100200A904FF0060933E0C9480078FF
:10593000012802D105200A900FE0C648007802280D
:1059400003D103200A9008E06EE1C24800780328E2
:1059500003D100200A904FF007091BE0BD480078F2
:10596000012801D10A900FE0BA480078022803D13B
:1059700004200A9008E008E0B6480078032803D124
:1059800000200A904FF0030904E04FF003090020C3
:105990000A9000BF00BF0020AE49087058E1099886
:1059A0000028FBD00998012806D002287AD00B28BD
:1059B00076D0152875D1EFE0FDF7C4FB3422002125
:1059C0000846FDF78FF9202208210020FDF78AF90B
:1059D0000D2210210020FDF733F92022114600206E
:1059E000FDF72EF9212230210020FDF729F94D2263
:1059F00040210020FDF776F9552248210020FDF7CF
:105A000071F9532250210020FDF76CF949225821E9
:105A10000020FDF767F9432260210020FDF762F9BD
:105A2000202268210020FDF75DF90D227021002061
:105A3000FDF706F92D2210210420FDF735FB2D225C
:105A400020210420FDF730FB2D2258210420FDF7F2
:105A50002BFB2D2268210420FDF726FB20220021AC
:105A60000620FDF7D1FA0C2210210620FDF7CCFA12
:105A70002D2220210620FDF717FB20225021062091
:105A8000FDF7C2FA0C2260210620FDF7BDFA2B2299
:105A900070210620FDF708FB0B2009908CE001E047
:105AA00069E084E0FDF74EFB342200210846FDF753
:105AB00019F9202208210020FDF714F90D221021E8
:105AC0000020FDF7BDF8202211460020FDF7B8F8B0
:105AD000212230210020FDF7B3F84D224021002083
